{
    "_format": "hh-sol-artifact-1",
    "contractName": "MockERC721",
    "sourceName": "contracts/mocks/MockERC721.sol",
    "abi": [
        {
            "inputs": [
                {
                    "internalType": "string",
                    "name": "name",
                    "type": "string"
                },
                {
                    "internalType": "string",
                    "name": "symbol",
                    "type": "string"
                }
            ],
            "stateMutability": "nonpayable",
            "type": "constructor"
        },
        {
            "anonymous": false,
            "inputs": [
                {
                    "indexed": true,
                    "internalType": "address",
                    "name": "owner",
                    "type": "address"
                },
                {
                    "indexed": true,
                    "internalType": "address",
                    "name": "approved",
                    "type": "address"
                },
                {
                    "indexed": true,
                    "internalType": "uint256",
                    "name": "tokenId",
                    "type": "uint256"
                }
            ],
            "name": "Approval",
            "type": "event"
        },
        {
            "anonymous": false,
            "inputs": [
                {
                    "indexed": true,
                    "internalType": "address",
                    "name": "owner",
                    "type": "address"
                },
                {
                    "indexed": true,
                    "internalType": "address",
                    "name": "operator",
                    "type": "address"
                },
                {
                    "indexed": false,
                    "internalType": "bool",
                    "name": "approved",
                    "type": "bool"
                }
            ],
            "name": "ApprovalForAll",
            "type": "event"
        },
        {
            "anonymous": false,
            "inputs": [
                {
                    "indexed": true,
                    "internalType": "address",
                    "name": "previousOwner",
                    "type": "address"
                },
                {
                    "indexed": true,
                    "internalType": "address",
                    "name": "newOwner",
                    "type": "address"
                }
            ],
            "name": "OwnershipTransferred",
            "type": "event"
        },
        {
            "anonymous": false,
            "inputs": [
                {
                    "indexed": true,
                    "internalType": "address",
                    "name": "from",
                    "type": "address"
                },
                {
                    "indexed": true,
                    "internalType": "address",
                    "name": "to",
                    "type": "address"
                },
                {
                    "indexed": true,
                    "internalType": "uint256",
                    "name": "tokenId",
                    "type": "uint256"
                }
            ],
            "name": "Transfer",
            "type": "event"
        },
        {
            "inputs": [
                {
                    "internalType": "address",
                    "name": "to",
                    "type": "address"
                },
                {
                    "internalType": "uint256",
                    "name": "tokenId",
                    "type": "uint256"
                }
            ],
            "name": "approve",
            "outputs": [],
            "stateMutability": "nonpayable",
            "type": "function"
        },
        {
            "inputs": [
                {
                    "internalType": "address",
                    "name": "owner",
                    "type": "address"
                }
            ],
            "name": "balanceOf",
            "outputs": [
                {
                    "internalType": "uint256",
                    "name": "",
                    "type": "uint256"
                }
            ],
            "stateMutability": "view",
            "type": "function"
        },
        {
            "inputs": [
                {
                    "internalType": "uint256",
                    "name": "tokenId",
                    "type": "uint256"
                }
            ],
            "name": "getApproved",
            "outputs": [
                {
                    "internalType": "address",
                    "name": "",
                    "type": "address"
                }
            ],
            "stateMutability": "view",
            "type": "function"
        },
        {
            "inputs": [
                {
                    "internalType": "address",
                    "name": "owner",
                    "type": "address"
                },
                {
                    "internalType": "address",
                    "name": "operator",
                    "type": "address"
                }
            ],
            "name": "isApprovedForAll",
            "outputs": [
                {
                    "internalType": "bool",
                    "name": "",
                    "type": "bool"
                }
            ],
            "stateMutability": "view",
            "type": "function"
        },
        {
            "inputs": [],
            "name": "name",
            "outputs": [
                {
                    "internalType": "string",
                    "name": "",
                    "type": "string"
                }
            ],
            "stateMutability": "view",
            "type": "function"
        },
        {
            "inputs": [],
            "name": "owner",
            "outputs": [
                {
                    "internalType": "address",
                    "name": "",
                    "type": "address"
                }
            ],
            "stateMutability": "view",
            "type": "function"
        },
        {
            "inputs": [
                {
                    "internalType": "uint256",
                    "name": "tokenId",
                    "type": "uint256"
                }
            ],
            "name": "ownerOf",
            "outputs": [
                {
                    "internalType": "address",
                    "name": "",
                    "type": "address"
                }
            ],
            "stateMutability": "view",
            "type": "function"
        },
        {
            "inputs": [],
            "name": "renounceOwnership",
            "outputs": [],
            "stateMutability": "nonpayable",
            "type": "function"
        },
        {
            "inputs": [
                {
                    "internalType": "address",
                    "name": "to",
                    "type": "address"
                }
            ],
            "name": "safeMint",
            "outputs": [],
            "stateMutability": "nonpayable",
            "type": "function"
        },
        {
            "inputs": [
                {
                    "internalType": "address",
                    "name": "from",
                    "type": "address"
                },
                {
                    "internalType": "address",
                    "name": "to",
                    "type": "address"
                },
                {
                    "internalType": "uint256",
                    "name": "tokenId",
                    "type": "uint256"
                }
            ],
            "name": "safeTransferFrom",
            "outputs": [],
            "stateMutability": "nonpayable",
            "type": "function"
        },
        {
            "inputs": [
                {
                    "internalType": "address",
                    "name": "from",
                    "type": "address"
                },
                {
                    "internalType": "address",
                    "name": "to",
                    "type": "address"
                },
                {
                    "internalType": "uint256",
                    "name": "tokenId",
                    "type": "uint256"
                },
                {
                    "internalType": "bytes",
                    "name": "data",
                    "type": "bytes"
                }
            ],
            "name": "safeTransferFrom",
            "outputs": [],
            "stateMutability": "nonpayable",
            "type": "function"
        },
        {
            "inputs": [
                {
                    "internalType": "address",
                    "name": "operator",
                    "type": "address"
                },
                {
                    "internalType": "bool",
                    "name": "approved",
                    "type": "bool"
                }
            ],
            "name": "setApprovalForAll",
            "outputs": [],
            "stateMutability": "nonpayable",
            "type": "function"
        },
        {
            "inputs": [
                {
                    "internalType": "bytes4",
                    "name": "interfaceId",
                    "type": "bytes4"
                }
            ],
            "name": "supportsInterface",
            "outputs": [
                {
                    "internalType": "bool",
                    "name": "",
                    "type": "bool"
                }
            ],
            "stateMutability": "view",
            "type": "function"
        },
        {
            "inputs": [],
            "name": "symbol",
            "outputs": [
                {
                    "internalType": "string",
                    "name": "",
                    "type": "string"
                }
            ],
            "stateMutability": "view",
            "type": "function"
        },
        {
            "inputs": [],
            "name": "tokenId",
            "outputs": [
                {
                    "internalType": "uint256",
                    "name": "",
                    "type": "uint256"
                }
            ],
            "stateMutability": "view",
            "type": "function"
        },
        {
            "inputs": [
                {
                    "internalType": "uint256",
                    "name": "tokenId",
                    "type": "uint256"
                }
            ],
            "name": "tokenURI",
            "outputs": [
                {
                    "internalType": "string",
                    "name": "",
                    "type": "string"
                }
            ],
            "stateMutability": "view",
            "type": "function"
        },
        {
            "inputs": [
                {
                    "internalType": "address",
                    "name": "from",
                    "type": "address"
                },
                {
                    "internalType": "address",
                    "name": "to",
                    "type": "address"
                },
                {
                    "internalType": "uint256",
                    "name": "tokenId",
                    "type": "uint256"
                }
            ],
            "name": "transferFrom",
            "outputs": [],
            "stateMutability": "nonpayable",
            "type": "function"
        },
        {
            "inputs": [
                {
                    "internalType": "address",
                    "name": "newOwner",
                    "type": "address"
                }
            ],
            "name": "transferOwnership",
            "outputs": [],
            "stateMutability": "nonpayable",
            "type": "function"
        }
    ],
    "bytecode": "0x60806040523480156200001157600080fd5b50604051620019263803806200192683398101604081905262000034916200019b565b8181600062000044838262000294565b50600162000053828262000294565b505050620000706200006a6200007860201b60201c565b6200007c565b505062000360565b3390565b600680546001600160a01b038381166001600160a01b0319831681179093556040519116919082907f8be0079c531659141344cd1fd0a4f28419497f9722a3daafe3b4186f6b6457e090600090a35050565b634e487b7160e01b600052604160045260246000fd5b600082601f830112620000f657600080fd5b81516001600160401b0380821115620001135762000113620000ce565b604051601f8301601f19908116603f011681019082821181831017156200013e576200013e620000ce565b816040528381526020925086838588010111156200015b57600080fd5b600091505b838210156200017f578582018301518183018401529082019062000160565b83821115620001915760008385830101525b9695505050505050565b60008060408385031215620001af57600080fd5b82516001600160401b0380821115620001c757600080fd5b620001d586838701620000e4565b93506020850151915080821115620001ec57600080fd5b50620001fb85828601620000e4565b9150509250929050565b600181811c908216806200021a57607f821691505b6020821081036200023b57634e487b7160e01b600052602260045260246000fd5b50919050565b601f8211156200028f57600081815260208120601f850160051c810160208610156200026a5750805b601f850160051c820191505b818110156200028b5782815560010162000276565b5050505b505050565b81516001600160401b03811115620002b057620002b0620000ce565b620002c881620002c1845462000205565b8462000241565b602080601f831160018114620003005760008415620002e75750858301515b600019600386901b1c1916600185901b1785556200028b565b600085815260208120601f198616915b82811015620003315788860151825594840194600190910190840162000310565b5085821015620003505787850151600019600388901b60f8161c191681555b5050505050600190811b01905550565b6115b680620003706000396000f3fe608060405234801561001057600080fd5b50600436106101165760003560e01c806370a08231116100a2578063a22cb46511610071578063a22cb4651461022f578063b88d4fde14610242578063c87b56dd14610255578063e985e9c514610268578063f2fde38b146102a457600080fd5b806370a08231146101fb578063715018a61461020e5780638da5cb5b1461021657806395d89b411461022757600080fd5b806317d70f7c116100e957806317d70f7c1461019857806323b872dd146101af57806340d097c3146101c257806342842e0e146101d55780636352211e146101e857600080fd5b806301ffc9a71461011b57806306fdde0314610143578063081812fc14610158578063095ea7b314610183575b600080fd5b61012e6101293660046110dc565b6102b7565b60405190151581526020015b60405180910390f35b61014b610309565b60405161013a9190611151565b61016b610166366004611164565b61039b565b6040516001600160a01b03909116815260200161013a565b610196610191366004611199565b6103c2565b005b6101a160075481565b60405190815260200161013a565b6101966101bd3660046111c3565b6104dc565b6101966101d03660046111ff565b61050d565b6101966101e33660046111c3565b61052d565b61016b6101f6366004611164565b610548565b6101a16102093660046111ff565b6105a8565b61019661062e565b6006546001600160a01b031661016b565b61014b610642565b61019661023d36600461121a565b610651565b61019661025036600461126c565b610660565b61014b610263366004611164565b610698565b61012e610276366004611348565b6001600160a01b03918216600090815260056020908152604080832093909416825291909152205460ff1690565b6101966102b23660046111ff565b61070c565b60006001600160e01b031982166380ac58cd60e01b14806102e857506001600160e01b03198216635b5e139f60e01b145b8061030357506301ffc9a760e01b6001600160e01b03198316145b92915050565b6060600080546103189061137b565b80601f01602080910402602001604051908101604052809291908181526020018280546103449061137b565b80156103915780601f1061036657610100808354040283529160200191610391565b820191906000526020600020905b81548152906001019060200180831161037457829003601f168201915b5050505050905090565b60006103a682610782565b506000908152600460205260409020546001600160a01b031690565b60006103cd82610548565b9050806001600160a01b0316836001600160a01b03160361043f5760405162461bcd60e51b815260206004820152602160248201527f4552433732313a20617070726f76616c20746f2063757272656e74206f776e656044820152603960f91b60648201526084015b60405180910390fd5b336001600160a01b038216148061045b575061045b8133610276565b6104cd5760405162461bcd60e51b815260206004820152603d60248201527f4552433732313a20617070726f76652063616c6c6572206973206e6f7420746f60448201527f6b656e206f776e6572206f7220617070726f76656420666f7220616c6c0000006064820152608401610436565b6104d783836107e1565b505050565b6104e6338261084f565b6105025760405162461bcd60e51b8152600401610436906113b5565b6104d78383836108ce565b61052a8160076000815461052090611418565b9182905550610a3f565b50565b6104d783838360405180602001604052806000815250610660565b6000818152600260205260408120546001600160a01b0316806103035760405162461bcd60e51b8152602060048201526018602482015277115490cdcc8c4e881a5b9d985b1a59081d1bdad95b88125160421b6044820152606401610436565b60006001600160a01b0382166106125760405162461bcd60e51b815260206004820152602960248201527f4552433732313a2061646472657373207a65726f206973206e6f7420612076616044820152683634b21037bbb732b960b91b6064820152608401610436565b506001600160a01b031660009081526003602052604090205490565b610636610a59565b6106406000610ab3565b565b6060600180546103189061137b565b61065c338383610b05565b5050565b61066a338361084f565b6106865760405162461bcd60e51b8152600401610436906113b5565b61069284848484610bd3565b50505050565b60606106a382610782565b60006106ba60408051602081019091526000815290565b905060008151116106da5760405180602001604052806000815250610705565b806106e484610c06565b6040516020016106f5929190611431565b6040516020818303038152906040525b9392505050565b610714610a59565b6001600160a01b0381166107795760405162461bcd60e51b815260206004820152602660248201527f4f776e61626c653a206e6577206f776e657220697320746865207a65726f206160448201526564647265737360d01b6064820152608401610436565b61052a81610ab3565b6000818152600260205260409020546001600160a01b031661052a5760405162461bcd60e51b8152602060048201526018602482015277115490cdcc8c4e881a5b9d985b1a59081d1bdad95b88125160421b6044820152606401610436565b600081815260046020526040902080546001600160a01b0319166001600160a01b038416908117909155819061081682610548565b6001600160a01b03167f8c5be1e5ebec7d5bd14f71427d1e84f3dd0314c0f7b2291e5b200ac8c7c3b92560405160405180910390a45050565b60008061085b83610548565b9050806001600160a01b0316846001600160a01b031614806108a257506001600160a01b0380821660009081526005602090815260408083209388168352929052205460ff165b806108c65750836001600160a01b03166108bb8461039b565b6001600160a01b0316145b949350505050565b826001600160a01b03166108e182610548565b6001600160a01b0316146109075760405162461bcd60e51b815260040161043690611460565b6001600160a01b0382166109695760405162461bcd60e51b8152602060048201526024808201527f4552433732313a207472616e7366657220746f20746865207a65726f206164646044820152637265737360e01b6064820152608401610436565b6109768383836001610c99565b826001600160a01b031661098982610548565b6001600160a01b0316146109af5760405162461bcd60e51b815260040161043690611460565b600081815260046020908152604080832080546001600160a01b03199081169091556001600160a01b0387811680865260038552838620805460001901905590871680865283862080546001019055868652600290945282852080549092168417909155905184937fddf252ad1be2c89b69c2b068fc378daa952ba7f163c4a11628f55a4df523b3ef91a4505050565b61065c828260405180602001604052806000815250610d21565b6006546001600160a01b031633146106405760405162461bcd60e51b815260206004820181905260248201527f4f776e61626c653a2063616c6c6572206973206e6f7420746865206f776e65726044820152606401610436565b600680546001600160a01b038381166001600160a01b0319831681179093556040519116919082907f8be0079c531659141344cd1fd0a4f28419497f9722a3daafe3b4186f6b6457e090600090a35050565b816001600160a01b0316836001600160a01b031603610b665760405162461bcd60e51b815260206004820152601960248201527f4552433732313a20617070726f766520746f2063616c6c6572000000000000006044820152606401610436565b6001600160a01b03838116600081815260056020908152604080832094871680845294825291829020805460ff191686151590811790915591519182527f17307eab39ab6107e8899845ad3d59bd9653f200f220920489ca2b5937696c31910160405180910390a3505050565b610bde8484846108ce565b610bea84848484610d54565b6106925760405162461bcd60e51b8152600401610436906114a5565b60606000610c1383610e55565b600101905060008167ffffffffffffffff811115610c3357610c33611256565b6040519080825280601f01601f191660200182016040528015610c5d576020820181803683370190505b5090508181016020015b600019016f181899199a1a9b1b9c1cb0b131b232b360811b600a86061a8153600a8504945084610c6757509392505050565b6001811115610692576001600160a01b03841615610cdf576001600160a01b03841660009081526003602052604081208054839290610cd99084906114f7565b90915550505b6001600160a01b03831615610692576001600160a01b03831660009081526003602052604081208054839290610d1690849061150e565b909155505050505050565b610d2b8383610f2d565b610d386000848484610d54565b6104d75760405162461bcd60e51b8152600401610436906114a5565b60006001600160a01b0384163b15610e4a57604051630a85bd0160e11b81526001600160a01b0385169063150b7a0290610d98903390899088908890600401611526565b6020604051808303816000875af1925050508015610dd3575060408051601f3d908101601f19168201909252610dd091810190611563565b60015b610e30573d808015610e01576040519150601f19603f3d011682016040523d82523d6000602084013e610e06565b606091505b508051600003610e285760405162461bcd60e51b8152600401610436906114a5565b805181602001fd5b6001600160e01b031916630a85bd0160e11b1490506108c6565b506001949350505050565b60008072184f03e93ff9f4daa797ed6e38ed64bf6a1f0160401b8310610e945772184f03e93ff9f4daa797ed6e38ed64bf6a1f0160401b830492506040015b6d04ee2d6d415b85acef81000000008310610ec0576d04ee2d6d415b85acef8100000000830492506020015b662386f26fc100008310610ede57662386f26fc10000830492506010015b6305f5e1008310610ef6576305f5e100830492506008015b6127108310610f0a57612710830492506004015b60648310610f1c576064830492506002015b600a83106103035760010192915050565b6001600160a01b038216610f835760405162461bcd60e51b815260206004820181905260248201527f4552433732313a206d696e7420746f20746865207a65726f20616464726573736044820152606401610436565b6000818152600260205260409020546001600160a01b031615610fe85760405162461bcd60e51b815260206004820152601c60248201527f4552433732313a20746f6b656e20616c7265616479206d696e746564000000006044820152606401610436565b610ff6600083836001610c99565b6000818152600260205260409020546001600160a01b03161561105b5760405162461bcd60e51b815260206004820152601c60248201527f4552433732313a20746f6b656e20616c7265616479206d696e746564000000006044820152606401610436565b6001600160a01b038216600081815260036020908152604080832080546001019055848352600290915280822080546001600160a01b0319168417905551839291907fddf252ad1be2c89b69c2b068fc378daa952ba7f163c4a11628f55a4df523b3ef908290a45050565b6001600160e01b03198116811461052a57600080fd5b6000602082840312156110ee57600080fd5b8135610705816110c6565b60005b838110156111145781810151838201526020016110fc565b838111156106925750506000910152565b6000815180845261113d8160208601602086016110f9565b601f01601f19169290920160200192915050565b6020815260006107056020830184611125565b60006020828403121561117657600080fd5b5035919050565b80356001600160a01b038116811461119457600080fd5b919050565b600080604083850312156111ac57600080fd5b6111b58361117d565b946020939093013593505050565b6000806000606084860312156111d857600080fd5b6111e18461117d565b92506111ef6020850161117d565b9150604084013590509250925092565b60006020828403121561121157600080fd5b6107058261117d565b6000806040838503121561122d57600080fd5b6112368361117d565b91506020830135801515811461124b57600080fd5b809150509250929050565b634e487b7160e01b600052604160045260246000fd5b6000806000806080858703121561128257600080fd5b61128b8561117d565b93506112996020860161117d565b925060408501359150606085013567ffffffffffffffff808211156112bd57600080fd5b818701915087601f8301126112d157600080fd5b8135818111156112e3576112e3611256565b604051601f8201601f19908116603f0116810190838211818310171561130b5761130b611256565b816040528281528a602084870101111561132457600080fd5b82602086016020830137600060208483010152809550505050505092959194509250565b6000806040838503121561135b57600080fd5b6113648361117d565b91506113726020840161117d565b90509250929050565b600181811c9082168061138f57607f821691505b6020821081036113af57634e487b7160e01b600052602260045260246000fd5b50919050565b6020808252602d908201527f4552433732313a2063616c6c6572206973206e6f7420746f6b656e206f776e6560408201526c1c881bdc88185c1c1c9bdd9959609a1b606082015260800190565b634e487b7160e01b600052601160045260246000fd5b60006001820161142a5761142a611402565b5060010190565b600083516114438184602088016110f9565b8351908301906114578183602088016110f9565b01949350505050565b60208082526025908201527f4552433732313a207472616e736665722066726f6d20696e636f72726563742060408201526437bbb732b960d91b606082015260800190565b60208082526032908201527f4552433732313a207472616e7366657220746f206e6f6e20455243373231526560408201527131b2b4bb32b91034b6b83632b6b2b73a32b960711b606082015260800190565b60008282101561150957611509611402565b500390565b6000821982111561152157611521611402565b500190565b6001600160a01b038581168252841660208201526040810183905260806060820181905260009061155990830184611125565b9695505050505050565b60006020828403121561157557600080fd5b8151610705816110c656fea2646970667358221220110d48716024c792298535c58fc6d1713933ecdb96a33cff5739dcb2b6d314d764736f6c634300080f0033",
    "linkReferences": {},
    "deployedLinkReferences": {}
}