{
  "_format": "hh-sol-artifact-1",
  "contractName": "MainnetEscrow",
  "sourceName": "contracts/MainnetEscrow.sol",
  "abi": [
    {
      "anonymous": false,
      "inputs": [
        {
          "indexed": false,
          "internalType": "address",
          "name": "receiver",
          "type": "address"
        },
        {
          "indexed": false,
          "internalType": "address",
          "name": "assetContract",
          "type": "address"
        },
        {
          "indexed": false,
          "internalType": "bool",
          "name": "isERC721",
          "type": "bool"
        },
        {
          "indexed": false,
          "internalType": "uint256",
          "name": "amountOrNftIdToReceiver",
          "type": "uint256"
        },
        {
          "indexed": false,
          "internalType": "uint256",
          "name": "increaseTotalAmountClaimable",
          "type": "uint256"
        }
      ],
      "name": "CallbackReceived",
      "type": "event"
    },
    {
      "anonymous": false,
      "inputs": [
        {
          "indexed": false,
          "internalType": "address",
          "name": "currency",
          "type": "address"
        }
      ],
      "name": "ERC20CurrencyAdded",
      "type": "event"
    },
    {
      "anonymous": false,
      "inputs": [
        {
          "indexed": false,
          "internalType": "address",
          "name": "currency",
          "type": "address"
        }
      ],
      "name": "ERC20CurrencyRemoved",
      "type": "event"
    },
    {
      "anonymous": false,
      "inputs": [
        {
          "indexed": false,
          "internalType": "uint8",
          "name": "version",
          "type": "uint8"
        }
      ],
      "name": "Initialized",
      "type": "event"
    },
    {
      "anonymous": false,
      "inputs": [
        {
          "indexed": false,
          "internalType": "uint256",
          "name": "oldOpeningFee",
          "type": "uint256"
        },
        {
          "indexed": false,
          "internalType": "uint256",
          "name": "newOpeningFee",
          "type": "uint256"
        }
      ],
      "name": "OpeningFeeUpdated",
      "type": "event"
    },
    {
      "anonymous": false,
      "inputs": [
        {
          "indexed": true,
          "internalType": "address",
          "name": "previousOwner",
          "type": "address"
        },
        {
          "indexed": true,
          "internalType": "address",
          "name": "newOwner",
          "type": "address"
        }
      ],
      "name": "OwnershipTransferred",
      "type": "event"
    },
    {
      "anonymous": false,
      "inputs": [
        {
          "indexed": false,
          "internalType": "address",
          "name": "account",
          "type": "address"
        }
      ],
      "name": "Paused",
      "type": "event"
    },
    {
      "anonymous": false,
      "inputs": [
        {
          "indexed": false,
          "internalType": "address",
          "name": "oldPriceFeedAddress",
          "type": "address"
        },
        {
          "indexed": false,
          "internalType": "address",
          "name": "newPriceFeedAddress",
          "type": "address"
        }
      ],
      "name": "PriceFeedUpdated",
      "type": "event"
    },
    {
      "anonymous": false,
      "inputs": [
        {
          "indexed": false,
          "internalType": "address",
          "name": "assetRaffled",
          "type": "address"
        },
        {
          "indexed": false,
          "internalType": "address",
          "name": "raffleOwner",
          "type": "address"
        },
        {
          "indexed": false,
          "internalType": "enum MainnetEscrow.RaffleType",
          "name": "raffleType",
          "type": "uint8"
        },
        {
          "indexed": false,
          "internalType": "uint128",
          "name": "nftIdOrAmount",
          "type": "uint128"
        },
        {
          "indexed": false,
          "internalType": "address",
          "name": "paymentcurrency",
          "type": "address"
        },
        {
          "indexed": false,
          "internalType": "uint128",
          "name": "pricePerTicket",
          "type": "uint128"
        },
        {
          "indexed": false,
          "internalType": "uint64",
          "name": "numberOfTotalTickets",
          "type": "uint64"
        },
        {
          "indexed": false,
          "internalType": "uint64",
          "name": "minimumTicketsSold",
          "type": "uint64"
        },
        {
          "indexed": false,
          "internalType": "uint64",
          "name": "endTimestamp",
          "type": "uint64"
        },
        {
          "indexed": false,
          "internalType": "bytes32",
          "name": "merkleRoot",
          "type": "bytes32"
        },
        {
          "indexed": false,
          "internalType": "uint256",
          "name": "fairRaffleFee",
          "type": "uint256"
        }
      ],
      "name": "RaffleCreated",
      "type": "event"
    },
    {
      "anonymous": false,
      "inputs": [
        {
          "indexed": false,
          "internalType": "address",
          "name": "oldRelayerAddress",
          "type": "address"
        },
        {
          "indexed": false,
          "internalType": "address",
          "name": "newRelayerAddress",
          "type": "address"
        }
      ],
      "name": "RelayerUpdated",
      "type": "event"
    },
    {
      "anonymous": false,
      "inputs": [
        {
          "indexed": false,
          "internalType": "address",
          "name": "account",
          "type": "address"
        }
      ],
      "name": "Unpaused",
      "type": "event"
    },
    {
      "inputs": [],
      "name": "FAIR_RAFFLE_FEE_DENOMINATOR",
      "outputs": [
        {
          "internalType": "uint256",
          "name": "",
          "type": "uint256"
        }
      ],
      "stateMutability": "view",
      "type": "function"
    },
    {
      "inputs": [],
      "name": "FAIR_RAFFLE_FEE_NUMERATOR",
      "outputs": [
        {
          "internalType": "uint256",
          "name": "",
          "type": "uint256"
        }
      ],
      "stateMutability": "view",
      "type": "function"
    },
    {
      "inputs": [],
      "name": "OPENING_FEE",
      "outputs": [
        {
          "internalType": "uint256",
          "name": "",
          "type": "uint256"
        }
      ],
      "stateMutability": "view",
      "type": "function"
    },
    {
      "inputs": [
        {
          "internalType": "address",
          "name": "_ERC20TokenAddressPolygon",
          "type": "address"
        }
      ],
      "name": "blacklistCurrency",
      "outputs": [],
      "stateMutability": "nonpayable",
      "type": "function"
    },
    {
      "inputs": [
        {
          "internalType": "address",
          "name": "_tokenAddress",
          "type": "address"
        },
        {
          "internalType": "uint128",
          "name": "_amount",
          "type": "uint128"
        },
        {
          "internalType": "address",
          "name": "_currencyInPolygon",
          "type": "address"
        },
        {
          "internalType": "uint128",
          "name": "_pricePerTicket",
          "type": "uint128"
        },
        {
          "internalType": "uint64",
          "name": "_numberOfTickets",
          "type": "uint64"
        },
        {
          "internalType": "uint64",
          "name": "_minimumTicketsSold",
          "type": "uint64"
        },
        {
          "internalType": "uint64",
          "name": "_durationInSeconds",
          "type": "uint64"
        },
        {
          "internalType": "bytes32",
          "name": "_merkleRoot",
          "type": "bytes32"
        }
      ],
      "name": "createERC20Raffle",
      "outputs": [],
      "stateMutability": "payable",
      "type": "function"
    },
    {
      "inputs": [
        {
          "internalType": "address",
          "name": "_nftCollection",
          "type": "address"
        },
        {
          "internalType": "uint128",
          "name": "_nftId",
          "type": "uint128"
        },
        {
          "internalType": "address",
          "name": "_currencyInPolygon",
          "type": "address"
        },
        {
          "internalType": "uint128",
          "name": "_pricePerTicket",
          "type": "uint128"
        },
        {
          "internalType": "uint64",
          "name": "_numberOfTickets",
          "type": "uint64"
        },
        {
          "internalType": "uint64",
          "name": "_minimumTicketsSold",
          "type": "uint64"
        },
        {
          "internalType": "uint64",
          "name": "_durationInSeconds",
          "type": "uint64"
        },
        {
          "internalType": "bytes32",
          "name": "_merkleRoot",
          "type": "bytes32"
        }
      ],
      "name": "createERC721Raffle",
      "outputs": [],
      "stateMutability": "payable",
      "type": "function"
    },
    {
      "inputs": [],
      "name": "currencyPriceFeed",
      "outputs": [
        {
          "internalType": "contract ICurrencyPriceFeed",
          "name": "",
          "type": "address"
        }
      ],
      "stateMutability": "view",
      "type": "function"
    },
    {
      "inputs": [
        {
          "internalType": "address",
          "name": "_tokenAddress",
          "type": "address"
        },
        {
          "internalType": "uint128",
          "name": "_amount",
          "type": "uint128"
        },
        {
          "internalType": "address",
          "name": "_currencyInPolygon",
          "type": "address"
        },
        {
          "internalType": "uint128",
          "name": "_pricePerTicket",
          "type": "uint128"
        },
        {
          "internalType": "uint64",
          "name": "_numberOfTickets",
          "type": "uint64"
        },
        {
          "internalType": "uint64",
          "name": "_minimumTicketsSold",
          "type": "uint64"
        }
      ],
      "name": "fairRaffleFeeERC20",
      "outputs": [
        {
          "internalType": "uint256",
          "name": "",
          "type": "uint256"
        }
      ],
      "stateMutability": "view",
      "type": "function"
    },
    {
      "inputs": [
        {
          "internalType": "address",
          "name": "_currencyInPolygon",
          "type": "address"
        },
        {
          "internalType": "uint128",
          "name": "_pricePerTicket",
          "type": "uint128"
        },
        {
          "internalType": "uint64",
          "name": "_minimumTicketsSold",
          "type": "uint64"
        }
      ],
      "name": "fairRaffleFeeERC721",
      "outputs": [
        {
          "internalType": "uint256",
          "name": "",
          "type": "uint256"
        }
      ],
      "stateMutability": "view",
      "type": "function"
    },
    {
      "inputs": [
        {
          "internalType": "address",
          "name": "_relayer",
          "type": "address"
        },
        {
          "internalType": "address",
          "name": "_priceFeedContract",
          "type": "address"
        }
      ],
      "name": "initialize",
      "outputs": [],
      "stateMutability": "nonpayable",
      "type": "function"
    },
    {
      "inputs": [
        {
          "internalType": "address",
          "name": "_erc20Token",
          "type": "address"
        }
      ],
      "name": "isCurrencyWhitelisted",
      "outputs": [
        {
          "internalType": "bool",
          "name": "",
          "type": "bool"
        }
      ],
      "stateMutability": "view",
      "type": "function"
    },
    {
      "inputs": [],
      "name": "owner",
      "outputs": [
        {
          "internalType": "address",
          "name": "",
          "type": "address"
        }
      ],
      "stateMutability": "view",
      "type": "function"
    },
    {
      "inputs": [],
      "name": "paused",
      "outputs": [
        {
          "internalType": "bool",
          "name": "",
          "type": "bool"
        }
      ],
      "stateMutability": "view",
      "type": "function"
    },
    {
      "inputs": [
        {
          "components": [
            {
              "internalType": "address",
              "name": "receiver",
              "type": "address"
            },
            {
              "internalType": "address",
              "name": "assetContract",
              "type": "address"
            },
            {
              "internalType": "bool",
              "name": "isERC721",
              "type": "bool"
            },
            {
              "internalType": "uint256",
              "name": "amountOrNftIdToReceiver",
              "type": "uint256"
            },
            {
              "internalType": "uint256",
              "name": "increaseTotalAmountClaimable",
              "type": "uint256"
            }
          ],
          "internalType": "struct MainnetEscrow.CallbackInfo[]",
          "name": "callbackArr",
          "type": "tuple[]"
        }
      ],
      "name": "polygonCallback",
      "outputs": [],
      "stateMutability": "nonpayable",
      "type": "function"
    },
    {
      "inputs": [
        {
          "internalType": "address",
          "name": "",
          "type": "address"
        }
      ],
      "name": "polygonTokenToMainnetAddress",
      "outputs": [
        {
          "internalType": "address",
          "name": "",
          "type": "address"
        }
      ],
      "stateMutability": "view",
      "type": "function"
    },
    {
      "inputs": [],
      "name": "priceFeedsEnabled",
      "outputs": [
        {
          "internalType": "bool",
          "name": "",
          "type": "bool"
        }
      ],
      "stateMutability": "view",
      "type": "function"
    },
    {
      "inputs": [],
      "name": "relayer",
      "outputs": [
        {
          "internalType": "address",
          "name": "",
          "type": "address"
        }
      ],
      "stateMutability": "view",
      "type": "function"
    },
    {
      "inputs": [],
      "name": "renounceOwnership",
      "outputs": [],
      "stateMutability": "nonpayable",
      "type": "function"
    },
    {
      "inputs": [
        {
          "internalType": "uint256",
          "name": "_openingFee",
          "type": "uint256"
        }
      ],
      "name": "setOpeningFee",
      "outputs": [],
      "stateMutability": "nonpayable",
      "type": "function"
    },
    {
      "inputs": [
        {
          "internalType": "address",
          "name": "_currencyPriceFeed",
          "type": "address"
        }
      ],
      "name": "setPriceFeed",
      "outputs": [],
      "stateMutability": "nonpayable",
      "type": "function"
    },
    {
      "inputs": [
        {
          "internalType": "address",
          "name": "_relayer",
          "type": "address"
        }
      ],
      "name": "setRelayer",
      "outputs": [],
      "stateMutability": "nonpayable",
      "type": "function"
    },
    {
      "inputs": [],
      "name": "togglePause",
      "outputs": [],
      "stateMutability": "nonpayable",
      "type": "function"
    },
    {
      "inputs": [],
      "name": "togglePriceFeed",
      "outputs": [],
      "stateMutability": "nonpayable",
      "type": "function"
    },
    {
      "inputs": [
        {
          "internalType": "address",
          "name": "",
          "type": "address"
        }
      ],
      "name": "totalAmountClaimable",
      "outputs": [
        {
          "internalType": "uint256",
          "name": "",
          "type": "uint256"
        }
      ],
      "stateMutability": "view",
      "type": "function"
    },
    {
      "inputs": [
        {
          "internalType": "address",
          "name": "newOwner",
          "type": "address"
        }
      ],
      "name": "transferOwnership",
      "outputs": [],
      "stateMutability": "nonpayable",
      "type": "function"
    },
    {
      "inputs": [
        {
          "internalType": "address",
          "name": "_ERC20TokenAddressPolygon",
          "type": "address"
        },
        {
          "internalType": "address",
          "name": "_ERC20TokenAddressMainnet",
          "type": "address"
        }
      ],
      "name": "whitelistCurrency",
      "outputs": [],
      "stateMutability": "nonpayable",
      "type": "function"
    },
    {
      "inputs": [
        {
          "internalType": "address",
          "name": "",
          "type": "address"
        }
      ],
      "name": "whitelistedCurrencies",
      "outputs": [
        {
          "internalType": "bool",
          "name": "",
          "type": "bool"
        }
      ],
      "stateMutability": "view",
      "type": "function"
    },
    {
      "inputs": [
        {
          "internalType": "address[]",
          "name": "_tokenAddress",
          "type": "address[]"
        },
        {
          "internalType": "uint256[]",
          "name": "_amounts",
          "type": "uint256[]"
        },
        {
          "internalType": "address",
          "name": "_receiver",
          "type": "address"
        }
      ],
      "name": "withdrawFees",
      "outputs": [],
      "stateMutability": "nonpayable",
      "type": "function"
    }
  ],
  "bytecode": "0x608060405234801561001057600080fd5b50612e34806100206000396000f3fe6080604052600436106101b75760003560e01c8063724e78da116100ec578063a21afc761161008a578063c4ae316811610064578063c4ae3168146104e7578063da653f00146104fc578063f2fde38b1461051c578063fcc76b801461053c57600080fd5b8063a21afc7614610492578063b3f8d40d146104bf578063c2f90a2b146104d257600080fd5b80638406c079116100c65780638406c079146103fe578063863759941461041e5780638da5cb5b1461043e57806395e3d9ab1461045c57600080fd5b8063724e78da14610386578063744476b6146103a65780637b631da5146103c657600080fd5b80634e4d58bb116101595780636548e9bc116101335780636548e9bc1461032157806366998e5014610341578063697ca93014610357578063715018a61461037157600080fd5b80634e4d58bb146102d357806352defbd0146102e95780635c975abb1461030957600080fd5b806334f65fa21161019557806334f65fa21461021a578063436cc1381461023a57806343b938c51461027a578063485cc955146102b357600080fd5b806323bbcb29146101bc5780632bf78dd8146101d157806331f91a84146101fa575b600080fd5b6101cf6101ca36600461255d565b61055c565b005b3480156101dd57600080fd5b506101e760985481565b6040519081526020015b60405180910390f35b34801561020657600080fd5b506101cf61021536600461263c565b61092c565b34801561022657600080fd5b506101cf6102353660046126bf565b610aa8565b34801561024657600080fd5b5061026a6102553660046126f8565b60976020526000908152604090205460ff1681565b60405190151581526020016101f1565b34801561028657600080fd5b5061026a6102953660046126f8565b6001600160a01b031660009081526097602052604090205460ff1690565b3480156102bf57600080fd5b506101cf6102ce3660046126bf565b610b93565b3480156102df57600080fd5b506101e76101f481565b3480156102f557600080fd5b506101cf6103043660046126f8565b610d76565b34801561031557600080fd5b5060655460ff1661026a565b34801561032d57600080fd5b506101cf61033c3660046126f8565b610e3d565b34801561034d57600080fd5b506101e761271081565b34801561036357600080fd5b50609d5461026a9060ff1681565b34801561037d57600080fd5b506101cf610eae565b34801561039257600080fd5b506101cf6103a13660046126f8565b610ec2565b3480156103b257600080fd5b506101e76103c136600461271c565b610f33565b3480156103d257600080fd5b50609b546103e6906001600160a01b031681565b6040516001600160a01b0390911681526020016101f1565b34801561040a57600080fd5b50609a546103e6906001600160a01b031681565b34801561042a57600080fd5b506101cf610439366004612761565b611137565b34801561044a57600080fd5b506033546001600160a01b03166103e6565b34801561046857600080fd5b506103e66104773660046126f8565b609c602052600090815260409020546001600160a01b031681565b34801561049e57600080fd5b506101e76104ad3660046126f8565b60996020526000908152604090205481565b6101cf6104cd36600461255d565b611180565b3480156104de57600080fd5b506101cf6114f7565b3480156104f357600080fd5b506101cf611513565b34801561050857600080fd5b506101e761051736600461277a565b611535565b34801561052857600080fd5b506101cf6105373660046126f8565b611986565b34801561054857600080fd5b506101cf61055736600461286e565b6119ff565b610564611e55565b6040516331a9108f60e11b81526001600160801b03881660048201526001600160a01b03891690636352211e90602401602060405180830381865afa1580156105b1573d6000803e3d6000fd5b505050506040513d601f19601f820116820180604052508101906105d59190612970565b6001600160a01b0316336001600160a01b03161461063a5760405162461bcd60e51b815260206004820152601760248201527f596f7520646f206e6f74206f776e2074686973204e465400000000000000000060448201526064015b60405180910390fd5b6001600160a01b03861660009081526097602052604090205460ff166106a25760405162461bcd60e51b815260206004820181905260248201527f546869732063757272656e6379206973206e6f742077686974656c69737465646044820152606401610631565b6001846001600160401b0316116106cb5760405162461bcd60e51b81526004016106319061298d565b836001600160401b0316836001600160401b031611156106fd5760405162461bcd60e51b8152600401610631906129d1565b600061070a878786610f33565b90508060985461071a9190612a35565b341461075e5760405162461bcd60e51b8152602060048201526013602482015272125b98dbdc9c9958dd081999595cc81cd95b9d606a1b6044820152606401610631565b6098546000805260996020527f235d629dc802037ded8c61cb27fb29e40fa01b299719d8f991ffe20bdcc59f4f805490910190556040516323b872dd60e01b81523360048201523060248201526001600160801b03891660448201526001600160a01b038a16906323b872dd90606401600060405180830381600087803b1580156107e857600080fd5b505af11580156107fc573d6000803e3d6000fd5b50506040516331a9108f60e11b81526001600160801b038b1660048201526001600160a01b038c169250636352211e9150602401602060405180830381865afa15801561084d573d6000803e3d6000fd5b505050506040513d601f19601f820116820180604052508101906108719190612970565b6001600160a01b0316306001600160a01b0316146108c35760405162461bcd60e51b815260206004820152600f60248201526e151c985b9cd9995c8819985a5b1959608a1b6044820152606401610631565b7fb26c0bf32d8d3eff0d0561d0b30f4bf8962a18678833b276fcbbe06c48e9eaaa893360008b8b8b8b8b6109006001600160401b038d1642612a35565b8b8b6040516109199b9a99989796959493929190612a4d565b60405180910390a1505050505050505050565b610934611e9b565b838281146109845760405162461bcd60e51b815260206004820152601a60248201527f4172726179206c656e6774687320646f206e6f74206d617463680000000000006044820152606401610631565b60008060005b83811015610a9d578888828181106109a4576109a4612b06565b90506020020160208101906109b991906126f8565b91508686828181106109cd576109cd612b06565b90506020020135925060996000836001600160a01b03166001600160a01b0316815260200190815260200160002054831115610a3d5760405162461bcd60e51b815260206004820152600f60248201526e082dadeeadce840e8dede40d0d2ced608b1b6044820152606401610631565b6001600160a01b038216610a5a57610a558584611ef5565b610a6e565b610a6e6001600160a01b0383168685612039565b6001600160a01b038216600090815260996020526040902080548490039055610a9681612b1c565b905061098a565b505050505050505050565b610ab0611e9b565b6001600160a01b03821660009081526097602052604090205460ff1615610b195760405162461bcd60e51b815260206004820152601c60248201527f546f6b656e20697320616c72656164792077686974656c6973746564000000006044820152606401610631565b6001600160a01b0382811660008181526097602090815260408083208054600160ff19909116179055609c82529182902080546001600160a01b03191694861694909417909355519081527f5c6cf68a9d7e416d0eee740661627dd794257920f1c63ddae6c6af81d02d12ea910160405180910390a15050565b600054610100900460ff1615808015610bb35750600054600160ff909116105b80610bcd5750303b158015610bcd575060005460ff166001145b610c305760405162461bcd60e51b815260206004820152602e60248201527f496e697469616c697a61626c653a20636f6e747261637420697320616c72656160448201526d191e481a5b9a5d1a585b1a5e995960921b6064820152608401610631565b6000805460ff191660011790558015610c53576000805461ff0019166101001790555b610c5b61209c565b610c636120cb565b609a80546001600160a01b038086166001600160a01b031992831617909255609b805492851692821692909217909155609d805460ff1990811660019081179092557382af49447d8a07e3bd95bd0d56f35241523fbab16000527fc59bc48826184c7eab8199239e6a7738bae28355797aa8105480c1a521302ff480549091169091179055609c6020527f3342f8a663f486592928d2b60689100ce92569da960dd5bb442ad3227d28cee6805490911673c02aaa39b223fe8d0a0e5c4f27ead9083c756cc21790558015610d71576000805461ff0019169055604051600181527f7f26b83ff96e1f2b6a682f133852f6798a09c465da95921460cefb38474024989060200160405180910390a15b505050565b610d7e611e9b565b6001600160a01b03811660009081526097602052604090205460ff16610de65760405162461bcd60e51b815260206004820152601860248201527f546f6b656e206973206e6f742077686974656c697374656400000000000000006044820152606401610631565b6001600160a01b038116600081815260976020908152604091829020805460ff1916905590519182527f0dc0548bc90523a9e943ea77d199875fdc1e4f8a419b6d53a595b5e6671480e5910160405180910390a150565b610e45611e9b565b609a54604080516001600160a01b03928316815291831660208301527f605ca4e43489fb38b91aa63dd9147cd3847957694b080b9285ec898b34269f0c910160405180910390a1609a80546001600160a01b0319166001600160a01b0392909216919091179055565b610eb6611e9b565b610ec060006120fa565b565b610eca611e9b565b609b54604080516001600160a01b03928316815291831660208301527fa8abe0398416476db5b05737cd4da3b3cbde5012d978a6a6c3fd49d321753536910160405180910390a1609b80546001600160a01b0319166001600160a01b0392909216919091179055565b6001600160a01b038084166000908152609c6020908152604080832054815163313ce56760e01b815291519394859491169263313ce56792600480820193918290030181865afa158015610f8b573d6000803e3d6000fd5b505050506040513d601f19601f82011682018060405250810190610faf9190612b35565b610fba90600a612c3e565b609b546001600160a01b038781166000908152609c60205260409081902054905163a4b943fb60e01b815290821660048201526001600160401b038716926001600160801b03891692169063a4b943fb90602401602060405180830381865afa15801561102b573d6000803e3d6000fd5b505050506040513d601f19601f8201168201806040525081019061104f9190612c4d565b6110599190612c66565b6110639190612c66565b61106d9190612c9b565b905060006127106110806101f484612c66565b61108a9190612c9b565b609b5460405163a4b943fb60e01b815273eeeeeeeeeeeeeeeeeeeeeeeeeeeeeeeeeeeeeeee60048201529192506000916001600160a01b039091169063a4b943fb90602401602060405180830381865afa1580156110ec573d6000803e3d6000fd5b505050506040513d601f19601f820116820180604052508101906111109190612c4d565b61112283670de0b6b3a7640000612c66565b61112c9190612c9b565b979650505050505050565b61113f611e9b565b60985460408051918252602082018390527f9dc2340c6769757c8d7dfe3a65a3f1e297ed8f919bed31501223ac8aa85dc63d910160405180910390a1609855565b611188611e55565b6001600160a01b03861660009081526097602052604090205460ff166111f05760405162461bcd60e51b815260206004820181905260248201527f546869732063757272656e6379206973206e6f742077686974656c69737465646044820152606401610631565b6001846001600160401b0316116112195760405162461bcd60e51b81526004016106319061298d565b836001600160401b0316836001600160401b0316111561124b5760405162461bcd60e51b8152600401610631906129d1565b600061125b898989898989611535565b90506001600160a01b0389166112c957609854611281906001600160801b038a16612a35565b34146112c45760405162461bcd60e51b8152602060048201526012602482015271125b98dbdc9c9958dd08199959481cd95b9d60721b6044820152606401610631565b611476565b609854341461131a5760405162461bcd60e51b815260206004820152601a60248201527f496e636f7272656374204f50454e494e475f4645452073656e740000000000006044820152606401610631565b6040516370a0823160e01b81523060048201526000906001600160a01b038b16906370a0823190602401602060405180830381865afa158015611361573d6000803e3d6000fd5b505050506040513d601f19601f820116820180604052508101906113859190612c4d565b90506113a56001600160a01b038b1633306001600160801b038d1661214c565b6040516370a0823160e01b81523060048201526000906001600160a01b038c16906370a0823190602401602060405180830381865afa1580156113ec573d6000803e3d6000fd5b505050506040513d601f19601f820116820180604052508101906114109190612c4d565b905061141c8282612caf565b8a6001600160801b0316146114735760405162461bcd60e51b815260206004820152601b60248201527f455243323020746f6b656e207472616e73666572206661696c656400000000006044820152606401610631565b50505b609854600080805260996020527f235d629dc802037ded8c61cb27fb29e40fa01b299719d8f991ffe20bdcc59f4f80549091906114b4908490612a35565b909155507fb26c0bf32d8d3eff0d0561d0b30f4bf8962a18678833b276fcbbe06c48e9eaaa9050893360018b8b8b8b8b6109006001600160401b038d1642612a35565b6114ff611e9b565b609d805460ff19811660ff90911615179055565b61151b611e9b565b60655460ff1661152d57610ec0612184565b610ec06121de565b609d54600090819060ff16611581576127106101f461155d876001600160401b038716612cc6565b6001600160801b03166115709190612c66565b61157a9190612c9b565b905061112c565b60006001600160a01b03891661164557609b5460405163a4b943fb60e01b815273c02aaa39b223fe8d0a0e5c4f27ead9083c756cc2600482018190529a50670de0b6b3a7640000916001600160801b038b16916001600160a01b039091169063a4b943fb90602401602060405180830381865afa158015611606573d6000803e3d6000fd5b505050506040513d601f19601f8201168201806040525081019061162a9190612c4d565b6116349190612c66565b61163e9190612c9b565b9050611740565b886001600160a01b031663313ce5676040518163ffffffff1660e01b8152600401602060405180830381865afa158015611683573d6000803e3d6000fd5b505050506040513d601f19601f820116820180604052508101906116a79190612b35565b6116b290600a612c3e565b609b5460405163a4b943fb60e01b81526001600160a01b038c811660048301526001600160801b038c1692169063a4b943fb90602401602060405180830381865afa158015611705573d6000803e3d6000fd5b505050506040513d601f19601f820116820180604052508101906117299190612c4d565b6117339190612c66565b61173d9190612c9b565b90505b6001600160a01b038088166000908152609c6020908152604080832054815163313ce56760e01b815291519394169263313ce567926004808401939192918290030181865afa158015611797573d6000803e3d6000fd5b505050506040513d601f19601f820116820180604052508101906117bb9190612b35565b6117c690600a612c3e565b609b546001600160a01b038a81166000908152609c60205260409081902054905163a4b943fb60e01b815290821660048201526001600160801b038b16926001600160401b038b1692169063a4b943fb90602401602060405180830381865afa158015611837573d6000803e3d6000fd5b505050506040513d601f19601f8201168201806040525081019061185b9190612c4d565b6118659190612c66565b61186f9190612c66565b6118799190612c9b565b905060008261188a83612710612c66565b6118949190612c9b565b905061271081116118a85760009350611978565b612710811180156118bb5750612af88111155b156118fc576127106118d6896001600160401b038916612cc6565b6118e2906101f4612cc6565b6118ec9190612cf5565b6001600160801b03169350611978565b612af88111801561190f57506130d48111155b156119365761271061192a896001600160401b038916612cc6565b6118e2906103e8612cc6565b6130d481111561197857612710611956896001600160401b038916612cc6565b611962906107d0612cc6565b61196c9190612cf5565b6001600160801b031693505b505050979650505050505050565b61198e611e9b565b6001600160a01b0381166119f35760405162461bcd60e51b815260206004820152602660248201527f4f776e61626c653a206e6577206f776e657220697320746865207a65726f206160448201526564647265737360d01b6064820152608401610631565b6119fc816120fa565b50565b609a546001600160a01b03163314611a475760405162461bcd60e51b815260206004820152600b60248201526a27b7363ca932b630bcb2b960a91b6044820152606401610631565b805160005b81811015610d7157828181518110611a6657611a66612b06565b60200260200101516040015115611b875760006001600160a01b0316838281518110611a9457611a94612b06565b6020026020010151600001516001600160a01b031614611b8257828181518110611ac057611ac0612b06565b6020026020010151602001516001600160a01b03166323b872dd30858481518110611aed57611aed612b06565b602002602001015160000151868581518110611b0b57611b0b612b06565b6020908102919091010151606001516040516001600160e01b031960e086901b1681526001600160a01b0393841660048201529290911660248301526044820152606401600060405180830381600087803b158015611b6957600080fd5b505af1158015611b7d573d6000803e3d6000fd5b505050505b611cae565b60006001600160a01b0316838281518110611ba457611ba4612b06565b6020026020010151600001516001600160a01b031614611cae5760006001600160a01b0316838281518110611bdb57611bdb612b06565b6020026020010151602001516001600160a01b031603611c3957611b82838281518110611c0a57611c0a612b06565b602002602001015160000151848381518110611c2857611c28612b06565b602002602001015160600151611ef5565b611cae838281518110611c4e57611c4e612b06565b602002602001015160000151848381518110611c6c57611c6c612b06565b602002602001015160600151858481518110611c8a57611c8a612b06565b6020026020010151602001516001600160a01b03166120399092919063ffffffff16565b6000838281518110611cc257611cc2612b06565b6020026020010151608001511115611d4957828181518110611ce657611ce6612b06565b60200260200101516080015160996000858481518110611d0857611d08612b06565b6020026020010151602001516001600160a01b03166001600160a01b031681526020019081526020016000206000828254611d439190612a35565b90915550505b7ffdf87137985fce097c2059f7e3bd28b9104995cad66709fdecbaa5e8e48da9af838281518110611d7c57611d7c612b06565b602002602001015160000151848381518110611d9a57611d9a612b06565b602002602001015160200151858481518110611db857611db8612b06565b602002602001015160400151868581518110611dd657611dd6612b06565b602002602001015160600151878681518110611df457611df4612b06565b602002602001015160800151604051611e3d9594939291906001600160a01b03958616815293909416602084015290151560408301526060820152608081019190915260a00190565b60405180910390a1611e4e81612b1c565b9050611a4c565b60655460ff1615610ec05760405162461bcd60e51b815260206004820152601060248201526f14185d5cd8589b194e881c185d5cd95960821b6044820152606401610631565b6033546001600160a01b03163314610ec05760405162461bcd60e51b815260206004820181905260248201527f4f776e61626c653a2063616c6c6572206973206e6f7420746865206f776e65726044820152606401610631565b80471015611f455760405162461bcd60e51b815260206004820152601e60248201527f5f68616e646c6545746865725472616e7366657220696e736f6c76656e7400006044820152606401610631565b60005a90506000836001600160a01b0316838390604051600060405180830381858888f193505050503d8060008114611f9a576040519150601f19603f3d011682016040523d82523d6000602084013e611f9f565b606091505b50509050806120335773c02aaa39b223fe8d0a0e5c4f27ead9083c756cc26001600160a01b031663d0e30db0846040518263ffffffff1660e01b81526004016000604051808303818588803b158015611ff757600080fd5b505af115801561200b573d6000803e3d6000fd5b50612033935073c02aaa39b223fe8d0a0e5c4f27ead9083c756cc29250879150869050612039565b50505050565b6040516001600160a01b038316602482015260448101829052610d7190849063a9059cbb60e01b906064015b60408051601f198184030181529190526020810180516001600160e01b03166001600160e01b031990931692909217909152612217565b600054610100900460ff166120c35760405162461bcd60e51b815260040161063190612d1b565b610ec06122e9565b600054610100900460ff166120f25760405162461bcd60e51b815260040161063190612d1b565b610ec0612319565b603380546001600160a01b038381166001600160a01b0319831681179093556040519116919082907f8be0079c531659141344cd1fd0a4f28419497f9722a3daafe3b4186f6b6457e090600090a35050565b6040516001600160a01b03808516602483015283166044820152606481018290526120339085906323b872dd60e01b90608401612065565b61218c611e55565b6065805460ff191660011790557f62e78cea01bee320cd4e420270b5ea74000d11b0c9f74754ebdbfc544b05a2586121c13390565b6040516001600160a01b03909116815260200160405180910390a1565b6121e661234c565b6065805460ff191690557f5db9ee0a495bf2e6ff9c91a7834c1ba4fdd244a5e8aa4e537bd38aeae4b073aa336121c1565b600061226c826040518060400160405280602081526020017f5361666545524332303a206c6f772d6c6576656c2063616c6c206661696c6564815250856001600160a01b03166123959092919063ffffffff16565b805190915015610d71578080602001905181019061228a9190612d66565b610d715760405162461bcd60e51b815260206004820152602a60248201527f5361666545524332303a204552433230206f7065726174696f6e20646964206e6044820152691bdd081cdd58d8d9595960b21b6064820152608401610631565b600054610100900460ff166123105760405162461bcd60e51b815260040161063190612d1b565b610ec0336120fa565b600054610100900460ff166123405760405162461bcd60e51b815260040161063190612d1b565b6065805460ff19169055565b60655460ff16610ec05760405162461bcd60e51b815260206004820152601460248201527314185d5cd8589b194e881b9bdd081c185d5cd95960621b6044820152606401610631565b60606123a484846000856123ac565b949350505050565b60608247101561240d5760405162461bcd60e51b815260206004820152602660248201527f416464726573733a20696e73756666696369656e742062616c616e636520666f6044820152651c8818d85b1b60d21b6064820152608401610631565b600080866001600160a01b031685876040516124299190612daf565b60006040518083038185875af1925050503d8060008114612466576040519150601f19603f3d011682016040523d82523d6000602084013e61246b565b606091505b509150915061112c87838387606083156124e65782516000036124df576001600160a01b0385163b6124df5760405162461bcd60e51b815260206004820152601d60248201527f416464726573733a2063616c6c20746f206e6f6e2d636f6e74726163740000006044820152606401610631565b50816123a4565b6123a483838151156124fb5781518083602001fd5b8060405162461bcd60e51b81526004016106319190612dcb565b6001600160a01b03811681146119fc57600080fd5b80356001600160801b038116811461254157600080fd5b919050565b80356001600160401b038116811461254157600080fd5b600080600080600080600080610100898b03121561257a57600080fd5b883561258581612515565b975061259360208a0161252a565b965060408901356125a381612515565b95506125b160608a0161252a565b94506125bf60808a01612546565b93506125cd60a08a01612546565b92506125db60c08a01612546565b915060e089013590509295985092959890939650565b60008083601f84011261260357600080fd5b5081356001600160401b0381111561261a57600080fd5b6020830191508360208260051b850101111561263557600080fd5b9250929050565b60008060008060006060868803121561265457600080fd5b85356001600160401b038082111561266b57600080fd5b61267789838a016125f1565b9097509550602088013591508082111561269057600080fd5b5061269d888289016125f1565b90945092505060408601356126b181612515565b809150509295509295909350565b600080604083850312156126d257600080fd5b82356126dd81612515565b915060208301356126ed81612515565b809150509250929050565b60006020828403121561270a57600080fd5b813561271581612515565b9392505050565b60008060006060848603121561273157600080fd5b833561273c81612515565b925061274a6020850161252a565b915061275860408501612546565b90509250925092565b60006020828403121561277357600080fd5b5035919050565b60008060008060008060c0878903121561279357600080fd5b863561279e81612515565b95506127ac6020880161252a565b945060408701356127bc81612515565b93506127ca6060880161252a565b92506127d860808801612546565b91506127e660a08801612546565b90509295509295509295565b634e487b7160e01b600052604160045260246000fd5b60405160a081016001600160401b038111828210171561282a5761282a6127f2565b60405290565b604051601f8201601f191681016001600160401b0381118282101715612858576128586127f2565b604052919050565b80151581146119fc57600080fd5b6000602080838503121561288157600080fd5b82356001600160401b038082111561289857600080fd5b818501915085601f8301126128ac57600080fd5b8135818111156128be576128be6127f2565b6128cc848260051b01612830565b818152848101925060a09182028401850191888311156128eb57600080fd5b938501935b828510156129645780858a0312156129085760008081fd5b612910612808565b853561291b81612515565b81528587013561292a81612515565b8188015260408681013561293d81612860565b908201526060868101359082015260808087013590820152845293840193928501926128f0565b50979650505050505050565b60006020828403121561298257600080fd5b815161271581612515565b60208082526024908201527f526166666c6573206d7573742068617665206174206c656173742032207469636040820152636b65747360e01b606082015260800190565b6020808252602e908201527f5f6d696e696d756d5469636b657473536f6c642073686f756c64203c3d205f6e60408201526d756d6265724f665469636b65747360901b606082015260800190565b634e487b7160e01b600052601160045260246000fd5b60008219821115612a4857612a48612a1f565b500190565b6001600160a01b038c811682528b166020820152610160810160028b10612a8457634e487b7160e01b600052602160045260246000fd5b8a6040830152612a9f606083018b6001600160801b03169052565b6001600160a01b03891660808301526001600160801b03881660a08301526001600160401b03871660c08301526001600160401b03861660e08301526001600160401b03851661010083015261012082019390935261014001529998505050505050505050565b634e487b7160e01b600052603260045260246000fd5b600060018201612b2e57612b2e612a1f565b5060010190565b600060208284031215612b4757600080fd5b815160ff8116811461271557600080fd5b600181815b80851115612b93578160001904821115612b7957612b79612a1f565b80851615612b8657918102915b93841c9390800290612b5d565b509250929050565b600082612baa57506001612c38565b81612bb757506000612c38565b8160018114612bcd5760028114612bd757612bf3565b6001915050612c38565b60ff841115612be857612be8612a1f565b50506001821b612c38565b5060208310610133831016604e8410600b8410161715612c16575081810a612c38565b612c208383612b58565b8060001904821115612c3457612c34612a1f565b0290505b92915050565b600061271560ff841683612b9b565b600060208284031215612c5f57600080fd5b5051919050565b6000816000190483118215151615612c8057612c80612a1f565b500290565b634e487b7160e01b600052601260045260246000fd5b600082612caa57612caa612c85565b500490565b600082821015612cc157612cc1612a1f565b500390565b60006001600160801b0380831681851681830481118215151615612cec57612cec612a1f565b02949350505050565b60006001600160801b0380841680612d0f57612d0f612c85565b92169190910492915050565b6020808252602b908201527f496e697469616c697a61626c653a20636f6e7472616374206973206e6f74206960408201526a6e697469616c697a696e6760a81b606082015260800190565b600060208284031215612d7857600080fd5b815161271581612860565b60005b83811015612d9e578181015183820152602001612d86565b838111156120335750506000910152565b60008251612dc1818460208701612d83565b9190910192915050565b6020815260008251806020840152612dea816040850160208701612d83565b601f01601f1916919091016040019291505056fea26469706673582212208ee6f6bfaac2fc41f8caf44fe57cb14be708aeaf85eac66824d5603072911ef764736f6c634300080f0033",
  "linkReferences": {},
  "deployedLinkReferences": {}
}