{
  "abi": [
    {
      "anonymous": false,
      "inputs": [
        {
          "indexed": false,
          "internalType": "address",
          "name": "receiver",
          "type": "address"
        },
        {
          "indexed": false,
          "internalType": "address",
          "name": "assetContract",
          "type": "address"
        },
        {
          "indexed": false,
          "internalType": "bool",
          "name": "isERC721",
          "type": "bool"
        },
        {
          "indexed": false,
          "internalType": "uint256",
          "name": "amountOrNftIdToReceiver",
          "type": "uint256"
        },
        {
          "indexed": false,
          "internalType": "uint256",
          "name": "increaseTotalAmountClaimable",
          "type": "uint256"
        }
      ],
      "name": "CallbackReceived",
      "type": "event"
    },
    {
      "anonymous": false,
      "inputs": [
        {
          "indexed": false,
          "internalType": "address",
          "name": "currency",
          "type": "address"
        }
      ],
      "name": "ERC20CurrencyAdded",
      "type": "event"
    },
    {
      "anonymous": false,
      "inputs": [
        {
          "indexed": false,
          "internalType": "address",
          "name": "currency",
          "type": "address"
        }
      ],
      "name": "ERC20CurrencyRemoved",
      "type": "event"
    },
    {
      "anonymous": false,
      "inputs": [
        {
          "indexed": false,
          "internalType": "uint8",
          "name": "version",
          "type": "uint8"
        }
      ],
      "name": "Initialized",
      "type": "event"
    },
    {
      "anonymous": false,
      "inputs": [
        {
          "indexed": false,
          "internalType": "uint256",
          "name": "oldOpeningFee",
          "type": "uint256"
        },
        {
          "indexed": false,
          "internalType": "uint256",
          "name": "newOpeningFee",
          "type": "uint256"
        }
      ],
      "name": "OpeningFeeUpdated",
      "type": "event"
    },
    {
      "anonymous": false,
      "inputs": [
        {
          "indexed": true,
          "internalType": "address",
          "name": "previousOwner",
          "type": "address"
        },
        {
          "indexed": true,
          "internalType": "address",
          "name": "newOwner",
          "type": "address"
        }
      ],
      "name": "OwnershipTransferred",
      "type": "event"
    },
    {
      "anonymous": false,
      "inputs": [
        {
          "indexed": false,
          "internalType": "address",
          "name": "account",
          "type": "address"
        }
      ],
      "name": "Paused",
      "type": "event"
    },
    {
      "anonymous": false,
      "inputs": [
        {
          "indexed": false,
          "internalType": "address",
          "name": "oldPriceFeedAddress",
          "type": "address"
        },
        {
          "indexed": false,
          "internalType": "address",
          "name": "newPriceFeedAddress",
          "type": "address"
        }
      ],
      "name": "PriceFeedUpdated",
      "type": "event"
    },
    {
      "anonymous": false,
      "inputs": [
        {
          "indexed": false,
          "internalType": "address",
          "name": "assetRaffled",
          "type": "address"
        },
        {
          "indexed": false,
          "internalType": "address",
          "name": "raffleOwner",
          "type": "address"
        },
        {
          "indexed": false,
          "internalType": "enum MockMainnetEscrow.RaffleType",
          "name": "raffleType",
          "type": "uint8"
        },
        {
          "indexed": false,
          "internalType": "uint128",
          "name": "nftIdOrAmount",
          "type": "uint128"
        },
        {
          "indexed": false,
          "internalType": "address",
          "name": "paymentcurrency",
          "type": "address"
        },
        {
          "indexed": false,
          "internalType": "uint128",
          "name": "pricePerTicket",
          "type": "uint128"
        },
        {
          "indexed": false,
          "internalType": "uint64",
          "name": "numberOfTotalTickets",
          "type": "uint64"
        },
        {
          "indexed": false,
          "internalType": "uint64",
          "name": "minimumTicketsSold",
          "type": "uint64"
        },
        {
          "indexed": false,
          "internalType": "uint64",
          "name": "endTimestamp",
          "type": "uint64"
        },
        {
          "indexed": false,
          "internalType": "bytes32",
          "name": "merkleRoot",
          "type": "bytes32"
        },
        {
          "indexed": false,
          "internalType": "uint256",
          "name": "fairRaffleFee",
          "type": "uint256"
        }
      ],
      "name": "RaffleCreated",
      "type": "event"
    },
    {
      "anonymous": false,
      "inputs": [
        {
          "indexed": false,
          "internalType": "address",
          "name": "oldRelayerAddress",
          "type": "address"
        },
        {
          "indexed": false,
          "internalType": "address",
          "name": "newRelayerAddress",
          "type": "address"
        }
      ],
      "name": "RelayerUpdated",
      "type": "event"
    },
    {
      "anonymous": false,
      "inputs": [
        {
          "indexed": false,
          "internalType": "address",
          "name": "account",
          "type": "address"
        }
      ],
      "name": "Unpaused",
      "type": "event"
    },
    {
      "inputs": [],
      "name": "FAIR_RAFFLE_FEE_DENOMINATOR",
      "outputs": [
        {
          "internalType": "uint256",
          "name": "",
          "type": "uint256"
        }
      ],
      "stateMutability": "view",
      "type": "function"
    },
    {
      "inputs": [],
      "name": "FAIR_RAFFLE_FEE_NUMERATOR",
      "outputs": [
        {
          "internalType": "uint256",
          "name": "",
          "type": "uint256"
        }
      ],
      "stateMutability": "view",
      "type": "function"
    },
    {
      "inputs": [],
      "name": "OPENING_FEE",
      "outputs": [
        {
          "internalType": "uint256",
          "name": "",
          "type": "uint256"
        }
      ],
      "stateMutability": "view",
      "type": "function"
    },
    {
      "inputs": [
        {
          "internalType": "address",
          "name": "_ERC20TokenAddressPolygon",
          "type": "address"
        }
      ],
      "name": "blacklistCurrency",
      "outputs": [],
      "stateMutability": "nonpayable",
      "type": "function"
    },
    {
      "inputs": [
        {
          "internalType": "address",
          "name": "_tokenAddress",
          "type": "address"
        },
        {
          "internalType": "uint128",
          "name": "_amount",
          "type": "uint128"
        },
        {
          "internalType": "address",
          "name": "_currencyInPolygon",
          "type": "address"
        },
        {
          "internalType": "uint128",
          "name": "_pricePerTicket",
          "type": "uint128"
        },
        {
          "internalType": "uint64",
          "name": "_numberOfTickets",
          "type": "uint64"
        },
        {
          "internalType": "uint64",
          "name": "_minimumTicketsSold",
          "type": "uint64"
        },
        {
          "internalType": "uint64",
          "name": "_durationInSeconds",
          "type": "uint64"
        },
        {
          "internalType": "bytes32",
          "name": "_merkleRoot",
          "type": "bytes32"
        }
      ],
      "name": "createERC20Raffle",
      "outputs": [],
      "stateMutability": "payable",
      "type": "function"
    },
    {
      "inputs": [
        {
          "internalType": "address",
          "name": "_nftCollection",
          "type": "address"
        },
        {
          "internalType": "uint128",
          "name": "_nftId",
          "type": "uint128"
        },
        {
          "internalType": "address",
          "name": "_currencyInPolygon",
          "type": "address"
        },
        {
          "internalType": "uint128",
          "name": "_pricePerTicket",
          "type": "uint128"
        },
        {
          "internalType": "uint64",
          "name": "_numberOfTickets",
          "type": "uint64"
        },
        {
          "internalType": "uint64",
          "name": "_minimumTicketsSold",
          "type": "uint64"
        },
        {
          "internalType": "uint64",
          "name": "_durationInSeconds",
          "type": "uint64"
        },
        {
          "internalType": "bytes32",
          "name": "_merkleRoot",
          "type": "bytes32"
        }
      ],
      "name": "createERC721Raffle",
      "outputs": [],
      "stateMutability": "payable",
      "type": "function"
    },
    {
      "inputs": [],
      "name": "currencyPriceFeed",
      "outputs": [
        {
          "internalType": "contract ICurrencyPriceFeed",
          "name": "",
          "type": "address"
        }
      ],
      "stateMutability": "view",
      "type": "function"
    },
    {
      "inputs": [
        {
          "internalType": "address",
          "name": "_tokenAddress",
          "type": "address"
        },
        {
          "internalType": "uint128",
          "name": "_amount",
          "type": "uint128"
        },
        {
          "internalType": "address",
          "name": "_currencyInPolygon",
          "type": "address"
        },
        {
          "internalType": "uint128",
          "name": "_pricePerTicket",
          "type": "uint128"
        },
        {
          "internalType": "uint64",
          "name": "_numberOfTickets",
          "type": "uint64"
        },
        {
          "internalType": "uint64",
          "name": "_minimumTicketsSold",
          "type": "uint64"
        }
      ],
      "name": "fairRaffleFeeERC20",
      "outputs": [
        {
          "internalType": "uint256",
          "name": "",
          "type": "uint256"
        }
      ],
      "stateMutability": "view",
      "type": "function"
    },
    {
      "inputs": [
        {
          "internalType": "address",
          "name": "_currencyInPolygon",
          "type": "address"
        },
        {
          "internalType": "uint128",
          "name": "_pricePerTicket",
          "type": "uint128"
        },
        {
          "internalType": "uint64",
          "name": "_minimumTicketsSold",
          "type": "uint64"
        }
      ],
      "name": "fairRaffleFeeERC721",
      "outputs": [
        {
          "internalType": "uint256",
          "name": "",
          "type": "uint256"
        }
      ],
      "stateMutability": "view",
      "type": "function"
    },
    {
      "inputs": [
        {
          "internalType": "address",
          "name": "_relayer",
          "type": "address"
        },
        {
          "internalType": "address",
          "name": "_priceFeedContract",
          "type": "address"
        }
      ],
      "name": "initialize",
      "outputs": [],
      "stateMutability": "nonpayable",
      "type": "function"
    },
    {
      "inputs": [
        {
          "internalType": "address",
          "name": "_erc20Token",
          "type": "address"
        }
      ],
      "name": "isCurrencyWhitelisted",
      "outputs": [
        {
          "internalType": "bool",
          "name": "",
          "type": "bool"
        }
      ],
      "stateMutability": "view",
      "type": "function"
    },
    {
      "inputs": [],
      "name": "owner",
      "outputs": [
        {
          "internalType": "address",
          "name": "",
          "type": "address"
        }
      ],
      "stateMutability": "view",
      "type": "function"
    },
    {
      "inputs": [],
      "name": "paused",
      "outputs": [
        {
          "internalType": "bool",
          "name": "",
          "type": "bool"
        }
      ],
      "stateMutability": "view",
      "type": "function"
    },
    {
      "inputs": [
        {
          "components": [
            {
              "internalType": "address",
              "name": "receiver",
              "type": "address"
            },
            {
              "internalType": "address",
              "name": "assetContract",
              "type": "address"
            },
            {
              "internalType": "bool",
              "name": "isERC721",
              "type": "bool"
            },
            {
              "internalType": "uint256",
              "name": "amountOrNftIdToReceiver",
              "type": "uint256"
            },
            {
              "internalType": "uint256",
              "name": "increaseTotalAmountClaimable",
              "type": "uint256"
            }
          ],
          "internalType": "struct MockMainnetEscrow.CallbackInfo[]",
          "name": "callbackArr",
          "type": "tuple[]"
        }
      ],
      "name": "polygonCallback",
      "outputs": [],
      "stateMutability": "nonpayable",
      "type": "function"
    },
    {
      "inputs": [
        {
          "internalType": "address",
          "name": "",
          "type": "address"
        }
      ],
      "name": "polygonTokenToMainnetAddress",
      "outputs": [
        {
          "internalType": "address",
          "name": "",
          "type": "address"
        }
      ],
      "stateMutability": "view",
      "type": "function"
    },
    {
      "inputs": [],
      "name": "priceFeedsEnabled",
      "outputs": [
        {
          "internalType": "bool",
          "name": "",
          "type": "bool"
        }
      ],
      "stateMutability": "view",
      "type": "function"
    },
    {
      "inputs": [],
      "name": "relayer",
      "outputs": [
        {
          "internalType": "address",
          "name": "",
          "type": "address"
        }
      ],
      "stateMutability": "view",
      "type": "function"
    },
    {
      "inputs": [],
      "name": "renounceOwnership",
      "outputs": [],
      "stateMutability": "nonpayable",
      "type": "function"
    },
    {
      "inputs": [
        {
          "internalType": "uint256",
          "name": "_openingFee",
          "type": "uint256"
        }
      ],
      "name": "setOpeningFee",
      "outputs": [],
      "stateMutability": "nonpayable",
      "type": "function"
    },
    {
      "inputs": [
        {
          "internalType": "address",
          "name": "_currencyPriceFeed",
          "type": "address"
        }
      ],
      "name": "setPriceFeed",
      "outputs": [],
      "stateMutability": "nonpayable",
      "type": "function"
    },
    {
      "inputs": [
        {
          "internalType": "address",
          "name": "_relayer",
          "type": "address"
        }
      ],
      "name": "setRelayer",
      "outputs": [],
      "stateMutability": "nonpayable",
      "type": "function"
    },
    {
      "inputs": [],
      "name": "togglePause",
      "outputs": [],
      "stateMutability": "nonpayable",
      "type": "function"
    },
    {
      "inputs": [],
      "name": "togglePriceFeed",
      "outputs": [],
      "stateMutability": "nonpayable",
      "type": "function"
    },
    {
      "inputs": [
        {
          "internalType": "address",
          "name": "",
          "type": "address"
        }
      ],
      "name": "totalAmountClaimable",
      "outputs": [
        {
          "internalType": "uint256",
          "name": "",
          "type": "uint256"
        }
      ],
      "stateMutability": "view",
      "type": "function"
    },
    {
      "inputs": [
        {
          "internalType": "address",
          "name": "newOwner",
          "type": "address"
        }
      ],
      "name": "transferOwnership",
      "outputs": [],
      "stateMutability": "nonpayable",
      "type": "function"
    },
    {
      "inputs": [
        {
          "internalType": "address",
          "name": "_ERC20TokenAddressPolygon",
          "type": "address"
        },
        {
          "internalType": "address",
          "name": "_ERC20TokenAddressMainnet",
          "type": "address"
        }
      ],
      "name": "whitelistCurrency",
      "outputs": [],
      "stateMutability": "nonpayable",
      "type": "function"
    },
    {
      "inputs": [
        {
          "internalType": "address",
          "name": "",
          "type": "address"
        }
      ],
      "name": "whitelistedCurrencies",
      "outputs": [
        {
          "internalType": "bool",
          "name": "",
          "type": "bool"
        }
      ],
      "stateMutability": "view",
      "type": "function"
    },
    {
      "inputs": [
        {
          "internalType": "address[]",
          "name": "_tokenAddress",
          "type": "address[]"
        },
        {
          "internalType": "uint256[]",
          "name": "_amounts",
          "type": "uint256[]"
        },
        {
          "internalType": "address",
          "name": "_receiver",
          "type": "address"
        }
      ],
      "name": "withdrawFees",
      "outputs": [],
      "stateMutability": "nonpayable",
      "type": "function"
    }
  ],
  "bytecode": "608060405234801561001057600080fd5b50612f14806100206000396000f3fe6080604052600436106101b75760003560e01c8063724e78da116100ec578063a21afc761161008a578063c4ae316811610064578063c4ae3168146104e7578063da653f00146104fc578063f2fde38b1461051c578063fcc76b801461053c57600080fd5b8063a21afc7614610492578063b3f8d40d146104bf578063c2f90a2b146104d257600080fd5b80638406c079116100c65780638406c079146103fe578063863759941461041e5780638da5cb5b1461043e57806395e3d9ab1461045c57600080fd5b8063724e78da14610386578063744476b6146103a65780637b631da5146103c657600080fd5b80634e4d58bb116101595780636548e9bc116101335780636548e9bc1461032157806366998e5014610341578063697ca93014610357578063715018a61461037157600080fd5b80634e4d58bb146102d357806352defbd0146102e95780635c975abb1461030957600080fd5b806334f65fa21161019557806334f65fa21461021a578063436cc1381461023a57806343b938c51461027a578063485cc955146102b357600080fd5b806323bbcb29146101bc5780632bf78dd8146101d157806331f91a84146101fa575b600080fd5b6101cf6101ca366004612597565b61055c565b005b3480156101dd57600080fd5b506101e760985481565b6040519081526020015b60405180910390f35b34801561020657600080fd5b506101cf610215366004612676565b6109b5565b34801561022657600080fd5b506101cf6102353660046126f9565b610b29565b34801561024657600080fd5b5061026a610255366004612732565b60976020526000908152604090205460ff1681565b60405190151581526020016101f1565b34801561028657600080fd5b5061026a610295366004612732565b6001600160a01b031660009081526097602052604090205460ff1690565b3480156102bf57600080fd5b506101cf6102ce3660046126f9565b610c0c565b3480156102df57600080fd5b506101e76101f481565b3480156102f557600080fd5b506101cf610304366004612732565b610d5e565b34801561031557600080fd5b5060655460ff1661026a565b34801561032d57600080fd5b506101cf61033c366004612732565b610e1d565b34801561034d57600080fd5b506101e761271081565b34801561036357600080fd5b50609d5461026a9060ff1681565b34801561037d57600080fd5b506101cf610e86565b34801561039257600080fd5b506101cf6103a1366004612732565b610ebc565b3480156103b257600080fd5b506101e76103c136600461274f565b610f25565b3480156103d257600080fd5b50609b546103e6906001600160a01b031681565b6040516001600160a01b0390911681526020016101f1565b34801561040a57600080fd5b50609a546103e6906001600160a01b031681565b34801561042a57600080fd5b506101cf610439366004612794565b61112b565b34801561044a57600080fd5b506033546001600160a01b03166103e6565b34801561046857600080fd5b506103e6610477366004612732565b609c602052600090815260409020546001600160a01b031681565b34801561049e57600080fd5b506101e76104ad366004612732565b60996020526000908152604090205481565b6101cf6104cd366004612597565b61116c565b3480156104de57600080fd5b506101cf611559565b3480156104f357600080fd5b506101cf611597565b34801561050857600080fd5b506101e76105173660046127ad565b6115b1565b34801561052857600080fd5b506101cf610537366004612732565b611a03565b34801561054857600080fd5b506101cf6105573660046128a1565b611a9e565b60655460ff16156105885760405162461bcd60e51b815260040161057f906129a3565b60405180910390fd5b6040516331a9108f60e11b81526001600160801b03881660048201526001600160a01b03891690636352211e90602401602060405180830381865afa1580156105d5573d6000803e3d6000fd5b505050506040513d601f19601f820116820180604052508101906105f991906129cd565b6001600160a01b0316336001600160a01b0316146106595760405162461bcd60e51b815260206004820152601760248201527f596f7520646f206e6f74206f776e2074686973204e4654000000000000000000604482015260640161057f565b6001600160a01b03861660009081526097602052604090205460ff166106c15760405162461bcd60e51b815260206004820181905260248201527f546869732063757272656e6379206973206e6f742077686974656c6973746564604482015260640161057f565b6001846001600160401b0316116106ea5760405162461bcd60e51b815260040161057f906129ea565b836001600160401b0316836001600160401b0316111561071c5760405162461bcd60e51b815260040161057f90612a2e565b61a8c0826001600160401b031610156107775760405162461bcd60e51b815260206004820152601c60248201527f4d696e696d756d206475726174696f6e20697320313220686f75727300000000604482015260640161057f565b6000610784878786610f25565b9050806098546107949190612a92565b34146107d85760405162461bcd60e51b8152602060048201526013602482015272125b98dbdc9c9958dd081999595cc81cd95b9d606a1b604482015260640161057f565b609854600080805260996020527f235d629dc802037ded8c61cb27fb29e40fa01b299719d8f991ffe20bdcc59f4f8054909190610816908490612a92565b90915550506040516323b872dd60e01b81523360048201523060248201526001600160801b03891660448201526001600160a01b038a16906323b872dd90606401600060405180830381600087803b15801561087157600080fd5b505af1158015610885573d6000803e3d6000fd5b50506040516331a9108f60e11b81526001600160801b038b1660048201526001600160a01b038c169250636352211e9150602401602060405180830381865afa1580156108d6573d6000803e3d6000fd5b505050506040513d601f19601f820116820180604052508101906108fa91906129cd565b6001600160a01b0316306001600160a01b03161461094c5760405162461bcd60e51b815260206004820152600f60248201526e151c985b9cd9995c8819985a5b1959608a1b604482015260640161057f565b7fb26c0bf32d8d3eff0d0561d0b30f4bf8962a18678833b276fcbbe06c48e9eaaa893360008b8b8b8b8b6109896001600160401b038d1642612a92565b8b8b6040516109a29b9a99989796959493929190612aaa565b60405180910390a1505050505050505050565b83828114610a055760405162461bcd60e51b815260206004820152601a60248201527f4172726179206c656e6774687320646f206e6f74206d61746368000000000000604482015260640161057f565b60008060005b83811015610b1e57888882818110610a2557610a25612b63565b9050602002016020810190610a3a9190612732565b9150868682818110610a4e57610a4e612b63565b90506020020135925060996000836001600160a01b03166001600160a01b0316815260200190815260200160002054831115610abe5760405162461bcd60e51b815260206004820152600f60248201526e082dadeeadce840e8dede40d0d2ced608b1b604482015260640161057f565b6001600160a01b038216610adb57610ad68584611eac565b610aef565b610aef6001600160a01b0383168685611ff0565b6001600160a01b038216600090815260996020526040902080548490039055610b1781612b79565b9050610a0b565b505050505050505050565b6001600160a01b03821660009081526097602052604090205460ff1615610b925760405162461bcd60e51b815260206004820152601c60248201527f546f6b656e20697320616c72656164792077686974656c697374656400000000604482015260640161057f565b6001600160a01b0382811660008181526097602090815260408083208054600160ff19909116179055609c82529182902080546001600160a01b03191694861694909417909355519081527f5c6cf68a9d7e416d0eee740661627dd794257920f1c63ddae6c6af81d02d12ea910160405180910390a15050565b6000610c186001612053565b90508015610c30576000805461ff0019166101001790555b610c386120e0565b610c4061210f565b609a80546001600160a01b038086166001600160a01b031992831617909255609b805492851692821692909217909155609d805460ff199081166001908117909255737ceb23fd6bc0add59e62ac25578270cff1b9f6196000527f1a0acac70e8cab5a31ac0c028653f1612aec657b1c8333c74eaba0c30e0ee39180549091169091179055609c6020527f54cb885aae8efe3410af7107761edcae51ee12661f9443184b5e9d063ddf7fa5805490911673c02aaa39b223fe8d0a0e5c4f27ead9083c756cc2179055666a94d74f4300006098558015610d59576000805461ff0019169055604051600181527f7f26b83ff96e1f2b6a682f133852f6798a09c465da95921460cefb38474024989060200160405180910390a15b505050565b6001600160a01b03811660009081526097602052604090205460ff16610dc65760405162461bcd60e51b815260206004820152601860248201527f546f6b656e206973206e6f742077686974656c69737465640000000000000000604482015260640161057f565b6001600160a01b038116600081815260976020908152604091829020805460ff1916905590519182527f0dc0548bc90523a9e943ea77d199875fdc1e4f8a419b6d53a595b5e6671480e5910160405180910390a150565b609a54604080516001600160a01b03928316815291831660208301527f605ca4e43489fb38b91aa63dd9147cd3847957694b080b9285ec898b34269f0c910160405180910390a1609a80546001600160a01b0319166001600160a01b0392909216919091179055565b6033546001600160a01b03163314610eb05760405162461bcd60e51b815260040161057f90612b92565b610eba600061213e565b565b609b54604080516001600160a01b03928316815291831660208301527fa8abe0398416476db5b05737cd4da3b3cbde5012d978a6a6c3fd49d321753536910160405180910390a1609b80546001600160a01b0319166001600160a01b0392909216919091179055565b6001600160a01b038084166000908152609c6020908152604080832054815163313ce56760e01b815291519394859491169263313ce56792600480820193918290030181865afa158015610f7d573d6000803e3d6000fd5b505050506040513d601f19601f82011682018060405250810190610fa19190612bc7565b610fac90600a612cd0565b609b546001600160a01b038781166000908152609c60205260409081902054905163a4b943fb60e01b815290821660048201526001600160401b038716926001600160801b03891692169063a4b943fb90602401602060405180830381865afa15801561101d573d6000803e3d6000fd5b505050506040513d601f19601f820116820180604052508101906110419190612cdf565b61104b9190612cf8565b6110559190612cf8565b61105f9190612d2d565b905060006127106110726101f484612cf8565b61107c9190612d2d565b609b5460405163a4b943fb60e01b815273eeeeeeeeeeeeeeeeeeeeeeeeeeeeeeeeeeeeeeee60048201529192506000916001600160a01b039091169063a4b943fb90602401602060405180830381865afa1580156110de573d6000803e3d6000fd5b505050506040513d601f19601f820116820180604052508101906111029190612cdf565b61111483670de0b6b3a7640000612cf8565b61111e9190612d2d565b93505050505b9392505050565b60985460408051918252602082018390527f9dc2340c6769757c8d7dfe3a65a3f1e297ed8f919bed31501223ac8aa85dc63d910160405180910390a1609855565b60655460ff161561118f5760405162461bcd60e51b815260040161057f906129a3565b6001600160a01b03861660009081526097602052604090205460ff166111f75760405162461bcd60e51b815260206004820181905260248201527f546869732063757272656e6379206973206e6f742077686974656c6973746564604482015260640161057f565b6001846001600160401b0316116112205760405162461bcd60e51b815260040161057f906129ea565b836001600160401b0316836001600160401b031611156112525760405162461bcd60e51b815260040161057f90612a2e565b61a8c0826001600160401b031610156112ad5760405162461bcd60e51b815260206004820152601c60248201527f4d696e696d756d206475726174696f6e20697320313220686f75727300000000604482015260640161057f565b60006112bd8989898989896115b1565b90506001600160a01b03891661132b576098546112e3906001600160801b038a16612a92565b34146113265760405162461bcd60e51b8152602060048201526012602482015271125b98dbdc9c9958dd08199959481cd95b9d60721b604482015260640161057f565b6114d8565b609854341461137c5760405162461bcd60e51b815260206004820152601a60248201527f496e636f7272656374204f50454e494e475f4645452073656e74000000000000604482015260640161057f565b6040516370a0823160e01b81523060048201526000906001600160a01b038b16906370a0823190602401602060405180830381865afa1580156113c3573d6000803e3d6000fd5b505050506040513d601f19601f820116820180604052508101906113e79190612cdf565b90506114076001600160a01b038b1633306001600160801b038d16612190565b6040516370a0823160e01b81523060048201526000906001600160a01b038c16906370a0823190602401602060405180830381865afa15801561144e573d6000803e3d6000fd5b505050506040513d601f19601f820116820180604052508101906114729190612cdf565b905061147e8282612d41565b8a6001600160801b0316146114d55760405162461bcd60e51b815260206004820152601b60248201527f455243323020746f6b656e207472616e73666572206661696c65640000000000604482015260640161057f565b50505b609854600080805260996020527f235d629dc802037ded8c61cb27fb29e40fa01b299719d8f991ffe20bdcc59f4f8054909190611516908490612a92565b909155507fb26c0bf32d8d3eff0d0561d0b30f4bf8962a18678833b276fcbbe06c48e9eaaa9050893360018b8b8b8b8b6109896001600160401b038d1642612a92565b6033546001600160a01b031633146115835760405162461bcd60e51b815260040161057f90612b92565b609d805460ff19811660ff90911615179055565b60655460ff166115a957610eba6121c8565b610eba61223d565b609d54600090819060ff166115fd576127106101f46115d9876001600160401b038716612d58565b6001600160801b03166115ec9190612cf8565b6115f69190612d2d565b90506119f8565b60006001600160a01b0389166116c157609b5460405163a4b943fb60e01b815273c02aaa39b223fe8d0a0e5c4f27ead9083c756cc2600482018190529a50670de0b6b3a7640000916001600160801b038b16916001600160a01b039091169063a4b943fb90602401602060405180830381865afa158015611682573d6000803e3d6000fd5b505050506040513d601f19601f820116820180604052508101906116a69190612cdf565b6116b09190612cf8565b6116ba9190612d2d565b90506117bc565b886001600160a01b031663313ce5676040518163ffffffff1660e01b8152600401602060405180830381865afa1580156116ff573d6000803e3d6000fd5b505050506040513d601f19601f820116820180604052508101906117239190612bc7565b61172e90600a612cd0565b609b5460405163a4b943fb60e01b81526001600160a01b038c811660048301526001600160801b038c1692169063a4b943fb90602401602060405180830381865afa158015611781573d6000803e3d6000fd5b505050506040513d601f19601f820116820180604052508101906117a59190612cdf565b6117af9190612cf8565b6117b99190612d2d565b90505b6001600160a01b038088166000908152609c6020908152604080832054815163313ce56760e01b815291519394169263313ce567926004808401939192918290030181865afa158015611813573d6000803e3d6000fd5b505050506040513d601f19601f820116820180604052508101906118379190612bc7565b61184290600a612cd0565b609b546001600160a01b038a81166000908152609c60205260409081902054905163a4b943fb60e01b815290821660048201526001600160801b038b16926001600160401b038b1692169063a4b943fb90602401602060405180830381865afa1580156118b3573d6000803e3d6000fd5b505050506040513d601f19601f820116820180604052508101906118d79190612cdf565b6118e19190612cf8565b6118eb9190612cf8565b6118f59190612d2d565b905060008261190683612710612cf8565b6119109190612d2d565b9050612710811161192457600093506119f4565b612710811180156119375750612af88111155b1561197857612710611952896001600160401b038916612d58565b61195e906101f4612d58565b6119689190612d87565b6001600160801b031693506119f4565b612af88111801561198b57506130d48111155b156119b2576127106119a6896001600160401b038916612d58565b61195e906103e8612d58565b6130d48111156119f4576127106119d2896001600160401b038916612d58565b6119de906107d0612d58565b6119e89190612d87565b6001600160801b031693505b5050505b979650505050505050565b6033546001600160a01b03163314611a2d5760405162461bcd60e51b815260040161057f90612b92565b6001600160a01b038116611a925760405162461bcd60e51b815260206004820152602660248201527f4f776e61626c653a206e6577206f776e657220697320746865207a65726f206160448201526564647265737360d01b606482015260840161057f565b611a9b8161213e565b50565b805160005b81811015610d5957828181518110611abd57611abd612b63565b60200260200101516040015115611bde5760006001600160a01b0316838281518110611aeb57611aeb612b63565b6020026020010151600001516001600160a01b031614611bd957828181518110611b1757611b17612b63565b6020026020010151602001516001600160a01b03166323b872dd30858481518110611b4457611b44612b63565b602002602001015160000151868581518110611b6257611b62612b63565b6020908102919091010151606001516040516001600160e01b031960e086901b1681526001600160a01b0393841660048201529290911660248301526044820152606401600060405180830381600087803b158015611bc057600080fd5b505af1158015611bd4573d6000803e3d6000fd5b505050505b611d05565b60006001600160a01b0316838281518110611bfb57611bfb612b63565b6020026020010151600001516001600160a01b031614611d055760006001600160a01b0316838281518110611c3257611c32612b63565b6020026020010151602001516001600160a01b031603611c9057611bd9838281518110611c6157611c61612b63565b602002602001015160000151848381518110611c7f57611c7f612b63565b602002602001015160600151611eac565b611d05838281518110611ca557611ca5612b63565b602002602001015160000151848381518110611cc357611cc3612b63565b602002602001015160600151858481518110611ce157611ce1612b63565b6020026020010151602001516001600160a01b0316611ff09092919063ffffffff16565b6000838281518110611d1957611d19612b63565b6020026020010151608001511115611da057828181518110611d3d57611d3d612b63565b60200260200101516080015160996000858481518110611d5f57611d5f612b63565b6020026020010151602001516001600160a01b03166001600160a01b031681526020019081526020016000206000828254611d9a9190612a92565b90915550505b7ffdf87137985fce097c2059f7e3bd28b9104995cad66709fdecbaa5e8e48da9af838281518110611dd357611dd3612b63565b602002602001015160000151848381518110611df157611df1612b63565b602002602001015160200151858481518110611e0f57611e0f612b63565b602002602001015160400151868581518110611e2d57611e2d612b63565b602002602001015160600151878681518110611e4b57611e4b612b63565b602002602001015160800151604051611e949594939291906001600160a01b03958616815293909416602084015290151560408301526060820152608081019190915260a00190565b60405180910390a1611ea581612b79565b9050611aa3565b80471015611efc5760405162461bcd60e51b815260206004820152601e60248201527f5f68616e646c6545746865725472616e7366657220696e736f6c76656e740000604482015260640161057f565b60005a90506000836001600160a01b0316838390604051600060405180830381858888f193505050503d8060008114611f51576040519150601f19603f3d011682016040523d82523d6000602084013e611f56565b606091505b5050905080611fea5773c02aaa39b223fe8d0a0e5c4f27ead9083c756cc26001600160a01b031663d0e30db0846040518263ffffffff1660e01b81526004016000604051808303818588803b158015611fae57600080fd5b505af1158015611fc2573d6000803e3d6000fd5b50611fea935073c02aaa39b223fe8d0a0e5c4f27ead9083c756cc29250879150869050611ff0565b50505050565b6040516001600160a01b038316602482015260448101829052610d5990849063a9059cbb60e01b906064015b60408051601f198184030181529190526020810180516001600160e01b03166001600160e01b0319909316929092179091526122b7565b60008054610100900460ff161561209a578160ff1660011480156120765750303b155b6120925760405162461bcd60e51b815260040161057f90612dad565b506000919050565b60005460ff8084169116106120c15760405162461bcd60e51b815260040161057f90612dad565b506000805460ff191660ff92909216919091179055600190565b919050565b600054610100900460ff166121075760405162461bcd60e51b815260040161057f90612dfb565b610eba612389565b600054610100900460ff166121365760405162461bcd60e51b815260040161057f90612dfb565b610eba6123b9565b603380546001600160a01b038381166001600160a01b0319831681179093556040519116919082907f8be0079c531659141344cd1fd0a4f28419497f9722a3daafe3b4186f6b6457e090600090a35050565b6040516001600160a01b0380851660248301528316604482015260648101829052611fea9085906323b872dd60e01b9060840161201c565b60655460ff16156121eb5760405162461bcd60e51b815260040161057f906129a3565b6065805460ff191660011790557f62e78cea01bee320cd4e420270b5ea74000d11b0c9f74754ebdbfc544b05a2586122203390565b6040516001600160a01b03909116815260200160405180910390a1565b60655460ff166122865760405162461bcd60e51b815260206004820152601460248201527314185d5cd8589b194e881b9bdd081c185d5cd95960621b604482015260640161057f565b6065805460ff191690557f5db9ee0a495bf2e6ff9c91a7834c1ba4fdd244a5e8aa4e537bd38aeae4b073aa33612220565b600061230c826040518060400160405280602081526020017f5361666545524332303a206c6f772d6c6576656c2063616c6c206661696c6564815250856001600160a01b03166123ec9092919063ffffffff16565b805190915015610d59578080602001905181019061232a9190612e46565b610d595760405162461bcd60e51b815260206004820152602a60248201527f5361666545524332303a204552433230206f7065726174696f6e20646964206e6044820152691bdd081cdd58d8d9595960b21b606482015260840161057f565b600054610100900460ff166123b05760405162461bcd60e51b815260040161057f90612dfb565b610eba3361213e565b600054610100900460ff166123e05760405162461bcd60e51b815260040161057f90612dfb565b6065805460ff19169055565b60606123fb8484600085612403565b949350505050565b6060824710156124645760405162461bcd60e51b815260206004820152602660248201527f416464726573733a20696e73756666696369656e742062616c616e636520666f6044820152651c8818d85b1b60d21b606482015260840161057f565b843b6124b25760405162461bcd60e51b815260206004820152601d60248201527f416464726573733a2063616c6c20746f206e6f6e2d636f6e7472616374000000604482015260640161057f565b600080866001600160a01b031685876040516124ce9190612e8f565b60006040518083038185875af1925050503d806000811461250b576040519150601f19603f3d011682016040523d82523d6000602084013e612510565b606091505b50915091506119f88282866060831561252a575081611124565b82511561253a5782518084602001fd5b8160405162461bcd60e51b815260040161057f9190612eab565b6001600160a01b0381168114611a9b57600080fd5b80356001600160801b03811681146120db57600080fd5b80356001600160401b03811681146120db57600080fd5b600080600080600080600080610100898b0312156125b457600080fd5b88356125bf81612554565b97506125cd60208a01612569565b965060408901356125dd81612554565b95506125eb60608a01612569565b94506125f960808a01612580565b935061260760a08a01612580565b925061261560c08a01612580565b915060e089013590509295985092959890939650565b60008083601f84011261263d57600080fd5b5081356001600160401b0381111561265457600080fd5b6020830191508360208260051b850101111561266f57600080fd5b9250929050565b60008060008060006060868803121561268e57600080fd5b85356001600160401b03808211156126a557600080fd5b6126b189838a0161262b565b909750955060208801359150808211156126ca57600080fd5b506126d78882890161262b565b90945092505060408601356126eb81612554565b809150509295509295909350565b6000806040838503121561270c57600080fd5b823561271781612554565b9150602083013561272781612554565b809150509250929050565b60006020828403121561274457600080fd5b813561112481612554565b60008060006060848603121561276457600080fd5b833561276f81612554565b925061277d60208501612569565b915061278b60408501612580565b90509250925092565b6000602082840312156127a657600080fd5b5035919050565b60008060008060008060c087890312156127c657600080fd5b86356127d181612554565b95506127df60208801612569565b945060408701356127ef81612554565b93506127fd60608801612569565b925061280b60808801612580565b915061281960a08801612580565b90509295509295509295565b634e487b7160e01b600052604160045260246000fd5b60405160a081016001600160401b038111828210171561285d5761285d612825565b60405290565b604051601f8201601f191681016001600160401b038111828210171561288b5761288b612825565b604052919050565b8015158114611a9b57600080fd5b600060208083850312156128b457600080fd5b82356001600160401b03808211156128cb57600080fd5b818501915085601f8301126128df57600080fd5b8135818111156128f1576128f1612825565b6128ff848260051b01612863565b818152848101925060a091820284018501918883111561291e57600080fd5b938501935b828510156129975780858a03121561293b5760008081fd5b61294361283b565b853561294e81612554565b81528587013561295d81612554565b8188015260408681013561297081612893565b90820152606086810135908201526080808701359082015284529384019392850192612923565b50979650505050505050565b60208082526010908201526f14185d5cd8589b194e881c185d5cd95960821b604082015260600190565b6000602082840312156129df57600080fd5b815161112481612554565b60208082526024908201527f526166666c6573206d7573742068617665206174206c656173742032207469636040820152636b65747360e01b606082015260800190565b6020808252602e908201527f5f6d696e696d756d5469636b657473536f6c642073686f756c64203c3d205f6e60408201526d756d6265724f665469636b65747360901b606082015260800190565b634e487b7160e01b600052601160045260246000fd5b60008219821115612aa557612aa5612a7c565b500190565b6001600160a01b038c811682528b166020820152610160810160028b10612ae157634e487b7160e01b600052602160045260246000fd5b8a6040830152612afc606083018b6001600160801b03169052565b6001600160a01b03891660808301526001600160801b03881660a08301526001600160401b03871660c08301526001600160401b03861660e08301526001600160401b03851661010083015261012082019390935261014001529998505050505050505050565b634e487b7160e01b600052603260045260246000fd5b600060018201612b8b57612b8b612a7c565b5060010190565b6020808252818101527f4f776e61626c653a2063616c6c6572206973206e6f7420746865206f776e6572604082015260600190565b600060208284031215612bd957600080fd5b815160ff8116811461112457600080fd5b600181815b80851115612c25578160001904821115612c0b57612c0b612a7c565b80851615612c1857918102915b93841c9390800290612bef565b509250929050565b600082612c3c57506001612cca565b81612c4957506000612cca565b8160018114612c5f5760028114612c6957612c85565b6001915050612cca565b60ff841115612c7a57612c7a612a7c565b50506001821b612cca565b5060208310610133831016604e8410600b8410161715612ca8575081810a612cca565b612cb28383612bea565b8060001904821115612cc657612cc6612a7c565b0290505b92915050565b600061112460ff841683612c2d565b600060208284031215612cf157600080fd5b5051919050565b6000816000190483118215151615612d1257612d12612a7c565b500290565b634e487b7160e01b600052601260045260246000fd5b600082612d3c57612d3c612d17565b500490565b600082821015612d5357612d53612a7c565b500390565b60006001600160801b0380831681851681830481118215151615612d7e57612d7e612a7c565b02949350505050565b60006001600160801b0380841680612da157612da1612d17565b92169190910492915050565b6020808252602e908201527f496e697469616c697a61626c653a20636f6e747261637420697320616c72656160408201526d191e481a5b9a5d1a585b1a5e995960921b606082015260800190565b6020808252602b908201527f496e697469616c697a61626c653a20636f6e7472616374206973206e6f74206960408201526a6e697469616c697a696e6760a81b606082015260800190565b600060208284031215612e5857600080fd5b815161112481612893565b60005b83811015612e7e578181015183820152602001612e66565b83811115611fea5750506000910152565b60008251612ea1818460208701612e63565b9190910192915050565b6020815260008251806020840152612eca816040850160208701612e63565b601f01601f1916919091016040019291505056fea264697066735822122068b29d7129f9f074f938f871b06e8b2a7e504a4734c5da5b7316dd9c36208f5164736f6c634300080e0033",
  "bytecodeSha1": "f7d5193608cae1a6502425d06b083cd4ee3e72fb",
  "compiler": {
    "evm_version": "istanbul",
    "optimizer": {
      "enabled": true,
      "runs": 200
    },
    "version": "0.8.14+commit.80d49f37"
  },
  "contractName": "MockMainnetEscrow",
  "language": "Solidity",
  "natspec": {
    "kind": "dev",
    "methods": {
      "blacklistCurrency(address)": {
        "notice": "Used to blacklist a ERC20 token so it can not be used any longer as a payment currency"
      },
      "createERC20Raffle(address,uint128,address,uint128,uint64,uint64,uint64,bytes32)": {
        "notice": "Allows users to create a raffle of an ERC20 asset",
        "params": {
          "_amount": "Quantity of tokens to be raffled",
          "_currencyInPolygon": "Polygon ERC20 token address used to buy tickets. address(0) should be put here if the currency will be MATIC",
          "_durationInSeconds": "Duration in seconds of the raffle",
          "_merkleRoot": "Used so only whitelisted users can buy raffle tickets",
          "_minimumTicketsSold": "Number of tickets that should be sold in order to be a success raffle. If this minimum amount is not reached the owner of the raffle will be able to cancel the raffle, returning the users their payment plus a little collateral to cover for the gas fees. If this amount is reached, normal flow will be followed",
          "_numberOfTickets": "Number of tickets that will be sold as maximum in the raffle",
          "_pricePerTicket": "Price per ticket. It can be zero in case of an \"airdrop\"",
          "_tokenAddress": "Address of the token amount to raffle"
        }
      },
      "createERC721Raffle(address,uint128,address,uint128,uint64,uint64,uint64,bytes32)": {
        "notice": "Allows users to create a raffle of an ERC721 asset",
        "params": {
          "_currencyInPolygon": "Polygon ERC20 token address used to buy tickets. address(0) should be put here if the currency will be MATIC",
          "_durationInSeconds": "Duration in seconds of the raffle",
          "_merkleRoot": "Used so only whitelisted users can buy raffle tickets",
          "_minimumTicketsSold": "Number of tickets that should be sold in order to be a success raffle. If this minimum amount is not reached the owner of the raffle will be able to cancel the raffle, returning the users their payment plus a little collateral to cover for the gas fees. If this amount is reached, normal flow will be followed.",
          "_nftCollection": "Address of the NFT to raffle",
          "_nftId": "NFTid of the _nftCollection",
          "_numberOfTickets": "Number of tickets that will be sold as maximum in the raffle",
          "_pricePerTicket": "Price per ticket. It can be zero in case of an \"airdrop\""
        }
      },
      "isCurrencyWhitelisted(address)": {
        "notice": "############################################################################################                 VIEW FUNCTIONS  ############################################################################################"
      },
      "owner()": {
        "details": "Returns the address of the current owner."
      },
      "paused()": {
        "details": "Returns true if the contract is paused, and false otherwise."
      },
      "polygonCallback((address,address,bool,uint256,uint256)[])": {
        "notice": "Relayer will call this function to send updates from Polygon"
      },
      "renounceOwnership()": {
        "details": "Leaves the contract without owner. It will not be possible to call `onlyOwner` functions anymore. Can only be called by the current owner. NOTE: Renouncing ownership will leave the contract without an owner, thereby removing any functionality that is only available to the owner."
      },
      "setOpeningFee(uint256)": {
        "notice": "Used to set a new OPENING_FEE"
      },
      "setPriceFeed(address)": {
        "notice": "Used to set a new CurrencyPriceFeed contract"
      },
      "setRelayer(address)": {
        "notice": "Used to set a new relayer account"
      },
      "togglePause()": {
        "notice": "Used to pause/unpause the smart contract by the owner"
      },
      "togglePriceFeed()": {
        "notice": "Used to enable/disable CurrencyPriceFeeds contract"
      },
      "totalAmountClaimable(address)": {
        "notice": "Token address => Amount that owners of the contract can claim as fee rewards address(0) = Ether"
      },
      "transferOwnership(address)": {
        "details": "Transfers ownership of the contract to a new account (`newOwner`). Can only be called by the current owner."
      },
      "whitelistCurrency(address,address)": {
        "notice": "Used to whitelist a new ERC20 token to be used as a payment currency",
        "params": {
          "_ERC20TokenAddressMainnet": "Address of the token in Mainnet",
          "_ERC20TokenAddressPolygon": "Address of the token in Polygon"
        }
      },
      "withdrawFees(address[],uint256[],address)": {
        "notice": "Used by the contract owners to claim the fees accrued",
        "params": {
          "_amounts": "List of amounts that will be withdrawn",
          "_receiver": "Address that will receive the fees",
          "_tokenAddress": "List of tokens to withdraw the fees"
        }
      }
    },
    "version": 1
  },
  "opcodes": "PUSH1 0x80 PUSH1 0x40 MSTORE PUSH1 0x4 CALLDATASIZE LT PUSH2 0x1B7 JUMPI PUSH1 0x0 CALLDATALOAD PUSH1 0xE0 SHR DUP1 PUSH4 0x724E78DA GT PUSH2 0xEC JUMPI DUP1 PUSH4 0xA21AFC76 GT PUSH2 0x8A JUMPI DUP1 PUSH4 0xC4AE3168 GT PUSH2 0x64 JUMPI DUP1 PUSH4 0xC4AE3168 EQ PUSH2 0x4E7 JUMPI DUP1 PUSH4 0xDA653F00 EQ PUSH2 0x4FC JUMPI DUP1 PUSH4 0xF2FDE38B EQ PUSH2 0x51C JUMPI DUP1 PUSH4 0xFCC76B80 EQ PUSH2 0x53C JUMPI PUSH1 0x0 DUP1 REVERT JUMPDEST DUP1 PUSH4 0xA21AFC76 EQ PUSH2 0x492 JUMPI DUP1 PUSH4 0xB3F8D40D EQ PUSH2 0x4BF JUMPI DUP1 PUSH4 0xC2F90A2B EQ PUSH2 0x4D2 JUMPI PUSH1 0x0 DUP1 REVERT JUMPDEST DUP1 PUSH4 0x8406C079 GT PUSH2 0xC6 JUMPI DUP1 PUSH4 0x8406C079 EQ PUSH2 0x3FE JUMPI DUP1 PUSH4 0x86375994 EQ PUSH2 0x41E JUMPI DUP1 PUSH4 0x8DA5CB5B EQ PUSH2 0x43E JUMPI DUP1 PUSH4 0x95E3D9AB EQ PUSH2 0x45C JUMPI PUSH1 0x0 DUP1 REVERT JUMPDEST DUP1 PUSH4 0x724E78DA EQ PUSH2 0x386 JUMPI DUP1 PUSH4 0x744476B6 EQ PUSH2 0x3A6 JUMPI DUP1 PUSH4 0x7B631DA5 EQ PUSH2 0x3C6 JUMPI PUSH1 0x0 DUP1 REVERT JUMPDEST DUP1 PUSH4 0x4E4D58BB GT PUSH2 0x159 JUMPI DUP1 PUSH4 0x6548E9BC GT PUSH2 0x133 JUMPI DUP1 PUSH4 0x6548E9BC EQ PUSH2 0x321 JUMPI DUP1 PUSH4 0x66998E50 EQ PUSH2 0x341 JUMPI DUP1 PUSH4 0x697CA930 EQ PUSH2 0x357 JUMPI DUP1 PUSH4 0x715018A6 EQ PUSH2 0x371 JUMPI PUSH1 0x0 DUP1 REVERT JUMPDEST DUP1 PUSH4 0x4E4D58BB EQ PUSH2 0x2D3 JUMPI DUP1 PUSH4 0x52DEFBD0 EQ PUSH2 0x2E9 JUMPI DUP1 PUSH4 0x5C975ABB EQ PUSH2 0x309 JUMPI PUSH1 0x0 DUP1 REVERT JUMPDEST DUP1 PUSH4 0x34F65FA2 GT PUSH2 0x195 JUMPI DUP1 PUSH4 0x34F65FA2 EQ PUSH2 0x21A JUMPI DUP1 PUSH4 0x436CC138 EQ PUSH2 0x23A JUMPI DUP1 PUSH4 0x43B938C5 EQ PUSH2 0x27A JUMPI DUP1 PUSH4 0x485CC955 EQ PUSH2 0x2B3 JUMPI PUSH1 0x0 DUP1 REVERT JUMPDEST DUP1 PUSH4 0x23BBCB29 EQ PUSH2 0x1BC JUMPI DUP1 PUSH4 0x2BF78DD8 EQ PUSH2 0x1D1 JUMPI DUP1 PUSH4 0x31F91A84 EQ PUSH2 0x1FA JUMPI JUMPDEST PUSH1 0x0 DUP1 REVERT JUMPDEST PUSH2 0x1CF PUSH2 0x1CA CALLDATASIZE PUSH1 0x4 PUSH2 0x2597 JUMP JUMPDEST PUSH2 0x55C JUMP JUMPDEST STOP JUMPDEST CALLVALUE DUP1 ISZERO PUSH2 0x1DD JUMPI PUSH1 0x0 DUP1 REVERT JUMPDEST POP PUSH2 0x1E7 PUSH1 0x98 SLOAD DUP2 JUMP JUMPDEST PUSH1 0x40 MLOAD SWAP1 DUP2 MSTORE PUSH1 0x20 ADD JUMPDEST PUSH1 0x40 MLOAD DUP1 SWAP2 SUB SWAP1 RETURN JUMPDEST CALLVALUE DUP1 ISZERO PUSH2 0x206 JUMPI PUSH1 0x0 DUP1 REVERT JUMPDEST POP PUSH2 0x1CF PUSH2 0x215 CALLDATASIZE PUSH1 0x4 PUSH2 0x2676 JUMP JUMPDEST PUSH2 0x9B5 JUMP JUMPDEST CALLVALUE DUP1 ISZERO PUSH2 0x226 JUMPI PUSH1 0x0 DUP1 REVERT JUMPDEST POP PUSH2 0x1CF PUSH2 0x235 CALLDATASIZE PUSH1 0x4 PUSH2 0x26F9 JUMP JUMPDEST PUSH2 0xB29 JUMP JUMPDEST CALLVALUE DUP1 ISZERO PUSH2 0x246 JUMPI PUSH1 0x0 DUP1 REVERT JUMPDEST POP PUSH2 0x26A PUSH2 0x255 CALLDATASIZE PUSH1 0x4 PUSH2 0x2732 JUMP JUMPDEST PUSH1 0x97 PUSH1 0x20 MSTORE PUSH1 0x0 SWAP1 DUP2 MSTORE PUSH1 0x40 SWAP1 KECCAK256 SLOAD PUSH1 0xFF AND DUP2 JUMP JUMPDEST PUSH1 0x40 MLOAD SWAP1 ISZERO ISZERO DUP2 MSTORE PUSH1 0x20 ADD PUSH2 0x1F1 JUMP JUMPDEST CALLVALUE DUP1 ISZERO PUSH2 0x286 JUMPI PUSH1 0x0 DUP1 REVERT JUMPDEST POP PUSH2 0x26A PUSH2 0x295 CALLDATASIZE PUSH1 0x4 PUSH2 0x2732 JUMP JUMPDEST PUSH1 0x1 PUSH1 0x1 PUSH1 0xA0 SHL SUB AND PUSH1 0x0 SWAP1 DUP2 MSTORE PUSH1 0x97 PUSH1 0x20 MSTORE PUSH1 0x40 SWAP1 KECCAK256 SLOAD PUSH1 0xFF AND SWAP1 JUMP JUMPDEST CALLVALUE DUP1 ISZERO PUSH2 0x2BF JUMPI PUSH1 0x0 DUP1 REVERT JUMPDEST POP PUSH2 0x1CF PUSH2 0x2CE CALLDATASIZE PUSH1 0x4 PUSH2 0x26F9 JUMP JUMPDEST PUSH2 0xC0C JUMP JUMPDEST CALLVALUE DUP1 ISZERO PUSH2 0x2DF JUMPI PUSH1 0x0 DUP1 REVERT JUMPDEST POP PUSH2 0x1E7 PUSH2 0x1F4 DUP2 JUMP JUMPDEST CALLVALUE DUP1 ISZERO PUSH2 0x2F5 JUMPI PUSH1 0x0 DUP1 REVERT JUMPDEST POP PUSH2 0x1CF PUSH2 0x304 CALLDATASIZE PUSH1 0x4 PUSH2 0x2732 JUMP JUMPDEST PUSH2 0xD5E JUMP JUMPDEST CALLVALUE DUP1 ISZERO PUSH2 0x315 JUMPI PUSH1 0x0 DUP1 REVERT JUMPDEST POP PUSH1 0x65 SLOAD PUSH1 0xFF AND PUSH2 0x26A JUMP JUMPDEST CALLVALUE DUP1 ISZERO PUSH2 0x32D JUMPI PUSH1 0x0 DUP1 REVERT JUMPDEST POP PUSH2 0x1CF PUSH2 0x33C CALLDATASIZE PUSH1 0x4 PUSH2 0x2732 JUMP JUMPDEST PUSH2 0xE1D JUMP JUMPDEST CALLVALUE DUP1 ISZERO PUSH2 0x34D JUMPI PUSH1 0x0 DUP1 REVERT JUMPDEST POP PUSH2 0x1E7 PUSH2 0x2710 DUP2 JUMP JUMPDEST CALLVALUE DUP1 ISZERO PUSH2 0x363 JUMPI PUSH1 0x0 DUP1 REVERT JUMPDEST POP PUSH1 0x9D SLOAD PUSH2 0x26A SWAP1 PUSH1 0xFF AND DUP2 JUMP JUMPDEST CALLVALUE DUP1 ISZERO PUSH2 0x37D JUMPI PUSH1 0x0 DUP1 REVERT JUMPDEST POP PUSH2 0x1CF PUSH2 0xE86 JUMP JUMPDEST CALLVALUE DUP1 ISZERO PUSH2 0x392 JUMPI PUSH1 0x0 DUP1 REVERT JUMPDEST POP PUSH2 0x1CF PUSH2 0x3A1 CALLDATASIZE PUSH1 0x4 PUSH2 0x2732 JUMP JUMPDEST PUSH2 0xEBC JUMP JUMPDEST CALLVALUE DUP1 ISZERO PUSH2 0x3B2 JUMPI PUSH1 0x0 DUP1 REVERT JUMPDEST POP PUSH2 0x1E7 PUSH2 0x3C1 CALLDATASIZE PUSH1 0x4 PUSH2 0x274F JUMP JUMPDEST PUSH2 0xF25 JUMP JUMPDEST CALLVALUE DUP1 ISZERO PUSH2 0x3D2 JUMPI PUSH1 0x0 DUP1 REVERT JUMPDEST POP PUSH1 0x9B SLOAD PUSH2 0x3E6 SWAP1 PUSH1 0x1 PUSH1 0x1 PUSH1 0xA0 SHL SUB AND DUP2 JUMP JUMPDEST PUSH1 0x40 MLOAD PUSH1 0x1 PUSH1 0x1 PUSH1 0xA0 SHL SUB SWAP1 SWAP2 AND DUP2 MSTORE PUSH1 0x20 ADD PUSH2 0x1F1 JUMP JUMPDEST CALLVALUE DUP1 ISZERO PUSH2 0x40A JUMPI PUSH1 0x0 DUP1 REVERT JUMPDEST POP PUSH1 0x9A SLOAD PUSH2 0x3E6 SWAP1 PUSH1 0x1 PUSH1 0x1 PUSH1 0xA0 SHL SUB AND DUP2 JUMP JUMPDEST CALLVALUE DUP1 ISZERO PUSH2 0x42A JUMPI PUSH1 0x0 DUP1 REVERT JUMPDEST POP PUSH2 0x1CF PUSH2 0x439 CALLDATASIZE PUSH1 0x4 PUSH2 0x2794 JUMP JUMPDEST PUSH2 0x112B JUMP JUMPDEST CALLVALUE DUP1 ISZERO PUSH2 0x44A JUMPI PUSH1 0x0 DUP1 REVERT JUMPDEST POP PUSH1 0x33 SLOAD PUSH1 0x1 PUSH1 0x1 PUSH1 0xA0 SHL SUB AND PUSH2 0x3E6 JUMP JUMPDEST CALLVALUE DUP1 ISZERO PUSH2 0x468 JUMPI PUSH1 0x0 DUP1 REVERT JUMPDEST POP PUSH2 0x3E6 PUSH2 0x477 CALLDATASIZE PUSH1 0x4 PUSH2 0x2732 JUMP JUMPDEST PUSH1 0x9C PUSH1 0x20 MSTORE PUSH1 0x0 SWAP1 DUP2 MSTORE PUSH1 0x40 SWAP1 KECCAK256 SLOAD PUSH1 0x1 PUSH1 0x1 PUSH1 0xA0 SHL SUB AND DUP2 JUMP JUMPDEST CALLVALUE DUP1 ISZERO PUSH2 0x49E JUMPI PUSH1 0x0 DUP1 REVERT JUMPDEST POP PUSH2 0x1E7 PUSH2 0x4AD CALLDATASIZE PUSH1 0x4 PUSH2 0x2732 JUMP JUMPDEST PUSH1 0x99 PUSH1 0x20 MSTORE PUSH1 0x0 SWAP1 DUP2 MSTORE PUSH1 0x40 SWAP1 KECCAK256 SLOAD DUP2 JUMP JUMPDEST PUSH2 0x1CF PUSH2 0x4CD CALLDATASIZE PUSH1 0x4 PUSH2 0x2597 JUMP JUMPDEST PUSH2 0x116C JUMP JUMPDEST CALLVALUE DUP1 ISZERO PUSH2 0x4DE JUMPI PUSH1 0x0 DUP1 REVERT JUMPDEST POP PUSH2 0x1CF PUSH2 0x1559 JUMP JUMPDEST CALLVALUE DUP1 ISZERO PUSH2 0x4F3 JUMPI PUSH1 0x0 DUP1 REVERT JUMPDEST POP PUSH2 0x1CF PUSH2 0x1597 JUMP JUMPDEST CALLVALUE DUP1 ISZERO PUSH2 0x508 JUMPI PUSH1 0x0 DUP1 REVERT JUMPDEST POP PUSH2 0x1E7 PUSH2 0x517 CALLDATASIZE PUSH1 0x4 PUSH2 0x27AD JUMP JUMPDEST PUSH2 0x15B1 JUMP JUMPDEST CALLVALUE DUP1 ISZERO PUSH2 0x528 JUMPI PUSH1 0x0 DUP1 REVERT JUMPDEST POP PUSH2 0x1CF PUSH2 0x537 CALLDATASIZE PUSH1 0x4 PUSH2 0x2732 JUMP JUMPDEST PUSH2 0x1A03 JUMP JUMPDEST CALLVALUE DUP1 ISZERO PUSH2 0x548 JUMPI PUSH1 0x0 DUP1 REVERT JUMPDEST POP PUSH2 0x1CF PUSH2 0x557 CALLDATASIZE PUSH1 0x4 PUSH2 0x28A1 JUMP JUMPDEST PUSH2 0x1A9E JUMP JUMPDEST PUSH1 0x65 SLOAD PUSH1 0xFF AND ISZERO PUSH2 0x588 JUMPI PUSH1 0x40 MLOAD PUSH3 0x461BCD PUSH1 0xE5 SHL DUP2 MSTORE PUSH1 0x4 ADD PUSH2 0x57F SWAP1 PUSH2 0x29A3 JUMP JUMPDEST PUSH1 0x40 MLOAD DUP1 SWAP2 SUB SWAP1 REVERT JUMPDEST PUSH1 0x40 MLOAD PUSH4 0x31A9108F PUSH1 0xE1 SHL DUP2 MSTORE PUSH1 0x1 PUSH1 0x1 PUSH1 0x80 SHL SUB DUP9 AND PUSH1 0x4 DUP3 ADD MSTORE PUSH1 0x1 PUSH1 0x1 PUSH1 0xA0 SHL SUB DUP10 AND SWAP1 PUSH4 0x6352211E SWAP1 PUSH1 0x24 ADD PUSH1 0x20 PUSH1 0x40 MLOAD DUP1 DUP4 SUB DUP2 DUP7 GAS STATICCALL ISZERO DUP1 ISZERO PUSH2 0x5D5 JUMPI RETURNDATASIZE PUSH1 0x0 DUP1 RETURNDATACOPY RETURNDATASIZE PUSH1 0x0 REVERT JUMPDEST POP POP POP POP PUSH1 0x40 MLOAD RETURNDATASIZE PUSH1 0x1F NOT PUSH1 0x1F DUP3 ADD AND DUP3 ADD DUP1 PUSH1 0x40 MSTORE POP DUP2 ADD SWAP1 PUSH2 0x5F9 SWAP2 SWAP1 PUSH2 0x29CD JUMP JUMPDEST PUSH1 0x1 PUSH1 0x1 PUSH1 0xA0 SHL SUB AND CALLER PUSH1 0x1 PUSH1 0x1 PUSH1 0xA0 SHL SUB AND EQ PUSH2 0x659 JUMPI PUSH1 0x40 MLOAD PUSH3 0x461BCD PUSH1 0xE5 SHL DUP2 MSTORE PUSH1 0x20 PUSH1 0x4 DUP3 ADD MSTORE PUSH1 0x17 PUSH1 0x24 DUP3 ADD MSTORE PUSH32 0x596F7520646F206E6F74206F776E2074686973204E4654000000000000000000 PUSH1 0x44 DUP3 ADD MSTORE PUSH1 0x64 ADD PUSH2 0x57F JUMP JUMPDEST PUSH1 0x1 PUSH1 0x1 PUSH1 0xA0 SHL SUB DUP7 AND PUSH1 0x0 SWAP1 DUP2 MSTORE PUSH1 0x97 PUSH1 0x20 MSTORE PUSH1 0x40 SWAP1 KECCAK256 SLOAD PUSH1 0xFF AND PUSH2 0x6C1 JUMPI PUSH1 0x40 MLOAD PUSH3 0x461BCD PUSH1 0xE5 SHL DUP2 MSTORE PUSH1 0x20 PUSH1 0x4 DUP3 ADD DUP2 SWAP1 MSTORE PUSH1 0x24 DUP3 ADD MSTORE PUSH32 0x546869732063757272656E6379206973206E6F742077686974656C6973746564 PUSH1 0x44 DUP3 ADD MSTORE PUSH1 0x64 ADD PUSH2 0x57F JUMP JUMPDEST PUSH1 0x1 DUP5 PUSH1 0x1 PUSH1 0x1 PUSH1 0x40 SHL SUB AND GT PUSH2 0x6EA JUMPI PUSH1 0x40 MLOAD PUSH3 0x461BCD PUSH1 0xE5 SHL DUP2 MSTORE PUSH1 0x4 ADD PUSH2 0x57F SWAP1 PUSH2 0x29EA JUMP JUMPDEST DUP4 PUSH1 0x1 PUSH1 0x1 PUSH1 0x40 SHL SUB AND DUP4 PUSH1 0x1 PUSH1 0x1 PUSH1 0x40 SHL SUB AND GT ISZERO PUSH2 0x71C JUMPI PUSH1 0x40 MLOAD PUSH3 0x461BCD PUSH1 0xE5 SHL DUP2 MSTORE PUSH1 0x4 ADD PUSH2 0x57F SWAP1 PUSH2 0x2A2E JUMP JUMPDEST PUSH2 0xA8C0 DUP3 PUSH1 0x1 PUSH1 0x1 PUSH1 0x40 SHL SUB AND LT ISZERO PUSH2 0x777 JUMPI PUSH1 0x40 MLOAD PUSH3 0x461BCD PUSH1 0xE5 SHL DUP2 MSTORE PUSH1 0x20 PUSH1 0x4 DUP3 ADD MSTORE PUSH1 0x1C PUSH1 0x24 DUP3 ADD MSTORE PUSH32 0x4D696E696D756D206475726174696F6E20697320313220686F75727300000000 PUSH1 0x44 DUP3 ADD MSTORE PUSH1 0x64 ADD PUSH2 0x57F JUMP JUMPDEST PUSH1 0x0 PUSH2 0x784 DUP8 DUP8 DUP7 PUSH2 0xF25 JUMP JUMPDEST SWAP1 POP DUP1 PUSH1 0x98 SLOAD PUSH2 0x794 SWAP2 SWAP1 PUSH2 0x2A92 JUMP JUMPDEST CALLVALUE EQ PUSH2 0x7D8 JUMPI PUSH1 0x40 MLOAD PUSH3 0x461BCD PUSH1 0xE5 SHL DUP2 MSTORE PUSH1 0x20 PUSH1 0x4 DUP3 ADD MSTORE PUSH1 0x13 PUSH1 0x24 DUP3 ADD MSTORE PUSH19 0x125B98DBDC9C9958DD081999595CC81CD95B9D PUSH1 0x6A SHL PUSH1 0x44 DUP3 ADD MSTORE PUSH1 0x64 ADD PUSH2 0x57F JUMP JUMPDEST PUSH1 0x98 SLOAD PUSH1 0x0 DUP1 DUP1 MSTORE PUSH1 0x99 PUSH1 0x20 MSTORE PUSH32 0x235D629DC802037DED8C61CB27FB29E40FA01B299719D8F991FFE20BDCC59F4F DUP1 SLOAD SWAP1 SWAP2 SWAP1 PUSH2 0x816 SWAP1 DUP5 SWAP1 PUSH2 0x2A92 JUMP JUMPDEST SWAP1 SWAP2 SSTORE POP POP PUSH1 0x40 MLOAD PUSH4 0x23B872DD PUSH1 0xE0 SHL DUP2 MSTORE CALLER PUSH1 0x4 DUP3 ADD MSTORE ADDRESS PUSH1 0x24 DUP3 ADD MSTORE PUSH1 0x1 PUSH1 0x1 PUSH1 0x80 SHL SUB DUP10 AND PUSH1 0x44 DUP3 ADD MSTORE PUSH1 0x1 PUSH1 0x1 PUSH1 0xA0 SHL SUB DUP11 AND SWAP1 PUSH4 0x23B872DD SWAP1 PUSH1 0x64 ADD PUSH1 0x0 PUSH1 0x40 MLOAD DUP1 DUP4 SUB DUP2 PUSH1 0x0 DUP8 DUP1 EXTCODESIZE ISZERO DUP1 ISZERO PUSH2 0x871 JUMPI PUSH1 0x0 DUP1 REVERT JUMPDEST POP GAS CALL ISZERO DUP1 ISZERO PUSH2 0x885 JUMPI RETURNDATASIZE PUSH1 0x0 DUP1 RETURNDATACOPY RETURNDATASIZE PUSH1 0x0 REVERT JUMPDEST POP POP PUSH1 0x40 MLOAD PUSH4 0x31A9108F PUSH1 0xE1 SHL DUP2 MSTORE PUSH1 0x1 PUSH1 0x1 PUSH1 0x80 SHL SUB DUP12 AND PUSH1 0x4 DUP3 ADD MSTORE PUSH1 0x1 PUSH1 0x1 PUSH1 0xA0 SHL SUB DUP13 AND SWAP3 POP PUSH4 0x6352211E SWAP2 POP PUSH1 0x24 ADD PUSH1 0x20 PUSH1 0x40 MLOAD DUP1 DUP4 SUB DUP2 DUP7 GAS STATICCALL ISZERO DUP1 ISZERO PUSH2 0x8D6 JUMPI RETURNDATASIZE PUSH1 0x0 DUP1 RETURNDATACOPY RETURNDATASIZE PUSH1 0x0 REVERT JUMPDEST POP POP POP POP PUSH1 0x40 MLOAD RETURNDATASIZE PUSH1 0x1F NOT PUSH1 0x1F DUP3 ADD AND DUP3 ADD DUP1 PUSH1 0x40 MSTORE POP DUP2 ADD SWAP1 PUSH2 0x8FA SWAP2 SWAP1 PUSH2 0x29CD JUMP JUMPDEST PUSH1 0x1 PUSH1 0x1 PUSH1 0xA0 SHL SUB AND ADDRESS PUSH1 0x1 PUSH1 0x1 PUSH1 0xA0 SHL SUB AND EQ PUSH2 0x94C JUMPI PUSH1 0x40 MLOAD PUSH3 0x461BCD PUSH1 0xE5 SHL DUP2 MSTORE PUSH1 0x20 PUSH1 0x4 DUP3 ADD MSTORE PUSH1 0xF PUSH1 0x24 DUP3 ADD MSTORE PUSH15 0x151C985B9CD9995C8819985A5B1959 PUSH1 0x8A SHL PUSH1 0x44 DUP3 ADD MSTORE PUSH1 0x64 ADD PUSH2 0x57F JUMP JUMPDEST PUSH32 0xB26C0BF32D8D3EFF0D0561D0B30F4BF8962A18678833B276FCBBE06C48E9EAAA DUP10 CALLER PUSH1 0x0 DUP12 DUP12 DUP12 DUP12 DUP12 PUSH2 0x989 PUSH1 0x1 PUSH1 0x1 PUSH1 0x40 SHL SUB DUP14 AND TIMESTAMP PUSH2 0x2A92 JUMP JUMPDEST DUP12 DUP12 PUSH1 0x40 MLOAD PUSH2 0x9A2 SWAP12 SWAP11 SWAP10 SWAP9 SWAP8 SWAP7 SWAP6 SWAP5 SWAP4 SWAP3 SWAP2 SWAP1 PUSH2 0x2AAA JUMP JUMPDEST PUSH1 0x40 MLOAD DUP1 SWAP2 SUB SWAP1 LOG1 POP POP POP POP POP POP POP POP POP JUMP JUMPDEST DUP4 DUP3 DUP2 EQ PUSH2 0xA05 JUMPI PUSH1 0x40 MLOAD PUSH3 0x461BCD PUSH1 0xE5 SHL DUP2 MSTORE PUSH1 0x20 PUSH1 0x4 DUP3 ADD MSTORE PUSH1 0x1A PUSH1 0x24 DUP3 ADD MSTORE PUSH32 0x4172726179206C656E6774687320646F206E6F74206D61746368000000000000 PUSH1 0x44 DUP3 ADD MSTORE PUSH1 0x64 ADD PUSH2 0x57F JUMP JUMPDEST PUSH1 0x0 DUP1 PUSH1 0x0 JUMPDEST DUP4 DUP2 LT ISZERO PUSH2 0xB1E JUMPI DUP9 DUP9 DUP3 DUP2 DUP2 LT PUSH2 0xA25 JUMPI PUSH2 0xA25 PUSH2 0x2B63 JUMP JUMPDEST SWAP1 POP PUSH1 0x20 MUL ADD PUSH1 0x20 DUP2 ADD SWAP1 PUSH2 0xA3A SWAP2 SWAP1 PUSH2 0x2732 JUMP JUMPDEST SWAP2 POP DUP7 DUP7 DUP3 DUP2 DUP2 LT PUSH2 0xA4E JUMPI PUSH2 0xA4E PUSH2 0x2B63 JUMP JUMPDEST SWAP1 POP PUSH1 0x20 MUL ADD CALLDATALOAD SWAP3 POP PUSH1 0x99 PUSH1 0x0 DUP4 PUSH1 0x1 PUSH1 0x1 PUSH1 0xA0 SHL SUB AND PUSH1 0x1 PUSH1 0x1 PUSH1 0xA0 SHL SUB AND DUP2 MSTORE PUSH1 0x20 ADD SWAP1 DUP2 MSTORE PUSH1 0x20 ADD PUSH1 0x0 KECCAK256 SLOAD DUP4 GT ISZERO PUSH2 0xABE JUMPI PUSH1 0x40 MLOAD PUSH3 0x461BCD PUSH1 0xE5 SHL DUP2 MSTORE PUSH1 0x20 PUSH1 0x4 DUP3 ADD MSTORE PUSH1 0xF PUSH1 0x24 DUP3 ADD MSTORE PUSH15 0x82DADEEADCE840E8DEDE40D0D2CED PUSH1 0x8B SHL PUSH1 0x44 DUP3 ADD MSTORE PUSH1 0x64 ADD PUSH2 0x57F JUMP JUMPDEST PUSH1 0x1 PUSH1 0x1 PUSH1 0xA0 SHL SUB DUP3 AND PUSH2 0xADB JUMPI PUSH2 0xAD6 DUP6 DUP5 PUSH2 0x1EAC JUMP JUMPDEST PUSH2 0xAEF JUMP JUMPDEST PUSH2 0xAEF PUSH1 0x1 PUSH1 0x1 PUSH1 0xA0 SHL SUB DUP4 AND DUP7 DUP6 PUSH2 0x1FF0 JUMP JUMPDEST PUSH1 0x1 PUSH1 0x1 PUSH1 0xA0 SHL SUB DUP3 AND PUSH1 0x0 SWAP1 DUP2 MSTORE PUSH1 0x99 PUSH1 0x20 MSTORE PUSH1 0x40 SWAP1 KECCAK256 DUP1 SLOAD DUP5 SWAP1 SUB SWAP1 SSTORE PUSH2 0xB17 DUP2 PUSH2 0x2B79 JUMP JUMPDEST SWAP1 POP PUSH2 0xA0B JUMP JUMPDEST POP POP POP POP POP POP POP POP POP JUMP JUMPDEST PUSH1 0x1 PUSH1 0x1 PUSH1 0xA0 SHL SUB DUP3 AND PUSH1 0x0 SWAP1 DUP2 MSTORE PUSH1 0x97 PUSH1 0x20 MSTORE PUSH1 0x40 SWAP1 KECCAK256 SLOAD PUSH1 0xFF AND ISZERO PUSH2 0xB92 JUMPI PUSH1 0x40 MLOAD PUSH3 0x461BCD PUSH1 0xE5 SHL DUP2 MSTORE PUSH1 0x20 PUSH1 0x4 DUP3 ADD MSTORE PUSH1 0x1C PUSH1 0x24 DUP3 ADD MSTORE PUSH32 0x546F6B656E20697320616C72656164792077686974656C697374656400000000 PUSH1 0x44 DUP3 ADD MSTORE PUSH1 0x64 ADD PUSH2 0x57F JUMP JUMPDEST PUSH1 0x1 PUSH1 0x1 PUSH1 0xA0 SHL SUB DUP3 DUP2 AND PUSH1 0x0 DUP2 DUP2 MSTORE PUSH1 0x97 PUSH1 0x20 SWAP1 DUP2 MSTORE PUSH1 0x40 DUP1 DUP4 KECCAK256 DUP1 SLOAD PUSH1 0x1 PUSH1 0xFF NOT SWAP1 SWAP2 AND OR SWAP1 SSTORE PUSH1 0x9C DUP3 MSTORE SWAP2 DUP3 SWAP1 KECCAK256 DUP1 SLOAD PUSH1 0x1 PUSH1 0x1 PUSH1 0xA0 SHL SUB NOT AND SWAP5 DUP7 AND SWAP5 SWAP1 SWAP5 OR SWAP1 SWAP4 SSTORE MLOAD SWAP1 DUP2 MSTORE PUSH32 0x5C6CF68A9D7E416D0EEE740661627DD794257920F1C63DDAE6C6AF81D02D12EA SWAP2 ADD PUSH1 0x40 MLOAD DUP1 SWAP2 SUB SWAP1 LOG1 POP POP JUMP JUMPDEST PUSH1 0x0 PUSH2 0xC18 PUSH1 0x1 PUSH2 0x2053 JUMP JUMPDEST SWAP1 POP DUP1 ISZERO PUSH2 0xC30 JUMPI PUSH1 0x0 DUP1 SLOAD PUSH2 0xFF00 NOT AND PUSH2 0x100 OR SWAP1 SSTORE JUMPDEST PUSH2 0xC38 PUSH2 0x20E0 JUMP JUMPDEST PUSH2 0xC40 PUSH2 0x210F JUMP JUMPDEST PUSH1 0x9A DUP1 SLOAD PUSH1 0x1 PUSH1 0x1 PUSH1 0xA0 SHL SUB DUP1 DUP7 AND PUSH1 0x1 PUSH1 0x1 PUSH1 0xA0 SHL SUB NOT SWAP3 DUP4 AND OR SWAP1 SWAP3 SSTORE PUSH1 0x9B DUP1 SLOAD SWAP3 DUP6 AND SWAP3 DUP3 AND SWAP3 SWAP1 SWAP3 OR SWAP1 SWAP2 SSTORE PUSH1 0x9D DUP1 SLOAD PUSH1 0xFF NOT SWAP1 DUP2 AND PUSH1 0x1 SWAP1 DUP2 OR SWAP1 SWAP3 SSTORE PUSH20 0x7CEB23FD6BC0ADD59E62AC25578270CFF1B9F619 PUSH1 0x0 MSTORE PUSH32 0x1A0ACAC70E8CAB5A31AC0C028653F1612AEC657B1C8333C74EABA0C30E0EE391 DUP1 SLOAD SWAP1 SWAP2 AND SWAP1 SWAP2 OR SWAP1 SSTORE PUSH1 0x9C PUSH1 0x20 MSTORE PUSH32 0x54CB885AAE8EFE3410AF7107761EDCAE51EE12661F9443184B5E9D063DDF7FA5 DUP1 SLOAD SWAP1 SWAP2 AND PUSH20 0xC02AAA39B223FE8D0A0E5C4F27EAD9083C756CC2 OR SWAP1 SSTORE PUSH7 0x6A94D74F430000 PUSH1 0x98 SSTORE DUP1 ISZERO PUSH2 0xD59 JUMPI PUSH1 0x0 DUP1 SLOAD PUSH2 0xFF00 NOT AND SWAP1 SSTORE PUSH1 0x40 MLOAD PUSH1 0x1 DUP2 MSTORE PUSH32 0x7F26B83FF96E1F2B6A682F133852F6798A09C465DA95921460CEFB3847402498 SWAP1 PUSH1 0x20 ADD PUSH1 0x40 MLOAD DUP1 SWAP2 SUB SWAP1 LOG1 JUMPDEST POP POP POP JUMP JUMPDEST PUSH1 0x1 PUSH1 0x1 PUSH1 0xA0 SHL SUB DUP2 AND PUSH1 0x0 SWAP1 DUP2 MSTORE PUSH1 0x97 PUSH1 0x20 MSTORE PUSH1 0x40 SWAP1 KECCAK256 SLOAD PUSH1 0xFF AND PUSH2 0xDC6 JUMPI PUSH1 0x40 MLOAD PUSH3 0x461BCD PUSH1 0xE5 SHL DUP2 MSTORE PUSH1 0x20 PUSH1 0x4 DUP3 ADD MSTORE PUSH1 0x18 PUSH1 0x24 DUP3 ADD MSTORE PUSH32 0x546F6B656E206973206E6F742077686974656C69737465640000000000000000 PUSH1 0x44 DUP3 ADD MSTORE PUSH1 0x64 ADD PUSH2 0x57F JUMP JUMPDEST PUSH1 0x1 PUSH1 0x1 PUSH1 0xA0 SHL SUB DUP2 AND PUSH1 0x0 DUP2 DUP2 MSTORE PUSH1 0x97 PUSH1 0x20 SWAP1 DUP2 MSTORE PUSH1 0x40 SWAP2 DUP3 SWAP1 KECCAK256 DUP1 SLOAD PUSH1 0xFF NOT AND SWAP1 SSTORE SWAP1 MLOAD SWAP2 DUP3 MSTORE PUSH32 0xDC0548BC90523A9E943EA77D199875FDC1E4F8A419B6D53A595B5E6671480E5 SWAP2 ADD PUSH1 0x40 MLOAD DUP1 SWAP2 SUB SWAP1 LOG1 POP JUMP JUMPDEST PUSH1 0x9A SLOAD PUSH1 0x40 DUP1 MLOAD PUSH1 0x1 PUSH1 0x1 PUSH1 0xA0 SHL SUB SWAP3 DUP4 AND DUP2 MSTORE SWAP2 DUP4 AND PUSH1 0x20 DUP4 ADD MSTORE PUSH32 0x605CA4E43489FB38B91AA63DD9147CD3847957694B080B9285EC898B34269F0C SWAP2 ADD PUSH1 0x40 MLOAD DUP1 SWAP2 SUB SWAP1 LOG1 PUSH1 0x9A DUP1 SLOAD PUSH1 0x1 PUSH1 0x1 PUSH1 0xA0 SHL SUB NOT AND PUSH1 0x1 PUSH1 0x1 PUSH1 0xA0 SHL SUB SWAP3 SWAP1 SWAP3 AND SWAP2 SWAP1 SWAP2 OR SWAP1 SSTORE JUMP JUMPDEST PUSH1 0x33 SLOAD PUSH1 0x1 PUSH1 0x1 PUSH1 0xA0 SHL SUB AND CALLER EQ PUSH2 0xEB0 JUMPI PUSH1 0x40 MLOAD PUSH3 0x461BCD PUSH1 0xE5 SHL DUP2 MSTORE PUSH1 0x4 ADD PUSH2 0x57F SWAP1 PUSH2 0x2B92 JUMP JUMPDEST PUSH2 0xEBA PUSH1 0x0 PUSH2 0x213E JUMP JUMPDEST JUMP JUMPDEST PUSH1 0x9B SLOAD PUSH1 0x40 DUP1 MLOAD PUSH1 0x1 PUSH1 0x1 PUSH1 0xA0 SHL SUB SWAP3 DUP4 AND DUP2 MSTORE SWAP2 DUP4 AND PUSH1 0x20 DUP4 ADD MSTORE PUSH32 0xA8ABE0398416476DB5B05737CD4DA3B3CBDE5012D978A6A6C3FD49D321753536 SWAP2 ADD PUSH1 0x40 MLOAD DUP1 SWAP2 SUB SWAP1 LOG1 PUSH1 0x9B DUP1 SLOAD PUSH1 0x1 PUSH1 0x1 PUSH1 0xA0 SHL SUB NOT AND PUSH1 0x1 PUSH1 0x1 PUSH1 0xA0 SHL SUB SWAP3 SWAP1 SWAP3 AND SWAP2 SWAP1 SWAP2 OR SWAP1 SSTORE JUMP JUMPDEST PUSH1 0x1 PUSH1 0x1 PUSH1 0xA0 SHL SUB DUP1 DUP5 AND PUSH1 0x0 SWAP1 DUP2 MSTORE PUSH1 0x9C PUSH1 0x20 SWAP1 DUP2 MSTORE PUSH1 0x40 DUP1 DUP4 KECCAK256 SLOAD DUP2 MLOAD PUSH4 0x313CE567 PUSH1 0xE0 SHL DUP2 MSTORE SWAP2 MLOAD SWAP4 SWAP5 DUP6 SWAP5 SWAP2 AND SWAP3 PUSH4 0x313CE567 SWAP3 PUSH1 0x4 DUP1 DUP3 ADD SWAP4 SWAP2 DUP3 SWAP1 SUB ADD DUP2 DUP7 GAS STATICCALL ISZERO DUP1 ISZERO PUSH2 0xF7D JUMPI RETURNDATASIZE PUSH1 0x0 DUP1 RETURNDATACOPY RETURNDATASIZE PUSH1 0x0 REVERT JUMPDEST POP POP POP POP PUSH1 0x40 MLOAD RETURNDATASIZE PUSH1 0x1F NOT PUSH1 0x1F DUP3 ADD AND DUP3 ADD DUP1 PUSH1 0x40 MSTORE POP DUP2 ADD SWAP1 PUSH2 0xFA1 SWAP2 SWAP1 PUSH2 0x2BC7 JUMP JUMPDEST PUSH2 0xFAC SWAP1 PUSH1 0xA PUSH2 0x2CD0 JUMP JUMPDEST PUSH1 0x9B SLOAD PUSH1 0x1 PUSH1 0x1 PUSH1 0xA0 SHL SUB DUP8 DUP2 AND PUSH1 0x0 SWAP1 DUP2 MSTORE PUSH1 0x9C PUSH1 0x20 MSTORE PUSH1 0x40 SWAP1 DUP2 SWAP1 KECCAK256 SLOAD SWAP1 MLOAD PUSH4 0xA4B943FB PUSH1 0xE0 SHL DUP2 MSTORE SWAP1 DUP3 AND PUSH1 0x4 DUP3 ADD MSTORE PUSH1 0x1 PUSH1 0x1 PUSH1 0x40 SHL SUB DUP8 AND SWAP3 PUSH1 0x1 PUSH1 0x1 PUSH1 0x80 SHL SUB DUP10 AND SWAP3 AND SWAP1 PUSH4 0xA4B943FB SWAP1 PUSH1 0x24 ADD PUSH1 0x20 PUSH1 0x40 MLOAD DUP1 DUP4 SUB DUP2 DUP7 GAS STATICCALL ISZERO DUP1 ISZERO PUSH2 0x101D JUMPI RETURNDATASIZE PUSH1 0x0 DUP1 RETURNDATACOPY RETURNDATASIZE PUSH1 0x0 REVERT JUMPDEST POP POP POP POP PUSH1 0x40 MLOAD RETURNDATASIZE PUSH1 0x1F NOT PUSH1 0x1F DUP3 ADD AND DUP3 ADD DUP1 PUSH1 0x40 MSTORE POP DUP2 ADD SWAP1 PUSH2 0x1041 SWAP2 SWAP1 PUSH2 0x2CDF JUMP JUMPDEST PUSH2 0x104B SWAP2 SWAP1 PUSH2 0x2CF8 JUMP JUMPDEST PUSH2 0x1055 SWAP2 SWAP1 PUSH2 0x2CF8 JUMP JUMPDEST PUSH2 0x105F SWAP2 SWAP1 PUSH2 0x2D2D JUMP JUMPDEST SWAP1 POP PUSH1 0x0 PUSH2 0x2710 PUSH2 0x1072 PUSH2 0x1F4 DUP5 PUSH2 0x2CF8 JUMP JUMPDEST PUSH2 0x107C SWAP2 SWAP1 PUSH2 0x2D2D JUMP JUMPDEST PUSH1 0x9B SLOAD PUSH1 0x40 MLOAD PUSH4 0xA4B943FB PUSH1 0xE0 SHL DUP2 MSTORE PUSH20 0xEEEEEEEEEEEEEEEEEEEEEEEEEEEEEEEEEEEEEEEE PUSH1 0x4 DUP3 ADD MSTORE SWAP2 SWAP3 POP PUSH1 0x0 SWAP2 PUSH1 0x1 PUSH1 0x1 PUSH1 0xA0 SHL SUB SWAP1 SWAP2 AND SWAP1 PUSH4 0xA4B943FB SWAP1 PUSH1 0x24 ADD PUSH1 0x20 PUSH1 0x40 MLOAD DUP1 DUP4 SUB DUP2 DUP7 GAS STATICCALL ISZERO DUP1 ISZERO PUSH2 0x10DE JUMPI RETURNDATASIZE PUSH1 0x0 DUP1 RETURNDATACOPY RETURNDATASIZE PUSH1 0x0 REVERT JUMPDEST POP POP POP POP PUSH1 0x40 MLOAD RETURNDATASIZE PUSH1 0x1F NOT PUSH1 0x1F DUP3 ADD AND DUP3 ADD DUP1 PUSH1 0x40 MSTORE POP DUP2 ADD SWAP1 PUSH2 0x1102 SWAP2 SWAP1 PUSH2 0x2CDF JUMP JUMPDEST PUSH2 0x1114 DUP4 PUSH8 0xDE0B6B3A7640000 PUSH2 0x2CF8 JUMP JUMPDEST PUSH2 0x111E SWAP2 SWAP1 PUSH2 0x2D2D JUMP JUMPDEST SWAP4 POP POP POP POP JUMPDEST SWAP4 SWAP3 POP POP POP JUMP JUMPDEST PUSH1 0x98 SLOAD PUSH1 0x40 DUP1 MLOAD SWAP2 DUP3 MSTORE PUSH1 0x20 DUP3 ADD DUP4 SWAP1 MSTORE PUSH32 0x9DC2340C6769757C8D7DFE3A65A3F1E297ED8F919BED31501223AC8AA85DC63D SWAP2 ADD PUSH1 0x40 MLOAD DUP1 SWAP2 SUB SWAP1 LOG1 PUSH1 0x98 SSTORE JUMP JUMPDEST PUSH1 0x65 SLOAD PUSH1 0xFF AND ISZERO PUSH2 0x118F JUMPI PUSH1 0x40 MLOAD PUSH3 0x461BCD PUSH1 0xE5 SHL DUP2 MSTORE PUSH1 0x4 ADD PUSH2 0x57F SWAP1 PUSH2 0x29A3 JUMP JUMPDEST PUSH1 0x1 PUSH1 0x1 PUSH1 0xA0 SHL SUB DUP7 AND PUSH1 0x0 SWAP1 DUP2 MSTORE PUSH1 0x97 PUSH1 0x20 MSTORE PUSH1 0x40 SWAP1 KECCAK256 SLOAD PUSH1 0xFF AND PUSH2 0x11F7 JUMPI PUSH1 0x40 MLOAD PUSH3 0x461BCD PUSH1 0xE5 SHL DUP2 MSTORE PUSH1 0x20 PUSH1 0x4 DUP3 ADD DUP2 SWAP1 MSTORE PUSH1 0x24 DUP3 ADD MSTORE PUSH32 0x546869732063757272656E6379206973206E6F742077686974656C6973746564 PUSH1 0x44 DUP3 ADD MSTORE PUSH1 0x64 ADD PUSH2 0x57F JUMP JUMPDEST PUSH1 0x1 DUP5 PUSH1 0x1 PUSH1 0x1 PUSH1 0x40 SHL SUB AND GT PUSH2 0x1220 JUMPI PUSH1 0x40 MLOAD PUSH3 0x461BCD PUSH1 0xE5 SHL DUP2 MSTORE PUSH1 0x4 ADD PUSH2 0x57F SWAP1 PUSH2 0x29EA JUMP JUMPDEST DUP4 PUSH1 0x1 PUSH1 0x1 PUSH1 0x40 SHL SUB AND DUP4 PUSH1 0x1 PUSH1 0x1 PUSH1 0x40 SHL SUB AND GT ISZERO PUSH2 0x1252 JUMPI PUSH1 0x40 MLOAD PUSH3 0x461BCD PUSH1 0xE5 SHL DUP2 MSTORE PUSH1 0x4 ADD PUSH2 0x57F SWAP1 PUSH2 0x2A2E JUMP JUMPDEST PUSH2 0xA8C0 DUP3 PUSH1 0x1 PUSH1 0x1 PUSH1 0x40 SHL SUB AND LT ISZERO PUSH2 0x12AD JUMPI PUSH1 0x40 MLOAD PUSH3 0x461BCD PUSH1 0xE5 SHL DUP2 MSTORE PUSH1 0x20 PUSH1 0x4 DUP3 ADD MSTORE PUSH1 0x1C PUSH1 0x24 DUP3 ADD MSTORE PUSH32 0x4D696E696D756D206475726174696F6E20697320313220686F75727300000000 PUSH1 0x44 DUP3 ADD MSTORE PUSH1 0x64 ADD PUSH2 0x57F JUMP JUMPDEST PUSH1 0x0 PUSH2 0x12BD DUP10 DUP10 DUP10 DUP10 DUP10 DUP10 PUSH2 0x15B1 JUMP JUMPDEST SWAP1 POP PUSH1 0x1 PUSH1 0x1 PUSH1 0xA0 SHL SUB DUP10 AND PUSH2 0x132B JUMPI PUSH1 0x98 SLOAD PUSH2 0x12E3 SWAP1 PUSH1 0x1 PUSH1 0x1 PUSH1 0x80 SHL SUB DUP11 AND PUSH2 0x2A92 JUMP JUMPDEST CALLVALUE EQ PUSH2 0x1326 JUMPI PUSH1 0x40 MLOAD PUSH3 0x461BCD PUSH1 0xE5 SHL DUP2 MSTORE PUSH1 0x20 PUSH1 0x4 DUP3 ADD MSTORE PUSH1 0x12 PUSH1 0x24 DUP3 ADD MSTORE PUSH18 0x125B98DBDC9C9958DD08199959481CD95B9D PUSH1 0x72 SHL PUSH1 0x44 DUP3 ADD MSTORE PUSH1 0x64 ADD PUSH2 0x57F JUMP JUMPDEST PUSH2 0x14D8 JUMP JUMPDEST PUSH1 0x98 SLOAD CALLVALUE EQ PUSH2 0x137C JUMPI PUSH1 0x40 MLOAD PUSH3 0x461BCD PUSH1 0xE5 SHL DUP2 MSTORE PUSH1 0x20 PUSH1 0x4 DUP3 ADD MSTORE PUSH1 0x1A PUSH1 0x24 DUP3 ADD MSTORE PUSH32 0x496E636F7272656374204F50454E494E475F4645452073656E74000000000000 PUSH1 0x44 DUP3 ADD MSTORE PUSH1 0x64 ADD PUSH2 0x57F JUMP JUMPDEST PUSH1 0x40 MLOAD PUSH4 0x70A08231 PUSH1 0xE0 SHL DUP2 MSTORE ADDRESS PUSH1 0x4 DUP3 ADD MSTORE PUSH1 0x0 SWAP1 PUSH1 0x1 PUSH1 0x1 PUSH1 0xA0 SHL SUB DUP12 AND SWAP1 PUSH4 0x70A08231 SWAP1 PUSH1 0x24 ADD PUSH1 0x20 PUSH1 0x40 MLOAD DUP1 DUP4 SUB DUP2 DUP7 GAS STATICCALL ISZERO DUP1 ISZERO PUSH2 0x13C3 JUMPI RETURNDATASIZE PUSH1 0x0 DUP1 RETURNDATACOPY RETURNDATASIZE PUSH1 0x0 REVERT JUMPDEST POP POP POP POP PUSH1 0x40 MLOAD RETURNDATASIZE PUSH1 0x1F NOT PUSH1 0x1F DUP3 ADD AND DUP3 ADD DUP1 PUSH1 0x40 MSTORE POP DUP2 ADD SWAP1 PUSH2 0x13E7 SWAP2 SWAP1 PUSH2 0x2CDF JUMP JUMPDEST SWAP1 POP PUSH2 0x1407 PUSH1 0x1 PUSH1 0x1 PUSH1 0xA0 SHL SUB DUP12 AND CALLER ADDRESS PUSH1 0x1 PUSH1 0x1 PUSH1 0x80 SHL SUB DUP14 AND PUSH2 0x2190 JUMP JUMPDEST PUSH1 0x40 MLOAD PUSH4 0x70A08231 PUSH1 0xE0 SHL DUP2 MSTORE ADDRESS PUSH1 0x4 DUP3 ADD MSTORE PUSH1 0x0 SWAP1 PUSH1 0x1 PUSH1 0x1 PUSH1 0xA0 SHL SUB DUP13 AND SWAP1 PUSH4 0x70A08231 SWAP1 PUSH1 0x24 ADD PUSH1 0x20 PUSH1 0x40 MLOAD DUP1 DUP4 SUB DUP2 DUP7 GAS STATICCALL ISZERO DUP1 ISZERO PUSH2 0x144E JUMPI RETURNDATASIZE PUSH1 0x0 DUP1 RETURNDATACOPY RETURNDATASIZE PUSH1 0x0 REVERT JUMPDEST POP POP POP POP PUSH1 0x40 MLOAD RETURNDATASIZE PUSH1 0x1F NOT PUSH1 0x1F DUP3 ADD AND DUP3 ADD DUP1 PUSH1 0x40 MSTORE POP DUP2 ADD SWAP1 PUSH2 0x1472 SWAP2 SWAP1 PUSH2 0x2CDF JUMP JUMPDEST SWAP1 POP PUSH2 0x147E DUP3 DUP3 PUSH2 0x2D41 JUMP JUMPDEST DUP11 PUSH1 0x1 PUSH1 0x1 PUSH1 0x80 SHL SUB AND EQ PUSH2 0x14D5 JUMPI PUSH1 0x40 MLOAD PUSH3 0x461BCD PUSH1 0xE5 SHL DUP2 MSTORE PUSH1 0x20 PUSH1 0x4 DUP3 ADD MSTORE PUSH1 0x1B PUSH1 0x24 DUP3 ADD MSTORE PUSH32 0x455243323020746F6B656E207472616E73666572206661696C65640000000000 PUSH1 0x44 DUP3 ADD MSTORE PUSH1 0x64 ADD PUSH2 0x57F JUMP JUMPDEST POP POP JUMPDEST PUSH1 0x98 SLOAD PUSH1 0x0 DUP1 DUP1 MSTORE PUSH1 0x99 PUSH1 0x20 MSTORE PUSH32 0x235D629DC802037DED8C61CB27FB29E40FA01B299719D8F991FFE20BDCC59F4F DUP1 SLOAD SWAP1 SWAP2 SWAP1 PUSH2 0x1516 SWAP1 DUP5 SWAP1 PUSH2 0x2A92 JUMP JUMPDEST SWAP1 SWAP2 SSTORE POP PUSH32 0xB26C0BF32D8D3EFF0D0561D0B30F4BF8962A18678833B276FCBBE06C48E9EAAA SWAP1 POP DUP10 CALLER PUSH1 0x1 DUP12 DUP12 DUP12 DUP12 DUP12 PUSH2 0x989 PUSH1 0x1 PUSH1 0x1 PUSH1 0x40 SHL SUB DUP14 AND TIMESTAMP PUSH2 0x2A92 JUMP JUMPDEST PUSH1 0x33 SLOAD PUSH1 0x1 PUSH1 0x1 PUSH1 0xA0 SHL SUB AND CALLER EQ PUSH2 0x1583 JUMPI PUSH1 0x40 MLOAD PUSH3 0x461BCD PUSH1 0xE5 SHL DUP2 MSTORE PUSH1 0x4 ADD PUSH2 0x57F SWAP1 PUSH2 0x2B92 JUMP JUMPDEST PUSH1 0x9D DUP1 SLOAD PUSH1 0xFF NOT DUP2 AND PUSH1 0xFF SWAP1 SWAP2 AND ISZERO OR SWAP1 SSTORE JUMP JUMPDEST PUSH1 0x65 SLOAD PUSH1 0xFF AND PUSH2 0x15A9 JUMPI PUSH2 0xEBA PUSH2 0x21C8 JUMP JUMPDEST PUSH2 0xEBA PUSH2 0x223D JUMP JUMPDEST PUSH1 0x9D SLOAD PUSH1 0x0 SWAP1 DUP2 SWAP1 PUSH1 0xFF AND PUSH2 0x15FD JUMPI PUSH2 0x2710 PUSH2 0x1F4 PUSH2 0x15D9 DUP8 PUSH1 0x1 PUSH1 0x1 PUSH1 0x40 SHL SUB DUP8 AND PUSH2 0x2D58 JUMP JUMPDEST PUSH1 0x1 PUSH1 0x1 PUSH1 0x80 SHL SUB AND PUSH2 0x15EC SWAP2 SWAP1 PUSH2 0x2CF8 JUMP JUMPDEST PUSH2 0x15F6 SWAP2 SWAP1 PUSH2 0x2D2D JUMP JUMPDEST SWAP1 POP PUSH2 0x19F8 JUMP JUMPDEST PUSH1 0x0 PUSH1 0x1 PUSH1 0x1 PUSH1 0xA0 SHL SUB DUP10 AND PUSH2 0x16C1 JUMPI PUSH1 0x9B SLOAD PUSH1 0x40 MLOAD PUSH4 0xA4B943FB PUSH1 0xE0 SHL DUP2 MSTORE PUSH20 0xC02AAA39B223FE8D0A0E5C4F27EAD9083C756CC2 PUSH1 0x4 DUP3 ADD DUP2 SWAP1 MSTORE SWAP11 POP PUSH8 0xDE0B6B3A7640000 SWAP2 PUSH1 0x1 PUSH1 0x1 PUSH1 0x80 SHL SUB DUP12 AND SWAP2 PUSH1 0x1 PUSH1 0x1 PUSH1 0xA0 SHL SUB SWAP1 SWAP2 AND SWAP1 PUSH4 0xA4B943FB SWAP1 PUSH1 0x24 ADD PUSH1 0x20 PUSH1 0x40 MLOAD DUP1 DUP4 SUB DUP2 DUP7 GAS STATICCALL ISZERO DUP1 ISZERO PUSH2 0x1682 JUMPI RETURNDATASIZE PUSH1 0x0 DUP1 RETURNDATACOPY RETURNDATASIZE PUSH1 0x0 REVERT JUMPDEST POP POP POP POP PUSH1 0x40 MLOAD RETURNDATASIZE PUSH1 0x1F NOT PUSH1 0x1F DUP3 ADD AND DUP3 ADD DUP1 PUSH1 0x40 MSTORE POP DUP2 ADD SWAP1 PUSH2 0x16A6 SWAP2 SWAP1 PUSH2 0x2CDF JUMP JUMPDEST PUSH2 0x16B0 SWAP2 SWAP1 PUSH2 0x2CF8 JUMP JUMPDEST PUSH2 0x16BA SWAP2 SWAP1 PUSH2 0x2D2D JUMP JUMPDEST SWAP1 POP PUSH2 0x17BC JUMP JUMPDEST DUP9 PUSH1 0x1 PUSH1 0x1 PUSH1 0xA0 SHL SUB AND PUSH4 0x313CE567 PUSH1 0x40 MLOAD DUP2 PUSH4 0xFFFFFFFF AND PUSH1 0xE0 SHL DUP2 MSTORE PUSH1 0x4 ADD PUSH1 0x20 PUSH1 0x40 MLOAD DUP1 DUP4 SUB DUP2 DUP7 GAS STATICCALL ISZERO DUP1 ISZERO PUSH2 0x16FF JUMPI RETURNDATASIZE PUSH1 0x0 DUP1 RETURNDATACOPY RETURNDATASIZE PUSH1 0x0 REVERT JUMPDEST POP POP POP POP PUSH1 0x40 MLOAD RETURNDATASIZE PUSH1 0x1F NOT PUSH1 0x1F DUP3 ADD AND DUP3 ADD DUP1 PUSH1 0x40 MSTORE POP DUP2 ADD SWAP1 PUSH2 0x1723 SWAP2 SWAP1 PUSH2 0x2BC7 JUMP JUMPDEST PUSH2 0x172E SWAP1 PUSH1 0xA PUSH2 0x2CD0 JUMP JUMPDEST PUSH1 0x9B SLOAD PUSH1 0x40 MLOAD PUSH4 0xA4B943FB PUSH1 0xE0 SHL DUP2 MSTORE PUSH1 0x1 PUSH1 0x1 PUSH1 0xA0 SHL SUB DUP13 DUP2 AND PUSH1 0x4 DUP4 ADD MSTORE PUSH1 0x1 PUSH1 0x1 PUSH1 0x80 SHL SUB DUP13 AND SWAP3 AND SWAP1 PUSH4 0xA4B943FB SWAP1 PUSH1 0x24 ADD PUSH1 0x20 PUSH1 0x40 MLOAD DUP1 DUP4 SUB DUP2 DUP7 GAS STATICCALL ISZERO DUP1 ISZERO PUSH2 0x1781 JUMPI RETURNDATASIZE PUSH1 0x0 DUP1 RETURNDATACOPY RETURNDATASIZE PUSH1 0x0 REVERT JUMPDEST POP POP POP POP PUSH1 0x40 MLOAD RETURNDATASIZE PUSH1 0x1F NOT PUSH1 0x1F DUP3 ADD AND DUP3 ADD DUP1 PUSH1 0x40 MSTORE POP DUP2 ADD SWAP1 PUSH2 0x17A5 SWAP2 SWAP1 PUSH2 0x2CDF JUMP JUMPDEST PUSH2 0x17AF SWAP2 SWAP1 PUSH2 0x2CF8 JUMP JUMPDEST PUSH2 0x17B9 SWAP2 SWAP1 PUSH2 0x2D2D JUMP JUMPDEST SWAP1 POP JUMPDEST PUSH1 0x1 PUSH1 0x1 PUSH1 0xA0 SHL SUB DUP1 DUP9 AND PUSH1 0x0 SWAP1 DUP2 MSTORE PUSH1 0x9C PUSH1 0x20 SWAP1 DUP2 MSTORE PUSH1 0x40 DUP1 DUP4 KECCAK256 SLOAD DUP2 MLOAD PUSH4 0x313CE567 PUSH1 0xE0 SHL DUP2 MSTORE SWAP2 MLOAD SWAP4 SWAP5 AND SWAP3 PUSH4 0x313CE567 SWAP3 PUSH1 0x4 DUP1 DUP5 ADD SWAP4 SWAP2 SWAP3 SWAP2 DUP3 SWAP1 SUB ADD DUP2 DUP7 GAS STATICCALL ISZERO DUP1 ISZERO PUSH2 0x1813 JUMPI RETURNDATASIZE PUSH1 0x0 DUP1 RETURNDATACOPY RETURNDATASIZE PUSH1 0x0 REVERT JUMPDEST POP POP POP POP PUSH1 0x40 MLOAD RETURNDATASIZE PUSH1 0x1F NOT PUSH1 0x1F DUP3 ADD AND DUP3 ADD DUP1 PUSH1 0x40 MSTORE POP DUP2 ADD SWAP1 PUSH2 0x1837 SWAP2 SWAP1 PUSH2 0x2BC7 JUMP JUMPDEST PUSH2 0x1842 SWAP1 PUSH1 0xA PUSH2 0x2CD0 JUMP JUMPDEST PUSH1 0x9B SLOAD PUSH1 0x1 PUSH1 0x1 PUSH1 0xA0 SHL SUB DUP11 DUP2 AND PUSH1 0x0 SWAP1 DUP2 MSTORE PUSH1 0x9C PUSH1 0x20 MSTORE PUSH1 0x40 SWAP1 DUP2 SWAP1 KECCAK256 SLOAD SWAP1 MLOAD PUSH4 0xA4B943FB PUSH1 0xE0 SHL DUP2 MSTORE SWAP1 DUP3 AND PUSH1 0x4 DUP3 ADD MSTORE PUSH1 0x1 PUSH1 0x1 PUSH1 0x80 SHL SUB DUP12 AND SWAP3 PUSH1 0x1 PUSH1 0x1 PUSH1 0x40 SHL SUB DUP12 AND SWAP3 AND SWAP1 PUSH4 0xA4B943FB SWAP1 PUSH1 0x24 ADD PUSH1 0x20 PUSH1 0x40 MLOAD DUP1 DUP4 SUB DUP2 DUP7 GAS STATICCALL ISZERO DUP1 ISZERO PUSH2 0x18B3 JUMPI RETURNDATASIZE PUSH1 0x0 DUP1 RETURNDATACOPY RETURNDATASIZE PUSH1 0x0 REVERT JUMPDEST POP POP POP POP PUSH1 0x40 MLOAD RETURNDATASIZE PUSH1 0x1F NOT PUSH1 0x1F DUP3 ADD AND DUP3 ADD DUP1 PUSH1 0x40 MSTORE POP DUP2 ADD SWAP1 PUSH2 0x18D7 SWAP2 SWAP1 PUSH2 0x2CDF JUMP JUMPDEST PUSH2 0x18E1 SWAP2 SWAP1 PUSH2 0x2CF8 JUMP JUMPDEST PUSH2 0x18EB SWAP2 SWAP1 PUSH2 0x2CF8 JUMP JUMPDEST PUSH2 0x18F5 SWAP2 SWAP1 PUSH2 0x2D2D JUMP JUMPDEST SWAP1 POP PUSH1 0x0 DUP3 PUSH2 0x1906 DUP4 PUSH2 0x2710 PUSH2 0x2CF8 JUMP JUMPDEST PUSH2 0x1910 SWAP2 SWAP1 PUSH2 0x2D2D JUMP JUMPDEST SWAP1 POP PUSH2 0x2710 DUP2 GT PUSH2 0x1924 JUMPI PUSH1 0x0 SWAP4 POP PUSH2 0x19F4 JUMP JUMPDEST PUSH2 0x2710 DUP2 GT DUP1 ISZERO PUSH2 0x1937 JUMPI POP PUSH2 0x2AF8 DUP2 GT ISZERO JUMPDEST ISZERO PUSH2 0x1978 JUMPI PUSH2 0x2710 PUSH2 0x1952 DUP10 PUSH1 0x1 PUSH1 0x1 PUSH1 0x40 SHL SUB DUP10 AND PUSH2 0x2D58 JUMP JUMPDEST PUSH2 0x195E SWAP1 PUSH2 0x1F4 PUSH2 0x2D58 JUMP JUMPDEST PUSH2 0x1968 SWAP2 SWAP1 PUSH2 0x2D87 JUMP JUMPDEST PUSH1 0x1 PUSH1 0x1 PUSH1 0x80 SHL SUB AND SWAP4 POP PUSH2 0x19F4 JUMP JUMPDEST PUSH2 0x2AF8 DUP2 GT DUP1 ISZERO PUSH2 0x198B JUMPI POP PUSH2 0x30D4 DUP2 GT ISZERO JUMPDEST ISZERO PUSH2 0x19B2 JUMPI PUSH2 0x2710 PUSH2 0x19A6 DUP10 PUSH1 0x1 PUSH1 0x1 PUSH1 0x40 SHL SUB DUP10 AND PUSH2 0x2D58 JUMP JUMPDEST PUSH2 0x195E SWAP1 PUSH2 0x3E8 PUSH2 0x2D58 JUMP JUMPDEST PUSH2 0x30D4 DUP2 GT ISZERO PUSH2 0x19F4 JUMPI PUSH2 0x2710 PUSH2 0x19D2 DUP10 PUSH1 0x1 PUSH1 0x1 PUSH1 0x40 SHL SUB DUP10 AND PUSH2 0x2D58 JUMP JUMPDEST PUSH2 0x19DE SWAP1 PUSH2 0x7D0 PUSH2 0x2D58 JUMP JUMPDEST PUSH2 0x19E8 SWAP2 SWAP1 PUSH2 0x2D87 JUMP JUMPDEST PUSH1 0x1 PUSH1 0x1 PUSH1 0x80 SHL SUB AND SWAP4 POP JUMPDEST POP POP POP JUMPDEST SWAP8 SWAP7 POP POP POP POP POP POP POP JUMP JUMPDEST PUSH1 0x33 SLOAD PUSH1 0x1 PUSH1 0x1 PUSH1 0xA0 SHL SUB AND CALLER EQ PUSH2 0x1A2D JUMPI PUSH1 0x40 MLOAD PUSH3 0x461BCD PUSH1 0xE5 SHL DUP2 MSTORE PUSH1 0x4 ADD PUSH2 0x57F SWAP1 PUSH2 0x2B92 JUMP JUMPDEST PUSH1 0x1 PUSH1 0x1 PUSH1 0xA0 SHL SUB DUP2 AND PUSH2 0x1A92 JUMPI PUSH1 0x40 MLOAD PUSH3 0x461BCD PUSH1 0xE5 SHL DUP2 MSTORE PUSH1 0x20 PUSH1 0x4 DUP3 ADD MSTORE PUSH1 0x26 PUSH1 0x24 DUP3 ADD MSTORE PUSH32 0x4F776E61626C653A206E6577206F776E657220697320746865207A65726F2061 PUSH1 0x44 DUP3 ADD MSTORE PUSH6 0x646472657373 PUSH1 0xD0 SHL PUSH1 0x64 DUP3 ADD MSTORE PUSH1 0x84 ADD PUSH2 0x57F JUMP JUMPDEST PUSH2 0x1A9B DUP2 PUSH2 0x213E JUMP JUMPDEST POP JUMP JUMPDEST DUP1 MLOAD PUSH1 0x0 JUMPDEST DUP2 DUP2 LT ISZERO PUSH2 0xD59 JUMPI DUP3 DUP2 DUP2 MLOAD DUP2 LT PUSH2 0x1ABD JUMPI PUSH2 0x1ABD PUSH2 0x2B63 JUMP JUMPDEST PUSH1 0x20 MUL PUSH1 0x20 ADD ADD MLOAD PUSH1 0x40 ADD MLOAD ISZERO PUSH2 0x1BDE JUMPI PUSH1 0x0 PUSH1 0x1 PUSH1 0x1 PUSH1 0xA0 SHL SUB AND DUP4 DUP3 DUP2 MLOAD DUP2 LT PUSH2 0x1AEB JUMPI PUSH2 0x1AEB PUSH2 0x2B63 JUMP JUMPDEST PUSH1 0x20 MUL PUSH1 0x20 ADD ADD MLOAD PUSH1 0x0 ADD MLOAD PUSH1 0x1 PUSH1 0x1 PUSH1 0xA0 SHL SUB AND EQ PUSH2 0x1BD9 JUMPI DUP3 DUP2 DUP2 MLOAD DUP2 LT PUSH2 0x1B17 JUMPI PUSH2 0x1B17 PUSH2 0x2B63 JUMP JUMPDEST PUSH1 0x20 MUL PUSH1 0x20 ADD ADD MLOAD PUSH1 0x20 ADD MLOAD PUSH1 0x1 PUSH1 0x1 PUSH1 0xA0 SHL SUB AND PUSH4 0x23B872DD ADDRESS DUP6 DUP5 DUP2 MLOAD DUP2 LT PUSH2 0x1B44 JUMPI PUSH2 0x1B44 PUSH2 0x2B63 JUMP JUMPDEST PUSH1 0x20 MUL PUSH1 0x20 ADD ADD MLOAD PUSH1 0x0 ADD MLOAD DUP7 DUP6 DUP2 MLOAD DUP2 LT PUSH2 0x1B62 JUMPI PUSH2 0x1B62 PUSH2 0x2B63 JUMP JUMPDEST PUSH1 0x20 SWAP1 DUP2 MUL SWAP2 SWAP1 SWAP2 ADD ADD MLOAD PUSH1 0x60 ADD MLOAD PUSH1 0x40 MLOAD PUSH1 0x1 PUSH1 0x1 PUSH1 0xE0 SHL SUB NOT PUSH1 0xE0 DUP7 SWAP1 SHL AND DUP2 MSTORE PUSH1 0x1 PUSH1 0x1 PUSH1 0xA0 SHL SUB SWAP4 DUP5 AND PUSH1 0x4 DUP3 ADD MSTORE SWAP3 SWAP1 SWAP2 AND PUSH1 0x24 DUP4 ADD MSTORE PUSH1 0x44 DUP3 ADD MSTORE PUSH1 0x64 ADD PUSH1 0x0 PUSH1 0x40 MLOAD DUP1 DUP4 SUB DUP2 PUSH1 0x0 DUP8 DUP1 EXTCODESIZE ISZERO DUP1 ISZERO PUSH2 0x1BC0 JUMPI PUSH1 0x0 DUP1 REVERT JUMPDEST POP GAS CALL ISZERO DUP1 ISZERO PUSH2 0x1BD4 JUMPI RETURNDATASIZE PUSH1 0x0 DUP1 RETURNDATACOPY RETURNDATASIZE PUSH1 0x0 REVERT JUMPDEST POP POP POP POP JUMPDEST PUSH2 0x1D05 JUMP JUMPDEST PUSH1 0x0 PUSH1 0x1 PUSH1 0x1 PUSH1 0xA0 SHL SUB AND DUP4 DUP3 DUP2 MLOAD DUP2 LT PUSH2 0x1BFB JUMPI PUSH2 0x1BFB PUSH2 0x2B63 JUMP JUMPDEST PUSH1 0x20 MUL PUSH1 0x20 ADD ADD MLOAD PUSH1 0x0 ADD MLOAD PUSH1 0x1 PUSH1 0x1 PUSH1 0xA0 SHL SUB AND EQ PUSH2 0x1D05 JUMPI PUSH1 0x0 PUSH1 0x1 PUSH1 0x1 PUSH1 0xA0 SHL SUB AND DUP4 DUP3 DUP2 MLOAD DUP2 LT PUSH2 0x1C32 JUMPI PUSH2 0x1C32 PUSH2 0x2B63 JUMP JUMPDEST PUSH1 0x20 MUL PUSH1 0x20 ADD ADD MLOAD PUSH1 0x20 ADD MLOAD PUSH1 0x1 PUSH1 0x1 PUSH1 0xA0 SHL SUB AND SUB PUSH2 0x1C90 JUMPI PUSH2 0x1BD9 DUP4 DUP3 DUP2 MLOAD DUP2 LT PUSH2 0x1C61 JUMPI PUSH2 0x1C61 PUSH2 0x2B63 JUMP JUMPDEST PUSH1 0x20 MUL PUSH1 0x20 ADD ADD MLOAD PUSH1 0x0 ADD MLOAD DUP5 DUP4 DUP2 MLOAD DUP2 LT PUSH2 0x1C7F JUMPI PUSH2 0x1C7F PUSH2 0x2B63 JUMP JUMPDEST PUSH1 0x20 MUL PUSH1 0x20 ADD ADD MLOAD PUSH1 0x60 ADD MLOAD PUSH2 0x1EAC JUMP JUMPDEST PUSH2 0x1D05 DUP4 DUP3 DUP2 MLOAD DUP2 LT PUSH2 0x1CA5 JUMPI PUSH2 0x1CA5 PUSH2 0x2B63 JUMP JUMPDEST PUSH1 0x20 MUL PUSH1 0x20 ADD ADD MLOAD PUSH1 0x0 ADD MLOAD DUP5 DUP4 DUP2 MLOAD DUP2 LT PUSH2 0x1CC3 JUMPI PUSH2 0x1CC3 PUSH2 0x2B63 JUMP JUMPDEST PUSH1 0x20 MUL PUSH1 0x20 ADD ADD MLOAD PUSH1 0x60 ADD MLOAD DUP6 DUP5 DUP2 MLOAD DUP2 LT PUSH2 0x1CE1 JUMPI PUSH2 0x1CE1 PUSH2 0x2B63 JUMP JUMPDEST PUSH1 0x20 MUL PUSH1 0x20 ADD ADD MLOAD PUSH1 0x20 ADD MLOAD PUSH1 0x1 PUSH1 0x1 PUSH1 0xA0 SHL SUB AND PUSH2 0x1FF0 SWAP1 SWAP3 SWAP2 SWAP1 PUSH4 0xFFFFFFFF AND JUMP JUMPDEST PUSH1 0x0 DUP4 DUP3 DUP2 MLOAD DUP2 LT PUSH2 0x1D19 JUMPI PUSH2 0x1D19 PUSH2 0x2B63 JUMP JUMPDEST PUSH1 0x20 MUL PUSH1 0x20 ADD ADD MLOAD PUSH1 0x80 ADD MLOAD GT ISZERO PUSH2 0x1DA0 JUMPI DUP3 DUP2 DUP2 MLOAD DUP2 LT PUSH2 0x1D3D JUMPI PUSH2 0x1D3D PUSH2 0x2B63 JUMP JUMPDEST PUSH1 0x20 MUL PUSH1 0x20 ADD ADD MLOAD PUSH1 0x80 ADD MLOAD PUSH1 0x99 PUSH1 0x0 DUP6 DUP5 DUP2 MLOAD DUP2 LT PUSH2 0x1D5F JUMPI PUSH2 0x1D5F PUSH2 0x2B63 JUMP JUMPDEST PUSH1 0x20 MUL PUSH1 0x20 ADD ADD MLOAD PUSH1 0x20 ADD MLOAD PUSH1 0x1 PUSH1 0x1 PUSH1 0xA0 SHL SUB AND PUSH1 0x1 PUSH1 0x1 PUSH1 0xA0 SHL SUB AND DUP2 MSTORE PUSH1 0x20 ADD SWAP1 DUP2 MSTORE PUSH1 0x20 ADD PUSH1 0x0 KECCAK256 PUSH1 0x0 DUP3 DUP3 SLOAD PUSH2 0x1D9A SWAP2 SWAP1 PUSH2 0x2A92 JUMP JUMPDEST SWAP1 SWAP2 SSTORE POP POP JUMPDEST PUSH32 0xFDF87137985FCE097C2059F7E3BD28B9104995CAD66709FDECBAA5E8E48DA9AF DUP4 DUP3 DUP2 MLOAD DUP2 LT PUSH2 0x1DD3 JUMPI PUSH2 0x1DD3 PUSH2 0x2B63 JUMP JUMPDEST PUSH1 0x20 MUL PUSH1 0x20 ADD ADD MLOAD PUSH1 0x0 ADD MLOAD DUP5 DUP4 DUP2 MLOAD DUP2 LT PUSH2 0x1DF1 JUMPI PUSH2 0x1DF1 PUSH2 0x2B63 JUMP JUMPDEST PUSH1 0x20 MUL PUSH1 0x20 ADD ADD MLOAD PUSH1 0x20 ADD MLOAD DUP6 DUP5 DUP2 MLOAD DUP2 LT PUSH2 0x1E0F JUMPI PUSH2 0x1E0F PUSH2 0x2B63 JUMP JUMPDEST PUSH1 0x20 MUL PUSH1 0x20 ADD ADD MLOAD PUSH1 0x40 ADD MLOAD DUP7 DUP6 DUP2 MLOAD DUP2 LT PUSH2 0x1E2D JUMPI PUSH2 0x1E2D PUSH2 0x2B63 JUMP JUMPDEST PUSH1 0x20 MUL PUSH1 0x20 ADD ADD MLOAD PUSH1 0x60 ADD MLOAD DUP8 DUP7 DUP2 MLOAD DUP2 LT PUSH2 0x1E4B JUMPI PUSH2 0x1E4B PUSH2 0x2B63 JUMP JUMPDEST PUSH1 0x20 MUL PUSH1 0x20 ADD ADD MLOAD PUSH1 0x80 ADD MLOAD PUSH1 0x40 MLOAD PUSH2 0x1E94 SWAP6 SWAP5 SWAP4 SWAP3 SWAP2 SWAP1 PUSH1 0x1 PUSH1 0x1 PUSH1 0xA0 SHL SUB SWAP6 DUP7 AND DUP2 MSTORE SWAP4 SWAP1 SWAP5 AND PUSH1 0x20 DUP5 ADD MSTORE SWAP1 ISZERO ISZERO PUSH1 0x40 DUP4 ADD MSTORE PUSH1 0x60 DUP3 ADD MSTORE PUSH1 0x80 DUP2 ADD SWAP2 SWAP1 SWAP2 MSTORE PUSH1 0xA0 ADD SWAP1 JUMP JUMPDEST PUSH1 0x40 MLOAD DUP1 SWAP2 SUB SWAP1 LOG1 PUSH2 0x1EA5 DUP2 PUSH2 0x2B79 JUMP JUMPDEST SWAP1 POP PUSH2 0x1AA3 JUMP JUMPDEST DUP1 SELFBALANCE LT ISZERO PUSH2 0x1EFC JUMPI PUSH1 0x40 MLOAD PUSH3 0x461BCD PUSH1 0xE5 SHL DUP2 MSTORE PUSH1 0x20 PUSH1 0x4 DUP3 ADD MSTORE PUSH1 0x1E PUSH1 0x24 DUP3 ADD MSTORE PUSH32 0x5F68616E646C6545746865725472616E7366657220696E736F6C76656E740000 PUSH1 0x44 DUP3 ADD MSTORE PUSH1 0x64 ADD PUSH2 0x57F JUMP JUMPDEST PUSH1 0x0 GAS SWAP1 POP PUSH1 0x0 DUP4 PUSH1 0x1 PUSH1 0x1 PUSH1 0xA0 SHL SUB AND DUP4 DUP4 SWAP1 PUSH1 0x40 MLOAD PUSH1 0x0 PUSH1 0x40 MLOAD DUP1 DUP4 SUB DUP2 DUP6 DUP9 DUP9 CALL SWAP4 POP POP POP POP RETURNDATASIZE DUP1 PUSH1 0x0 DUP2 EQ PUSH2 0x1F51 JUMPI PUSH1 0x40 MLOAD SWAP2 POP PUSH1 0x1F NOT PUSH1 0x3F RETURNDATASIZE ADD AND DUP3 ADD PUSH1 0x40 MSTORE RETURNDATASIZE DUP3 MSTORE RETURNDATASIZE PUSH1 0x0 PUSH1 0x20 DUP5 ADD RETURNDATACOPY PUSH2 0x1F56 JUMP JUMPDEST PUSH1 0x60 SWAP2 POP JUMPDEST POP POP SWAP1 POP DUP1 PUSH2 0x1FEA JUMPI PUSH20 0xC02AAA39B223FE8D0A0E5C4F27EAD9083C756CC2 PUSH1 0x1 PUSH1 0x1 PUSH1 0xA0 SHL SUB AND PUSH4 0xD0E30DB0 DUP5 PUSH1 0x40 MLOAD DUP3 PUSH4 0xFFFFFFFF AND PUSH1 0xE0 SHL DUP2 MSTORE PUSH1 0x4 ADD PUSH1 0x0 PUSH1 0x40 MLOAD DUP1 DUP4 SUB DUP2 DUP6 DUP9 DUP1 EXTCODESIZE ISZERO DUP1 ISZERO PUSH2 0x1FAE JUMPI PUSH1 0x0 DUP1 REVERT JUMPDEST POP GAS CALL ISZERO DUP1 ISZERO PUSH2 0x1FC2 JUMPI RETURNDATASIZE PUSH1 0x0 DUP1 RETURNDATACOPY RETURNDATASIZE PUSH1 0x0 REVERT JUMPDEST POP PUSH2 0x1FEA SWAP4 POP PUSH20 0xC02AAA39B223FE8D0A0E5C4F27EAD9083C756CC2 SWAP3 POP DUP8 SWAP2 POP DUP7 SWAP1 POP PUSH2 0x1FF0 JUMP JUMPDEST POP POP POP POP JUMP JUMPDEST PUSH1 0x40 MLOAD PUSH1 0x1 PUSH1 0x1 PUSH1 0xA0 SHL SUB DUP4 AND PUSH1 0x24 DUP3 ADD MSTORE PUSH1 0x44 DUP2 ADD DUP3 SWAP1 MSTORE PUSH2 0xD59 SWAP1 DUP5 SWAP1 PUSH4 0xA9059CBB PUSH1 0xE0 SHL SWAP1 PUSH1 0x64 ADD JUMPDEST PUSH1 0x40 DUP1 MLOAD PUSH1 0x1F NOT DUP2 DUP5 SUB ADD DUP2 MSTORE SWAP2 SWAP1 MSTORE PUSH1 0x20 DUP2 ADD DUP1 MLOAD PUSH1 0x1 PUSH1 0x1 PUSH1 0xE0 SHL SUB AND PUSH1 0x1 PUSH1 0x1 PUSH1 0xE0 SHL SUB NOT SWAP1 SWAP4 AND SWAP3 SWAP1 SWAP3 OR SWAP1 SWAP2 MSTORE PUSH2 0x22B7 JUMP JUMPDEST PUSH1 0x0 DUP1 SLOAD PUSH2 0x100 SWAP1 DIV PUSH1 0xFF AND ISZERO PUSH2 0x209A JUMPI DUP2 PUSH1 0xFF AND PUSH1 0x1 EQ DUP1 ISZERO PUSH2 0x2076 JUMPI POP ADDRESS EXTCODESIZE ISZERO JUMPDEST PUSH2 0x2092 JUMPI PUSH1 0x40 MLOAD PUSH3 0x461BCD PUSH1 0xE5 SHL DUP2 MSTORE PUSH1 0x4 ADD PUSH2 0x57F SWAP1 PUSH2 0x2DAD JUMP JUMPDEST POP PUSH1 0x0 SWAP2 SWAP1 POP JUMP JUMPDEST PUSH1 0x0 SLOAD PUSH1 0xFF DUP1 DUP5 AND SWAP2 AND LT PUSH2 0x20C1 JUMPI PUSH1 0x40 MLOAD PUSH3 0x461BCD PUSH1 0xE5 SHL DUP2 MSTORE PUSH1 0x4 ADD PUSH2 0x57F SWAP1 PUSH2 0x2DAD JUMP JUMPDEST POP PUSH1 0x0 DUP1 SLOAD PUSH1 0xFF NOT AND PUSH1 0xFF SWAP3 SWAP1 SWAP3 AND SWAP2 SWAP1 SWAP2 OR SWAP1 SSTORE PUSH1 0x1 SWAP1 JUMP JUMPDEST SWAP2 SWAP1 POP JUMP JUMPDEST PUSH1 0x0 SLOAD PUSH2 0x100 SWAP1 DIV PUSH1 0xFF AND PUSH2 0x2107 JUMPI PUSH1 0x40 MLOAD PUSH3 0x461BCD PUSH1 0xE5 SHL DUP2 MSTORE PUSH1 0x4 ADD PUSH2 0x57F SWAP1 PUSH2 0x2DFB JUMP JUMPDEST PUSH2 0xEBA PUSH2 0x2389 JUMP JUMPDEST PUSH1 0x0 SLOAD PUSH2 0x100 SWAP1 DIV PUSH1 0xFF AND PUSH2 0x2136 JUMPI PUSH1 0x40 MLOAD PUSH3 0x461BCD PUSH1 0xE5 SHL DUP2 MSTORE PUSH1 0x4 ADD PUSH2 0x57F SWAP1 PUSH2 0x2DFB JUMP JUMPDEST PUSH2 0xEBA PUSH2 0x23B9 JUMP JUMPDEST PUSH1 0x33 DUP1 SLOAD PUSH1 0x1 PUSH1 0x1 PUSH1 0xA0 SHL SUB DUP4 DUP2 AND PUSH1 0x1 PUSH1 0x1 PUSH1 0xA0 SHL SUB NOT DUP4 AND DUP2 OR SWAP1 SWAP4 SSTORE PUSH1 0x40 MLOAD SWAP2 AND SWAP2 SWAP1 DUP3 SWAP1 PUSH32 0x8BE0079C531659141344CD1FD0A4F28419497F9722A3DAAFE3B4186F6B6457E0 SWAP1 PUSH1 0x0 SWAP1 LOG3 POP POP JUMP JUMPDEST PUSH1 0x40 MLOAD PUSH1 0x1 PUSH1 0x1 PUSH1 0xA0 SHL SUB DUP1 DUP6 AND PUSH1 0x24 DUP4 ADD MSTORE DUP4 AND PUSH1 0x44 DUP3 ADD MSTORE PUSH1 0x64 DUP2 ADD DUP3 SWAP1 MSTORE PUSH2 0x1FEA SWAP1 DUP6 SWAP1 PUSH4 0x23B872DD PUSH1 0xE0 SHL SWAP1 PUSH1 0x84 ADD PUSH2 0x201C JUMP JUMPDEST PUSH1 0x65 SLOAD PUSH1 0xFF AND ISZERO PUSH2 0x21EB JUMPI PUSH1 0x40 MLOAD PUSH3 0x461BCD PUSH1 0xE5 SHL DUP2 MSTORE PUSH1 0x4 ADD PUSH2 0x57F SWAP1 PUSH2 0x29A3 JUMP JUMPDEST PUSH1 0x65 DUP1 SLOAD PUSH1 0xFF NOT AND PUSH1 0x1 OR SWAP1 SSTORE PUSH32 0x62E78CEA01BEE320CD4E420270B5EA74000D11B0C9F74754EBDBFC544B05A258 PUSH2 0x2220 CALLER SWAP1 JUMP JUMPDEST PUSH1 0x40 MLOAD PUSH1 0x1 PUSH1 0x1 PUSH1 0xA0 SHL SUB SWAP1 SWAP2 AND DUP2 MSTORE PUSH1 0x20 ADD PUSH1 0x40 MLOAD DUP1 SWAP2 SUB SWAP1 LOG1 JUMP JUMPDEST PUSH1 0x65 SLOAD PUSH1 0xFF AND PUSH2 0x2286 JUMPI PUSH1 0x40 MLOAD PUSH3 0x461BCD PUSH1 0xE5 SHL DUP2 MSTORE PUSH1 0x20 PUSH1 0x4 DUP3 ADD MSTORE PUSH1 0x14 PUSH1 0x24 DUP3 ADD MSTORE PUSH20 0x14185D5CD8589B194E881B9BDD081C185D5CD959 PUSH1 0x62 SHL PUSH1 0x44 DUP3 ADD MSTORE PUSH1 0x64 ADD PUSH2 0x57F JUMP JUMPDEST PUSH1 0x65 DUP1 SLOAD PUSH1 0xFF NOT AND SWAP1 SSTORE PUSH32 0x5DB9EE0A495BF2E6FF9C91A7834C1BA4FDD244A5E8AA4E537BD38AEAE4B073AA CALLER PUSH2 0x2220 JUMP JUMPDEST PUSH1 0x0 PUSH2 0x230C DUP3 PUSH1 0x40 MLOAD DUP1 PUSH1 0x40 ADD PUSH1 0x40 MSTORE DUP1 PUSH1 0x20 DUP2 MSTORE PUSH1 0x20 ADD PUSH32 0x5361666545524332303A206C6F772D6C6576656C2063616C6C206661696C6564 DUP2 MSTORE POP DUP6 PUSH1 0x1 PUSH1 0x1 PUSH1 0xA0 SHL SUB AND PUSH2 0x23EC SWAP1 SWAP3 SWAP2 SWAP1 PUSH4 0xFFFFFFFF AND JUMP JUMPDEST DUP1 MLOAD SWAP1 SWAP2 POP ISZERO PUSH2 0xD59 JUMPI DUP1 DUP1 PUSH1 0x20 ADD SWAP1 MLOAD DUP2 ADD SWAP1 PUSH2 0x232A SWAP2 SWAP1 PUSH2 0x2E46 JUMP JUMPDEST PUSH2 0xD59 JUMPI PUSH1 0x40 MLOAD PUSH3 0x461BCD PUSH1 0xE5 SHL DUP2 MSTORE PUSH1 0x20 PUSH1 0x4 DUP3 ADD MSTORE PUSH1 0x2A PUSH1 0x24 DUP3 ADD MSTORE PUSH32 0x5361666545524332303A204552433230206F7065726174696F6E20646964206E PUSH1 0x44 DUP3 ADD MSTORE PUSH10 0x1BDD081CDD58D8D95959 PUSH1 0xB2 SHL PUSH1 0x64 DUP3 ADD MSTORE PUSH1 0x84 ADD PUSH2 0x57F JUMP JUMPDEST PUSH1 0x0 SLOAD PUSH2 0x100 SWAP1 DIV PUSH1 0xFF AND PUSH2 0x23B0 JUMPI PUSH1 0x40 MLOAD PUSH3 0x461BCD PUSH1 0xE5 SHL DUP2 MSTORE PUSH1 0x4 ADD PUSH2 0x57F SWAP1 PUSH2 0x2DFB JUMP JUMPDEST PUSH2 0xEBA CALLER PUSH2 0x213E JUMP JUMPDEST PUSH1 0x0 SLOAD PUSH2 0x100 SWAP1 DIV PUSH1 0xFF AND PUSH2 0x23E0 JUMPI PUSH1 0x40 MLOAD PUSH3 0x461BCD PUSH1 0xE5 SHL DUP2 MSTORE PUSH1 0x4 ADD PUSH2 0x57F SWAP1 PUSH2 0x2DFB JUMP JUMPDEST PUSH1 0x65 DUP1 SLOAD PUSH1 0xFF NOT AND SWAP1 SSTORE JUMP JUMPDEST PUSH1 0x60 PUSH2 0x23FB DUP5 DUP5 PUSH1 0x0 DUP6 PUSH2 0x2403 JUMP JUMPDEST SWAP5 SWAP4 POP POP POP POP JUMP JUMPDEST PUSH1 0x60 DUP3 SELFBALANCE LT ISZERO PUSH2 0x2464 JUMPI PUSH1 0x40 MLOAD PUSH3 0x461BCD PUSH1 0xE5 SHL DUP2 MSTORE PUSH1 0x20 PUSH1 0x4 DUP3 ADD MSTORE PUSH1 0x26 PUSH1 0x24 DUP3 ADD MSTORE PUSH32 0x416464726573733A20696E73756666696369656E742062616C616E636520666F PUSH1 0x44 DUP3 ADD MSTORE PUSH6 0x1C8818D85B1B PUSH1 0xD2 SHL PUSH1 0x64 DUP3 ADD MSTORE PUSH1 0x84 ADD PUSH2 0x57F JUMP JUMPDEST DUP5 EXTCODESIZE PUSH2 0x24B2 JUMPI PUSH1 0x40 MLOAD PUSH3 0x461BCD PUSH1 0xE5 SHL DUP2 MSTORE PUSH1 0x20 PUSH1 0x4 DUP3 ADD MSTORE PUSH1 0x1D PUSH1 0x24 DUP3 ADD MSTORE PUSH32 0x416464726573733A2063616C6C20746F206E6F6E2D636F6E7472616374000000 PUSH1 0x44 DUP3 ADD MSTORE PUSH1 0x64 ADD PUSH2 0x57F JUMP JUMPDEST PUSH1 0x0 DUP1 DUP7 PUSH1 0x1 PUSH1 0x1 PUSH1 0xA0 SHL SUB AND DUP6 DUP8 PUSH1 0x40 MLOAD PUSH2 0x24CE SWAP2 SWAP1 PUSH2 0x2E8F JUMP JUMPDEST PUSH1 0x0 PUSH1 0x40 MLOAD DUP1 DUP4 SUB DUP2 DUP6 DUP8 GAS CALL SWAP3 POP POP POP RETURNDATASIZE DUP1 PUSH1 0x0 DUP2 EQ PUSH2 0x250B JUMPI PUSH1 0x40 MLOAD SWAP2 POP PUSH1 0x1F NOT PUSH1 0x3F RETURNDATASIZE ADD AND DUP3 ADD PUSH1 0x40 MSTORE RETURNDATASIZE DUP3 MSTORE RETURNDATASIZE PUSH1 0x0 PUSH1 0x20 DUP5 ADD RETURNDATACOPY PUSH2 0x2510 JUMP JUMPDEST PUSH1 0x60 SWAP2 POP JUMPDEST POP SWAP2 POP SWAP2 POP PUSH2 0x19F8 DUP3 DUP3 DUP7 PUSH1 0x60 DUP4 ISZERO PUSH2 0x252A JUMPI POP DUP2 PUSH2 0x1124 JUMP JUMPDEST DUP3 MLOAD ISZERO PUSH2 0x253A JUMPI DUP3 MLOAD DUP1 DUP5 PUSH1 0x20 ADD REVERT JUMPDEST DUP2 PUSH1 0x40 MLOAD PUSH3 0x461BCD PUSH1 0xE5 SHL DUP2 MSTORE PUSH1 0x4 ADD PUSH2 0x57F SWAP2 SWAP1 PUSH2 0x2EAB JUMP JUMPDEST PUSH1 0x1 PUSH1 0x1 PUSH1 0xA0 SHL SUB DUP2 AND DUP2 EQ PUSH2 0x1A9B JUMPI PUSH1 0x0 DUP1 REVERT JUMPDEST DUP1 CALLDATALOAD PUSH1 0x1 PUSH1 0x1 PUSH1 0x80 SHL SUB DUP2 AND DUP2 EQ PUSH2 0x20DB JUMPI PUSH1 0x0 DUP1 REVERT JUMPDEST DUP1 CALLDATALOAD PUSH1 0x1 PUSH1 0x1 PUSH1 0x40 SHL SUB DUP2 AND DUP2 EQ PUSH2 0x20DB JUMPI PUSH1 0x0 DUP1 REVERT JUMPDEST PUSH1 0x0 DUP1 PUSH1 0x0 DUP1 PUSH1 0x0 DUP1 PUSH1 0x0 DUP1 PUSH2 0x100 DUP10 DUP12 SUB SLT ISZERO PUSH2 0x25B4 JUMPI PUSH1 0x0 DUP1 REVERT JUMPDEST DUP9 CALLDATALOAD PUSH2 0x25BF DUP2 PUSH2 0x2554 JUMP JUMPDEST SWAP8 POP PUSH2 0x25CD PUSH1 0x20 DUP11 ADD PUSH2 0x2569 JUMP JUMPDEST SWAP7 POP PUSH1 0x40 DUP10 ADD CALLDATALOAD PUSH2 0x25DD DUP2 PUSH2 0x2554 JUMP JUMPDEST SWAP6 POP PUSH2 0x25EB PUSH1 0x60 DUP11 ADD PUSH2 0x2569 JUMP JUMPDEST SWAP5 POP PUSH2 0x25F9 PUSH1 0x80 DUP11 ADD PUSH2 0x2580 JUMP JUMPDEST SWAP4 POP PUSH2 0x2607 PUSH1 0xA0 DUP11 ADD PUSH2 0x2580 JUMP JUMPDEST SWAP3 POP PUSH2 0x2615 PUSH1 0xC0 DUP11 ADD PUSH2 0x2580 JUMP JUMPDEST SWAP2 POP PUSH1 0xE0 DUP10 ADD CALLDATALOAD SWAP1 POP SWAP3 SWAP6 SWAP9 POP SWAP3 SWAP6 SWAP9 SWAP1 SWAP4 SWAP7 POP JUMP JUMPDEST PUSH1 0x0 DUP1 DUP4 PUSH1 0x1F DUP5 ADD SLT PUSH2 0x263D JUMPI PUSH1 0x0 DUP1 REVERT JUMPDEST POP DUP2 CALLDATALOAD PUSH1 0x1 PUSH1 0x1 PUSH1 0x40 SHL SUB DUP2 GT ISZERO PUSH2 0x2654 JUMPI PUSH1 0x0 DUP1 REVERT JUMPDEST PUSH1 0x20 DUP4 ADD SWAP2 POP DUP4 PUSH1 0x20 DUP3 PUSH1 0x5 SHL DUP6 ADD ADD GT ISZERO PUSH2 0x266F JUMPI PUSH1 0x0 DUP1 REVERT JUMPDEST SWAP3 POP SWAP3 SWAP1 POP JUMP JUMPDEST PUSH1 0x0 DUP1 PUSH1 0x0 DUP1 PUSH1 0x0 PUSH1 0x60 DUP7 DUP9 SUB SLT ISZERO PUSH2 0x268E JUMPI PUSH1 0x0 DUP1 REVERT JUMPDEST DUP6 CALLDATALOAD PUSH1 0x1 PUSH1 0x1 PUSH1 0x40 SHL SUB DUP1 DUP3 GT ISZERO PUSH2 0x26A5 JUMPI PUSH1 0x0 DUP1 REVERT JUMPDEST PUSH2 0x26B1 DUP10 DUP4 DUP11 ADD PUSH2 0x262B JUMP JUMPDEST SWAP1 SWAP8 POP SWAP6 POP PUSH1 0x20 DUP9 ADD CALLDATALOAD SWAP2 POP DUP1 DUP3 GT ISZERO PUSH2 0x26CA JUMPI PUSH1 0x0 DUP1 REVERT JUMPDEST POP PUSH2 0x26D7 DUP9 DUP3 DUP10 ADD PUSH2 0x262B JUMP JUMPDEST SWAP1 SWAP5 POP SWAP3 POP POP PUSH1 0x40 DUP7 ADD CALLDATALOAD PUSH2 0x26EB DUP2 PUSH2 0x2554 JUMP JUMPDEST DUP1 SWAP2 POP POP SWAP3 SWAP6 POP SWAP3 SWAP6 SWAP1 SWAP4 POP JUMP JUMPDEST PUSH1 0x0 DUP1 PUSH1 0x40 DUP4 DUP6 SUB SLT ISZERO PUSH2 0x270C JUMPI PUSH1 0x0 DUP1 REVERT JUMPDEST DUP3 CALLDATALOAD PUSH2 0x2717 DUP2 PUSH2 0x2554 JUMP JUMPDEST SWAP2 POP PUSH1 0x20 DUP4 ADD CALLDATALOAD PUSH2 0x2727 DUP2 PUSH2 0x2554 JUMP JUMPDEST DUP1 SWAP2 POP POP SWAP3 POP SWAP3 SWAP1 POP JUMP JUMPDEST PUSH1 0x0 PUSH1 0x20 DUP3 DUP5 SUB SLT ISZERO PUSH2 0x2744 JUMPI PUSH1 0x0 DUP1 REVERT JUMPDEST DUP2 CALLDATALOAD PUSH2 0x1124 DUP2 PUSH2 0x2554 JUMP JUMPDEST PUSH1 0x0 DUP1 PUSH1 0x0 PUSH1 0x60 DUP5 DUP7 SUB SLT ISZERO PUSH2 0x2764 JUMPI PUSH1 0x0 DUP1 REVERT JUMPDEST DUP4 CALLDATALOAD PUSH2 0x276F DUP2 PUSH2 0x2554 JUMP JUMPDEST SWAP3 POP PUSH2 0x277D PUSH1 0x20 DUP6 ADD PUSH2 0x2569 JUMP JUMPDEST SWAP2 POP PUSH2 0x278B PUSH1 0x40 DUP6 ADD PUSH2 0x2580 JUMP JUMPDEST SWAP1 POP SWAP3 POP SWAP3 POP SWAP3 JUMP JUMPDEST PUSH1 0x0 PUSH1 0x20 DUP3 DUP5 SUB SLT ISZERO PUSH2 0x27A6 JUMPI PUSH1 0x0 DUP1 REVERT JUMPDEST POP CALLDATALOAD SWAP2 SWAP1 POP JUMP JUMPDEST PUSH1 0x0 DUP1 PUSH1 0x0 DUP1 PUSH1 0x0 DUP1 PUSH1 0xC0 DUP8 DUP10 SUB SLT ISZERO PUSH2 0x27C6 JUMPI PUSH1 0x0 DUP1 REVERT JUMPDEST DUP7 CALLDATALOAD PUSH2 0x27D1 DUP2 PUSH2 0x2554 JUMP JUMPDEST SWAP6 POP PUSH2 0x27DF PUSH1 0x20 DUP9 ADD PUSH2 0x2569 JUMP JUMPDEST SWAP5 POP PUSH1 0x40 DUP8 ADD CALLDATALOAD PUSH2 0x27EF DUP2 PUSH2 0x2554 JUMP JUMPDEST SWAP4 POP PUSH2 0x27FD PUSH1 0x60 DUP9 ADD PUSH2 0x2569 JUMP JUMPDEST SWAP3 POP PUSH2 0x280B PUSH1 0x80 DUP9 ADD PUSH2 0x2580 JUMP JUMPDEST SWAP2 POP PUSH2 0x2819 PUSH1 0xA0 DUP9 ADD PUSH2 0x2580 JUMP JUMPDEST SWAP1 POP SWAP3 SWAP6 POP SWAP3 SWAP6 POP SWAP3 SWAP6 JUMP JUMPDEST PUSH4 0x4E487B71 PUSH1 0xE0 SHL PUSH1 0x0 MSTORE PUSH1 0x41 PUSH1 0x4 MSTORE PUSH1 0x24 PUSH1 0x0 REVERT JUMPDEST PUSH1 0x40 MLOAD PUSH1 0xA0 DUP2 ADD PUSH1 0x1 PUSH1 0x1 PUSH1 0x40 SHL SUB DUP2 GT DUP3 DUP3 LT OR ISZERO PUSH2 0x285D JUMPI PUSH2 0x285D PUSH2 0x2825 JUMP JUMPDEST PUSH1 0x40 MSTORE SWAP1 JUMP JUMPDEST PUSH1 0x40 MLOAD PUSH1 0x1F DUP3 ADD PUSH1 0x1F NOT AND DUP2 ADD PUSH1 0x1 PUSH1 0x1 PUSH1 0x40 SHL SUB DUP2 GT DUP3 DUP3 LT OR ISZERO PUSH2 0x288B JUMPI PUSH2 0x288B PUSH2 0x2825 JUMP JUMPDEST PUSH1 0x40 MSTORE SWAP2 SWAP1 POP JUMP JUMPDEST DUP1 ISZERO ISZERO DUP2 EQ PUSH2 0x1A9B JUMPI PUSH1 0x0 DUP1 REVERT JUMPDEST PUSH1 0x0 PUSH1 0x20 DUP1 DUP4 DUP6 SUB SLT ISZERO PUSH2 0x28B4 JUMPI PUSH1 0x0 DUP1 REVERT JUMPDEST DUP3 CALLDATALOAD PUSH1 0x1 PUSH1 0x1 PUSH1 0x40 SHL SUB DUP1 DUP3 GT ISZERO PUSH2 0x28CB JUMPI PUSH1 0x0 DUP1 REVERT JUMPDEST DUP2 DUP6 ADD SWAP2 POP DUP6 PUSH1 0x1F DUP4 ADD SLT PUSH2 0x28DF JUMPI PUSH1 0x0 DUP1 REVERT JUMPDEST DUP2 CALLDATALOAD DUP2 DUP2 GT ISZERO PUSH2 0x28F1 JUMPI PUSH2 0x28F1 PUSH2 0x2825 JUMP JUMPDEST PUSH2 0x28FF DUP5 DUP3 PUSH1 0x5 SHL ADD PUSH2 0x2863 JUMP JUMPDEST DUP2 DUP2 MSTORE DUP5 DUP2 ADD SWAP3 POP PUSH1 0xA0 SWAP2 DUP3 MUL DUP5 ADD DUP6 ADD SWAP2 DUP9 DUP4 GT ISZERO PUSH2 0x291E JUMPI PUSH1 0x0 DUP1 REVERT JUMPDEST SWAP4 DUP6 ADD SWAP4 JUMPDEST DUP3 DUP6 LT ISZERO PUSH2 0x2997 JUMPI DUP1 DUP6 DUP11 SUB SLT ISZERO PUSH2 0x293B JUMPI PUSH1 0x0 DUP1 DUP2 REVERT JUMPDEST PUSH2 0x2943 PUSH2 0x283B JUMP JUMPDEST DUP6 CALLDATALOAD PUSH2 0x294E DUP2 PUSH2 0x2554 JUMP JUMPDEST DUP2 MSTORE DUP6 DUP8 ADD CALLDATALOAD PUSH2 0x295D DUP2 PUSH2 0x2554 JUMP JUMPDEST DUP2 DUP9 ADD MSTORE PUSH1 0x40 DUP7 DUP2 ADD CALLDATALOAD PUSH2 0x2970 DUP2 PUSH2 0x2893 JUMP JUMPDEST SWAP1 DUP3 ADD MSTORE PUSH1 0x60 DUP7 DUP2 ADD CALLDATALOAD SWAP1 DUP3 ADD MSTORE PUSH1 0x80 DUP1 DUP8 ADD CALLDATALOAD SWAP1 DUP3 ADD MSTORE DUP5 MSTORE SWAP4 DUP5 ADD SWAP4 SWAP3 DUP6 ADD SWAP3 PUSH2 0x2923 JUMP JUMPDEST POP SWAP8 SWAP7 POP POP POP POP POP POP POP JUMP JUMPDEST PUSH1 0x20 DUP1 DUP3 MSTORE PUSH1 0x10 SWAP1 DUP3 ADD MSTORE PUSH16 0x14185D5CD8589B194E881C185D5CD959 PUSH1 0x82 SHL PUSH1 0x40 DUP3 ADD MSTORE PUSH1 0x60 ADD SWAP1 JUMP JUMPDEST PUSH1 0x0 PUSH1 0x20 DUP3 DUP5 SUB SLT ISZERO PUSH2 0x29DF JUMPI PUSH1 0x0 DUP1 REVERT JUMPDEST DUP2 MLOAD PUSH2 0x1124 DUP2 PUSH2 0x2554 JUMP JUMPDEST PUSH1 0x20 DUP1 DUP3 MSTORE PUSH1 0x24 SWAP1 DUP3 ADD MSTORE PUSH32 0x526166666C6573206D7573742068617665206174206C65617374203220746963 PUSH1 0x40 DUP3 ADD MSTORE PUSH4 0x6B657473 PUSH1 0xE0 SHL PUSH1 0x60 DUP3 ADD MSTORE PUSH1 0x80 ADD SWAP1 JUMP JUMPDEST PUSH1 0x20 DUP1 DUP3 MSTORE PUSH1 0x2E SWAP1 DUP3 ADD MSTORE PUSH32 0x5F6D696E696D756D5469636B657473536F6C642073686F756C64203C3D205F6E PUSH1 0x40 DUP3 ADD MSTORE PUSH14 0x756D6265724F665469636B657473 PUSH1 0x90 SHL PUSH1 0x60 DUP3 ADD MSTORE PUSH1 0x80 ADD SWAP1 JUMP JUMPDEST PUSH4 0x4E487B71 PUSH1 0xE0 SHL PUSH1 0x0 MSTORE PUSH1 0x11 PUSH1 0x4 MSTORE PUSH1 0x24 PUSH1 0x0 REVERT JUMPDEST PUSH1 0x0 DUP3 NOT DUP3 GT ISZERO PUSH2 0x2AA5 JUMPI PUSH2 0x2AA5 PUSH2 0x2A7C JUMP JUMPDEST POP ADD SWAP1 JUMP JUMPDEST PUSH1 0x1 PUSH1 0x1 PUSH1 0xA0 SHL SUB DUP13 DUP2 AND DUP3 MSTORE DUP12 AND PUSH1 0x20 DUP3 ADD MSTORE PUSH2 0x160 DUP2 ADD PUSH1 0x2 DUP12 LT PUSH2 0x2AE1 JUMPI PUSH4 0x4E487B71 PUSH1 0xE0 SHL PUSH1 0x0 MSTORE PUSH1 0x21 PUSH1 0x4 MSTORE PUSH1 0x24 PUSH1 0x0 REVERT JUMPDEST DUP11 PUSH1 0x40 DUP4 ADD MSTORE PUSH2 0x2AFC PUSH1 0x60 DUP4 ADD DUP12 PUSH1 0x1 PUSH1 0x1 PUSH1 0x80 SHL SUB AND SWAP1 MSTORE JUMP JUMPDEST PUSH1 0x1 PUSH1 0x1 PUSH1 0xA0 SHL SUB DUP10 AND PUSH1 0x80 DUP4 ADD MSTORE PUSH1 0x1 PUSH1 0x1 PUSH1 0x80 SHL SUB DUP9 AND PUSH1 0xA0 DUP4 ADD MSTORE PUSH1 0x1 PUSH1 0x1 PUSH1 0x40 SHL SUB DUP8 AND PUSH1 0xC0 DUP4 ADD MSTORE PUSH1 0x1 PUSH1 0x1 PUSH1 0x40 SHL SUB DUP7 AND PUSH1 0xE0 DUP4 ADD MSTORE PUSH1 0x1 PUSH1 0x1 PUSH1 0x40 SHL SUB DUP6 AND PUSH2 0x100 DUP4 ADD MSTORE PUSH2 0x120 DUP3 ADD SWAP4 SWAP1 SWAP4 MSTORE PUSH2 0x140 ADD MSTORE SWAP10 SWAP9 POP POP POP POP POP POP POP POP POP JUMP JUMPDEST PUSH4 0x4E487B71 PUSH1 0xE0 SHL PUSH1 0x0 MSTORE PUSH1 0x32 PUSH1 0x4 MSTORE PUSH1 0x24 PUSH1 0x0 REVERT JUMPDEST PUSH1 0x0 PUSH1 0x1 DUP3 ADD PUSH2 0x2B8B JUMPI PUSH2 0x2B8B PUSH2 0x2A7C JUMP JUMPDEST POP PUSH1 0x1 ADD SWAP1 JUMP JUMPDEST PUSH1 0x20 DUP1 DUP3 MSTORE DUP2 DUP2 ADD MSTORE PUSH32 0x4F776E61626C653A2063616C6C6572206973206E6F7420746865206F776E6572 PUSH1 0x40 DUP3 ADD MSTORE PUSH1 0x60 ADD SWAP1 JUMP JUMPDEST PUSH1 0x0 PUSH1 0x20 DUP3 DUP5 SUB SLT ISZERO PUSH2 0x2BD9 JUMPI PUSH1 0x0 DUP1 REVERT JUMPDEST DUP2 MLOAD PUSH1 0xFF DUP2 AND DUP2 EQ PUSH2 0x1124 JUMPI PUSH1 0x0 DUP1 REVERT JUMPDEST PUSH1 0x1 DUP2 DUP2 JUMPDEST DUP1 DUP6 GT ISZERO PUSH2 0x2C25 JUMPI DUP2 PUSH1 0x0 NOT DIV DUP3 GT ISZERO PUSH2 0x2C0B JUMPI PUSH2 0x2C0B PUSH2 0x2A7C JUMP JUMPDEST DUP1 DUP6 AND ISZERO PUSH2 0x2C18 JUMPI SWAP2 DUP2 MUL SWAP2 JUMPDEST SWAP4 DUP5 SHR SWAP4 SWAP1 DUP1 MUL SWAP1 PUSH2 0x2BEF JUMP JUMPDEST POP SWAP3 POP SWAP3 SWAP1 POP JUMP JUMPDEST PUSH1 0x0 DUP3 PUSH2 0x2C3C JUMPI POP PUSH1 0x1 PUSH2 0x2CCA JUMP JUMPDEST DUP2 PUSH2 0x2C49 JUMPI POP PUSH1 0x0 PUSH2 0x2CCA JUMP JUMPDEST DUP2 PUSH1 0x1 DUP2 EQ PUSH2 0x2C5F JUMPI PUSH1 0x2 DUP2 EQ PUSH2 0x2C69 JUMPI PUSH2 0x2C85 JUMP JUMPDEST PUSH1 0x1 SWAP2 POP POP PUSH2 0x2CCA JUMP JUMPDEST PUSH1 0xFF DUP5 GT ISZERO PUSH2 0x2C7A JUMPI PUSH2 0x2C7A PUSH2 0x2A7C JUMP JUMPDEST POP POP PUSH1 0x1 DUP3 SHL PUSH2 0x2CCA JUMP JUMPDEST POP PUSH1 0x20 DUP4 LT PUSH2 0x133 DUP4 LT AND PUSH1 0x4E DUP5 LT PUSH1 0xB DUP5 LT AND OR ISZERO PUSH2 0x2CA8 JUMPI POP DUP2 DUP2 EXP PUSH2 0x2CCA JUMP JUMPDEST PUSH2 0x2CB2 DUP4 DUP4 PUSH2 0x2BEA JUMP JUMPDEST DUP1 PUSH1 0x0 NOT DIV DUP3 GT ISZERO PUSH2 0x2CC6 JUMPI PUSH2 0x2CC6 PUSH2 0x2A7C JUMP JUMPDEST MUL SWAP1 POP JUMPDEST SWAP3 SWAP2 POP POP JUMP JUMPDEST PUSH1 0x0 PUSH2 0x1124 PUSH1 0xFF DUP5 AND DUP4 PUSH2 0x2C2D JUMP JUMPDEST PUSH1 0x0 PUSH1 0x20 DUP3 DUP5 SUB SLT ISZERO PUSH2 0x2CF1 JUMPI PUSH1 0x0 DUP1 REVERT JUMPDEST POP MLOAD SWAP2 SWAP1 POP JUMP JUMPDEST PUSH1 0x0 DUP2 PUSH1 0x0 NOT DIV DUP4 GT DUP3 ISZERO ISZERO AND ISZERO PUSH2 0x2D12 JUMPI PUSH2 0x2D12 PUSH2 0x2A7C JUMP JUMPDEST POP MUL SWAP1 JUMP JUMPDEST PUSH4 0x4E487B71 PUSH1 0xE0 SHL PUSH1 0x0 MSTORE PUSH1 0x12 PUSH1 0x4 MSTORE PUSH1 0x24 PUSH1 0x0 REVERT JUMPDEST PUSH1 0x0 DUP3 PUSH2 0x2D3C JUMPI PUSH2 0x2D3C PUSH2 0x2D17 JUMP JUMPDEST POP DIV SWAP1 JUMP JUMPDEST PUSH1 0x0 DUP3 DUP3 LT ISZERO PUSH2 0x2D53 JUMPI PUSH2 0x2D53 PUSH2 0x2A7C JUMP JUMPDEST POP SUB SWAP1 JUMP JUMPDEST PUSH1 0x0 PUSH1 0x1 PUSH1 0x1 PUSH1 0x80 SHL SUB DUP1 DUP4 AND DUP2 DUP6 AND DUP2 DUP4 DIV DUP2 GT DUP3 ISZERO ISZERO AND ISZERO PUSH2 0x2D7E JUMPI PUSH2 0x2D7E PUSH2 0x2A7C JUMP JUMPDEST MUL SWAP5 SWAP4 POP POP POP POP JUMP JUMPDEST PUSH1 0x0 PUSH1 0x1 PUSH1 0x1 PUSH1 0x80 SHL SUB DUP1 DUP5 AND DUP1 PUSH2 0x2DA1 JUMPI PUSH2 0x2DA1 PUSH2 0x2D17 JUMP JUMPDEST SWAP3 AND SWAP2 SWAP1 SWAP2 DIV SWAP3 SWAP2 POP POP JUMP JUMPDEST PUSH1 0x20 DUP1 DUP3 MSTORE PUSH1 0x2E SWAP1 DUP3 ADD MSTORE PUSH32 0x496E697469616C697A61626C653A20636F6E747261637420697320616C726561 PUSH1 0x40 DUP3 ADD MSTORE PUSH14 0x191E481A5B9A5D1A585B1A5E9959 PUSH1 0x92 SHL PUSH1 0x60 DUP3 ADD MSTORE PUSH1 0x80 ADD SWAP1 JUMP JUMPDEST PUSH1 0x20 DUP1 DUP3 MSTORE PUSH1 0x2B SWAP1 DUP3 ADD MSTORE PUSH32 0x496E697469616C697A61626C653A20636F6E7472616374206973206E6F742069 PUSH1 0x40 DUP3 ADD MSTORE PUSH11 0x6E697469616C697A696E67 PUSH1 0xA8 SHL PUSH1 0x60 DUP3 ADD MSTORE PUSH1 0x80 ADD SWAP1 JUMP JUMPDEST PUSH1 0x0 PUSH1 0x20 DUP3 DUP5 SUB SLT ISZERO PUSH2 0x2E58 JUMPI PUSH1 0x0 DUP1 REVERT JUMPDEST DUP2 MLOAD PUSH2 0x1124 DUP2 PUSH2 0x2893 JUMP JUMPDEST PUSH1 0x0 JUMPDEST DUP4 DUP2 LT ISZERO PUSH2 0x2E7E JUMPI DUP2 DUP2 ADD MLOAD DUP4 DUP3 ADD MSTORE PUSH1 0x20 ADD PUSH2 0x2E66 JUMP JUMPDEST DUP4 DUP2 GT ISZERO PUSH2 0x1FEA JUMPI POP POP PUSH1 0x0 SWAP2 ADD MSTORE JUMP JUMPDEST PUSH1 0x0 DUP3 MLOAD PUSH2 0x2EA1 DUP2 DUP5 PUSH1 0x20 DUP8 ADD PUSH2 0x2E63 JUMP JUMPDEST SWAP2 SWAP1 SWAP2 ADD SWAP3 SWAP2 POP POP JUMP JUMPDEST PUSH1 0x20 DUP2 MSTORE PUSH1 0x0 DUP3 MLOAD DUP1 PUSH1 0x20 DUP5 ADD MSTORE PUSH2 0x2ECA DUP2 PUSH1 0x40 DUP6 ADD PUSH1 0x20 DUP8 ADD PUSH2 0x2E63 JUMP JUMPDEST PUSH1 0x1F ADD PUSH1 0x1F NOT AND SWAP2 SWAP1 SWAP2 ADD PUSH1 0x40 ADD SWAP3 SWAP2 POP POP JUMP INVALID LOG2 PUSH5 0x6970667358 0x22 SLT KECCAK256 PUSH9 0xB29D7129F9F074F938 0xF8 PUSH18 0xB06E8B2A7E504A4734C5DA5B7316DD9C3620 DUP16 MLOAD PUSH5 0x736F6C6343 STOP ADDMOD 0xE STOP CALLER ",
  "sha1": "f8a8492ca331d29065e0f0b11c16fa4ecf9f516b",
  "source": "// SPDX-License-Identifier: MIT\npragma solidity 0.8.14;\n\n/**\n\n█▄▄▄▄ ██   ▄████  ▄████  █     ▄███▄   ▄████  ▄█ \n█  ▄▀ █ █  █▀   ▀ █▀   ▀ █     █▀   ▀  █▀   ▀ ██ \n█▀▀▌  █▄▄█ █▀▀    █▀▀    █     ██▄▄    █▀▀    ██ \n█  █  █  █ █      █      ███▄  █▄   ▄▀ █      ▐█ \n  █      █  █      █         ▀ ▀███▀    █      ▐ \n ▀      █    ▀      ▀                    ▀       \n       ▀                                         \n\n Written by: UnT4x3d\n\n RaffleSea© 2022\n \n */\n\nimport \"@openzeppelin/contracts-upgradeable/access/OwnableUpgradeable.sol\";\nimport \"@openzeppelin/contracts-upgradeable/security/PausableUpgradeable.sol\";\nimport \"@openzeppelin/contracts/token/ERC721/IERC721.sol\";\nimport \"@openzeppelin/contracts/token/ERC20/IERC20.sol\";\nimport \"@openzeppelin/contracts/token/ERC20/utils/SafeERC20.sol\";\nimport {IWETH} from \"../interfaces/IWETH.sol\";\n\ninterface ICurrencyPriceFeed {\n    function getUsdPriceOfToken(address token_) external view returns (uint256);\n}\n\ninterface IERC20Extented is IERC20 {\n    function decimals() external view returns (uint8);\n}\n\ncontract MockMainnetEscrow is Initializable, OwnableUpgradeable, PausableUpgradeable {\n    using SafeERC20 for IERC20;\n\n    enum RaffleType {\n        ERC721,\n        ERC20\n    }\n\n    struct CallbackInfo {\n        // Address that will receive the payment\n        address receiver;\n        // Contract that will be called to do the transfer for the payment. address(0) = Ether\n        address assetContract;\n        // Is this contract an ERC721? Otherwise it is an ERC20\n        bool isERC721;\n        // Amount/NftID to send to the receiver\n        uint256 amountOrNftIdToReceiver;\n        // If >0 our fees mapping should be increased\n        uint256 increaseTotalAmountClaimable;\n    }\n\n    // ERC20 address => isWhitelisted?\n    mapping(address => bool) public whitelistedCurrencies;\n\n    IWETH private constant WETH = IWETH(0xC02aaA39b223FE8D0A0e5C4F27eAD9083C756Cc2);\n    uint256 public OPENING_FEE; // ~$60 per RaffleCreated\n\n    // 5% FAIR_RAFFLE_FEE\n    uint256 public constant FAIR_RAFFLE_FEE_NUMERATOR = 500;\n    uint256 public constant FAIR_RAFFLE_FEE_DENOMINATOR = 10000;\n    /**\n        Token address => Amount that owners of the contract can claim as fee rewards\n        address(0) = Ether\n     */\n    mapping(address => uint256) public totalAmountClaimable;\n\n    // EOA that will relay the data from Polygon with the results of the raffle\n    address public relayer;\n    // Contract to retrieve from Chainlink Price Feeds the price of different tokens in USD\n    ICurrencyPriceFeed public currencyPriceFeed;\n\n    // Address of Token in Polygon => Address of token in mainnet used to get the price\n    mapping(address => address) public polygonTokenToMainnetAddress;\n    // If this is false the CurrencyPriceFeeds contract will not be used\n    bool public priceFeedsEnabled;\n    // NOTE: Reserved for future upgrades\n    uint256[20] private __gap;\n\n    event RaffleCreated(\n        address assetRaffled,\n        address raffleOwner,\n        RaffleType raffleType,\n        uint128 nftIdOrAmount, \n        address paymentcurrency, \n        uint128 pricePerTicket, \n        uint64 numberOfTotalTickets, \n        uint64 minimumTicketsSold, \n        uint64 endTimestamp, \n        bytes32 merkleRoot,\n        uint256 fairRaffleFee\n    );\n    event ERC20CurrencyAdded(address currency);\n    event ERC20CurrencyRemoved(address currency);\n    event CallbackReceived(\n        address receiver,\n        address assetContract,\n        bool isERC721,\n        uint256 amountOrNftIdToReceiver,\n        uint256 increaseTotalAmountClaimable\n    );\n    event RelayerUpdated(address oldRelayerAddress, address newRelayerAddress);\n    event PriceFeedUpdated(address oldPriceFeedAddress, address newPriceFeedAddress);\n    event OpeningFeeUpdated(uint256 oldOpeningFee, uint256 newOpeningFee);\n\n    function initialize(address _relayer, address _priceFeedContract) public initializer {\n        __Ownable_init();\n        __Pausable_init();\n\n        relayer = _relayer;\n        currencyPriceFeed = ICurrencyPriceFeed(_priceFeedContract);\n        priceFeedsEnabled = true;\n        // WETH address in Polygon\n        whitelistedCurrencies[0x7ceB23fD6bC0adD59E62ac25578270cFf1b9f619] = true;\n        // WETH Polygon => WETH Mainnet\n        polygonTokenToMainnetAddress[0x7ceB23fD6bC0adD59E62ac25578270cFf1b9f619] = address(WETH);\n        OPENING_FEE = 0.03 ether;\n    }\n\n    modifier onlyRelayer {\n        require(msg.sender == relayer, \"OnlyRelayer\");\n        _;\n    }\n\n    /**\n     * @notice  Allows users to create a raffle of an ERC721 asset\n     * @param   _nftCollection Address of the NFT to raffle\n     * @param   _nftId NFTid of the _nftCollection\n     * @param   _currencyInPolygon Polygon ERC20 token address used to buy tickets. address(0) should be put here if the currency will be MATIC\n     * @param   _pricePerTicket Price per ticket. It can be zero in case of an \"airdrop\"\n     * @param   _numberOfTickets Number of tickets that will be sold as maximum in the raffle\n     * @param   _minimumTicketsSold Number of tickets that should be sold in order to be a success raffle. If this minimum amount is not\n        reached the owner of the raffle will be able to cancel the raffle, returning the users their payment plus a little collateral to cover\n        for the gas fees. If this amount is reached, normal flow will be followed.\n     * @param   _durationInSeconds Duration in seconds of the raffle\n     * @param   _merkleRoot Used so only whitelisted users can buy raffle tickets\n     */\n    function createERC721Raffle(address _nftCollection, uint128 _nftId, address _currencyInPolygon, uint128 _pricePerTicket, uint64 _numberOfTickets, uint64 _minimumTicketsSold, uint64 _durationInSeconds, bytes32 _merkleRoot) external payable whenNotPaused {\n        require(msg.sender == IERC721(_nftCollection).ownerOf(_nftId), \"You do not own this NFT\");\n        require(whitelistedCurrencies[_currencyInPolygon], \"This currency is not whitelisted\");\n        require(_numberOfTickets > 1, \"Raffles must have at least 2 tickets\");\n        require(_minimumTicketsSold <= _numberOfTickets, \"_minimumTicketsSold should <= _numberOfTickets\");\n        require(_durationInSeconds >= 43200, \"Minimum duration is 12 hours\");\n\n        // TOTAL FEES: OPENING_FEE + FAIR_RAFFLE_FEE (5% for all the ERC721 Raffles)\n        uint256 FAIR_RAFFLE_FEE = fairRaffleFeeERC721(_currencyInPolygon, _pricePerTicket, _minimumTicketsSold);\n\n        require(msg.value == (OPENING_FEE + FAIR_RAFFLE_FEE), \"Incorrect fees sent\");\n        totalAmountClaimable[address(0)] += OPENING_FEE;\n\n        // Transfering the NFT into our contract\n        IERC721(_nftCollection).transferFrom(msg.sender, address(this), _nftId);\n        require(address(this) == IERC721(_nftCollection).ownerOf(_nftId), \"Transfer failed\");\n\n        emit RaffleCreated(\n            _nftCollection,\n            msg.sender,\n            RaffleType.ERC721,\n            _nftId, \n            _currencyInPolygon, \n            _pricePerTicket, \n            _numberOfTickets, \n            _minimumTicketsSold, \n            uint64(block.timestamp + _durationInSeconds), \n            _merkleRoot,\n            FAIR_RAFFLE_FEE\n        );\n    }\n\n    /**\n        * @notice  Allows users to create a raffle of an ERC20 asset\n        * @param   _tokenAddress Address of the token amount to raffle\n        * @param   _amount Quantity of tokens to be raffled\n        * @param   _currencyInPolygon Polygon ERC20 token address used to buy tickets. address(0) should be put here if the currency will be MATIC\n        * @param   _pricePerTicket Price per ticket. It can be zero in case of an \"airdrop\"\n        * @param   _numberOfTickets Number of tickets that will be sold as maximum in the raffle\n        * @param   _minimumTicketsSold Number of tickets that should be sold in order to be a success raffle. If this minimum amount is not\n        reached the owner of the raffle will be able to cancel the raffle, returning the users their payment plus a little collateral to cover\n        for the gas fees. If this amount is reached, normal flow will be followed\n        * @param   _durationInSeconds Duration in seconds of the raffle\n        * @param   _merkleRoot Used so only whitelisted users can buy raffle tickets\n    */\n    function createERC20Raffle(address _tokenAddress, uint128 _amount, address _currencyInPolygon, uint128 _pricePerTicket, uint64 _numberOfTickets, uint64 _minimumTicketsSold, uint64 _durationInSeconds, bytes32 _merkleRoot) external payable whenNotPaused {\n        require(whitelistedCurrencies[_currencyInPolygon], \"This currency is not whitelisted\");\n        require(_numberOfTickets > 1, \"Raffles must have at least 2 tickets\");\n        require(_minimumTicketsSold <= _numberOfTickets, \"_minimumTicketsSold should <= _numberOfTickets\");\n        require(_durationInSeconds >= 43200, \"Minimum duration is 12 hours\");\n        \n        uint256 FAIR_RAFFLE_FEE = fairRaffleFeeERC20( _tokenAddress, _amount, _currencyInPolygon, _pricePerTicket, _numberOfTickets, _minimumTicketsSold);\n\n        if (_tokenAddress == address(0)) {\n            require(msg.value == _amount + OPENING_FEE, \"Incorrect fee sent\");\n        } else {\n            require(msg.value == OPENING_FEE, \"Incorrect OPENING_FEE sent\");\n            uint256 balanceBefore = IERC20(_tokenAddress).balanceOf(address(this));\n            // Transfer tokens to the contract\n            IERC20(_tokenAddress).safeTransferFrom(msg.sender, address(this), _amount);\n            uint256 balanceAfter = IERC20(_tokenAddress).balanceOf(address(this));\n            require(_amount == balanceAfter - balanceBefore, \"ERC20 token transfer failed\");\n        }\n\n        totalAmountClaimable[address(0)] += OPENING_FEE;\n        emit RaffleCreated(\n            _tokenAddress,\n            msg.sender,\n            RaffleType.ERC20,\n            _amount, \n            _currencyInPolygon, \n            _pricePerTicket, \n            _numberOfTickets, \n            _minimumTicketsSold, \n            uint64(block.timestamp + _durationInSeconds), \n            _merkleRoot,\n            FAIR_RAFFLE_FEE\n        );\n    }\n\n    /**\n     * @notice  Relayer will call this function to send updates from Polygon\n     */\n    function polygonCallback(CallbackInfo[] memory callbackArr) external {\n        uint256 len = callbackArr.length;\n        for (uint256 i; i < len; ++i){\n            if(callbackArr[i].isERC721){\n                if(callbackArr[i].receiver != address(0)){\n                    IERC721(callbackArr[i].assetContract).transferFrom(address(this), callbackArr[i].receiver, callbackArr[i].amountOrNftIdToReceiver);\n                }\n            }\n            else{\n                if(callbackArr[i].receiver != address(0)){\n                    if(callbackArr[i].assetContract == address(0)){\n                        _handleEtherTransfer(callbackArr[i].receiver, callbackArr[i].amountOrNftIdToReceiver);\n                    }\n                    else {\n                        IERC20(callbackArr[i].assetContract).safeTransfer(callbackArr[i].receiver, callbackArr[i].amountOrNftIdToReceiver);\n                    }\n                }\n            }\n            if(callbackArr[i].increaseTotalAmountClaimable > 0){\n                totalAmountClaimable[callbackArr[i].assetContract] += callbackArr[i].increaseTotalAmountClaimable;\n            }\n            emit CallbackReceived(\n                callbackArr[i].receiver,\n                callbackArr[i].assetContract,\n                callbackArr[i].isERC721,\n                callbackArr[i].amountOrNftIdToReceiver,\n                callbackArr[i].increaseTotalAmountClaimable\n            );\n        }\n    }\n\n    /**\n     *  Function to handle Ether transfers\n     */\n    function _handleEtherTransfer(address _dest, uint256 _amount) internal {\n        // Handle ETH payment\n        require(address(this).balance >= _amount, \"_handleEtherTransfer insolvent\");\n        uint256 gas =  gasleft();\n        (bool success, ) = _dest.call{value: _amount, gas: gas}(\"\");\n        // If the ETH transfer fails (sigh), wrap the ETH and try send it as WETH.\n        if (!success) {\n            WETH.deposit{value: _amount}();\n            IERC20(address(WETH)).safeTransfer(_dest, _amount);\n        }\n    }\n\n    /** ############################################################################################\n     *              ONLYOWNER FUNCTIONS\n     *  ############################################################################################\n     */\n\n    /**\n     * @notice  Used to pause/unpause the smart contract by the owner\n     */\n    function togglePause() external {\n        if (!paused()) _pause();\n        else _unpause();\n    }\n\n    /**\n     * @notice  Used to set a new relayer account\n     */\n    function setRelayer(address _relayer) external {\n        emit RelayerUpdated(relayer, _relayer);\n        relayer = _relayer;\n    }\n\n    /**\n     * @notice  Used to set a new CurrencyPriceFeed contract\n     */\n    function setPriceFeed(address _currencyPriceFeed) external {\n        emit PriceFeedUpdated(address(currencyPriceFeed), _currencyPriceFeed);\n        currencyPriceFeed = ICurrencyPriceFeed(_currencyPriceFeed);\n    }\n\n    /**\n     * @notice  Used to enable/disable CurrencyPriceFeeds contract\n     */\n    function togglePriceFeed() external onlyOwner {\n        priceFeedsEnabled = !priceFeedsEnabled;\n    }\n\n    /**\n     * @notice  Used to set a new OPENING_FEE\n     */\n    function setOpeningFee(uint256 _openingFee) external {\n        emit OpeningFeeUpdated(OPENING_FEE, _openingFee);\n        OPENING_FEE = _openingFee;\n    }\n\n    /**\n     * @notice  Used to whitelist a new ERC20 token to be used as a payment currency\n    * @param   _ERC20TokenAddressPolygon Address of the token in Polygon\n    * @param   _ERC20TokenAddressMainnet Address of the token in Mainnet\n     */\n    function whitelistCurrency(address _ERC20TokenAddressPolygon, address _ERC20TokenAddressMainnet) external {\n        require(!whitelistedCurrencies[_ERC20TokenAddressPolygon], \"Token is already whitelisted\");\n        whitelistedCurrencies[_ERC20TokenAddressPolygon] = true;\n        polygonTokenToMainnetAddress[_ERC20TokenAddressPolygon] = _ERC20TokenAddressMainnet;\n        emit ERC20CurrencyAdded(_ERC20TokenAddressPolygon);\n    }\n\n    /**\n     * @notice  Used to blacklist a ERC20 token so it can not be used any longer as a payment currency\n     */\n    function blacklistCurrency(address _ERC20TokenAddressPolygon) external {\n        require(whitelistedCurrencies[_ERC20TokenAddressPolygon], \"Token is not whitelisted\");\n        whitelistedCurrencies[_ERC20TokenAddressPolygon] = false;\n        emit ERC20CurrencyRemoved(_ERC20TokenAddressPolygon);\n    }\n\n    /**\n     * @notice  Used by the contract owners to claim the fees accrued\n     * @param   _tokenAddress List of tokens to withdraw the fees\n     * @param   _amounts List of amounts that will be withdrawn\n     * @param   _receiver Address that will receive the fees\n     */\n    function withdrawFees(address[] calldata _tokenAddress, uint256[] calldata _amounts, address _receiver) external {\n        uint256 len = _tokenAddress.length;\n        require(len == _amounts.length, \"Array lengths do not match\");\n        uint256 amount;\n        address tokenAddress;\n        for (uint256 i; i < len; ++i) {\n            tokenAddress = _tokenAddress[i];\n            amount = _amounts[i];\n            require(amount <= totalAmountClaimable[tokenAddress], \"Amount too high\");\n            if(tokenAddress == address(0)){\n                _handleEtherTransfer(_receiver, amount);\n            }\n            else{\n                IERC20(tokenAddress).safeTransfer(_receiver, amount);\n            }\n            // No overflow here as => require(amount <= totalAmountClaimable[tokenAddress])\n            unchecked {\n                totalAmountClaimable[tokenAddress] -= amount;\n            }\n        }\n    }\n\n    /** ############################################################################################\n     *                 VIEW FUNCTIONS\n     *  ############################################################################################\n     */\n\n    function isCurrencyWhitelisted(address _erc20Token) external view returns(bool) {\n        return whitelistedCurrencies[_erc20Token];\n    }\n\n    function fairRaffleFeeERC20(address _tokenAddress, uint128 _amount, address _currencyInPolygon, uint128 _pricePerTicket, uint64 _numberOfTickets, uint64 _minimumTicketsSold) public view returns(uint256) {\n        uint256 FAIR_RAFFLE_FEE;\n        if (!priceFeedsEnabled){\n            FAIR_RAFFLE_FEE = (_minimumTicketsSold * _pricePerTicket * FAIR_RAFFLE_FEE_NUMERATOR) / FAIR_RAFFLE_FEE_DENOMINATOR;\n        }\n        else{\n            uint256 totalRaffleValueInUsd;\n            if (_tokenAddress == address(0)){\n                _tokenAddress = address(WETH);\n                totalRaffleValueInUsd = (currencyPriceFeed.getUsdPriceOfToken(_tokenAddress) * _amount) / (10 ** 18); // As Ether has 18 decimals\n            }\n            else{\n                totalRaffleValueInUsd = (currencyPriceFeed.getUsdPriceOfToken(_tokenAddress) * _amount) / (10 ** IERC20Extented(_tokenAddress).decimals());\n            }\n            uint256 totalValueAllTicketsInUsd = (currencyPriceFeed.getUsdPriceOfToken(polygonTokenToMainnetAddress[_currencyInPolygon]) * _numberOfTickets * _pricePerTicket) / (10 ** IERC20Extented(polygonTokenToMainnetAddress[_currencyInPolygon]).decimals());\n            uint256 ratio = (totalValueAllTicketsInUsd * 10000) / totalRaffleValueInUsd;\n        \n            // If the Raffle is fair, FAIR_RAFFLE_FEE = 0\n            if (ratio <= 10000){\n                FAIR_RAFFLE_FEE = 0;\n            }\n            else if ((ratio > 10000) && (ratio <= 11000)) {\n                // 5%\n                FAIR_RAFFLE_FEE = (_minimumTicketsSold * _pricePerTicket * 500) / 10000;\n            }\n            else if ((ratio > 11000) && (ratio <= 12500)) {\n                // 10%\n                FAIR_RAFFLE_FEE = (_minimumTicketsSold * _pricePerTicket * 1000) / 10000;\n            }\n            else if (ratio > 12500) {\n                // 20%\n                FAIR_RAFFLE_FEE = (_minimumTicketsSold * _pricePerTicket * 2000) / 10000;\n            }\n        }\n        return FAIR_RAFFLE_FEE;\n    }\n\n    function fairRaffleFeeERC721(address _currencyInPolygon, uint128 _pricePerTicket, uint64 _minimumTicketsSold) public view returns(uint256) {\n        uint256 totalRaffledTicketsValueInUsd = (currencyPriceFeed.getUsdPriceOfToken(polygonTokenToMainnetAddress[_currencyInPolygon]) * _pricePerTicket * _minimumTicketsSold) / (10 ** IERC20Extented(polygonTokenToMainnetAddress[_currencyInPolygon]).decimals());\n        uint256 FAIR_RAFFLE_FEE_IN_USD = (totalRaffledTicketsValueInUsd * FAIR_RAFFLE_FEE_NUMERATOR) / FAIR_RAFFLE_FEE_DENOMINATOR;\n        uint256 FAIR_RAFFLE_FEE = (FAIR_RAFFLE_FEE_IN_USD * 1e18) / currencyPriceFeed.getUsdPriceOfToken(0xEeeeeEeeeEeEeeEeEeEeeEEEeeeeEeeeeeeeEEeE);\n        return FAIR_RAFFLE_FEE;\n    }\n}",
  "sourcePath": "contracts/mocks/MockMainnetEscrowNoAccessControl.sol",
  "type": "contract"
}