{
    "_format": "hh-sol-artifact-1",
    "contractName": "RaffleTicketSystem",
    "sourceName": "contracts/RaffleTicketSystem.sol",
    "abi": [
        {
            "anonymous": false,
            "inputs": [
                {
                    "indexed": false,
                    "internalType": "uint8",
                    "name": "version",
                    "type": "uint8"
                }
            ],
            "name": "Initialized",
            "type": "event"
        },
        {
            "anonymous": false,
            "inputs": [
                {
                    "indexed": true,
                    "internalType": "address",
                    "name": "previousOwner",
                    "type": "address"
                },
                {
                    "indexed": true,
                    "internalType": "address",
                    "name": "newOwner",
                    "type": "address"
                }
            ],
            "name": "OwnershipTransferred",
            "type": "event"
        },
        {
            "anonymous": false,
            "inputs": [
                {
                    "indexed": false,
                    "internalType": "address",
                    "name": "account",
                    "type": "address"
                }
            ],
            "name": "Paused",
            "type": "event"
        },
        {
            "anonymous": false,
            "inputs": [
                {
                    "indexed": false,
                    "internalType": "uint256",
                    "name": "oldFee",
                    "type": "uint256"
                },
                {
                    "indexed": false,
                    "internalType": "uint256",
                    "name": "newFee",
                    "type": "uint256"
                }
            ],
            "name": "ProtocolFeeUpdated",
            "type": "event"
        },
        {
            "anonymous": false,
            "inputs": [
                {
                    "indexed": false,
                    "internalType": "address",
                    "name": "oldRaffleContract",
                    "type": "address"
                },
                {
                    "indexed": false,
                    "internalType": "address",
                    "name": "newRaffleContract",
                    "type": "address"
                }
            ],
            "name": "RaffleContractUpdated",
            "type": "event"
        },
        {
            "anonymous": false,
            "inputs": [
                {
                    "indexed": false,
                    "internalType": "address",
                    "name": "buyer",
                    "type": "address"
                },
                {
                    "indexed": false,
                    "internalType": "address",
                    "name": "seller",
                    "type": "address"
                },
                {
                    "indexed": false,
                    "internalType": "uint256",
                    "name": "raffleId",
                    "type": "uint256"
                },
                {
                    "indexed": false,
                    "internalType": "uint256",
                    "name": "ticketId",
                    "type": "uint256"
                },
                {
                    "indexed": false,
                    "internalType": "address",
                    "name": "currency",
                    "type": "address"
                },
                {
                    "indexed": false,
                    "internalType": "uint128",
                    "name": "price",
                    "type": "uint128"
                }
            ],
            "name": "TicketBoughtFromMarket",
            "type": "event"
        },
        {
            "anonymous": false,
            "inputs": [
                {
                    "indexed": false,
                    "internalType": "address",
                    "name": "buyer",
                    "type": "address"
                },
                {
                    "indexed": false,
                    "internalType": "address",
                    "name": "seller",
                    "type": "address"
                },
                {
                    "indexed": false,
                    "internalType": "uint256",
                    "name": "raffleId",
                    "type": "uint256"
                },
                {
                    "indexed": false,
                    "internalType": "uint256",
                    "name": "ticketId",
                    "type": "uint256"
                },
                {
                    "indexed": false,
                    "internalType": "address",
                    "name": "currency",
                    "type": "address"
                },
                {
                    "indexed": false,
                    "internalType": "uint128",
                    "name": "price",
                    "type": "uint128"
                }
            ],
            "name": "TicketBoughtFromMarketWithSignature",
            "type": "event"
        },
        {
            "anonymous": false,
            "inputs": [
                {
                    "indexed": false,
                    "internalType": "address",
                    "name": "seller",
                    "type": "address"
                },
                {
                    "indexed": false,
                    "internalType": "uint256",
                    "name": "raffleId",
                    "type": "uint256"
                },
                {
                    "indexed": false,
                    "internalType": "uint256",
                    "name": "ticketId",
                    "type": "uint256"
                },
                {
                    "indexed": false,
                    "internalType": "address",
                    "name": "currency",
                    "type": "address"
                },
                {
                    "indexed": false,
                    "internalType": "uint128",
                    "name": "price",
                    "type": "uint128"
                }
            ],
            "name": "TicketSellOrderCancelled",
            "type": "event"
        },
        {
            "anonymous": false,
            "inputs": [
                {
                    "indexed": false,
                    "internalType": "address",
                    "name": "seller",
                    "type": "address"
                },
                {
                    "indexed": false,
                    "internalType": "uint256",
                    "name": "raffleId",
                    "type": "uint256"
                },
                {
                    "indexed": false,
                    "internalType": "uint256",
                    "name": "ticketId",
                    "type": "uint256"
                },
                {
                    "indexed": false,
                    "internalType": "address",
                    "name": "currency",
                    "type": "address"
                },
                {
                    "indexed": false,
                    "internalType": "uint128",
                    "name": "price",
                    "type": "uint128"
                }
            ],
            "name": "TicketSellOrderCreated",
            "type": "event"
        },
        {
            "anonymous": false,
            "inputs": [
                {
                    "indexed": false,
                    "internalType": "address",
                    "name": "account",
                    "type": "address"
                }
            ],
            "name": "Unpaused",
            "type": "event"
        },
        {
            "inputs": [],
            "name": "FEE_DENOMINATOR",
            "outputs": [
                {
                    "internalType": "uint256",
                    "name": "",
                    "type": "uint256"
                }
            ],
            "stateMutability": "view",
            "type": "function"
        },
        {
            "inputs": [],
            "name": "FEE_NUMERATOR",
            "outputs": [
                {
                    "internalType": "uint256",
                    "name": "",
                    "type": "uint256"
                }
            ],
            "stateMutability": "view",
            "type": "function"
        },
        {
            "inputs": [],
            "name": "Raffles",
            "outputs": [
                {
                    "internalType": "contract IRaffles",
                    "name": "",
                    "type": "address"
                }
            ],
            "stateMutability": "view",
            "type": "function"
        },
        {
            "inputs": [
                {
                    "internalType": "address",
                    "name": "user",
                    "type": "address"
                },
                {
                    "internalType": "uint256",
                    "name": "_raffleId",
                    "type": "uint256"
                },
                {
                    "internalType": "uint256",
                    "name": "initTicketId",
                    "type": "uint256"
                },
                {
                    "internalType": "uint256",
                    "name": "endTicketId",
                    "type": "uint256"
                }
            ],
            "name": "assignTicketToUser",
            "outputs": [],
            "stateMutability": "nonpayable",
            "type": "function"
        },
        {
            "inputs": [
                {
                    "internalType": "uint256",
                    "name": "_raffleId",
                    "type": "uint256"
                },
                {
                    "internalType": "uint256",
                    "name": "_ticketId",
                    "type": "uint256"
                },
                {
                    "internalType": "address",
                    "name": "_currency",
                    "type": "address"
                },
                {
                    "internalType": "uint128",
                    "name": "_price",
                    "type": "uint128"
                },
                {
                    "internalType": "address",
                    "name": "_buyer",
                    "type": "address"
                },
                {
                    "internalType": "bytes32",
                    "name": "_r",
                    "type": "bytes32"
                },
                {
                    "internalType": "bytes32",
                    "name": "_s",
                    "type": "bytes32"
                },
                {
                    "internalType": "uint8",
                    "name": "_v",
                    "type": "uint8"
                }
            ],
            "name": "buyTicketWithSignature",
            "outputs": [],
            "stateMutability": "payable",
            "type": "function"
        },
        {
            "inputs": [
                {
                    "internalType": "uint256",
                    "name": "_raffleId",
                    "type": "uint256"
                },
                {
                    "internalType": "uint256",
                    "name": "_ticketId",
                    "type": "uint256"
                }
            ],
            "name": "cancelSellOrder",
            "outputs": [],
            "stateMutability": "nonpayable",
            "type": "function"
        },
        {
            "inputs": [
                {
                    "internalType": "uint256",
                    "name": "_raffleId",
                    "type": "uint256"
                },
                {
                    "internalType": "uint256",
                    "name": "_ticketId",
                    "type": "uint256"
                }
            ],
            "name": "getTicketOwner",
            "outputs": [
                {
                    "internalType": "address",
                    "name": "",
                    "type": "address"
                }
            ],
            "stateMutability": "view",
            "type": "function"
        },
        {
            "inputs": [
                {
                    "internalType": "address",
                    "name": "_rafflePolygon",
                    "type": "address"
                }
            ],
            "name": "initialize",
            "outputs": [],
            "stateMutability": "nonpayable",
            "type": "function"
        },
        {
            "inputs": [],
            "name": "name",
            "outputs": [
                {
                    "internalType": "string",
                    "name": "",
                    "type": "string"
                }
            ],
            "stateMutability": "view",
            "type": "function"
        },
        {
            "inputs": [
                {
                    "internalType": "address",
                    "name": "",
                    "type": "address"
                }
            ],
            "name": "nonce",
            "outputs": [
                {
                    "internalType": "uint256",
                    "name": "",
                    "type": "uint256"
                }
            ],
            "stateMutability": "view",
            "type": "function"
        },
        {
            "inputs": [],
            "name": "owner",
            "outputs": [
                {
                    "internalType": "address",
                    "name": "",
                    "type": "address"
                }
            ],
            "stateMutability": "view",
            "type": "function"
        },
        {
            "inputs": [],
            "name": "paused",
            "outputs": [
                {
                    "internalType": "bool",
                    "name": "",
                    "type": "bool"
                }
            ],
            "stateMutability": "view",
            "type": "function"
        },
        {
            "inputs": [
                {
                    "internalType": "uint256",
                    "name": "_raffleId",
                    "type": "uint256"
                },
                {
                    "internalType": "uint256",
                    "name": "_ticketId",
                    "type": "uint256"
                },
                {
                    "internalType": "address",
                    "name": "_buyer",
                    "type": "address"
                },
                {
                    "internalType": "address",
                    "name": "_currency",
                    "type": "address"
                },
                {
                    "internalType": "uint256",
                    "name": "_price",
                    "type": "uint256"
                }
            ],
            "name": "postBuyOrder",
            "outputs": [],
            "stateMutability": "payable",
            "type": "function"
        },
        {
            "inputs": [
                {
                    "internalType": "uint256",
                    "name": "_raffleId",
                    "type": "uint256"
                },
                {
                    "internalType": "uint256",
                    "name": "_ticketId",
                    "type": "uint256"
                },
                {
                    "internalType": "address",
                    "name": "_currency",
                    "type": "address"
                },
                {
                    "internalType": "uint128",
                    "name": "_price",
                    "type": "uint128"
                }
            ],
            "name": "postSellOrder",
            "outputs": [],
            "stateMutability": "nonpayable",
            "type": "function"
        },
        {
            "inputs": [
                {
                    "internalType": "uint256",
                    "name": "",
                    "type": "uint256"
                },
                {
                    "internalType": "uint256",
                    "name": "",
                    "type": "uint256"
                }
            ],
            "name": "raffleTickets",
            "outputs": [
                {
                    "internalType": "address",
                    "name": "",
                    "type": "address"
                }
            ],
            "stateMutability": "view",
            "type": "function"
        },
        {
            "inputs": [],
            "name": "renounceOwnership",
            "outputs": [],
            "stateMutability": "nonpayable",
            "type": "function"
        },
        {
            "inputs": [
                {
                    "internalType": "address",
                    "name": "_newRaffleContract",
                    "type": "address"
                }
            ],
            "name": "setNewRaffleContract",
            "outputs": [],
            "stateMutability": "nonpayable",
            "type": "function"
        },
        {
            "inputs": [
                {
                    "internalType": "uint256",
                    "name": "_newFeeNumerator",
                    "type": "uint256"
                }
            ],
            "name": "setProtocolFee",
            "outputs": [],
            "stateMutability": "nonpayable",
            "type": "function"
        },
        {
            "inputs": [
                {
                    "internalType": "uint256",
                    "name": "",
                    "type": "uint256"
                },
                {
                    "internalType": "uint256",
                    "name": "",
                    "type": "uint256"
                }
            ],
            "name": "ticketOrders",
            "outputs": [
                {
                    "internalType": "address",
                    "name": "owner",
                    "type": "address"
                },
                {
                    "internalType": "address",
                    "name": "currency",
                    "type": "address"
                },
                {
                    "internalType": "uint128",
                    "name": "price",
                    "type": "uint128"
                }
            ],
            "stateMutability": "view",
            "type": "function"
        },
        {
            "inputs": [],
            "name": "togglePause",
            "outputs": [],
            "stateMutability": "nonpayable",
            "type": "function"
        },
        {
            "inputs": [
                {
                    "internalType": "address",
                    "name": "",
                    "type": "address"
                }
            ],
            "name": "totalAmountClaimable",
            "outputs": [
                {
                    "internalType": "uint256",
                    "name": "",
                    "type": "uint256"
                }
            ],
            "stateMutability": "view",
            "type": "function"
        },
        {
            "inputs": [
                {
                    "internalType": "address",
                    "name": "newOwner",
                    "type": "address"
                }
            ],
            "name": "transferOwnership",
            "outputs": [],
            "stateMutability": "nonpayable",
            "type": "function"
        },
        {
            "inputs": [],
            "name": "version",
            "outputs": [
                {
                    "internalType": "string",
                    "name": "",
                    "type": "string"
                }
            ],
            "stateMutability": "view",
            "type": "function"
        },
        {
            "inputs": [
                {
                    "internalType": "address[]",
                    "name": "_tokenAddress",
                    "type": "address[]"
                },
                {
                    "internalType": "uint256[]",
                    "name": "_amounts",
                    "type": "uint256[]"
                },
                {
                    "internalType": "address",
                    "name": "_receiver",
                    "type": "address"
                }
            ],
            "name": "withdrawFees",
            "outputs": [],
            "stateMutability": "nonpayable",
            "type": "function"
        }
    ],
    "bytecode": "0x608060405234801561001057600080fd5b506126c0806100206000396000f3fe60806040526004361061014b5760003560e01c8063715018a6116100b6578063c4ae31681161006f578063c4ae31681461047f578063c4d66de814610494578063d73792a9146104b4578063e51dfd90146104ca578063e8ce50b1146104ea578063f2fde38b146104fd57600080fd5b8063715018a6146103605780637678c27f14610375578063787dce3d146104015780638da5cb5b146104215780639f5609931461043f578063a21afc761461045257600080fd5b80635c975abb116101085780635c975abb146102905780635ceb1e1a146102b35780635f773d7f146102d357806369241c02146102f35780637094303b1461031357806370ae92d21461033357600080fd5b806306fdde03146101505780630a82e3f9146101a457806331f91a84146101c65780633a1ec473146101e657806341cd47bf1461023f57806354fd4d5014610263575b600080fd5b34801561015c57600080fd5b5061018e60405180604001604052806012815260200171526166666c655469636b657453797374656d60701b81525081565b60405161019b9190612150565b60405180910390f35b3480156101b057600080fd5b506101c46101bf36600461219f565b61051d565b005b3480156101d257600080fd5b506101c46101e1366004612224565b6105c3565b3480156101f257600080fd5b506102276102013660046122a5565b60ca6020908152600092835260408084209091529082529020546001600160a01b031681565b6040516001600160a01b03909116815260200161019b565b34801561024b57600080fd5b5061025560cc5481565b60405190815260200161019b565b34801561026f57600080fd5b5061018e604051806040016040528060018152602001603160f81b81525081565b34801561029c57600080fd5b5060655460ff16604051901515815260200161019b565b3480156102bf57600080fd5b506101c46102ce3660046122c7565b61073f565b3480156102df57600080fd5b506102276102ee3660046122a5565b6107b0565b3480156102ff57600080fd5b5060c954610227906001600160a01b031681565b34801561031f57600080fd5b506101c461032e3660046122f9565b61081d565b34801561033f57600080fd5b5061025561034e3660046122c7565b60cf6020526000908152604090205481565b34801561036c57600080fd5b506101c4610a65565b34801561038157600080fd5b506103d26103903660046122a5565b60cb6020908152600092835260408084209091529082529020805460018201546002909201546001600160a01b0391821692909116906001600160801b031683565b604080516001600160a01b0394851681529390921660208401526001600160801b03169082015260600161019b565b34801561040d57600080fd5b506101c461041c36600461233f565b610a79565b34801561042d57600080fd5b506033546001600160a01b0316610227565b6101c461044d366004612358565b610b0a565b34801561045e57600080fd5b5061025561046d3660046122c7565b60ce6020526000908152604090205481565b34801561048b57600080fd5b506101c4611031565b3480156104a057600080fd5b506101c46104af3660046122c7565b611053565b3480156104c057600080fd5b5061025560cd5481565b3480156104d657600080fd5b506101c46104e53660046122a5565b61119b565b6101c46104f83660046123a6565b6112d6565b34801561050957600080fd5b506101c46105183660046122c7565b611920565b60c9546001600160a01b031633146105715760405162461bcd60e51b815260206004820152601260248201527113db9b1e549859999b1950dbdb9d1c9858dd60721b60448201526064015b60405180910390fd5b815b8181116105bc57600084815260ca60209081526040808320848452909152902080546001600160a01b0319166001600160a01b0387161790556105b581612441565b9050610573565b5050505050565b6105cb611999565b8382811461061b5760405162461bcd60e51b815260206004820152601a60248201527f4172726179206c656e6774687320646f206e6f74206d617463680000000000006044820152606401610568565b60008060005b838110156107345788888281811061063b5761063b61245a565b905060200201602081019061065091906122c7565b91508686828181106106645761066461245a565b90506020020135925060ce6000836001600160a01b03166001600160a01b03168152602001908152602001600020548311156106d45760405162461bcd60e51b815260206004820152600f60248201526e082dadeeadce840e8dede40d0d2ced608b1b6044820152606401610568565b6001600160a01b0382166106f1576106ec85846119f3565b610705565b6107056001600160a01b0383168685611b37565b6001600160a01b038216600090815260ce602052604090208054849003905561072d81612441565b9050610621565b505050505050505050565b610747611999565b60c954604080516001600160a01b03928316815291831660208301527f64a755f8ca202dce0957a8e670844e8baa0d23ad470f1e987dda75b4a750cae5910160405180910390a160c980546001600160a01b0319166001600160a01b0392909216919091179055565b600082815260ca602090815260408083208484529091528120546001600160a01b0316806108165760405162461bcd60e51b81526020600482015260136024820152722a34b1b5b2ba103430b99037379037bbb732b960691b6044820152606401610568565b9392505050565b610825611b9f565b600084815260ca602090815260408083208684529091529020546001600160a01b031633146108965760405162461bcd60e51b815260206004820152601a60248201527f596f7520646f206e6f74206f776e2074686973207469636b65740000000000006044820152606401610568565b60c9546040516343b938c560e01b81526001600160a01b038481166004830152909116906343b938c590602401602060405180830381865afa1580156108e0573d6000803e3d6000fd5b505050506040513d601f19601f820116820180604052508101906109049190612470565b6109205760405162461bcd60e51b815260040161056890612492565b60c954604051631599ddf360e21b8152600481018690526000916001600160a01b03169063566777cc90602401602060405180830381865afa15801561096a573d6000803e3d6000fd5b505050506040513d601f19601f8201168201806040525081019061098e91906124df565b600481111561099f5761099f6124c9565b146109bc5760405162461bcd60e51b815260040161056890612500565b600084815260cb60209081526040808320868452909152908190208054336001600160a01b0319918216811783556001830180549092166001600160a01b038716179091556002820180546001600160801b0319166001600160801b038616179055915190917fe25f318179f8b2e7117f1bbe46d0c32e76e31ba60e7717909b0279a1dec5613391610a5691908890889088908890612535565b60405180910390a15050505050565b610a6d611999565b610a776000611be5565b565b610a81611999565b6127108110610ac95760405162461bcd60e51b8152602060048201526014602482015273466565206d757374206265203c3d20313030202560601b6044820152606401610568565b60cc5460408051918252602082018390527fb404cac19fb1cbeff98d325795b08886e3cd8fe8cb1a2f193aac66f13fb239c3910160405180910390a160cc55565b610b12611c37565b610b1a611b9f565b600085815260cb60209081526040808320878452825291829020825160608101845281546001600160a01b039081168083526001840154909116938201939093526002909101546001600160801b031692810192909252610bbd5760405162461bcd60e51b815260206004820152601960248201527f54686973206f7264657220646f6573206e6f74206578697374000000000000006044820152606401610568565b600086815260ca6020908152604080832088845290915290205481516001600160a01b03908116911614610c2c5760405162461bcd60e51b81526020600482015260166024820152752a34b1b5b2ba103430b99030903732bb9037bbb732b960511b6044820152606401610568565b60c95460208201516040516343b938c560e01b81526001600160a01b0391821660048201529116906343b938c590602401602060405180830381865afa158015610c7a573d6000803e3d6000fd5b505050506040513d601f19601f82011682018060405250810190610c9e9190612470565b610cba5760405162461bcd60e51b815260040161056890612492565b60c954604051631599ddf360e21b8152600481018890526000916001600160a01b03169063566777cc90602401602060405180830381865afa158015610d04573d6000803e3d6000fd5b505050506040513d601f19601f82011682018060405250810190610d2891906124df565b6004811115610d3957610d396124c9565b14610d565760405162461bcd60e51b815260040161056890612500565b826001600160a01b031681602001516001600160a01b031614610db25760405162461bcd60e51b815260206004820152601460248201527310dd5c9c995b98de481dd85cc818da185b99d95960621b6044820152606401610568565b8181604001516001600160801b031614610e025760405162461bcd60e51b8152602060048201526011602482015270141c9a58d9481dd85cc818da185b99d959607a1b6044820152606401610568565b600060cd5460cc5483604001516001600160801b0316610e229190612570565b610e2c919061258f565b905060008183604001516001600160801b0316610e4991906125b1565b60208401519091506001600160a01b0316610f045782604001516001600160801b03163414610eb25760405162461bcd60e51b81526020600482015260156024820152744574686572207061796d656e7420746f6f206c6f7760581b6044820152606401610568565b8251610ebe90826119f3565b600080805260ce6020527fd3f5862f6f80175da7514904f3a889cc3cc8c4f3af5129e28cdeaee2baa6efc48054849290610ef99084906125c8565b90915550610f709050565b6020830151610f1e906001600160a01b0316333085611c90565b82516020840151610f3d916001600160a01b0390911690339084611c90565b6020808401516001600160a01b0316600090815260ce909152604081208054849290610f6a9084906125c8565b90915550505b600088815260cb602090815260408083208a8452825280832080546001600160a01b0319908116825560018201805482169055600290910180546001600160801b03191690558b845260ca83528184208b855283529281902080549093166001600160a01b038a16179092558451908501518583015192517fb1654d435f5f4797513d52142c36c297361ffe87e796c10ca7b2d24003cc274b9361101c938b9390928e928e92916125e0565b60405180910390a15050506105bc6001609755565b611039611999565b60655460ff1661104b57610a77611ccf565b610a77611d29565b600054610100900460ff16158080156110735750600054600160ff909116105b8061108d5750303b15801561108d575060005460ff166001145b6110f05760405162461bcd60e51b815260206004820152602e60248201527f496e697469616c697a61626c653a20636f6e747261637420697320616c72656160448201526d191e481a5b9a5d1a585b1a5e995960921b6064820152608401610568565b6000805460ff191660011790558015611113576000805461ff0019166101001790555b61111b611d62565b611123611d91565b61112b611dc0565b60c980546001600160a01b0319166001600160a01b03841617905560fa60cc5561271060cd558015611197576000805461ff0019169055604051600181527f7f26b83ff96e1f2b6a682f133852f6798a09c465da95921460cefb38474024989060200160405180910390a15b5050565b6111a3611b9f565b600082815260cb60209081526040808320848452825291829020825160608101845281546001600160a01b039081168083526001840154909116938201939093526002909101546001600160801b03169281019290925233146112485760405162461bcd60e51b815260206004820152601960248201527f596f7520646f206e6f74206f776e2074686973206f72646572000000000000006044820152606401610568565b600083815260cb6020908152604080832085845282529182902080546001600160a01b03199081168255600182018054909116905560020180546001600160801b03191690558201518282015191517fdfb5dfaa81a89e8e8da092a59e3090660afd72b8533c2ab9bb7bd4fb7b9c5e06926112c99233928892889291612535565b60405180910390a1505050565b6112de611c37565b6112e6611b9f565b600088815260ca602090815260408083208a84529091529020546001600160a01b0316806113565760405162461bcd60e51b815260206004820152601a60248201527f54686973207469636b657420646f6573206e6f742065786973740000000000006044820152606401610568565b60c9546040516343b938c560e01b81526001600160a01b038981166004830152909116906343b938c590602401602060405180830381865afa1580156113a0573d6000803e3d6000fd5b505050506040513d601f19601f820116820180604052508101906113c49190612470565b6113e05760405162461bcd60e51b815260040161056890612492565b60c954604051631599ddf360e21b8152600481018b90526000916001600160a01b03169063566777cc90602401602060405180830381865afa15801561142a573d6000803e3d6000fd5b505050506040513d601f19601f8201168201806040525081019061144e91906124df565b600481111561145f5761145f6124c9565b1461147c5760405162461bcd60e51b815260040161056890612500565b6040805180820182526012815271526166666c655469636b657453797374656d60701b6020918201528151808301835260018152603160f81b9082015281517f8b73c3c69bb8fe3d512ecc4cf759cc79239f7b179b0ffacaa9a75d522b39400f918101919091527f72e9c93a6b376f05f6822dd34497adaf2ccd61484cd34c63ba261bd20821e901918101919091527fc89efdaa54c0f20c7adf612882df0950f5a951637e0307cdcb4c672f298b8bc660608201524660808201523060a082015260009060c00160408051601f1981840301815282825280516020918201206001600160a01b03808716600090815260cf8452848120547fd5d8257c00a566d5e44ac531fbd43c4e3dbaa0debf869f903785354681aea9ad948701949094523394860194909452606085018f9052608085018e90528c1660a08501526001600160801b038b1660c085015260e0840191909152925090610100016040516020818303038152906040528051906020012090506000828260405160200161161992919061190160f01b81526002810192909252602282015260420190565b60408051601f198184030181528282528051602091820120600080855291840180845281905260ff891692840192909252606083018a9052608083018990529092509060019060a0016020604051602081039080840390855afa158015611684573d6000803e3d6000fd5b505050602060405103519050846001600160a01b0316816001600160a01b0316146116e55760405162461bcd60e51b8152602060048201526011602482015270496e76616c6964207369676e617475726560781b6044820152606401610568565b505050506001600160a01b038116600090815260cf602052604081208054600192906117129084906125c8565b909155505060cd5460cc5460009190611734906001600160801b038a16612570565b61173e919061258f565b90506000611755826001600160801b038a166125b1565b90506001600160a01b03891661180557876001600160801b031634146117b55760405162461bcd60e51b81526020600482015260156024820152744574686572207061796d656e7420746f6f206c6f7760581b6044820152606401610568565b6117bf83826119f3565b600080805260ce6020527fd3f5862f6f80175da7514904f3a889cc3cc8c4f3af5129e28cdeaee2baa6efc480548492906117fa9084906125c8565b9091555061185d9050565b61181a6001600160a01b038a16333085611c90565b61182f6001600160a01b038a16338584611c90565b6001600160a01b038916600090815260ce6020526040812080548492906118579084906125c8565b90915550505b60008b815260ca602090815260408083208d8452825280832080546001600160a01b038c166001600160a01b0319918216179091558e845260cb83528184208e85529092529182902080548216815560018101805490921690915560020180546001600160801b0319169055517f31ff2bc8e03b9217d7964447f662fd5df92f892f5f349c6537482b1bf6aca9349061190190899086908f908f908f908f906125e0565b60405180910390a15050506119166001609755565b5050505050505050565b611928611999565b6001600160a01b03811661198d5760405162461bcd60e51b815260206004820152602660248201527f4f776e61626c653a206e6577206f776e657220697320746865207a65726f206160448201526564647265737360d01b6064820152608401610568565b61199681611be5565b50565b6033546001600160a01b03163314610a775760405162461bcd60e51b815260206004820181905260248201527f4f776e61626c653a2063616c6c6572206973206e6f7420746865206f776e65726044820152606401610568565b80471015611a435760405162461bcd60e51b815260206004820152601f60248201527f5f68616e646c654e61746976655472616e7366657220696e736f6c76656e74006044820152606401610568565b60005a90506000836001600160a01b0316838390604051600060405180830381858888f193505050503d8060008114611a98576040519150601f19603f3d011682016040523d82523d6000602084013e611a9d565b606091505b5050905080611b31577382af49447d8a07e3bd95bd0d56f35241523fbab16001600160a01b031663d0e30db0846040518263ffffffff1660e01b81526004016000604051808303818588803b158015611af557600080fd5b505af1158015611b09573d6000803e3d6000fd5b50611b3193507382af49447d8a07e3bd95bd0d56f35241523fbab19250879150869050611b37565b50505050565b6040516001600160a01b038316602482015260448101829052611b9a90849063a9059cbb60e01b906064015b60408051601f198184030181529190526020810180516001600160e01b03166001600160e01b031990931692909217909152611def565b505050565b60655460ff1615610a775760405162461bcd60e51b815260206004820152601060248201526f14185d5cd8589b194e881c185d5cd95960821b6044820152606401610568565b603380546001600160a01b038381166001600160a01b0319831681179093556040519116919082907f8be0079c531659141344cd1fd0a4f28419497f9722a3daafe3b4186f6b6457e090600090a35050565b600260975403611c895760405162461bcd60e51b815260206004820152601f60248201527f5265656e7472616e637947756172643a207265656e7472616e742063616c6c006044820152606401610568565b6002609755565b6040516001600160a01b0380851660248301528316604482015260648101829052611b319085906323b872dd60e01b90608401611b63565b6001609755565b611cd7611b9f565b6065805460ff191660011790557f62e78cea01bee320cd4e420270b5ea74000d11b0c9f74754ebdbfc544b05a258611d0c3390565b6040516001600160a01b03909116815260200160405180910390a1565b611d31611ec1565b6065805460ff191690557f5db9ee0a495bf2e6ff9c91a7834c1ba4fdd244a5e8aa4e537bd38aeae4b073aa33611d0c565b600054610100900460ff16611d895760405162461bcd60e51b815260040161056890612623565b610a77611f0a565b600054610100900460ff16611db85760405162461bcd60e51b815260040161056890612623565b610a77611f3a565b600054610100900460ff16611de75760405162461bcd60e51b815260040161056890612623565b610a77611f6d565b6000611e44826040518060400160405280602081526020017f5361666545524332303a206c6f772d6c6576656c2063616c6c206661696c6564815250856001600160a01b0316611f949092919063ffffffff16565b805190915015611b9a5780806020019051810190611e629190612470565b611b9a5760405162461bcd60e51b815260206004820152602a60248201527f5361666545524332303a204552433230206f7065726174696f6e20646964206e6044820152691bdd081cdd58d8d9595960b21b6064820152608401610568565b60655460ff16610a775760405162461bcd60e51b815260206004820152601460248201527314185d5cd8589b194e881b9bdd081c185d5cd95960621b6044820152606401610568565b600054610100900460ff16611f315760405162461bcd60e51b815260040161056890612623565b610a7733611be5565b600054610100900460ff16611f615760405162461bcd60e51b815260040161056890612623565b6065805460ff19169055565b600054610100900460ff16611cc85760405162461bcd60e51b815260040161056890612623565b6060611fa38484600085611fab565b949350505050565b60608247101561200c5760405162461bcd60e51b815260206004820152602660248201527f416464726573733a20696e73756666696369656e742062616c616e636520666f6044820152651c8818d85b1b60d21b6064820152608401610568565b600080866001600160a01b03168587604051612028919061266e565b60006040518083038185875af1925050503d8060008114612065576040519150601f19603f3d011682016040523d82523d6000602084013e61206a565b606091505b509150915061207b87838387612086565b979650505050505050565b606083156120f55782516000036120ee576001600160a01b0385163b6120ee5760405162461bcd60e51b815260206004820152601d60248201527f416464726573733a2063616c6c20746f206e6f6e2d636f6e74726163740000006044820152606401610568565b5081611fa3565b611fa3838381511561210a5781518083602001fd5b8060405162461bcd60e51b81526004016105689190612150565b60005b8381101561213f578181015183820152602001612127565b83811115611b315750506000910152565b602081526000825180602084015261216f816040850160208701612124565b601f01601f19169190910160400192915050565b80356001600160a01b038116811461219a57600080fd5b919050565b600080600080608085870312156121b557600080fd5b6121be85612183565b966020860135965060408601359560600135945092505050565b60008083601f8401126121ea57600080fd5b50813567ffffffffffffffff81111561220257600080fd5b6020830191508360208260051b850101111561221d57600080fd5b9250929050565b60008060008060006060868803121561223c57600080fd5b853567ffffffffffffffff8082111561225457600080fd5b61226089838a016121d8565b9097509550602088013591508082111561227957600080fd5b50612286888289016121d8565b9094509250612299905060408701612183565b90509295509295909350565b600080604083850312156122b857600080fd5b50508035926020909101359150565b6000602082840312156122d957600080fd5b61081682612183565b80356001600160801b038116811461219a57600080fd5b6000806000806080858703121561230f57600080fd5b843593506020850135925061232660408601612183565b9150612334606086016122e2565b905092959194509250565b60006020828403121561235157600080fd5b5035919050565b600080600080600060a0868803121561237057600080fd5b853594506020860135935061238760408701612183565b925061239560608701612183565b949793965091946080013592915050565b600080600080600080600080610100898b0312156123c357600080fd5b88359750602089013596506123da60408a01612183565b95506123e860608a016122e2565b94506123f660808a01612183565b935060a0890135925060c0890135915060e089013560ff8116811461241a57600080fd5b809150509295985092959890939650565b634e487b7160e01b600052601160045260246000fd5b6000600182016124535761245361242b565b5060010190565b634e487b7160e01b600052603260045260246000fd5b60006020828403121561248257600080fd5b8151801515811461081657600080fd5b6020808252601b908201527f43757272656e6379206973206e6f742077686974656c69737465640000000000604082015260600190565b634e487b7160e01b600052602160045260246000fd5b6000602082840312156124f157600080fd5b81516005811061081657600080fd5b6020808252818101527f526166666c65207374617465206d75737420626520494e5f50524f4752455353604082015260600190565b6001600160a01b0395861681526020810194909452604084019290925290921660608201526001600160801b03909116608082015260a00190565b600081600019048311821515161561258a5761258a61242b565b500290565b6000826125ac57634e487b7160e01b600052601260045260246000fd5b500490565b6000828210156125c3576125c361242b565b500390565b600082198211156125db576125db61242b565b500190565b6001600160a01b03968716815294861660208601526040850193909352606084019190915290921660808201526001600160801b0390911660a082015260c00190565b6020808252602b908201527f496e697469616c697a61626c653a20636f6e7472616374206973206e6f74206960408201526a6e697469616c697a696e6760a81b606082015260800190565b60008251612680818460208701612124565b919091019291505056fea26469706673582212206d90e162b6c581ba79340f42a32bf1e135db9dba62ad1e17b183060b05c1b1bb64736f6c634300080f0033",
    "linkReferences": {},
    "deployedLinkReferences": {}
}