{
  "abi": [
    {
      "inputs": [
        {
          "internalType": "bytes32",
          "name": "_linkKeyHash",
          "type": "bytes32"
        },
        {
          "internalType": "uint256",
          "name": "_linkFee",
          "type": "uint256"
        },
        {
          "internalType": "address",
          "name": "_vrfCoordinator",
          "type": "address"
        },
        {
          "internalType": "address",
          "name": "_vrfLinkTokenAddress",
          "type": "address"
        }
      ],
      "stateMutability": "nonpayable",
      "type": "constructor"
    },
    {
      "anonymous": false,
      "inputs": [
        {
          "indexed": false,
          "internalType": "bytes32",
          "name": "requestId",
          "type": "bytes32"
        }
      ],
      "name": "ChainlinkRequest",
      "type": "event"
    },
    {
      "anonymous": false,
      "inputs": [
        {
          "indexed": false,
          "internalType": "address",
          "name": "currency",
          "type": "address"
        }
      ],
      "name": "ERC20CurrencyAdded",
      "type": "event"
    },
    {
      "anonymous": false,
      "inputs": [
        {
          "indexed": false,
          "internalType": "address",
          "name": "currency",
          "type": "address"
        }
      ],
      "name": "ERC20CurrencyRemoved",
      "type": "event"
    },
    {
      "anonymous": false,
      "inputs": [
        {
          "indexed": false,
          "internalType": "uint256",
          "name": "raffleId",
          "type": "uint256"
        },
        {
          "indexed": false,
          "internalType": "address",
          "name": "raffleOwner",
          "type": "address"
        },
        {
          "indexed": false,
          "internalType": "address",
          "name": "assetContract",
          "type": "address"
        },
        {
          "indexed": false,
          "internalType": "uint256",
          "name": "amount",
          "type": "uint256"
        }
      ],
      "name": "ERC20RaffleCancelled",
      "type": "event"
    },
    {
      "anonymous": false,
      "inputs": [
        {
          "indexed": false,
          "internalType": "uint256",
          "name": "raffleId",
          "type": "uint256"
        },
        {
          "indexed": false,
          "internalType": "address",
          "name": "raffleOwner",
          "type": "address"
        },
        {
          "indexed": false,
          "internalType": "address",
          "name": "nftContract",
          "type": "address"
        },
        {
          "indexed": false,
          "internalType": "uint256",
          "name": "nftId",
          "type": "uint256"
        }
      ],
      "name": "ERC721RaffleCancelled",
      "type": "event"
    },
    {
      "anonymous": false,
      "inputs": [
        {
          "indexed": false,
          "internalType": "uint256",
          "name": "raffleId",
          "type": "uint256"
        },
        {
          "indexed": false,
          "internalType": "address",
          "name": "tokenAddress",
          "type": "address"
        },
        {
          "indexed": false,
          "internalType": "uint256",
          "name": "amount",
          "type": "uint256"
        }
      ],
      "name": "NewERC20RaffleCreated",
      "type": "event"
    },
    {
      "anonymous": false,
      "inputs": [
        {
          "indexed": false,
          "internalType": "uint256",
          "name": "raffleId",
          "type": "uint256"
        },
        {
          "indexed": false,
          "internalType": "address",
          "name": "nftCollection",
          "type": "address"
        },
        {
          "indexed": false,
          "internalType": "uint256",
          "name": "nftId",
          "type": "uint256"
        }
      ],
      "name": "NewERC721RaffleCreated",
      "type": "event"
    },
    {
      "anonymous": false,
      "inputs": [
        {
          "indexed": true,
          "internalType": "address",
          "name": "previousOwner",
          "type": "address"
        },
        {
          "indexed": true,
          "internalType": "address",
          "name": "newOwner",
          "type": "address"
        }
      ],
      "name": "OwnershipTransferred",
      "type": "event"
    },
    {
      "anonymous": false,
      "inputs": [
        {
          "indexed": false,
          "internalType": "address",
          "name": "account",
          "type": "address"
        }
      ],
      "name": "Paused",
      "type": "event"
    },
    {
      "anonymous": false,
      "inputs": [
        {
          "indexed": false,
          "internalType": "uint256",
          "name": "raffleId",
          "type": "uint256"
        },
        {
          "indexed": false,
          "internalType": "enum Raffle.RaffleState",
          "name": "oldRaffleState",
          "type": "uint8"
        },
        {
          "indexed": false,
          "internalType": "enum Raffle.RaffleState",
          "name": "newRaffleState",
          "type": "uint8"
        }
      ],
      "name": "RaffleStateChanged",
      "type": "event"
    },
    {
      "anonymous": false,
      "inputs": [
        {
          "indexed": false,
          "internalType": "address",
          "name": "account",
          "type": "address"
        }
      ],
      "name": "Unpaused",
      "type": "event"
    },
    {
      "inputs": [],
      "name": "FEE_DENOMINATOR",
      "outputs": [
        {
          "internalType": "uint256",
          "name": "",
          "type": "uint256"
        }
      ],
      "stateMutability": "view",
      "type": "function"
    },
    {
      "inputs": [],
      "name": "FEE_NUMERATOR",
      "outputs": [
        {
          "internalType": "uint256",
          "name": "",
          "type": "uint256"
        }
      ],
      "stateMutability": "view",
      "type": "function"
    },
    {
      "inputs": [
        {
          "internalType": "address",
          "name": "_ERC20TokenAddress",
          "type": "address"
        }
      ],
      "name": "blacklistCurrency",
      "outputs": [],
      "stateMutability": "nonpayable",
      "type": "function"
    },
    {
      "inputs": [
        {
          "internalType": "uint256",
          "name": "_raffleId",
          "type": "uint256"
        },
        {
          "internalType": "uint128",
          "name": "_numberOfTickets",
          "type": "uint128"
        }
      ],
      "name": "buyRaffleTicket",
      "outputs": [],
      "stateMutability": "payable",
      "type": "function"
    },
    {
      "inputs": [
        {
          "internalType": "uint256",
          "name": "_raffleId",
          "type": "uint256"
        },
        {
          "internalType": "uint128",
          "name": "_numberOfTickets",
          "type": "uint128"
        },
        {
          "internalType": "bytes32[]",
          "name": "_merkleProof",
          "type": "bytes32[]"
        }
      ],
      "name": "buyWhitelistedRaffleTicket",
      "outputs": [],
      "stateMutability": "payable",
      "type": "function"
    },
    {
      "inputs": [
        {
          "internalType": "uint256",
          "name": "_raffleId",
          "type": "uint256"
        }
      ],
      "name": "cancelRaffle",
      "outputs": [],
      "stateMutability": "nonpayable",
      "type": "function"
    },
    {
      "inputs": [
        {
          "internalType": "uint256",
          "name": "_raffleId",
          "type": "uint256"
        },
        {
          "internalType": "uint256[]",
          "name": "ticketIds",
          "type": "uint256[]"
        }
      ],
      "name": "claimCancelledRaffle",
      "outputs": [],
      "stateMutability": "nonpayable",
      "type": "function"
    },
    {
      "inputs": [
        {
          "internalType": "uint256",
          "name": "_raffleId",
          "type": "uint256"
        }
      ],
      "name": "claimRaffle",
      "outputs": [],
      "stateMutability": "nonpayable",
      "type": "function"
    },
    {
      "inputs": [
        {
          "internalType": "uint256",
          "name": "_raffleId",
          "type": "uint256"
        }
      ],
      "name": "completeRaffle",
      "outputs": [],
      "stateMutability": "nonpayable",
      "type": "function"
    },
    {
      "inputs": [
        {
          "internalType": "address",
          "name": "_tokenAddress",
          "type": "address"
        },
        {
          "internalType": "uint256",
          "name": "_amount",
          "type": "uint256"
        },
        {
          "internalType": "address",
          "name": "_currency",
          "type": "address"
        },
        {
          "internalType": "uint256",
          "name": "_pricePerTicket",
          "type": "uint256"
        },
        {
          "internalType": "uint128",
          "name": "_numberOfTickets",
          "type": "uint128"
        },
        {
          "internalType": "uint128",
          "name": "_minimumTicketsSold",
          "type": "uint128"
        },
        {
          "internalType": "uint128",
          "name": "_durationInSeconds",
          "type": "uint128"
        },
        {
          "internalType": "bytes32",
          "name": "_merkleRoot",
          "type": "bytes32"
        }
      ],
      "name": "createERC20Raffle",
      "outputs": [],
      "stateMutability": "payable",
      "type": "function"
    },
    {
      "inputs": [
        {
          "internalType": "address",
          "name": "_nftCollection",
          "type": "address"
        },
        {
          "internalType": "uint256",
          "name": "_nftId",
          "type": "uint256"
        },
        {
          "internalType": "address",
          "name": "_currency",
          "type": "address"
        },
        {
          "internalType": "uint256",
          "name": "_pricePerTicket",
          "type": "uint256"
        },
        {
          "internalType": "uint128",
          "name": "_numberOfTickets",
          "type": "uint128"
        },
        {
          "internalType": "uint128",
          "name": "_minimumTicketsSold",
          "type": "uint128"
        },
        {
          "internalType": "uint128",
          "name": "_durationInSeconds",
          "type": "uint128"
        },
        {
          "internalType": "bytes32",
          "name": "_merkleRoot",
          "type": "bytes32"
        }
      ],
      "name": "createERC721Raffle",
      "outputs": [],
      "stateMutability": "payable",
      "type": "function"
    },
    {
      "inputs": [
        {
          "internalType": "bytes32",
          "name": "requestId",
          "type": "bytes32"
        },
        {
          "internalType": "uint256",
          "name": "randomness",
          "type": "uint256"
        }
      ],
      "name": "fulfillRandomnessTest",
      "outputs": [],
      "stateMutability": "nonpayable",
      "type": "function"
    },
    {
      "inputs": [],
      "name": "getActiveRaffles",
      "outputs": [
        {
          "components": [
            {
              "internalType": "address",
              "name": "assetContract",
              "type": "address"
            },
            {
              "internalType": "address",
              "name": "raffleOwner",
              "type": "address"
            },
            {
              "internalType": "address",
              "name": "raffleWinner",
              "type": "address"
            },
            {
              "internalType": "enum Raffle.RaffleState",
              "name": "raffleState",
              "type": "uint8"
            },
            {
              "internalType": "enum Raffle.RaffleType",
              "name": "raffleType",
              "type": "uint8"
            },
            {
              "internalType": "uint256",
              "name": "nftIdOrAmount",
              "type": "uint256"
            },
            {
              "internalType": "address",
              "name": "currency",
              "type": "address"
            },
            {
              "internalType": "uint256",
              "name": "pricePerTicket",
              "type": "uint256"
            },
            {
              "internalType": "bytes32",
              "name": "MerkleRoot",
              "type": "bytes32"
            },
            {
              "internalType": "uint128",
              "name": "endTimestamp",
              "type": "uint128"
            },
            {
              "internalType": "uint128",
              "name": "numberOfTickets",
              "type": "uint128"
            },
            {
              "internalType": "uint128",
              "name": "ticketsSold",
              "type": "uint128"
            },
            {
              "internalType": "uint128",
              "name": "minimumTicketsSold",
              "type": "uint128"
            }
          ],
          "internalType": "struct Raffle.RaffleData[]",
          "name": "",
          "type": "tuple[]"
        }
      ],
      "stateMutability": "view",
      "type": "function"
    },
    {
      "inputs": [
        {
          "internalType": "uint256",
          "name": "_raffleId",
          "type": "uint256"
        }
      ],
      "name": "getRaffleDetails",
      "outputs": [
        {
          "components": [
            {
              "internalType": "address",
              "name": "assetContract",
              "type": "address"
            },
            {
              "internalType": "address",
              "name": "raffleOwner",
              "type": "address"
            },
            {
              "internalType": "address",
              "name": "raffleWinner",
              "type": "address"
            },
            {
              "internalType": "enum Raffle.RaffleState",
              "name": "raffleState",
              "type": "uint8"
            },
            {
              "internalType": "enum Raffle.RaffleType",
              "name": "raffleType",
              "type": "uint8"
            },
            {
              "internalType": "uint256",
              "name": "nftIdOrAmount",
              "type": "uint256"
            },
            {
              "internalType": "address",
              "name": "currency",
              "type": "address"
            },
            {
              "internalType": "uint256",
              "name": "pricePerTicket",
              "type": "uint256"
            },
            {
              "internalType": "bytes32",
              "name": "MerkleRoot",
              "type": "bytes32"
            },
            {
              "internalType": "uint128",
              "name": "endTimestamp",
              "type": "uint128"
            },
            {
              "internalType": "uint128",
              "name": "numberOfTickets",
              "type": "uint128"
            },
            {
              "internalType": "uint128",
              "name": "ticketsSold",
              "type": "uint128"
            },
            {
              "internalType": "uint128",
              "name": "minimumTicketsSold",
              "type": "uint128"
            }
          ],
          "internalType": "struct Raffle.RaffleData",
          "name": "",
          "type": "tuple"
        }
      ],
      "stateMutability": "view",
      "type": "function"
    },
    {
      "inputs": [
        {
          "internalType": "uint256",
          "name": "_raffleId",
          "type": "uint256"
        }
      ],
      "name": "getRaffleState",
      "outputs": [
        {
          "internalType": "enum Raffle.RaffleState",
          "name": "",
          "type": "uint8"
        }
      ],
      "stateMutability": "view",
      "type": "function"
    },
    {
      "inputs": [
        {
          "internalType": "uint256",
          "name": "_raffleId",
          "type": "uint256"
        },
        {
          "internalType": "uint256",
          "name": "_ticketId",
          "type": "uint256"
        }
      ],
      "name": "getRaffleTicketOwner",
      "outputs": [
        {
          "internalType": "address",
          "name": "",
          "type": "address"
        }
      ],
      "stateMutability": "view",
      "type": "function"
    },
    {
      "inputs": [
        {
          "internalType": "address",
          "name": "_erc20Token",
          "type": "address"
        }
      ],
      "name": "isCurrencyWhitelisted",
      "outputs": [
        {
          "internalType": "bool",
          "name": "",
          "type": "bool"
        }
      ],
      "stateMutability": "view",
      "type": "function"
    },
    {
      "inputs": [],
      "name": "linkFee",
      "outputs": [
        {
          "internalType": "uint256",
          "name": "",
          "type": "uint256"
        }
      ],
      "stateMutability": "view",
      "type": "function"
    },
    {
      "inputs": [],
      "name": "linkKeyHash",
      "outputs": [
        {
          "internalType": "bytes32",
          "name": "",
          "type": "bytes32"
        }
      ],
      "stateMutability": "view",
      "type": "function"
    },
    {
      "inputs": [],
      "name": "owner",
      "outputs": [
        {
          "internalType": "address",
          "name": "",
          "type": "address"
        }
      ],
      "stateMutability": "view",
      "type": "function"
    },
    {
      "inputs": [],
      "name": "paused",
      "outputs": [
        {
          "internalType": "bool",
          "name": "",
          "type": "bool"
        }
      ],
      "stateMutability": "view",
      "type": "function"
    },
    {
      "inputs": [],
      "name": "raffleCounter",
      "outputs": [
        {
          "internalType": "uint256",
          "name": "",
          "type": "uint256"
        }
      ],
      "stateMutability": "view",
      "type": "function"
    },
    {
      "inputs": [
        {
          "internalType": "uint256",
          "name": "",
          "type": "uint256"
        },
        {
          "internalType": "uint256",
          "name": "",
          "type": "uint256"
        }
      ],
      "name": "raffleTickets",
      "outputs": [
        {
          "internalType": "address",
          "name": "",
          "type": "address"
        }
      ],
      "stateMutability": "view",
      "type": "function"
    },
    {
      "inputs": [
        {
          "internalType": "uint256",
          "name": "",
          "type": "uint256"
        }
      ],
      "name": "raffles",
      "outputs": [
        {
          "internalType": "address",
          "name": "assetContract",
          "type": "address"
        },
        {
          "internalType": "address",
          "name": "raffleOwner",
          "type": "address"
        },
        {
          "internalType": "address",
          "name": "raffleWinner",
          "type": "address"
        },
        {
          "internalType": "enum Raffle.RaffleState",
          "name": "raffleState",
          "type": "uint8"
        },
        {
          "internalType": "enum Raffle.RaffleType",
          "name": "raffleType",
          "type": "uint8"
        },
        {
          "internalType": "uint256",
          "name": "nftIdOrAmount",
          "type": "uint256"
        },
        {
          "internalType": "address",
          "name": "currency",
          "type": "address"
        },
        {
          "internalType": "uint256",
          "name": "pricePerTicket",
          "type": "uint256"
        },
        {
          "internalType": "bytes32",
          "name": "MerkleRoot",
          "type": "bytes32"
        },
        {
          "internalType": "uint128",
          "name": "endTimestamp",
          "type": "uint128"
        },
        {
          "internalType": "uint128",
          "name": "numberOfTickets",
          "type": "uint128"
        },
        {
          "internalType": "uint128",
          "name": "ticketsSold",
          "type": "uint128"
        },
        {
          "internalType": "uint128",
          "name": "minimumTicketsSold",
          "type": "uint128"
        }
      ],
      "stateMutability": "view",
      "type": "function"
    },
    {
      "inputs": [
        {
          "internalType": "bytes32",
          "name": "requestId",
          "type": "bytes32"
        },
        {
          "internalType": "uint256",
          "name": "randomness",
          "type": "uint256"
        }
      ],
      "name": "rawFulfillRandomness",
      "outputs": [],
      "stateMutability": "nonpayable",
      "type": "function"
    },
    {
      "inputs": [],
      "name": "renounceOwnership",
      "outputs": [],
      "stateMutability": "nonpayable",
      "type": "function"
    },
    {
      "inputs": [],
      "name": "togglePause",
      "outputs": [],
      "stateMutability": "nonpayable",
      "type": "function"
    },
    {
      "inputs": [
        {
          "internalType": "address",
          "name": "",
          "type": "address"
        }
      ],
      "name": "totalAmountClaimable",
      "outputs": [
        {
          "internalType": "uint256",
          "name": "",
          "type": "uint256"
        }
      ],
      "stateMutability": "view",
      "type": "function"
    },
    {
      "inputs": [
        {
          "internalType": "address",
          "name": "newOwner",
          "type": "address"
        }
      ],
      "name": "transferOwnership",
      "outputs": [],
      "stateMutability": "nonpayable",
      "type": "function"
    },
    {
      "inputs": [
        {
          "internalType": "address",
          "name": "_ERC20TokenAddress",
          "type": "address"
        }
      ],
      "name": "whitelistCurrency",
      "outputs": [],
      "stateMutability": "nonpayable",
      "type": "function"
    },
    {
      "inputs": [
        {
          "internalType": "address",
          "name": "",
          "type": "address"
        }
      ],
      "name": "whitelistedCurrencies",
      "outputs": [
        {
          "internalType": "bool",
          "name": "",
          "type": "bool"
        }
      ],
      "stateMutability": "view",
      "type": "function"
    },
    {
      "inputs": [
        {
          "internalType": "address[]",
          "name": "_tokenAddress",
          "type": "address[]"
        },
        {
          "internalType": "uint256[]",
          "name": "_amounts",
          "type": "uint256[]"
        },
        {
          "internalType": "address",
          "name": "_receiver",
          "type": "address"
        }
      ],
      "name": "withdrawFees",
      "outputs": [],
      "stateMutability": "nonpayable",
      "type": "function"
    }
  ],
  "bytecode": "61010060405260c86008556127106009553480156200001d57600080fd5b50604051620046c5380380620046c5833981016040819052620000409162000110565b600080546001600160a01b03191633908117825560405184928492918291907f8be0079c531659141344cd1fd0a4f28419497f9722a3daafe3b4186f6b6457e0908290a3506000805460ff60a01b1916815560018080556001600160a01b0393841660a0529190921660805260c09590955260e0939093525050805260036020527f3617319a054d772f909f7c479a2cebe5066e836a939412e32403c99029b92eff805460ff191690911790556200015b565b80516001600160a01b03811681146200010b57600080fd5b919050565b600080600080608085870312156200012757600080fd5b84519350602085015192506200014060408601620000f3565b91506200015060608601620000f3565b905092959194509250565b60805160a05160c05160e05161450d620001b8600039600081816101fa01528181613502015261364b015260008181610562015261362a0152600081816121c7015261393001526000818161352c0152613901015261450d6000f3fe6080604052600436106101e35760003560e01c806360e02e6911610102578063b3b745a611610095578063d73792a911610064578063d73792a91461069a578063ed5f4bb1146106b0578063f2fde38b146106c3578063f707c67c146106e357600080fd5b8063b3b745a61461063c578063c2f306a51461065c578063c4ae316814610672578063c4fb83a91461068757600080fd5b80638da5cb5b116100d15780638da5cb5b146105a457806394985ddd146105c2578063a080dffe146105e2578063a21afc761461060f57600080fd5b806360e02e6914610528578063715018a61461053b57806382c7317d1461055057806382d0f0691461058457600080fd5b806341cd47bf1161017a578063566777cc11610149578063566777cc146103fb5780635c975abb146104285780635d4bc0ce146104475780635fba31711461050857600080fd5b806341cd47bf1461034c578063436cc1381461036257806343b938c5146103a257806352defbd0146103db57600080fd5b806331f91a84116101b657806331f91a84146102915780633a1ec473146102b15780633dc70c161461030a5780634178cdfb1461032c57600080fd5b806301889611146101e8578063115773391461022f5780632cf316f9146102515780633077a86314610271575b600080fd5b3480156101f457600080fd5b5061021c7f000000000000000000000000000000000000000000000000000000000000000081565b6040519081526020015b60405180910390f35b34801561023b57600080fd5b5061024f61024a366004613b8c565b6106f6565b005b34801561025d57600080fd5b5061024f61026c366004613bfa565b610704565b34801561027d57600080fd5b5061024f61028c366004613c46565b610a6a565b34801561029d57600080fd5b5061024f6102ac366004613c77565b610e87565b3480156102bd57600080fd5b506102f26102cc366004613b8c565b60056020908152600092835260408084209091529082529020546001600160a01b031681565b6040516001600160a01b039091168152602001610226565b34801561031657600080fd5b5061031f611025565b6040516102269190613e1f565b34801561033857600080fd5b5061024f610347366004613c46565b6111cf565b34801561035857600080fd5b5061021c60085481565b34801561036e57600080fd5b5061039261037d366004613e6e565b60036020526000908152604090205460ff1681565b6040519015158152602001610226565b3480156103ae57600080fd5b506103926103bd366004613e6e565b6001600160a01b031660009081526003602052604090205460ff1690565b3480156103e757600080fd5b5061024f6103f6366004613e6e565b6114d7565b34801561040757600080fd5b5061041b610416366004613c46565b6115c1565b6040516102269190613e8b565b34801561043457600080fd5b50600054600160a01b900460ff16610392565b34801561045357600080fd5b506104ef610462366004613c46565b60046020819052600091825260409091208054600182015460028301546003840154948401546005850154600686015460078701546008909701546001600160a01b0396871698958716978588169760ff600160a01b8804811698600160a81b909804169695169392916001600160801b0380831692600160801b9081900482169280831692919004168d565b6040516102269d9c9b9a99989796959493929190613e99565b34801561051457600080fd5b5061024f610523366004613c46565b611635565b61024f610536366004613f4d565b611be3565b34801561054757600080fd5b5061024f612061565b34801561055c57600080fd5b5061021c7f000000000000000000000000000000000000000000000000000000000000000081565b34801561059057600080fd5b5061024f61059f366004613e6e565b6120d5565b3480156105b057600080fd5b506000546001600160a01b03166102f2565b3480156105ce57600080fd5b5061024f6105dd366004613b8c565b6121bc565b3480156105ee57600080fd5b506106026105fd366004613c46565b612234565b6040516102269190613f79565b34801561061b57600080fd5b5061021c61062a366004613e6e565b600a6020526000908152604090205481565b34801561064857600080fd5b506102f2610657366004613b8c565b61241a565b34801561066857600080fd5b5061021c60075481565b34801561067e57600080fd5b5061024f61248b565b61024f610695366004613f88565b6124d8565b3480156106a657600080fd5b5061021c60095481565b61024f6106be36600461400e565b61288b565b3480156106cf57600080fd5b5061024f6106de366004613e6e565b612dc1565b61024f6106f1366004613f88565b612eab565b610700828261325f565b5050565b60026001540361072f5760405162461bcd60e51b815260040161072690614068565b60405180910390fd5b6002600155600054600160a01b900460ff161561075e5760405162461bcd60e51b81526004016107269061409f565b600083815260046020818152604080842081516101a08101835281546001600160a01b0390811682526001830154811694820194909452600282015493841692810192909252909290916060840191600160a01b90910460ff16908111156107c8576107c8613cfb565b60048111156107d9576107d9613cfb565b81526020016002820160159054906101000a900460ff16600181111561080157610801613cfb565b600181111561081257610812613cfb565b8152600382810154602083015260048301546001600160a01b03166040830152600583015460608301526006830154608083015260078301546001600160801b0380821660a0850152600160801b91829004811660c085015260089094015480851660e085015204909216610100909101529091508160600151600481111561089d5761089d613cfb565b146108ea5760405162461bcd60e51b815260206004820152601f60248201527f526166666c65206973206e6f7420696e20524546554e444544207374617465006044820152606401610726565b8160005b818110156109f35760008681526005602052604081203391878785818110610918576109186140c9565b60209081029290920135835250810191909152604001600020546001600160a01b0316146109885760405162461bcd60e51b815260206004820152601d60248201527f596f7520646f206e6f74206f776e2074686973207469636b65742049640000006044820152606401610726565b6000868152600560205260408120818787858181106109a9576109a96140c9565b90506020020135815260200190815260200160002060006101000a8154816001600160a01b0302191690836001600160a01b03160217905550806109ec906140f5565b90506108ee565b506000610a0867016345785d8a00008361410e565b60e0840151610a17908461410e565b610a21919061412d565b60c08401519091506001600160a01b0316610a4557610a40338261331d565b610a5e565b60c0830151610a5e906001600160a01b03163383613461565b50506001805550505050565b600054600160a01b900460ff1615610a945760405162461bcd60e51b81526004016107269061409f565b600081815260046020818152604080842081516101a08101835281546001600160a01b0390811682526001830154811694820194909452600282015493841692810192909252909290916060840191600160a01b90910460ff1690811115610afe57610afe613cfb565b6004811115610b0f57610b0f613cfb565b81526020016002820160159054906101000a900460ff166001811115610b3757610b37613cfb565b6001811115610b4857610b48613cfb565b8152600382015460208083019190915260048301546001600160a01b039081166040840152600584015460608401526006840154608084015260078401546001600160801b0380821660a0860152600160801b91829004811660c086015260089095015480861660e0860152049093166101009092019190915282015191925016610be55760405162461bcd60e51b815260040161072690614145565b600081606001516004811115610bfd57610bfd613cfb565b14610c1a5760405162461bcd60e51b81526004016107269061417c565b8061014001516001600160801b03168161016001516001600160801b031614610c9b578061012001516001600160801b0316421015610c9b5760405162461bcd60e51b815260206004820152601760248201527f526166666c65206973206e6f7420636f6d706c657465640000000000000000006044820152606401610726565b8061018001516001600160801b03168161016001516001600160801b03161015610e2c57600081608001516001811115610cd757610cd7613cfb565b03610d48578051602082015160a08301516040516323b872dd60e01b81526001600160a01b03909316926323b872dd92610d159230926004016141bd565b600060405180830381600087803b158015610d2f57600080fd5b505af1158015610d43573d6000803e3d6000fd5b505050505b600181608001516001811115610d6057610d60613cfb565b03610d8957602081015160a08201518251610d89926001600160a01b03909116913091906134c9565b67016345785d8a0000816101600151826101800151610da891906141e1565b6001600160801b0316610dbb919061410e565b7f13da86008ba1c6922daee3e07db95305ef49ebced9f5467a0b8613fcc6b343e355600082815260046020526040808220600201805460ff60a01b1916600360a01b179055516000805160206144b883398151915291610e2091859190600390614209565b60405180910390a15050565b6000610e37836134ea565b90507f0830daf1b0e427c4692464a26bdcb77252bc16b9bab2254964095367edf6430f81604051610e6a91815260200190565b60405180910390a160009081526006602052604090208290555050565b6000546001600160a01b03163314610eb15760405162461bcd60e51b81526004016107269061422a565b83828114610f015760405162461bcd60e51b815260206004820152601a60248201527f4172726179206c656e6774687320646f206e6f74206d617463680000000000006044820152606401610726565b60008060005b8381101561101a57888882818110610f2157610f216140c9565b9050602002016020810190610f369190613e6e565b9150868682818110610f4a57610f4a6140c9565b905060200201359250600a6000836001600160a01b03166001600160a01b0316815260200190815260200160002054831115610fba5760405162461bcd60e51b815260206004820152600f60248201526e082dadeeadce840e8dede40d0d2ced608b1b6044820152606401610726565b6001600160a01b038216610fd757610fd2858461331d565b610feb565b610feb6001600160a01b0383168685613461565b6001600160a01b0382166000908152600a6020526040902080548490039055611013816140f5565b9050610f07565b505050505050505050565b6060806000805b6007548110156111c7576000818152600460208190526040822060020154600160a01b900460ff169081111561106457611064613cfb565b036111b75760008181526004602081815260409283902083516101a08101855281546001600160a01b0390811682526001830154811693820193909352600282015492831694810194909452916060840191600160a01b900460ff16908111156110d0576110d0613cfb565b60048111156110e1576110e1613cfb565b81526020016002820160159054906101000a900460ff16600181111561110957611109613cfb565b600181111561111a5761111a613cfb565b81526003820154602082015260048201546001600160a01b03166040820152600582015460608201526006820154608082015260078201546001600160801b0380821660a0840152600160801b91829004811660c084015260089093015480841660e08401520490911661010090910152835184908490811061119f5761119f6140c9565b6020026020010181905250816111b4906140f5565b91505b6111c0816140f5565b905061102c565b509092915050565b6002600154036111f15760405162461bcd60e51b815260040161072690614068565b6002600155600054600160a01b900460ff16156112205760405162461bcd60e51b81526004016107269061409f565b600081815260046020526040902060018101546001600160a01b03166112585760405162461bcd60e51b815260040161072690614145565b600280820154600160a01b900460ff16600481111561127957611279613cfb565b146112965760405162461bcd60e51b81526004016107269061417c565b6002818101805460ff60a01b1916600160a21b1790556040516000805160206144b8833981519152916112ce91859190600490614209565b60405180910390a1600181015460028201546001600160a01b03918216911660006002840154600160a81b900460ff16600181111561130f5761130f613cfb565b0361137d57825460038401546040516323b872dd60e01b81526001600160a01b03909216916323b872dd9161134a91309186916004016141bd565b600060405180830381600087803b15801561136457600080fd5b505af1158015611378573d6000803e3d6000fd5b505050505b60016002840154600160a81b900460ff16600181111561139f5761139f613cfb565b036113e65782546001600160a01b03166113c6576113c181846003015461331d565b6113e6565b600383015483546113e6916001600160a01b0390911690309084906134c9565b60058301546008840154600091611405916001600160801b031661410e565b905060006009546008548361141a919061410e565b6114249190614275565b90506114308183614289565b60048601546001600160a01b03166000818152600a60205260408120805493955091928492919061146290849061412d565b90915550506001600160a01b0381166114845761147f858461331d565b611498565b6114986001600160a01b0382168685613461565b60088601546114ca9086906114c590600160801b90046001600160801b031667016345785d8a000061410e565b61331d565b5050600180555050505050565b6000546001600160a01b031633146115015760405162461bcd60e51b81526004016107269061422a565b6001600160a01b03811660009081526003602052604090205460ff166115695760405162461bcd60e51b815260206004820152601860248201527f546f6b656e206973206e6f742077686974656c697374656400000000000000006044820152606401610726565b6001600160a01b038116600081815260036020908152604091829020805460ff1916905590519182527f0dc0548bc90523a9e943ea77d199875fdc1e4f8a419b6d53a595b5e6671480e591015b60405180910390a150565b60006007548211156116155760405162461bcd60e51b815260206004820152601c60248201527f54686520726166666c6520494420646f6573206e6f74206578697374000000006044820152606401610726565b50600090815260046020526040902060020154600160a01b900460ff1690565b6002600154036116575760405162461bcd60e51b815260040161072690614068565b6002600155600054600160a01b900460ff16156116865760405162461bcd60e51b81526004016107269061409f565b6007548111156116d05760405162461bcd60e51b8152602060048201526015602482015274149859999b1948191bd95cc81b9bdd08195e1a5cdd605a1b6044820152606401610726565b600081815260046020818152604080842081516101a08101835281546001600160a01b0390811682526001830154811694820194909452600282015493841692810192909252909290916060840191600160a01b90910460ff169081111561173a5761173a613cfb565b600481111561174b5761174b613cfb565b81526020016002820160159054906101000a900460ff16600181111561177357611773613cfb565b600181111561178457611784613cfb565b8152600382015460208083019190915260048301546001600160a01b039081166040840152600584015460608401526006840154608084015260078401546001600160801b0380821660a0860152600160801b91829004811660c086015260089095015480861660e086015204909316610100909201919091528201519192501633146118635760405162461bcd60e51b815260206004820152602760248201527f596f752063616e6e6f742063616e63656c20736f6d656f6e6520656c7365277360448201526620726166666c6560c81b6064820152608401610726565b60008160600151600481111561187b5761187b613cfb565b146118985760405162461bcd60e51b8152600401610726906142a0565b60018161016001516001600160801b0316106118f65760405162461bcd60e51b815260206004820181905260248201527f5469636b657473206861766520616c7265616479206265656e20626f756768746044820152606401610726565b600082815260046020819052604080832080546001600160a01b03199081168255600182018054821690556002820180546003808501889055958401805490931690925560058301869055600683018690556007830186905560089092018590556001600160b01b031916600360a01b179055516000805160206144b883398151915292611985928692614209565b60405180910390a16000816080015160018111156119a5576119a5613cfb565b03611a7f578051602082015160a08301516040516323b872dd60e01b81526001600160a01b03909316926323b872dd926119e39230926004016141bd565b600060405180830381600087803b1580156119fd57600080fd5b505af1158015611a11573d6000803e3d6000fd5b505050507f58a2fe6e4623d780cd314a4c44e0353006d6bc7e941965a2c2a1a51b8d41638282826020015183600001518460a00151604051611a7694939291909384526001600160a01b03928316602085015291166040830152606082015260800190565b60405180910390a15b600181608001516001811115611a9757611a97613cfb565b03611b415760a081015181516001600160a01b0316611abf57611aba338261331d565b611ade565b60208201518251611ade916001600160a01b03909116903090846134c9565b602082015182516040517f987f49fc5df600848382b03d43a2da53d161076cb739525cfa82137ef7878c2192611b3792879286909384526001600160a01b03928316602085015291166040830152606082015260800190565b60405180910390a1505b60008161018001516001600160801b031667016345785d8a0000611b65919061410e565b90506000612710611b788361232861410e565b611b829190614275565b9050611b8e8183614289565b6000808052600a6020527f13da86008ba1c6922daee3e07db95305ef49ebced9f5467a0b8613fcc6b343e38054909190611bc990849061412d565b90915550611bd99050338261331d565b5050600180555050565b600054600160a01b900460ff1615611c0d5760405162461bcd60e51b81526004016107269061409f565b600082815260046020818152604080842081516101a08101835281546001600160a01b0390811682526001830154811694820194909452600282015493841692810192909252909290916060840191600160a01b90910460ff1690811115611c7757611c77613cfb565b6004811115611c8857611c88613cfb565b81526020016002820160159054906101000a900460ff166001811115611cb057611cb0613cfb565b6001811115611cc157611cc1613cfb565b8152600382015460208083019190915260048301546001600160a01b039081166040840152600584015460608401526006840154608084015260078401546001600160801b0380821660a0860152600160801b91829004811660c086015260089095015480861660e0860152049093166101009092019190915282015191925016611d5e5760405162461bcd60e51b815260040161072690614145565b61010081015115611dd75760405162461bcd60e51b815260206004820152603c60248201527f57686974656c697374656420726166666c652e2055736520627579576869746560448201527f6c6973746564526166666c655469636b6574282920696e7374656164000000006064820152608401610726565b8061012001516001600160801b03164210611e045760405162461bcd60e51b8152600401610726906142a0565b600081606001516004811115611e1c57611e1c613cfb565b14611e395760405162461bcd60e51b8152600401610726906142a0565b8061014001516001600160801b03168161016001516001600160801b031610611e975760405162461bcd60e51b815260206004820152601060248201526f151a58dad95d1cc81cdbdb19081bdd5d60821b6044820152606401610726565b806101600151816101400151611ead91906141e1565b6001600160801b0316826001600160801b03161115611ede5760405162461bcd60e51b8152600401610726906142d7565b60c08101516001600160a01b0316611f5c5760e0810151611f08906001600160801b03841661410e565b341015611f575760405162461bcd60e51b815260206004820181905260248201527f4e6f7420656e6f7567682045746865722073656e74206173207061796d656e746044820152606401610726565b611f90565b611f9033308360e00151856001600160801b0316611f7a919061410e565b60c08501516001600160a01b03169291906134c9565b60005b826001600160801b031681101561200d576000848152600560205260408120610160840151339290611fcf9085906001600160801b031661412d565b8152602081019190915260400160002080546001600160a01b0319166001600160a01b0392909216919091179055612006816140f5565b9050611f93565b50600083815260046020526040812060080180548492906120389084906001600160801b0316614325565b92506101000a8154816001600160801b0302191690836001600160801b03160217905550505050565b6000546001600160a01b0316331461208b5760405162461bcd60e51b81526004016107269061422a565b600080546040516001600160a01b03909116907f8be0079c531659141344cd1fd0a4f28419497f9722a3daafe3b4186f6b6457e0908390a3600080546001600160a01b0319169055565b6000546001600160a01b031633146120ff5760405162461bcd60e51b81526004016107269061422a565b6001600160a01b03811660009081526003602052604090205460ff16156121685760405162461bcd60e51b815260206004820152601c60248201527f546f6b656e20697320616c72656164792077686974656c6973746564000000006044820152606401610726565b6001600160a01b038116600081815260036020908152604091829020805460ff1916600117905590519182527f5c6cf68a9d7e416d0eee740661627dd794257920f1c63ddae6c6af81d02d12ea91016115b6565b336001600160a01b037f000000000000000000000000000000000000000000000000000000000000000016146106f65760405162461bcd60e51b815260206004820152601f60248201527f4f6e6c7920565246436f6f7264696e61746f722063616e2066756c66696c6c006044820152606401610726565b6122a0604080516101a08101825260008082526020820181905291810182905290606082019081526020016000815260006020820181905260408201819052606082018190526080820181905260a0820181905260c0820181905260e082018190526101009091015290565b6007548211156122f25760405162461bcd60e51b815260206004820152601c60248201527f54686520726166666c6520494420646f6573206e6f74206578697374000000006044820152606401610726565b60008281526004602081815260409283902083516101a08101855281546001600160a01b0390811682526001830154811693820193909352600282015492831694810194909452916060840191600160a01b900460ff169081111561235957612359613cfb565b600481111561236a5761236a613cfb565b81526020016002820160159054906101000a900460ff16600181111561239257612392613cfb565b60018111156123a3576123a3613cfb565b81526003820154602082015260048201546001600160a01b03166040820152600582015460608201526006820154608082015260078201546001600160801b0380821660a0840152600160801b91829004811660c084015260089093015480841660e0840152049091166101009091015292915050565b60008281526005602090815260408083208484529091528120546001600160a01b0316806124825760405162461bcd60e51b8152602060048201526015602482015274151a58dad95d08191bd95cc81b9bdd08195e1a5cdd605a1b6044820152606401610726565b90505b92915050565b6000546001600160a01b031633146124b55760405162461bcd60e51b81526004016107269061422a565b600054600160a01b900460ff166124d0576124ce613676565b565b6124ce6136f8565b600054600160a01b900460ff16156125025760405162461bcd60e51b81526004016107269061409f565b6001600160a01b03881660009081526003602052604090205460ff1661257c5760405162461bcd60e51b815260206004820152602960248201527f596f752063616e6e6f7420726166666c6520746869732074797065206f6620746044820152681bdad95b9cc81e595d60ba1b6064820152608401610726565b6001600160a01b03861660009081526003602052604090205460ff166125e45760405162461bcd60e51b815260206004820181905260248201527f546869732063757272656e6379206973206e6f742077686974656c69737465646044820152606401610726565b6001846001600160801b03161161260d5760405162461bcd60e51b815260040161072690614350565b610e10826001600160801b031610156126685760405162461bcd60e51b815260206004820152601c60248201527f4d696e696d756d206475726174696f6e206973206f6e6520686f7572000000006044820152606401610726565b6001600160a01b0388166126ee5761269167016345785d8a00006001600160801b03851661410e565b61269b908861412d565b34146126e95760405162461bcd60e51b815260206004820152601d60248201527f5468652045746865722073656e74206973206e6f7420636f72726563740000006044820152606401610726565b612768565b61270967016345785d8a00006001600160801b03851661410e565b34146127535760405162461bcd60e51b8152602060048201526019602482015278125b98dbdc9c9958dd0818dbdb1b185d195c985b081cd95b9d603a1b6044820152606401610726565b6127686001600160a01b03891633308a6134c9565b6007805460009160049183918261277e836140f5565b909155508152602081019190915260400160002080546001600160a01b038b81166001600160a01b031992831617835560018301805483163317905560028301805461ffff60a01b1916600160a81b179055600383018b9055600483018054909216908a16179055600581018790556006810183905590506128008342614325565b6001600160801b03908116600160801b878316810291909117600784810191909155600884018054841693881690920292909217905554604080519182526001600160a01b038b16602083015281018990527fdb1511a41a743840c03ce4a0850a49d2e916b3e8f06a42074bae224f0bce7919906060015b60405180910390a1505050505050505050565b600054600160a01b900460ff16156128b55760405162461bcd60e51b81526004016107269061409f565b600084815260046020818152604080842081516101a08101835281546001600160a01b0390811682526001830154811694820194909452600282015493841692810192909252909290916060840191600160a01b90910460ff169081111561291f5761291f613cfb565b600481111561293057612930613cfb565b81526020016002820160159054906101000a900460ff16600181111561295857612958613cfb565b600181111561296957612969613cfb565b8152600382015460208083019190915260048301546001600160a01b039081166040840152600584015460608401526006840154608084015260078401546001600160801b0380821660a0860152600160801b91829004811660c086015260089095015480861660e0860152049093166101009092019190915282015191925016612a065760405162461bcd60e51b815260040161072690614145565b610100810151612a765760405162461bcd60e51b815260206004820152603560248201527f4e6f6e2d77686974656c697374656420726166666c652e2055736520627579526044820152741859999b19551a58dad95d0a0a481a5b9cdd195859605a1b6064820152608401610726565b8061012001516001600160801b03164210612aa35760405162461bcd60e51b8152600401610726906142a0565b600081606001516004811115612abb57612abb613cfb565b14612ad85760405162461bcd60e51b8152600401610726906142a0565b8061014001516001600160801b03168161016001516001600160801b031610612b365760405162461bcd60e51b815260206004820152601060248201526f151a58dad95d1cc81cdbdb19081bdd5d60821b6044820152606401610726565b806101600151816101400151612b4c91906141e1565b6001600160801b0316846001600160801b03161115612b7d5760405162461bcd60e51b8152600401610726906142d7565b6040516bffffffffffffffffffffffff193360601b166020820152600090603401604051602081830303815290604052805190602001209050612bf88484808060200260200160405190810160405280939291908181526020018383602002808284376000920191909152505050506101008401518361377c565b612c3b5760405162461bcd60e51b8152602060048201526014602482015273155cd95c881b9bdd081dda1a5d195b1a5cdd195960621b6044820152606401610726565b60c08201516001600160a01b0316612cb95760e0820151612c65906001600160801b03871661410e565b341015612cb45760405162461bcd60e51b815260206004820181905260248201527f4e6f7420656e6f7567682045746865722073656e74206173207061796d656e746044820152606401610726565b612ced565b612ced33308460e00151886001600160801b0316612cd7919061410e565b60c08601516001600160a01b03169291906134c9565b60005b856001600160801b0316811015612d6a576000878152600560205260408120610160850151339290612d2c9085906001600160801b031661412d565b8152602081019190915260400160002080546001600160a01b0319166001600160a01b0392909216919091179055612d63816140f5565b9050612cf0565b5060008681526004602052604081206008018054879290612d959084906001600160801b0316614325565b92506101000a8154816001600160801b0302191690836001600160801b03160217905550505050505050565b6000546001600160a01b03163314612deb5760405162461bcd60e51b81526004016107269061422a565b6001600160a01b038116612e505760405162461bcd60e51b815260206004820152602660248201527f4f776e61626c653a206e6577206f776e657220697320746865207a65726f206160448201526564647265737360d01b6064820152608401610726565b600080546040516001600160a01b03808516939216917f8be0079c531659141344cd1fd0a4f28419497f9722a3daafe3b4186f6b6457e091a3600080546001600160a01b0319166001600160a01b0392909216919091179055565b600054600160a01b900460ff1615612ed55760405162461bcd60e51b81526004016107269061409f565b6040516331a9108f60e11b8152600481018890526001600160a01b03891690636352211e90602401602060405180830381865afa158015612f1a573d6000803e3d6000fd5b505050506040513d601f19601f82011682018060405250810190612f3e9190614394565b6001600160a01b0316336001600160a01b031614612f9e5760405162461bcd60e51b815260206004820152601760248201527f596f7520646f206e6f74206f776e2074686973204e46540000000000000000006044820152606401610726565b6001600160a01b03861660009081526003602052604090205460ff166130065760405162461bcd60e51b815260206004820181905260248201527f546869732063757272656e6379206973206e6f742077686974656c69737465646044820152606401610726565b6001846001600160801b03161161302f5760405162461bcd60e51b815260040161072690614350565b610e10826001600160801b0316101561308a5760405162461bcd60e51b815260206004820152601a60248201527f4d696e696d756d206475726174696f6e206973203120686f75720000000000006044820152606401610726565b6130a567016345785d8a00006001600160801b03851661410e565b34146130ef5760405162461bcd60e51b8152602060048201526019602482015278125b98dbdc9c9958dd0818dbdb1b185d195c985b081cd95b9d603a1b6044820152606401610726565b6040516323b872dd60e01b81526001600160a01b038916906323b872dd9061311f90339030908c906004016141bd565b600060405180830381600087803b15801561313957600080fd5b505af115801561314d573d6000803e3d6000fd5b5050600780546000935060049250839182613167836140f5565b909155508152602081019190915260400160002080546001600160a01b038b81166001600160a01b031992831617835560018301805483163317905560028301805461ffff60a01b19169055600383018b9055600483018054909216908a16179055600581018790556006810183905590506131e38342614325565b6001600160801b03908116600160801b878316810291909117600784810191909155600884018054841693881690920292909217905554604080519182526001600160a01b038b16602083015281018990527f1f1a5174455810457e3ca7cb27252db8d09030fad07eec86404c4dfeeeeadf8790606001612878565b60008281526006602090815260408083205480845260049092529091206002808201805460ff60a01b1916600160a01b8302179055506000805160206144b883398151915282600160026040516132b893929190614209565b60405180910390a160088101546000906132db906001600160801b0316856143b1565b600093845260056020908152604080862092865291905290922054600290910180546001600160a01b0319166001600160a01b03909216919091179055505050565b8047101561336d5760405162461bcd60e51b815260206004820152601e60248201527f5f68616e646c6545746865725472616e7366657220696e736f6c76656e7400006044820152606401610726565b60005a90506000836001600160a01b0316838390604051600060405180830381858888f193505050503d80600081146133c2576040519150601f19603f3d011682016040523d82523d6000602084013e6133c7565b606091505b505090508061345b5773c02aaa39b223fe8d0a0e5c4f27ead9083c756cc26001600160a01b031663d0e30db0846040518263ffffffff1660e01b81526004016000604051808303818588803b15801561341f57600080fd5b505af1158015613433573d6000803e3d6000fd5b5061345b935073c02aaa39b223fe8d0a0e5c4f27ead9083c756cc29250879150869050613461565b50505050565b6040516001600160a01b0383166024820152604481018290526134c490849063a9059cbb60e01b906064015b60408051601f198184030181529190526020810180516001600160e01b03166001600160e01b03199093169290921790915261382b565b505050565b61345b846323b872dd60e01b85858560405160240161348d939291906141bd565b6040516370a0823160e01b81523060048201526000907f0000000000000000000000000000000000000000000000000000000000000000906001600160a01b037f000000000000000000000000000000000000000000000000000000000000000016906370a0823190602401602060405180830381865afa158015613573573d6000803e3d6000fd5b505050506040513d601f19601f8201168201806040525081019061359791906143c5565b10156135d75760405162461bcd60e51b815260206004820152600f60248201526e4e6f7420656e6f756768204c494e4b60881b6044820152606401610726565b60008281526004602052604080822060028101805460ff60a01b1916600160a01b179055905190916000805160206144b88339815191529161361d918691600190614209565b60405180910390a161366f7f00000000000000000000000000000000000000000000000000000000000000007f00000000000000000000000000000000000000000000000000000000000000006138fd565b9392505050565b600054600160a01b900460ff16156136a05760405162461bcd60e51b81526004016107269061409f565b6000805460ff60a01b1916600160a01b1790557f62e78cea01bee320cd4e420270b5ea74000d11b0c9f74754ebdbfc544b05a2586136db3390565b6040516001600160a01b03909116815260200160405180910390a1565b600054600160a01b900460ff166137485760405162461bcd60e51b815260206004820152601460248201527314185d5cd8589b194e881b9bdd081c185d5cd95960621b6044820152606401610726565b6000805460ff60a01b191690557f5db9ee0a495bf2e6ff9c91a7834c1ba4fdd244a5e8aa4e537bd38aeae4b073aa336136db565b600081815b855181101561382057600086828151811061379e5761379e6140c9565b602002602001015190508083116137e057604080516020810185905290810182905260600160405160208183030381529060405280519060200120925061380d565b60408051602081018390529081018490526060016040516020818303038152906040528051906020012092505b5080613818816140f5565b915050613781565b509092149392505050565b6000613880826040518060400160405280602081526020017f5361666545524332303a206c6f772d6c6576656c2063616c6c206661696c6564815250856001600160a01b0316613a819092919063ffffffff16565b8051909150156134c4578080602001905181019061389e91906143de565b6134c45760405162461bcd60e51b815260206004820152602a60248201527f5361666545524332303a204552433230206f7065726174696f6e20646964206e6044820152691bdd081cdd58d8d9595960b21b6064820152608401610726565b60007f00000000000000000000000000000000000000000000000000000000000000006001600160a01b0316634000aea07f00000000000000000000000000000000000000000000000000000000000000008486600060405160200161396d929190918252602082015260400190565b6040516020818303038152906040526040518463ffffffff1660e01b815260040161399a93929190614458565b6020604051808303816000875af11580156139b9573d6000803e3d6000fd5b505050506040513d601f19601f820116820180604052508101906139dd91906143de565b50600083815260026020818152604080842054815180840189905280830186905230606082015260808082018390528351808303909101815260a090910190925281519183019190912093879052919052613a3990600161412d565b600085815260026020526040902055613a798482604080516020808201949094528082019290925280518083038201815260609092019052805191012090565b949350505050565b6060613a79848460008585843b613ada5760405162461bcd60e51b815260206004820152601d60248201527f416464726573733a2063616c6c20746f206e6f6e2d636f6e74726163740000006044820152606401610726565b600080866001600160a01b03168587604051613af69190614488565b60006040518083038185875af1925050503d8060008114613b33576040519150601f19603f3d011682016040523d82523d6000602084013e613b38565b606091505b5091509150613b48828286613b53565b979650505050505050565b60608315613b6257508161366f565b825115613b725782518084602001fd5b8160405162461bcd60e51b815260040161072691906144a4565b60008060408385031215613b9f57600080fd5b50508035926020909101359150565b60008083601f840112613bc057600080fd5b50813567ffffffffffffffff811115613bd857600080fd5b6020830191508360208260051b8501011115613bf357600080fd5b9250929050565b600080600060408486031215613c0f57600080fd5b83359250602084013567ffffffffffffffff811115613c2d57600080fd5b613c3986828701613bae565b9497909650939450505050565b600060208284031215613c5857600080fd5b5035919050565b6001600160a01b0381168114613c7457600080fd5b50565b600080600080600060608688031215613c8f57600080fd5b853567ffffffffffffffff80821115613ca757600080fd5b613cb389838a01613bae565b90975095506020880135915080821115613ccc57600080fd5b50613cd988828901613bae565b9094509250506040860135613ced81613c5f565b809150509295509295909350565b634e487b7160e01b600052602160045260246000fd5b60058110613d2157613d21613cfb565b9052565b60028110613d2157613d21613cfb565b80516001600160a01b031682526020810151613d5c60208401826001600160a01b03169052565b506040810151613d7760408401826001600160a01b03169052565b506060810151613d8a6060840182613d11565b506080810151613d9d6080840182613d25565b5060a081015160a083015260c0810151613dc260c08401826001600160a01b03169052565b5060e081810151908301526101008082015190830152610120808201516001600160801b0390811691840191909152610140808301518216908401526101608083015182169084015261018080830151918216818501529061345b565b6020808252825182820181905260009190848201906040850190845b81811015613e6257613e4e838551613d35565b928401926101a09290920191600101613e3b565b50909695505050505050565b600060208284031215613e8057600080fd5b813561248281613c5f565b602081016124858284613d11565b6001600160a01b038e811682528d811660208301528c1660408201526101a08101613ec7606083018d613d11565b613ed4608083018c613d25565b60a08201999099526001600160a01b039790971660c088015260e08701959095526101008601939093526001600160801b039182166101208601528116610140850152908116610160840152166101809091015295945050505050565b80356001600160801b0381168114613f4857600080fd5b919050565b60008060408385031215613f6057600080fd5b82359150613f7060208401613f31565b90509250929050565b6101a081016124858284613d35565b600080600080600080600080610100898b031215613fa557600080fd5b8835613fb081613c5f565b9750602089013596506040890135613fc781613c5f565b955060608901359450613fdc60808a01613f31565b9350613fea60a08a01613f31565b9250613ff860c08a01613f31565b915060e089013590509295985092959890939650565b6000806000806060858703121561402457600080fd5b8435935061403460208601613f31565b9250604085013567ffffffffffffffff81111561405057600080fd5b61405c87828801613bae565b95989497509550505050565b6020808252601f908201527f5265656e7472616e637947756172643a207265656e7472616e742063616c6c00604082015260600190565b60208082526010908201526f14185d5cd8589b194e881c185d5cd95960821b604082015260600190565b634e487b7160e01b600052603260045260246000fd5b634e487b7160e01b600052601160045260246000fd5b600060018201614107576141076140df565b5060010190565b6000816000190483118215151615614128576141286140df565b500290565b60008219821115614140576141406140df565b500190565b6020808252601a908201527f5468697320726166666c6520646f6573206e6f74206578697374000000000000604082015260600190565b60208082526021908201527f5468697320726166666c652077617320616c726561647920636f6d706c6574656040820152601960fa1b606082015260800190565b6001600160a01b039384168152919092166020820152604081019190915260600190565b60006001600160801b0383811690831681811015614201576142016140df565b039392505050565b8381526060810161421d6020830185613d11565b613a796040830184613d11565b6020808252818101527f4f776e61626c653a2063616c6c6572206973206e6f7420746865206f776e6572604082015260600190565b634e487b7160e01b600052601260045260246000fd5b6000826142845761428461425f565b500490565b60008282101561429b5761429b6140df565b500390565b6020808252601d908201527f5468697320726166666c652068617320616c726561647920656e646564000000604082015260600190565b6020808252602e908201527f546865726520617265206e6f7420736f206d616e79207469636b65747320617660408201526d61696c61626c6520746f2062757960901b606082015260800190565b60006001600160801b03808316818516808303821115614347576143476140df565b01949350505050565b60208082526024908201527f526166666c6573206d7573742068617665206174206c656173742032207469636040820152636b65747360e01b606082015260800190565b6000602082840312156143a657600080fd5b815161248281613c5f565b6000826143c0576143c061425f565b500690565b6000602082840312156143d757600080fd5b5051919050565b6000602082840312156143f057600080fd5b8151801515811461248257600080fd5b60005b8381101561441b578181015183820152602001614403565b8381111561345b5750506000910152565b60008151808452614444816020860160208601614400565b601f01601f19169290920160200192915050565b60018060a01b038416815282602082015260606040820152600061447f606083018461442c565b95945050505050565b6000825161449a818460208701614400565b9190910192915050565b60208152600061366f602083018461442c56fe98f4d55a8071907ab4e28727c006f2a8a315cd8c01e117f04430d9587875ad3da264697066735822122031616546cf2640004c7e0721c2e3b6d50489eadfa6304d71463c139ad6c76f6264736f6c634300080d0033",
  "bytecodeSha1": "077b317c654a603b371948bd71eb0597524085ad",
  "compiler": {
    "evm_version": "istanbul",
    "optimizer": {
      "enabled": true,
      "runs": 200
    },
    "version": "0.8.13+commit.abaa5c0e"
  },
  "contractName": "Raffle",
  "language": "Solidity",
  "natspec": {
    "kind": "dev",
    "methods": {
      "blacklistCurrency(address)": {
        "notice": "Used to blacklist a ERC20 token so it can not be used any longer as a payment currency"
      },
      "buyRaffleTicket(uint256,uint128)": {
        "notice": "Allows users to buy tickets for a Raffle",
        "params": {
          "_numberOfTickets": "The number of tickets an user wants to buy ",
          "_raffleId": "The ID of the raffle the user wants to buy a ticket for"
        }
      },
      "buyWhitelistedRaffleTicket(uint256,uint128,bytes32[])": {
        "notice": "Allows users to buy tickets for a whitelisted Raffle",
        "params": {
          "_merkleProof": "MerkleProof used to verify user is aprt of the whitelist ",
          "_numberOfTickets": "The number of tickets an user wants to buy ",
          "_raffleId": "The ID of the raffle the user wants to buy a ticket for"
        }
      },
      "cancelRaffle(uint256)": {
        "notice": "Allows users to cancel a raffle if NO tickets were sold yet",
        "params": {
          "_raffleId": "The ID of the raffle"
        }
      },
      "claimCancelledRaffle(uint256,uint256[])": {
        "notice": "Allows users to claim a cancelled raffle where they will receive their initially payment plus 0.1 Ether",
        "params": {
          "_raffleId": "The ID of the raffle the user wants to buy a ticket for",
          "ticketIds": "Array of ticketIds to claim"
        }
      },
      "claimRaffle(uint256)": {
        "notice": "Allows users to claim the raffle. Owner of the raffle will receive the payment and the winner his asset",
        "params": {
          "_raffleId": "The ID of the raffle the user wants to buy a ticket for"
        }
      },
      "completeRaffle(uint256)": {
        "notice": "Allows users to complete a Raffle. The winner of the raffle will receive the asset. The owner of the raffle will receive his payment Cron job will call daily all the pending raffles. Users can also call it",
        "params": {
          "_raffleId": "The ID of the raffle the user wants to buy a ticket for"
        }
      },
      "createERC20Raffle(address,uint256,address,uint256,uint128,uint128,uint128,bytes32)": {
        "notice": "Allows users to create a raffle of an ERC20 asset",
        "params": {
          "_amount": "Quantity of tokens to be raffled",
          "_currency": "Tickets will be bought with this ERC20 token. address(0) should be put here if the currency will be Ether",
          "_durationInSeconds": "Duration in seconds of the raffle",
          "_merkleRoot": "Used so only whitelisted users can buy raffle tickets",
          "_minimumTicketsSold": "Number of tickets that should be sold in order to be a success raffle. If this minimum amount is not reached the owner of the raffle will be able to cancel the raffle, returning the users their payment plus a little collateral to cover for the gas fees. If this amount is reached, normal flow will be followed",
          "_numberOfTickets": "Number of tickets that will be sold as maximum in the raffle",
          "_pricePerTicket": "Price per ticket. It can be zero in case of an \"airdrop\"",
          "_tokenAddress": "Address of the token amount to raffle"
        }
      },
      "createERC721Raffle(address,uint256,address,uint256,uint128,uint128,uint128,bytes32)": {
        "notice": "Allows users to create a raffle of an ERC721 asset",
        "params": {
          "_currency": "Tickets will be bought with this ERC20 token. address(0) should be put here if the currency will be Ether",
          "_durationInSeconds": "Duration in seconds of the raffle",
          "_merkleRoot": "Used so only whitelisted users can buy raffle tickets",
          "_minimumTicketsSold": "Number of tickets that should be sold in order to be a success raffle. If this minimum amount is not reached the owner of the raffle will be able to cancel the raffle, returning the users their payment plus a little collateral to cover for the gas fees. If this amount is reached, normal flow will be followed.",
          "_nftCollection": "Address of the NFT to raffle",
          "_nftId": "NFTid of the _nftCollection",
          "_numberOfTickets": "Number of tickets that will be sold as maximum in the raffle",
          "_pricePerTicket": "Price per ticket. It can be zero in case of an \"airdrop\""
        }
      },
      "getRaffleDetails(uint256)": {
        "notice": "############################################################################################                 VIEW FUNCTIONS  ############################################################################################"
      },
      "owner()": {
        "details": "Returns the address of the current owner."
      },
      "paused()": {
        "details": "Returns true if the contract is paused, and false otherwise."
      },
      "renounceOwnership()": {
        "details": "Leaves the contract without owner. It will not be possible to call `onlyOwner` functions anymore. Can only be called by the current owner. NOTE: Renouncing ownership will leave the contract without an owner, thereby removing any functionality that is only available to the owner."
      },
      "togglePause()": {
        "notice": "Used to pause/unpause the smart contract by the owner"
      },
      "totalAmountClaimable(address)": {
        "notice": "Token address => Amount that owners of the contract can claim as fee rewards address(0) = Ether"
      },
      "transferOwnership(address)": {
        "details": "Transfers ownership of the contract to a new account (`newOwner`). Can only be called by the current owner."
      },
      "whitelistCurrency(address)": {
        "notice": "Used to whitelist a new ERC20 token to be used as a payment currency"
      },
      "withdrawFees(address[],uint256[],address)": {
        "notice": "Used by the contract owners to claim the fees accrued",
        "params": {
          "_amounts": "List of amounts that will be withdrawn",
          "_receiver": "Address that will receive the fees",
          "_tokenAddress": "List of tokens to withdraw the fees"
        }
      }
    },
    "version": 1
  },
  "opcodes": "PUSH1 0x80 PUSH1 0x40 MSTORE PUSH1 0x4 CALLDATASIZE LT PUSH2 0x1E3 JUMPI PUSH1 0x0 CALLDATALOAD PUSH1 0xE0 SHR DUP1 PUSH4 0x60E02E69 GT PUSH2 0x102 JUMPI DUP1 PUSH4 0xB3B745A6 GT PUSH2 0x95 JUMPI DUP1 PUSH4 0xD73792A9 GT PUSH2 0x64 JUMPI DUP1 PUSH4 0xD73792A9 EQ PUSH2 0x69A JUMPI DUP1 PUSH4 0xED5F4BB1 EQ PUSH2 0x6B0 JUMPI DUP1 PUSH4 0xF2FDE38B EQ PUSH2 0x6C3 JUMPI DUP1 PUSH4 0xF707C67C EQ PUSH2 0x6E3 JUMPI PUSH1 0x0 DUP1 REVERT JUMPDEST DUP1 PUSH4 0xB3B745A6 EQ PUSH2 0x63C JUMPI DUP1 PUSH4 0xC2F306A5 EQ PUSH2 0x65C JUMPI DUP1 PUSH4 0xC4AE3168 EQ PUSH2 0x672 JUMPI DUP1 PUSH4 0xC4FB83A9 EQ PUSH2 0x687 JUMPI PUSH1 0x0 DUP1 REVERT JUMPDEST DUP1 PUSH4 0x8DA5CB5B GT PUSH2 0xD1 JUMPI DUP1 PUSH4 0x8DA5CB5B EQ PUSH2 0x5A4 JUMPI DUP1 PUSH4 0x94985DDD EQ PUSH2 0x5C2 JUMPI DUP1 PUSH4 0xA080DFFE EQ PUSH2 0x5E2 JUMPI DUP1 PUSH4 0xA21AFC76 EQ PUSH2 0x60F JUMPI PUSH1 0x0 DUP1 REVERT JUMPDEST DUP1 PUSH4 0x60E02E69 EQ PUSH2 0x528 JUMPI DUP1 PUSH4 0x715018A6 EQ PUSH2 0x53B JUMPI DUP1 PUSH4 0x82C7317D EQ PUSH2 0x550 JUMPI DUP1 PUSH4 0x82D0F069 EQ PUSH2 0x584 JUMPI PUSH1 0x0 DUP1 REVERT JUMPDEST DUP1 PUSH4 0x41CD47BF GT PUSH2 0x17A JUMPI DUP1 PUSH4 0x566777CC GT PUSH2 0x149 JUMPI DUP1 PUSH4 0x566777CC EQ PUSH2 0x3FB JUMPI DUP1 PUSH4 0x5C975ABB EQ PUSH2 0x428 JUMPI DUP1 PUSH4 0x5D4BC0CE EQ PUSH2 0x447 JUMPI DUP1 PUSH4 0x5FBA3171 EQ PUSH2 0x508 JUMPI PUSH1 0x0 DUP1 REVERT JUMPDEST DUP1 PUSH4 0x41CD47BF EQ PUSH2 0x34C JUMPI DUP1 PUSH4 0x436CC138 EQ PUSH2 0x362 JUMPI DUP1 PUSH4 0x43B938C5 EQ PUSH2 0x3A2 JUMPI DUP1 PUSH4 0x52DEFBD0 EQ PUSH2 0x3DB JUMPI PUSH1 0x0 DUP1 REVERT JUMPDEST DUP1 PUSH4 0x31F91A84 GT PUSH2 0x1B6 JUMPI DUP1 PUSH4 0x31F91A84 EQ PUSH2 0x291 JUMPI DUP1 PUSH4 0x3A1EC473 EQ PUSH2 0x2B1 JUMPI DUP1 PUSH4 0x3DC70C16 EQ PUSH2 0x30A JUMPI DUP1 PUSH4 0x4178CDFB EQ PUSH2 0x32C JUMPI PUSH1 0x0 DUP1 REVERT JUMPDEST DUP1 PUSH4 0x1889611 EQ PUSH2 0x1E8 JUMPI DUP1 PUSH4 0x11577339 EQ PUSH2 0x22F JUMPI DUP1 PUSH4 0x2CF316F9 EQ PUSH2 0x251 JUMPI DUP1 PUSH4 0x3077A863 EQ PUSH2 0x271 JUMPI JUMPDEST PUSH1 0x0 DUP1 REVERT JUMPDEST CALLVALUE DUP1 ISZERO PUSH2 0x1F4 JUMPI PUSH1 0x0 DUP1 REVERT JUMPDEST POP PUSH2 0x21C PUSH32 0x0 DUP2 JUMP JUMPDEST PUSH1 0x40 MLOAD SWAP1 DUP2 MSTORE PUSH1 0x20 ADD JUMPDEST PUSH1 0x40 MLOAD DUP1 SWAP2 SUB SWAP1 RETURN JUMPDEST CALLVALUE DUP1 ISZERO PUSH2 0x23B JUMPI PUSH1 0x0 DUP1 REVERT JUMPDEST POP PUSH2 0x24F PUSH2 0x24A CALLDATASIZE PUSH1 0x4 PUSH2 0x3B8C JUMP JUMPDEST PUSH2 0x6F6 JUMP JUMPDEST STOP JUMPDEST CALLVALUE DUP1 ISZERO PUSH2 0x25D JUMPI PUSH1 0x0 DUP1 REVERT JUMPDEST POP PUSH2 0x24F PUSH2 0x26C CALLDATASIZE PUSH1 0x4 PUSH2 0x3BFA JUMP JUMPDEST PUSH2 0x704 JUMP JUMPDEST CALLVALUE DUP1 ISZERO PUSH2 0x27D JUMPI PUSH1 0x0 DUP1 REVERT JUMPDEST POP PUSH2 0x24F PUSH2 0x28C CALLDATASIZE PUSH1 0x4 PUSH2 0x3C46 JUMP JUMPDEST PUSH2 0xA6A JUMP JUMPDEST CALLVALUE DUP1 ISZERO PUSH2 0x29D JUMPI PUSH1 0x0 DUP1 REVERT JUMPDEST POP PUSH2 0x24F PUSH2 0x2AC CALLDATASIZE PUSH1 0x4 PUSH2 0x3C77 JUMP JUMPDEST PUSH2 0xE87 JUMP JUMPDEST CALLVALUE DUP1 ISZERO PUSH2 0x2BD JUMPI PUSH1 0x0 DUP1 REVERT JUMPDEST POP PUSH2 0x2F2 PUSH2 0x2CC CALLDATASIZE PUSH1 0x4 PUSH2 0x3B8C JUMP JUMPDEST PUSH1 0x5 PUSH1 0x20 SWAP1 DUP2 MSTORE PUSH1 0x0 SWAP3 DUP4 MSTORE PUSH1 0x40 DUP1 DUP5 KECCAK256 SWAP1 SWAP2 MSTORE SWAP1 DUP3 MSTORE SWAP1 KECCAK256 SLOAD PUSH1 0x1 PUSH1 0x1 PUSH1 0xA0 SHL SUB AND DUP2 JUMP JUMPDEST PUSH1 0x40 MLOAD PUSH1 0x1 PUSH1 0x1 PUSH1 0xA0 SHL SUB SWAP1 SWAP2 AND DUP2 MSTORE PUSH1 0x20 ADD PUSH2 0x226 JUMP JUMPDEST CALLVALUE DUP1 ISZERO PUSH2 0x316 JUMPI PUSH1 0x0 DUP1 REVERT JUMPDEST POP PUSH2 0x31F PUSH2 0x1025 JUMP JUMPDEST PUSH1 0x40 MLOAD PUSH2 0x226 SWAP2 SWAP1 PUSH2 0x3E1F JUMP JUMPDEST CALLVALUE DUP1 ISZERO PUSH2 0x338 JUMPI PUSH1 0x0 DUP1 REVERT JUMPDEST POP PUSH2 0x24F PUSH2 0x347 CALLDATASIZE PUSH1 0x4 PUSH2 0x3C46 JUMP JUMPDEST PUSH2 0x11CF JUMP JUMPDEST CALLVALUE DUP1 ISZERO PUSH2 0x358 JUMPI PUSH1 0x0 DUP1 REVERT JUMPDEST POP PUSH2 0x21C PUSH1 0x8 SLOAD DUP2 JUMP JUMPDEST CALLVALUE DUP1 ISZERO PUSH2 0x36E JUMPI PUSH1 0x0 DUP1 REVERT JUMPDEST POP PUSH2 0x392 PUSH2 0x37D CALLDATASIZE PUSH1 0x4 PUSH2 0x3E6E JUMP JUMPDEST PUSH1 0x3 PUSH1 0x20 MSTORE PUSH1 0x0 SWAP1 DUP2 MSTORE PUSH1 0x40 SWAP1 KECCAK256 SLOAD PUSH1 0xFF AND DUP2 JUMP JUMPDEST PUSH1 0x40 MLOAD SWAP1 ISZERO ISZERO DUP2 MSTORE PUSH1 0x20 ADD PUSH2 0x226 JUMP JUMPDEST CALLVALUE DUP1 ISZERO PUSH2 0x3AE JUMPI PUSH1 0x0 DUP1 REVERT JUMPDEST POP PUSH2 0x392 PUSH2 0x3BD CALLDATASIZE PUSH1 0x4 PUSH2 0x3E6E JUMP JUMPDEST PUSH1 0x1 PUSH1 0x1 PUSH1 0xA0 SHL SUB AND PUSH1 0x0 SWAP1 DUP2 MSTORE PUSH1 0x3 PUSH1 0x20 MSTORE PUSH1 0x40 SWAP1 KECCAK256 SLOAD PUSH1 0xFF AND SWAP1 JUMP JUMPDEST CALLVALUE DUP1 ISZERO PUSH2 0x3E7 JUMPI PUSH1 0x0 DUP1 REVERT JUMPDEST POP PUSH2 0x24F PUSH2 0x3F6 CALLDATASIZE PUSH1 0x4 PUSH2 0x3E6E JUMP JUMPDEST PUSH2 0x14D7 JUMP JUMPDEST CALLVALUE DUP1 ISZERO PUSH2 0x407 JUMPI PUSH1 0x0 DUP1 REVERT JUMPDEST POP PUSH2 0x41B PUSH2 0x416 CALLDATASIZE PUSH1 0x4 PUSH2 0x3C46 JUMP JUMPDEST PUSH2 0x15C1 JUMP JUMPDEST PUSH1 0x40 MLOAD PUSH2 0x226 SWAP2 SWAP1 PUSH2 0x3E8B JUMP JUMPDEST CALLVALUE DUP1 ISZERO PUSH2 0x434 JUMPI PUSH1 0x0 DUP1 REVERT JUMPDEST POP PUSH1 0x0 SLOAD PUSH1 0x1 PUSH1 0xA0 SHL SWAP1 DIV PUSH1 0xFF AND PUSH2 0x392 JUMP JUMPDEST CALLVALUE DUP1 ISZERO PUSH2 0x453 JUMPI PUSH1 0x0 DUP1 REVERT JUMPDEST POP PUSH2 0x4EF PUSH2 0x462 CALLDATASIZE PUSH1 0x4 PUSH2 0x3C46 JUMP JUMPDEST PUSH1 0x4 PUSH1 0x20 DUP2 SWAP1 MSTORE PUSH1 0x0 SWAP2 DUP3 MSTORE PUSH1 0x40 SWAP1 SWAP2 KECCAK256 DUP1 SLOAD PUSH1 0x1 DUP3 ADD SLOAD PUSH1 0x2 DUP4 ADD SLOAD PUSH1 0x3 DUP5 ADD SLOAD SWAP5 DUP5 ADD SLOAD PUSH1 0x5 DUP6 ADD SLOAD PUSH1 0x6 DUP7 ADD SLOAD PUSH1 0x7 DUP8 ADD SLOAD PUSH1 0x8 SWAP1 SWAP8 ADD SLOAD PUSH1 0x1 PUSH1 0x1 PUSH1 0xA0 SHL SUB SWAP7 DUP8 AND SWAP9 SWAP6 DUP8 AND SWAP8 DUP6 DUP9 AND SWAP8 PUSH1 0xFF PUSH1 0x1 PUSH1 0xA0 SHL DUP9 DIV DUP2 AND SWAP9 PUSH1 0x1 PUSH1 0xA8 SHL SWAP1 SWAP9 DIV AND SWAP7 SWAP6 AND SWAP4 SWAP3 SWAP2 PUSH1 0x1 PUSH1 0x1 PUSH1 0x80 SHL SUB DUP1 DUP4 AND SWAP3 PUSH1 0x1 PUSH1 0x80 SHL SWAP1 DUP2 SWAP1 DIV DUP3 AND SWAP3 DUP1 DUP4 AND SWAP3 SWAP2 SWAP1 DIV AND DUP14 JUMP JUMPDEST PUSH1 0x40 MLOAD PUSH2 0x226 SWAP14 SWAP13 SWAP12 SWAP11 SWAP10 SWAP9 SWAP8 SWAP7 SWAP6 SWAP5 SWAP4 SWAP3 SWAP2 SWAP1 PUSH2 0x3E99 JUMP JUMPDEST CALLVALUE DUP1 ISZERO PUSH2 0x514 JUMPI PUSH1 0x0 DUP1 REVERT JUMPDEST POP PUSH2 0x24F PUSH2 0x523 CALLDATASIZE PUSH1 0x4 PUSH2 0x3C46 JUMP JUMPDEST PUSH2 0x1635 JUMP JUMPDEST PUSH2 0x24F PUSH2 0x536 CALLDATASIZE PUSH1 0x4 PUSH2 0x3F4D JUMP JUMPDEST PUSH2 0x1BE3 JUMP JUMPDEST CALLVALUE DUP1 ISZERO PUSH2 0x547 JUMPI PUSH1 0x0 DUP1 REVERT JUMPDEST POP PUSH2 0x24F PUSH2 0x2061 JUMP JUMPDEST CALLVALUE DUP1 ISZERO PUSH2 0x55C JUMPI PUSH1 0x0 DUP1 REVERT JUMPDEST POP PUSH2 0x21C PUSH32 0x0 DUP2 JUMP JUMPDEST CALLVALUE DUP1 ISZERO PUSH2 0x590 JUMPI PUSH1 0x0 DUP1 REVERT JUMPDEST POP PUSH2 0x24F PUSH2 0x59F CALLDATASIZE PUSH1 0x4 PUSH2 0x3E6E JUMP JUMPDEST PUSH2 0x20D5 JUMP JUMPDEST CALLVALUE DUP1 ISZERO PUSH2 0x5B0 JUMPI PUSH1 0x0 DUP1 REVERT JUMPDEST POP PUSH1 0x0 SLOAD PUSH1 0x1 PUSH1 0x1 PUSH1 0xA0 SHL SUB AND PUSH2 0x2F2 JUMP JUMPDEST CALLVALUE DUP1 ISZERO PUSH2 0x5CE JUMPI PUSH1 0x0 DUP1 REVERT JUMPDEST POP PUSH2 0x24F PUSH2 0x5DD CALLDATASIZE PUSH1 0x4 PUSH2 0x3B8C JUMP JUMPDEST PUSH2 0x21BC JUMP JUMPDEST CALLVALUE DUP1 ISZERO PUSH2 0x5EE JUMPI PUSH1 0x0 DUP1 REVERT JUMPDEST POP PUSH2 0x602 PUSH2 0x5FD CALLDATASIZE PUSH1 0x4 PUSH2 0x3C46 JUMP JUMPDEST PUSH2 0x2234 JUMP JUMPDEST PUSH1 0x40 MLOAD PUSH2 0x226 SWAP2 SWAP1 PUSH2 0x3F79 JUMP JUMPDEST CALLVALUE DUP1 ISZERO PUSH2 0x61B JUMPI PUSH1 0x0 DUP1 REVERT JUMPDEST POP PUSH2 0x21C PUSH2 0x62A CALLDATASIZE PUSH1 0x4 PUSH2 0x3E6E JUMP JUMPDEST PUSH1 0xA PUSH1 0x20 MSTORE PUSH1 0x0 SWAP1 DUP2 MSTORE PUSH1 0x40 SWAP1 KECCAK256 SLOAD DUP2 JUMP JUMPDEST CALLVALUE DUP1 ISZERO PUSH2 0x648 JUMPI PUSH1 0x0 DUP1 REVERT JUMPDEST POP PUSH2 0x2F2 PUSH2 0x657 CALLDATASIZE PUSH1 0x4 PUSH2 0x3B8C JUMP JUMPDEST PUSH2 0x241A JUMP JUMPDEST CALLVALUE DUP1 ISZERO PUSH2 0x668 JUMPI PUSH1 0x0 DUP1 REVERT JUMPDEST POP PUSH2 0x21C PUSH1 0x7 SLOAD DUP2 JUMP JUMPDEST CALLVALUE DUP1 ISZERO PUSH2 0x67E JUMPI PUSH1 0x0 DUP1 REVERT JUMPDEST POP PUSH2 0x24F PUSH2 0x248B JUMP JUMPDEST PUSH2 0x24F PUSH2 0x695 CALLDATASIZE PUSH1 0x4 PUSH2 0x3F88 JUMP JUMPDEST PUSH2 0x24D8 JUMP JUMPDEST CALLVALUE DUP1 ISZERO PUSH2 0x6A6 JUMPI PUSH1 0x0 DUP1 REVERT JUMPDEST POP PUSH2 0x21C PUSH1 0x9 SLOAD DUP2 JUMP JUMPDEST PUSH2 0x24F PUSH2 0x6BE CALLDATASIZE PUSH1 0x4 PUSH2 0x400E JUMP JUMPDEST PUSH2 0x288B JUMP JUMPDEST CALLVALUE DUP1 ISZERO PUSH2 0x6CF JUMPI PUSH1 0x0 DUP1 REVERT JUMPDEST POP PUSH2 0x24F PUSH2 0x6DE CALLDATASIZE PUSH1 0x4 PUSH2 0x3E6E JUMP JUMPDEST PUSH2 0x2DC1 JUMP JUMPDEST PUSH2 0x24F PUSH2 0x6F1 CALLDATASIZE PUSH1 0x4 PUSH2 0x3F88 JUMP JUMPDEST PUSH2 0x2EAB JUMP JUMPDEST PUSH2 0x700 DUP3 DUP3 PUSH2 0x325F JUMP JUMPDEST POP POP JUMP JUMPDEST PUSH1 0x2 PUSH1 0x1 SLOAD SUB PUSH2 0x72F JUMPI PUSH1 0x40 MLOAD PUSH3 0x461BCD PUSH1 0xE5 SHL DUP2 MSTORE PUSH1 0x4 ADD PUSH2 0x726 SWAP1 PUSH2 0x4068 JUMP JUMPDEST PUSH1 0x40 MLOAD DUP1 SWAP2 SUB SWAP1 REVERT JUMPDEST PUSH1 0x2 PUSH1 0x1 SSTORE PUSH1 0x0 SLOAD PUSH1 0x1 PUSH1 0xA0 SHL SWAP1 DIV PUSH1 0xFF AND ISZERO PUSH2 0x75E JUMPI PUSH1 0x40 MLOAD PUSH3 0x461BCD PUSH1 0xE5 SHL DUP2 MSTORE PUSH1 0x4 ADD PUSH2 0x726 SWAP1 PUSH2 0x409F JUMP JUMPDEST PUSH1 0x0 DUP4 DUP2 MSTORE PUSH1 0x4 PUSH1 0x20 DUP2 DUP2 MSTORE PUSH1 0x40 DUP1 DUP5 KECCAK256 DUP2 MLOAD PUSH2 0x1A0 DUP2 ADD DUP4 MSTORE DUP2 SLOAD PUSH1 0x1 PUSH1 0x1 PUSH1 0xA0 SHL SUB SWAP1 DUP2 AND DUP3 MSTORE PUSH1 0x1 DUP4 ADD SLOAD DUP2 AND SWAP5 DUP3 ADD SWAP5 SWAP1 SWAP5 MSTORE PUSH1 0x2 DUP3 ADD SLOAD SWAP4 DUP5 AND SWAP3 DUP2 ADD SWAP3 SWAP1 SWAP3 MSTORE SWAP1 SWAP3 SWAP1 SWAP2 PUSH1 0x60 DUP5 ADD SWAP2 PUSH1 0x1 PUSH1 0xA0 SHL SWAP1 SWAP2 DIV PUSH1 0xFF AND SWAP1 DUP2 GT ISZERO PUSH2 0x7C8 JUMPI PUSH2 0x7C8 PUSH2 0x3CFB JUMP JUMPDEST PUSH1 0x4 DUP2 GT ISZERO PUSH2 0x7D9 JUMPI PUSH2 0x7D9 PUSH2 0x3CFB JUMP JUMPDEST DUP2 MSTORE PUSH1 0x20 ADD PUSH1 0x2 DUP3 ADD PUSH1 0x15 SWAP1 SLOAD SWAP1 PUSH2 0x100 EXP SWAP1 DIV PUSH1 0xFF AND PUSH1 0x1 DUP2 GT ISZERO PUSH2 0x801 JUMPI PUSH2 0x801 PUSH2 0x3CFB JUMP JUMPDEST PUSH1 0x1 DUP2 GT ISZERO PUSH2 0x812 JUMPI PUSH2 0x812 PUSH2 0x3CFB JUMP JUMPDEST DUP2 MSTORE PUSH1 0x3 DUP3 DUP2 ADD SLOAD PUSH1 0x20 DUP4 ADD MSTORE PUSH1 0x4 DUP4 ADD SLOAD PUSH1 0x1 PUSH1 0x1 PUSH1 0xA0 SHL SUB AND PUSH1 0x40 DUP4 ADD MSTORE PUSH1 0x5 DUP4 ADD SLOAD PUSH1 0x60 DUP4 ADD MSTORE PUSH1 0x6 DUP4 ADD SLOAD PUSH1 0x80 DUP4 ADD MSTORE PUSH1 0x7 DUP4 ADD SLOAD PUSH1 0x1 PUSH1 0x1 PUSH1 0x80 SHL SUB DUP1 DUP3 AND PUSH1 0xA0 DUP6 ADD MSTORE PUSH1 0x1 PUSH1 0x80 SHL SWAP2 DUP3 SWAP1 DIV DUP2 AND PUSH1 0xC0 DUP6 ADD MSTORE PUSH1 0x8 SWAP1 SWAP5 ADD SLOAD DUP1 DUP6 AND PUSH1 0xE0 DUP6 ADD MSTORE DIV SWAP1 SWAP3 AND PUSH2 0x100 SWAP1 SWAP2 ADD MSTORE SWAP1 SWAP2 POP DUP2 PUSH1 0x60 ADD MLOAD PUSH1 0x4 DUP2 GT ISZERO PUSH2 0x89D JUMPI PUSH2 0x89D PUSH2 0x3CFB JUMP JUMPDEST EQ PUSH2 0x8EA JUMPI PUSH1 0x40 MLOAD PUSH3 0x461BCD PUSH1 0xE5 SHL DUP2 MSTORE PUSH1 0x20 PUSH1 0x4 DUP3 ADD MSTORE PUSH1 0x1F PUSH1 0x24 DUP3 ADD MSTORE PUSH32 0x526166666C65206973206E6F7420696E20524546554E44454420737461746500 PUSH1 0x44 DUP3 ADD MSTORE PUSH1 0x64 ADD PUSH2 0x726 JUMP JUMPDEST DUP2 PUSH1 0x0 JUMPDEST DUP2 DUP2 LT ISZERO PUSH2 0x9F3 JUMPI PUSH1 0x0 DUP7 DUP2 MSTORE PUSH1 0x5 PUSH1 0x20 MSTORE PUSH1 0x40 DUP2 KECCAK256 CALLER SWAP2 DUP8 DUP8 DUP6 DUP2 DUP2 LT PUSH2 0x918 JUMPI PUSH2 0x918 PUSH2 0x40C9 JUMP JUMPDEST PUSH1 0x20 SWAP1 DUP2 MUL SWAP3 SWAP1 SWAP3 ADD CALLDATALOAD DUP4 MSTORE POP DUP2 ADD SWAP2 SWAP1 SWAP2 MSTORE PUSH1 0x40 ADD PUSH1 0x0 KECCAK256 SLOAD PUSH1 0x1 PUSH1 0x1 PUSH1 0xA0 SHL SUB AND EQ PUSH2 0x988 JUMPI PUSH1 0x40 MLOAD PUSH3 0x461BCD PUSH1 0xE5 SHL DUP2 MSTORE PUSH1 0x20 PUSH1 0x4 DUP3 ADD MSTORE PUSH1 0x1D PUSH1 0x24 DUP3 ADD MSTORE PUSH32 0x596F7520646F206E6F74206F776E2074686973207469636B6574204964000000 PUSH1 0x44 DUP3 ADD MSTORE PUSH1 0x64 ADD PUSH2 0x726 JUMP JUMPDEST PUSH1 0x0 DUP7 DUP2 MSTORE PUSH1 0x5 PUSH1 0x20 MSTORE PUSH1 0x40 DUP2 KECCAK256 DUP2 DUP8 DUP8 DUP6 DUP2 DUP2 LT PUSH2 0x9A9 JUMPI PUSH2 0x9A9 PUSH2 0x40C9 JUMP JUMPDEST SWAP1 POP PUSH1 0x20 MUL ADD CALLDATALOAD DUP2 MSTORE PUSH1 0x20 ADD SWAP1 DUP2 MSTORE PUSH1 0x20 ADD PUSH1 0x0 KECCAK256 PUSH1 0x0 PUSH2 0x100 EXP DUP2 SLOAD DUP2 PUSH1 0x1 PUSH1 0x1 PUSH1 0xA0 SHL SUB MUL NOT AND SWAP1 DUP4 PUSH1 0x1 PUSH1 0x1 PUSH1 0xA0 SHL SUB AND MUL OR SWAP1 SSTORE POP DUP1 PUSH2 0x9EC SWAP1 PUSH2 0x40F5 JUMP JUMPDEST SWAP1 POP PUSH2 0x8EE JUMP JUMPDEST POP PUSH1 0x0 PUSH2 0xA08 PUSH8 0x16345785D8A0000 DUP4 PUSH2 0x410E JUMP JUMPDEST PUSH1 0xE0 DUP5 ADD MLOAD PUSH2 0xA17 SWAP1 DUP5 PUSH2 0x410E JUMP JUMPDEST PUSH2 0xA21 SWAP2 SWAP1 PUSH2 0x412D JUMP JUMPDEST PUSH1 0xC0 DUP5 ADD MLOAD SWAP1 SWAP2 POP PUSH1 0x1 PUSH1 0x1 PUSH1 0xA0 SHL SUB AND PUSH2 0xA45 JUMPI PUSH2 0xA40 CALLER DUP3 PUSH2 0x331D JUMP JUMPDEST PUSH2 0xA5E JUMP JUMPDEST PUSH1 0xC0 DUP4 ADD MLOAD PUSH2 0xA5E SWAP1 PUSH1 0x1 PUSH1 0x1 PUSH1 0xA0 SHL SUB AND CALLER DUP4 PUSH2 0x3461 JUMP JUMPDEST POP POP PUSH1 0x1 DUP1 SSTORE POP POP POP POP JUMP JUMPDEST PUSH1 0x0 SLOAD PUSH1 0x1 PUSH1 0xA0 SHL SWAP1 DIV PUSH1 0xFF AND ISZERO PUSH2 0xA94 JUMPI PUSH1 0x40 MLOAD PUSH3 0x461BCD PUSH1 0xE5 SHL DUP2 MSTORE PUSH1 0x4 ADD PUSH2 0x726 SWAP1 PUSH2 0x409F JUMP JUMPDEST PUSH1 0x0 DUP2 DUP2 MSTORE PUSH1 0x4 PUSH1 0x20 DUP2 DUP2 MSTORE PUSH1 0x40 DUP1 DUP5 KECCAK256 DUP2 MLOAD PUSH2 0x1A0 DUP2 ADD DUP4 MSTORE DUP2 SLOAD PUSH1 0x1 PUSH1 0x1 PUSH1 0xA0 SHL SUB SWAP1 DUP2 AND DUP3 MSTORE PUSH1 0x1 DUP4 ADD SLOAD DUP2 AND SWAP5 DUP3 ADD SWAP5 SWAP1 SWAP5 MSTORE PUSH1 0x2 DUP3 ADD SLOAD SWAP4 DUP5 AND SWAP3 DUP2 ADD SWAP3 SWAP1 SWAP3 MSTORE SWAP1 SWAP3 SWAP1 SWAP2 PUSH1 0x60 DUP5 ADD SWAP2 PUSH1 0x1 PUSH1 0xA0 SHL SWAP1 SWAP2 DIV PUSH1 0xFF AND SWAP1 DUP2 GT ISZERO PUSH2 0xAFE JUMPI PUSH2 0xAFE PUSH2 0x3CFB JUMP JUMPDEST PUSH1 0x4 DUP2 GT ISZERO PUSH2 0xB0F JUMPI PUSH2 0xB0F PUSH2 0x3CFB JUMP JUMPDEST DUP2 MSTORE PUSH1 0x20 ADD PUSH1 0x2 DUP3 ADD PUSH1 0x15 SWAP1 SLOAD SWAP1 PUSH2 0x100 EXP SWAP1 DIV PUSH1 0xFF AND PUSH1 0x1 DUP2 GT ISZERO PUSH2 0xB37 JUMPI PUSH2 0xB37 PUSH2 0x3CFB JUMP JUMPDEST PUSH1 0x1 DUP2 GT ISZERO PUSH2 0xB48 JUMPI PUSH2 0xB48 PUSH2 0x3CFB JUMP JUMPDEST DUP2 MSTORE PUSH1 0x3 DUP3 ADD SLOAD PUSH1 0x20 DUP1 DUP4 ADD SWAP2 SWAP1 SWAP2 MSTORE PUSH1 0x4 DUP4 ADD SLOAD PUSH1 0x1 PUSH1 0x1 PUSH1 0xA0 SHL SUB SWAP1 DUP2 AND PUSH1 0x40 DUP5 ADD MSTORE PUSH1 0x5 DUP5 ADD SLOAD PUSH1 0x60 DUP5 ADD MSTORE PUSH1 0x6 DUP5 ADD SLOAD PUSH1 0x80 DUP5 ADD MSTORE PUSH1 0x7 DUP5 ADD SLOAD PUSH1 0x1 PUSH1 0x1 PUSH1 0x80 SHL SUB DUP1 DUP3 AND PUSH1 0xA0 DUP7 ADD MSTORE PUSH1 0x1 PUSH1 0x80 SHL SWAP2 DUP3 SWAP1 DIV DUP2 AND PUSH1 0xC0 DUP7 ADD MSTORE PUSH1 0x8 SWAP1 SWAP6 ADD SLOAD DUP1 DUP7 AND PUSH1 0xE0 DUP7 ADD MSTORE DIV SWAP1 SWAP4 AND PUSH2 0x100 SWAP1 SWAP3 ADD SWAP2 SWAP1 SWAP2 MSTORE DUP3 ADD MLOAD SWAP2 SWAP3 POP AND PUSH2 0xBE5 JUMPI PUSH1 0x40 MLOAD PUSH3 0x461BCD PUSH1 0xE5 SHL DUP2 MSTORE PUSH1 0x4 ADD PUSH2 0x726 SWAP1 PUSH2 0x4145 JUMP JUMPDEST PUSH1 0x0 DUP2 PUSH1 0x60 ADD MLOAD PUSH1 0x4 DUP2 GT ISZERO PUSH2 0xBFD JUMPI PUSH2 0xBFD PUSH2 0x3CFB JUMP JUMPDEST EQ PUSH2 0xC1A JUMPI PUSH1 0x40 MLOAD PUSH3 0x461BCD PUSH1 0xE5 SHL DUP2 MSTORE PUSH1 0x4 ADD PUSH2 0x726 SWAP1 PUSH2 0x417C JUMP JUMPDEST DUP1 PUSH2 0x140 ADD MLOAD PUSH1 0x1 PUSH1 0x1 PUSH1 0x80 SHL SUB AND DUP2 PUSH2 0x160 ADD MLOAD PUSH1 0x1 PUSH1 0x1 PUSH1 0x80 SHL SUB AND EQ PUSH2 0xC9B JUMPI DUP1 PUSH2 0x120 ADD MLOAD PUSH1 0x1 PUSH1 0x1 PUSH1 0x80 SHL SUB AND TIMESTAMP LT ISZERO PUSH2 0xC9B JUMPI PUSH1 0x40 MLOAD PUSH3 0x461BCD PUSH1 0xE5 SHL DUP2 MSTORE PUSH1 0x20 PUSH1 0x4 DUP3 ADD MSTORE PUSH1 0x17 PUSH1 0x24 DUP3 ADD MSTORE PUSH32 0x526166666C65206973206E6F7420636F6D706C65746564000000000000000000 PUSH1 0x44 DUP3 ADD MSTORE PUSH1 0x64 ADD PUSH2 0x726 JUMP JUMPDEST DUP1 PUSH2 0x180 ADD MLOAD PUSH1 0x1 PUSH1 0x1 PUSH1 0x80 SHL SUB AND DUP2 PUSH2 0x160 ADD MLOAD PUSH1 0x1 PUSH1 0x1 PUSH1 0x80 SHL SUB AND LT ISZERO PUSH2 0xE2C JUMPI PUSH1 0x0 DUP2 PUSH1 0x80 ADD MLOAD PUSH1 0x1 DUP2 GT ISZERO PUSH2 0xCD7 JUMPI PUSH2 0xCD7 PUSH2 0x3CFB JUMP JUMPDEST SUB PUSH2 0xD48 JUMPI DUP1 MLOAD PUSH1 0x20 DUP3 ADD MLOAD PUSH1 0xA0 DUP4 ADD MLOAD PUSH1 0x40 MLOAD PUSH4 0x23B872DD PUSH1 0xE0 SHL DUP2 MSTORE PUSH1 0x1 PUSH1 0x1 PUSH1 0xA0 SHL SUB SWAP1 SWAP4 AND SWAP3 PUSH4 0x23B872DD SWAP3 PUSH2 0xD15 SWAP3 ADDRESS SWAP3 PUSH1 0x4 ADD PUSH2 0x41BD JUMP JUMPDEST PUSH1 0x0 PUSH1 0x40 MLOAD DUP1 DUP4 SUB DUP2 PUSH1 0x0 DUP8 DUP1 EXTCODESIZE ISZERO DUP1 ISZERO PUSH2 0xD2F JUMPI PUSH1 0x0 DUP1 REVERT JUMPDEST POP GAS CALL ISZERO DUP1 ISZERO PUSH2 0xD43 JUMPI RETURNDATASIZE PUSH1 0x0 DUP1 RETURNDATACOPY RETURNDATASIZE PUSH1 0x0 REVERT JUMPDEST POP POP POP POP JUMPDEST PUSH1 0x1 DUP2 PUSH1 0x80 ADD MLOAD PUSH1 0x1 DUP2 GT ISZERO PUSH2 0xD60 JUMPI PUSH2 0xD60 PUSH2 0x3CFB JUMP JUMPDEST SUB PUSH2 0xD89 JUMPI PUSH1 0x20 DUP2 ADD MLOAD PUSH1 0xA0 DUP3 ADD MLOAD DUP3 MLOAD PUSH2 0xD89 SWAP3 PUSH1 0x1 PUSH1 0x1 PUSH1 0xA0 SHL SUB SWAP1 SWAP2 AND SWAP2 ADDRESS SWAP2 SWAP1 PUSH2 0x34C9 JUMP JUMPDEST PUSH8 0x16345785D8A0000 DUP2 PUSH2 0x160 ADD MLOAD DUP3 PUSH2 0x180 ADD MLOAD PUSH2 0xDA8 SWAP2 SWAP1 PUSH2 0x41E1 JUMP JUMPDEST PUSH1 0x1 PUSH1 0x1 PUSH1 0x80 SHL SUB AND PUSH2 0xDBB SWAP2 SWAP1 PUSH2 0x410E JUMP JUMPDEST PUSH32 0x13DA86008BA1C6922DAEE3E07DB95305EF49EBCED9F5467A0B8613FCC6B343E3 SSTORE PUSH1 0x0 DUP3 DUP2 MSTORE PUSH1 0x4 PUSH1 0x20 MSTORE PUSH1 0x40 DUP1 DUP3 KECCAK256 PUSH1 0x2 ADD DUP1 SLOAD PUSH1 0xFF PUSH1 0xA0 SHL NOT AND PUSH1 0x3 PUSH1 0xA0 SHL OR SWAP1 SSTORE MLOAD PUSH1 0x0 DUP1 MLOAD PUSH1 0x20 PUSH2 0x44B8 DUP4 CODECOPY DUP2 MLOAD SWAP2 MSTORE SWAP2 PUSH2 0xE20 SWAP2 DUP6 SWAP2 SWAP1 PUSH1 0x3 SWAP1 PUSH2 0x4209 JUMP JUMPDEST PUSH1 0x40 MLOAD DUP1 SWAP2 SUB SWAP1 LOG1 POP POP JUMP JUMPDEST PUSH1 0x0 PUSH2 0xE37 DUP4 PUSH2 0x34EA JUMP JUMPDEST SWAP1 POP PUSH32 0x830DAF1B0E427C4692464A26BDCB77252BC16B9BAB2254964095367EDF6430F DUP2 PUSH1 0x40 MLOAD PUSH2 0xE6A SWAP2 DUP2 MSTORE PUSH1 0x20 ADD SWAP1 JUMP JUMPDEST PUSH1 0x40 MLOAD DUP1 SWAP2 SUB SWAP1 LOG1 PUSH1 0x0 SWAP1 DUP2 MSTORE PUSH1 0x6 PUSH1 0x20 MSTORE PUSH1 0x40 SWAP1 KECCAK256 DUP3 SWAP1 SSTORE POP POP JUMP JUMPDEST PUSH1 0x0 SLOAD PUSH1 0x1 PUSH1 0x1 PUSH1 0xA0 SHL SUB AND CALLER EQ PUSH2 0xEB1 JUMPI PUSH1 0x40 MLOAD PUSH3 0x461BCD PUSH1 0xE5 SHL DUP2 MSTORE PUSH1 0x4 ADD PUSH2 0x726 SWAP1 PUSH2 0x422A JUMP JUMPDEST DUP4 DUP3 DUP2 EQ PUSH2 0xF01 JUMPI PUSH1 0x40 MLOAD PUSH3 0x461BCD PUSH1 0xE5 SHL DUP2 MSTORE PUSH1 0x20 PUSH1 0x4 DUP3 ADD MSTORE PUSH1 0x1A PUSH1 0x24 DUP3 ADD MSTORE PUSH32 0x4172726179206C656E6774687320646F206E6F74206D61746368000000000000 PUSH1 0x44 DUP3 ADD MSTORE PUSH1 0x64 ADD PUSH2 0x726 JUMP JUMPDEST PUSH1 0x0 DUP1 PUSH1 0x0 JUMPDEST DUP4 DUP2 LT ISZERO PUSH2 0x101A JUMPI DUP9 DUP9 DUP3 DUP2 DUP2 LT PUSH2 0xF21 JUMPI PUSH2 0xF21 PUSH2 0x40C9 JUMP JUMPDEST SWAP1 POP PUSH1 0x20 MUL ADD PUSH1 0x20 DUP2 ADD SWAP1 PUSH2 0xF36 SWAP2 SWAP1 PUSH2 0x3E6E JUMP JUMPDEST SWAP2 POP DUP7 DUP7 DUP3 DUP2 DUP2 LT PUSH2 0xF4A JUMPI PUSH2 0xF4A PUSH2 0x40C9 JUMP JUMPDEST SWAP1 POP PUSH1 0x20 MUL ADD CALLDATALOAD SWAP3 POP PUSH1 0xA PUSH1 0x0 DUP4 PUSH1 0x1 PUSH1 0x1 PUSH1 0xA0 SHL SUB AND PUSH1 0x1 PUSH1 0x1 PUSH1 0xA0 SHL SUB AND DUP2 MSTORE PUSH1 0x20 ADD SWAP1 DUP2 MSTORE PUSH1 0x20 ADD PUSH1 0x0 KECCAK256 SLOAD DUP4 GT ISZERO PUSH2 0xFBA JUMPI PUSH1 0x40 MLOAD PUSH3 0x461BCD PUSH1 0xE5 SHL DUP2 MSTORE PUSH1 0x20 PUSH1 0x4 DUP3 ADD MSTORE PUSH1 0xF PUSH1 0x24 DUP3 ADD MSTORE PUSH15 0x82DADEEADCE840E8DEDE40D0D2CED PUSH1 0x8B SHL PUSH1 0x44 DUP3 ADD MSTORE PUSH1 0x64 ADD PUSH2 0x726 JUMP JUMPDEST PUSH1 0x1 PUSH1 0x1 PUSH1 0xA0 SHL SUB DUP3 AND PUSH2 0xFD7 JUMPI PUSH2 0xFD2 DUP6 DUP5 PUSH2 0x331D JUMP JUMPDEST PUSH2 0xFEB JUMP JUMPDEST PUSH2 0xFEB PUSH1 0x1 PUSH1 0x1 PUSH1 0xA0 SHL SUB DUP4 AND DUP7 DUP6 PUSH2 0x3461 JUMP JUMPDEST PUSH1 0x1 PUSH1 0x1 PUSH1 0xA0 SHL SUB DUP3 AND PUSH1 0x0 SWAP1 DUP2 MSTORE PUSH1 0xA PUSH1 0x20 MSTORE PUSH1 0x40 SWAP1 KECCAK256 DUP1 SLOAD DUP5 SWAP1 SUB SWAP1 SSTORE PUSH2 0x1013 DUP2 PUSH2 0x40F5 JUMP JUMPDEST SWAP1 POP PUSH2 0xF07 JUMP JUMPDEST POP POP POP POP POP POP POP POP POP JUMP JUMPDEST PUSH1 0x60 DUP1 PUSH1 0x0 DUP1 JUMPDEST PUSH1 0x7 SLOAD DUP2 LT ISZERO PUSH2 0x11C7 JUMPI PUSH1 0x0 DUP2 DUP2 MSTORE PUSH1 0x4 PUSH1 0x20 DUP2 SWAP1 MSTORE PUSH1 0x40 DUP3 KECCAK256 PUSH1 0x2 ADD SLOAD PUSH1 0x1 PUSH1 0xA0 SHL SWAP1 DIV PUSH1 0xFF AND SWAP1 DUP2 GT ISZERO PUSH2 0x1064 JUMPI PUSH2 0x1064 PUSH2 0x3CFB JUMP JUMPDEST SUB PUSH2 0x11B7 JUMPI PUSH1 0x0 DUP2 DUP2 MSTORE PUSH1 0x4 PUSH1 0x20 DUP2 DUP2 MSTORE PUSH1 0x40 SWAP3 DUP4 SWAP1 KECCAK256 DUP4 MLOAD PUSH2 0x1A0 DUP2 ADD DUP6 MSTORE DUP2 SLOAD PUSH1 0x1 PUSH1 0x1 PUSH1 0xA0 SHL SUB SWAP1 DUP2 AND DUP3 MSTORE PUSH1 0x1 DUP4 ADD SLOAD DUP2 AND SWAP4 DUP3 ADD SWAP4 SWAP1 SWAP4 MSTORE PUSH1 0x2 DUP3 ADD SLOAD SWAP3 DUP4 AND SWAP5 DUP2 ADD SWAP5 SWAP1 SWAP5 MSTORE SWAP2 PUSH1 0x60 DUP5 ADD SWAP2 PUSH1 0x1 PUSH1 0xA0 SHL SWAP1 DIV PUSH1 0xFF AND SWAP1 DUP2 GT ISZERO PUSH2 0x10D0 JUMPI PUSH2 0x10D0 PUSH2 0x3CFB JUMP JUMPDEST PUSH1 0x4 DUP2 GT ISZERO PUSH2 0x10E1 JUMPI PUSH2 0x10E1 PUSH2 0x3CFB JUMP JUMPDEST DUP2 MSTORE PUSH1 0x20 ADD PUSH1 0x2 DUP3 ADD PUSH1 0x15 SWAP1 SLOAD SWAP1 PUSH2 0x100 EXP SWAP1 DIV PUSH1 0xFF AND PUSH1 0x1 DUP2 GT ISZERO PUSH2 0x1109 JUMPI PUSH2 0x1109 PUSH2 0x3CFB JUMP JUMPDEST PUSH1 0x1 DUP2 GT ISZERO PUSH2 0x111A JUMPI PUSH2 0x111A PUSH2 0x3CFB JUMP JUMPDEST DUP2 MSTORE PUSH1 0x3 DUP3 ADD SLOAD PUSH1 0x20 DUP3 ADD MSTORE PUSH1 0x4 DUP3 ADD SLOAD PUSH1 0x1 PUSH1 0x1 PUSH1 0xA0 SHL SUB AND PUSH1 0x40 DUP3 ADD MSTORE PUSH1 0x5 DUP3 ADD SLOAD PUSH1 0x60 DUP3 ADD MSTORE PUSH1 0x6 DUP3 ADD SLOAD PUSH1 0x80 DUP3 ADD MSTORE PUSH1 0x7 DUP3 ADD SLOAD PUSH1 0x1 PUSH1 0x1 PUSH1 0x80 SHL SUB DUP1 DUP3 AND PUSH1 0xA0 DUP5 ADD MSTORE PUSH1 0x1 PUSH1 0x80 SHL SWAP2 DUP3 SWAP1 DIV DUP2 AND PUSH1 0xC0 DUP5 ADD MSTORE PUSH1 0x8 SWAP1 SWAP4 ADD SLOAD DUP1 DUP5 AND PUSH1 0xE0 DUP5 ADD MSTORE DIV SWAP1 SWAP2 AND PUSH2 0x100 SWAP1 SWAP2 ADD MSTORE DUP4 MLOAD DUP5 SWAP1 DUP5 SWAP1 DUP2 LT PUSH2 0x119F JUMPI PUSH2 0x119F PUSH2 0x40C9 JUMP JUMPDEST PUSH1 0x20 MUL PUSH1 0x20 ADD ADD DUP2 SWAP1 MSTORE POP DUP2 PUSH2 0x11B4 SWAP1 PUSH2 0x40F5 JUMP JUMPDEST SWAP2 POP JUMPDEST PUSH2 0x11C0 DUP2 PUSH2 0x40F5 JUMP JUMPDEST SWAP1 POP PUSH2 0x102C JUMP JUMPDEST POP SWAP1 SWAP3 SWAP2 POP POP JUMP JUMPDEST PUSH1 0x2 PUSH1 0x1 SLOAD SUB PUSH2 0x11F1 JUMPI PUSH1 0x40 MLOAD PUSH3 0x461BCD PUSH1 0xE5 SHL DUP2 MSTORE PUSH1 0x4 ADD PUSH2 0x726 SWAP1 PUSH2 0x4068 JUMP JUMPDEST PUSH1 0x2 PUSH1 0x1 SSTORE PUSH1 0x0 SLOAD PUSH1 0x1 PUSH1 0xA0 SHL SWAP1 DIV PUSH1 0xFF AND ISZERO PUSH2 0x1220 JUMPI PUSH1 0x40 MLOAD PUSH3 0x461BCD PUSH1 0xE5 SHL DUP2 MSTORE PUSH1 0x4 ADD PUSH2 0x726 SWAP1 PUSH2 0x409F JUMP JUMPDEST PUSH1 0x0 DUP2 DUP2 MSTORE PUSH1 0x4 PUSH1 0x20 MSTORE PUSH1 0x40 SWAP1 KECCAK256 PUSH1 0x1 DUP2 ADD SLOAD PUSH1 0x1 PUSH1 0x1 PUSH1 0xA0 SHL SUB AND PUSH2 0x1258 JUMPI PUSH1 0x40 MLOAD PUSH3 0x461BCD PUSH1 0xE5 SHL DUP2 MSTORE PUSH1 0x4 ADD PUSH2 0x726 SWAP1 PUSH2 0x4145 JUMP JUMPDEST PUSH1 0x2 DUP1 DUP3 ADD SLOAD PUSH1 0x1 PUSH1 0xA0 SHL SWAP1 DIV PUSH1 0xFF AND PUSH1 0x4 DUP2 GT ISZERO PUSH2 0x1279 JUMPI PUSH2 0x1279 PUSH2 0x3CFB JUMP JUMPDEST EQ PUSH2 0x1296 JUMPI PUSH1 0x40 MLOAD PUSH3 0x461BCD PUSH1 0xE5 SHL DUP2 MSTORE PUSH1 0x4 ADD PUSH2 0x726 SWAP1 PUSH2 0x417C JUMP JUMPDEST PUSH1 0x2 DUP2 DUP2 ADD DUP1 SLOAD PUSH1 0xFF PUSH1 0xA0 SHL NOT AND PUSH1 0x1 PUSH1 0xA2 SHL OR SWAP1 SSTORE PUSH1 0x40 MLOAD PUSH1 0x0 DUP1 MLOAD PUSH1 0x20 PUSH2 0x44B8 DUP4 CODECOPY DUP2 MLOAD SWAP2 MSTORE SWAP2 PUSH2 0x12CE SWAP2 DUP6 SWAP2 SWAP1 PUSH1 0x4 SWAP1 PUSH2 0x4209 JUMP JUMPDEST PUSH1 0x40 MLOAD DUP1 SWAP2 SUB SWAP1 LOG1 PUSH1 0x1 DUP2 ADD SLOAD PUSH1 0x2 DUP3 ADD SLOAD PUSH1 0x1 PUSH1 0x1 PUSH1 0xA0 SHL SUB SWAP2 DUP3 AND SWAP2 AND PUSH1 0x0 PUSH1 0x2 DUP5 ADD SLOAD PUSH1 0x1 PUSH1 0xA8 SHL SWAP1 DIV PUSH1 0xFF AND PUSH1 0x1 DUP2 GT ISZERO PUSH2 0x130F JUMPI PUSH2 0x130F PUSH2 0x3CFB JUMP JUMPDEST SUB PUSH2 0x137D JUMPI DUP3 SLOAD PUSH1 0x3 DUP5 ADD SLOAD PUSH1 0x40 MLOAD PUSH4 0x23B872DD PUSH1 0xE0 SHL DUP2 MSTORE PUSH1 0x1 PUSH1 0x1 PUSH1 0xA0 SHL SUB SWAP1 SWAP3 AND SWAP2 PUSH4 0x23B872DD SWAP2 PUSH2 0x134A SWAP2 ADDRESS SWAP2 DUP7 SWAP2 PUSH1 0x4 ADD PUSH2 0x41BD JUMP JUMPDEST PUSH1 0x0 PUSH1 0x40 MLOAD DUP1 DUP4 SUB DUP2 PUSH1 0x0 DUP8 DUP1 EXTCODESIZE ISZERO DUP1 ISZERO PUSH2 0x1364 JUMPI PUSH1 0x0 DUP1 REVERT JUMPDEST POP GAS CALL ISZERO DUP1 ISZERO PUSH2 0x1378 JUMPI RETURNDATASIZE PUSH1 0x0 DUP1 RETURNDATACOPY RETURNDATASIZE PUSH1 0x0 REVERT JUMPDEST POP POP POP POP JUMPDEST PUSH1 0x1 PUSH1 0x2 DUP5 ADD SLOAD PUSH1 0x1 PUSH1 0xA8 SHL SWAP1 DIV PUSH1 0xFF AND PUSH1 0x1 DUP2 GT ISZERO PUSH2 0x139F JUMPI PUSH2 0x139F PUSH2 0x3CFB JUMP JUMPDEST SUB PUSH2 0x13E6 JUMPI DUP3 SLOAD PUSH1 0x1 PUSH1 0x1 PUSH1 0xA0 SHL SUB AND PUSH2 0x13C6 JUMPI PUSH2 0x13C1 DUP2 DUP5 PUSH1 0x3 ADD SLOAD PUSH2 0x331D JUMP JUMPDEST PUSH2 0x13E6 JUMP JUMPDEST PUSH1 0x3 DUP4 ADD SLOAD DUP4 SLOAD PUSH2 0x13E6 SWAP2 PUSH1 0x1 PUSH1 0x1 PUSH1 0xA0 SHL SUB SWAP1 SWAP2 AND SWAP1 ADDRESS SWAP1 DUP5 SWAP1 PUSH2 0x34C9 JUMP JUMPDEST PUSH1 0x5 DUP4 ADD SLOAD PUSH1 0x8 DUP5 ADD SLOAD PUSH1 0x0 SWAP2 PUSH2 0x1405 SWAP2 PUSH1 0x1 PUSH1 0x1 PUSH1 0x80 SHL SUB AND PUSH2 0x410E JUMP JUMPDEST SWAP1 POP PUSH1 0x0 PUSH1 0x9 SLOAD PUSH1 0x8 SLOAD DUP4 PUSH2 0x141A SWAP2 SWAP1 PUSH2 0x410E JUMP JUMPDEST PUSH2 0x1424 SWAP2 SWAP1 PUSH2 0x4275 JUMP JUMPDEST SWAP1 POP PUSH2 0x1430 DUP2 DUP4 PUSH2 0x4289 JUMP JUMPDEST PUSH1 0x4 DUP7 ADD SLOAD PUSH1 0x1 PUSH1 0x1 PUSH1 0xA0 SHL SUB AND PUSH1 0x0 DUP2 DUP2 MSTORE PUSH1 0xA PUSH1 0x20 MSTORE PUSH1 0x40 DUP2 KECCAK256 DUP1 SLOAD SWAP4 SWAP6 POP SWAP2 SWAP3 DUP5 SWAP3 SWAP2 SWAP1 PUSH2 0x1462 SWAP1 DUP5 SWAP1 PUSH2 0x412D JUMP JUMPDEST SWAP1 SWAP2 SSTORE POP POP PUSH1 0x1 PUSH1 0x1 PUSH1 0xA0 SHL SUB DUP2 AND PUSH2 0x1484 JUMPI PUSH2 0x147F DUP6 DUP5 PUSH2 0x331D JUMP JUMPDEST PUSH2 0x1498 JUMP JUMPDEST PUSH2 0x1498 PUSH1 0x1 PUSH1 0x1 PUSH1 0xA0 SHL SUB DUP3 AND DUP7 DUP6 PUSH2 0x3461 JUMP JUMPDEST PUSH1 0x8 DUP7 ADD SLOAD PUSH2 0x14CA SWAP1 DUP7 SWAP1 PUSH2 0x14C5 SWAP1 PUSH1 0x1 PUSH1 0x80 SHL SWAP1 DIV PUSH1 0x1 PUSH1 0x1 PUSH1 0x80 SHL SUB AND PUSH8 0x16345785D8A0000 PUSH2 0x410E JUMP JUMPDEST PUSH2 0x331D JUMP JUMPDEST POP POP PUSH1 0x1 DUP1 SSTORE POP POP POP POP POP JUMP JUMPDEST PUSH1 0x0 SLOAD PUSH1 0x1 PUSH1 0x1 PUSH1 0xA0 SHL SUB AND CALLER EQ PUSH2 0x1501 JUMPI PUSH1 0x40 MLOAD PUSH3 0x461BCD PUSH1 0xE5 SHL DUP2 MSTORE PUSH1 0x4 ADD PUSH2 0x726 SWAP1 PUSH2 0x422A JUMP JUMPDEST PUSH1 0x1 PUSH1 0x1 PUSH1 0xA0 SHL SUB DUP2 AND PUSH1 0x0 SWAP1 DUP2 MSTORE PUSH1 0x3 PUSH1 0x20 MSTORE PUSH1 0x40 SWAP1 KECCAK256 SLOAD PUSH1 0xFF AND PUSH2 0x1569 JUMPI PUSH1 0x40 MLOAD PUSH3 0x461BCD PUSH1 0xE5 SHL DUP2 MSTORE PUSH1 0x20 PUSH1 0x4 DUP3 ADD MSTORE PUSH1 0x18 PUSH1 0x24 DUP3 ADD MSTORE PUSH32 0x546F6B656E206973206E6F742077686974656C69737465640000000000000000 PUSH1 0x44 DUP3 ADD MSTORE PUSH1 0x64 ADD PUSH2 0x726 JUMP JUMPDEST PUSH1 0x1 PUSH1 0x1 PUSH1 0xA0 SHL SUB DUP2 AND PUSH1 0x0 DUP2 DUP2 MSTORE PUSH1 0x3 PUSH1 0x20 SWAP1 DUP2 MSTORE PUSH1 0x40 SWAP2 DUP3 SWAP1 KECCAK256 DUP1 SLOAD PUSH1 0xFF NOT AND SWAP1 SSTORE SWAP1 MLOAD SWAP2 DUP3 MSTORE PUSH32 0xDC0548BC90523A9E943EA77D199875FDC1E4F8A419B6D53A595B5E6671480E5 SWAP2 ADD JUMPDEST PUSH1 0x40 MLOAD DUP1 SWAP2 SUB SWAP1 LOG1 POP JUMP JUMPDEST PUSH1 0x0 PUSH1 0x7 SLOAD DUP3 GT ISZERO PUSH2 0x1615 JUMPI PUSH1 0x40 MLOAD PUSH3 0x461BCD PUSH1 0xE5 SHL DUP2 MSTORE PUSH1 0x20 PUSH1 0x4 DUP3 ADD MSTORE PUSH1 0x1C PUSH1 0x24 DUP3 ADD MSTORE PUSH32 0x54686520726166666C6520494420646F6573206E6F7420657869737400000000 PUSH1 0x44 DUP3 ADD MSTORE PUSH1 0x64 ADD PUSH2 0x726 JUMP JUMPDEST POP PUSH1 0x0 SWAP1 DUP2 MSTORE PUSH1 0x4 PUSH1 0x20 MSTORE PUSH1 0x40 SWAP1 KECCAK256 PUSH1 0x2 ADD SLOAD PUSH1 0x1 PUSH1 0xA0 SHL SWAP1 DIV PUSH1 0xFF AND SWAP1 JUMP JUMPDEST PUSH1 0x2 PUSH1 0x1 SLOAD SUB PUSH2 0x1657 JUMPI PUSH1 0x40 MLOAD PUSH3 0x461BCD PUSH1 0xE5 SHL DUP2 MSTORE PUSH1 0x4 ADD PUSH2 0x726 SWAP1 PUSH2 0x4068 JUMP JUMPDEST PUSH1 0x2 PUSH1 0x1 SSTORE PUSH1 0x0 SLOAD PUSH1 0x1 PUSH1 0xA0 SHL SWAP1 DIV PUSH1 0xFF AND ISZERO PUSH2 0x1686 JUMPI PUSH1 0x40 MLOAD PUSH3 0x461BCD PUSH1 0xE5 SHL DUP2 MSTORE PUSH1 0x4 ADD PUSH2 0x726 SWAP1 PUSH2 0x409F JUMP JUMPDEST PUSH1 0x7 SLOAD DUP2 GT ISZERO PUSH2 0x16D0 JUMPI PUSH1 0x40 MLOAD PUSH3 0x461BCD PUSH1 0xE5 SHL DUP2 MSTORE PUSH1 0x20 PUSH1 0x4 DUP3 ADD MSTORE PUSH1 0x15 PUSH1 0x24 DUP3 ADD MSTORE PUSH21 0x149859999B1948191BD95CC81B9BDD08195E1A5CDD PUSH1 0x5A SHL PUSH1 0x44 DUP3 ADD MSTORE PUSH1 0x64 ADD PUSH2 0x726 JUMP JUMPDEST PUSH1 0x0 DUP2 DUP2 MSTORE PUSH1 0x4 PUSH1 0x20 DUP2 DUP2 MSTORE PUSH1 0x40 DUP1 DUP5 KECCAK256 DUP2 MLOAD PUSH2 0x1A0 DUP2 ADD DUP4 MSTORE DUP2 SLOAD PUSH1 0x1 PUSH1 0x1 PUSH1 0xA0 SHL SUB SWAP1 DUP2 AND DUP3 MSTORE PUSH1 0x1 DUP4 ADD SLOAD DUP2 AND SWAP5 DUP3 ADD SWAP5 SWAP1 SWAP5 MSTORE PUSH1 0x2 DUP3 ADD SLOAD SWAP4 DUP5 AND SWAP3 DUP2 ADD SWAP3 SWAP1 SWAP3 MSTORE SWAP1 SWAP3 SWAP1 SWAP2 PUSH1 0x60 DUP5 ADD SWAP2 PUSH1 0x1 PUSH1 0xA0 SHL SWAP1 SWAP2 DIV PUSH1 0xFF AND SWAP1 DUP2 GT ISZERO PUSH2 0x173A JUMPI PUSH2 0x173A PUSH2 0x3CFB JUMP JUMPDEST PUSH1 0x4 DUP2 GT ISZERO PUSH2 0x174B JUMPI PUSH2 0x174B PUSH2 0x3CFB JUMP JUMPDEST DUP2 MSTORE PUSH1 0x20 ADD PUSH1 0x2 DUP3 ADD PUSH1 0x15 SWAP1 SLOAD SWAP1 PUSH2 0x100 EXP SWAP1 DIV PUSH1 0xFF AND PUSH1 0x1 DUP2 GT ISZERO PUSH2 0x1773 JUMPI PUSH2 0x1773 PUSH2 0x3CFB JUMP JUMPDEST PUSH1 0x1 DUP2 GT ISZERO PUSH2 0x1784 JUMPI PUSH2 0x1784 PUSH2 0x3CFB JUMP JUMPDEST DUP2 MSTORE PUSH1 0x3 DUP3 ADD SLOAD PUSH1 0x20 DUP1 DUP4 ADD SWAP2 SWAP1 SWAP2 MSTORE PUSH1 0x4 DUP4 ADD SLOAD PUSH1 0x1 PUSH1 0x1 PUSH1 0xA0 SHL SUB SWAP1 DUP2 AND PUSH1 0x40 DUP5 ADD MSTORE PUSH1 0x5 DUP5 ADD SLOAD PUSH1 0x60 DUP5 ADD MSTORE PUSH1 0x6 DUP5 ADD SLOAD PUSH1 0x80 DUP5 ADD MSTORE PUSH1 0x7 DUP5 ADD SLOAD PUSH1 0x1 PUSH1 0x1 PUSH1 0x80 SHL SUB DUP1 DUP3 AND PUSH1 0xA0 DUP7 ADD MSTORE PUSH1 0x1 PUSH1 0x80 SHL SWAP2 DUP3 SWAP1 DIV DUP2 AND PUSH1 0xC0 DUP7 ADD MSTORE PUSH1 0x8 SWAP1 SWAP6 ADD SLOAD DUP1 DUP7 AND PUSH1 0xE0 DUP7 ADD MSTORE DIV SWAP1 SWAP4 AND PUSH2 0x100 SWAP1 SWAP3 ADD SWAP2 SWAP1 SWAP2 MSTORE DUP3 ADD MLOAD SWAP2 SWAP3 POP AND CALLER EQ PUSH2 0x1863 JUMPI PUSH1 0x40 MLOAD PUSH3 0x461BCD PUSH1 0xE5 SHL DUP2 MSTORE PUSH1 0x20 PUSH1 0x4 DUP3 ADD MSTORE PUSH1 0x27 PUSH1 0x24 DUP3 ADD MSTORE PUSH32 0x596F752063616E6E6F742063616E63656C20736F6D656F6E6520656C73652773 PUSH1 0x44 DUP3 ADD MSTORE PUSH7 0x20726166666C65 PUSH1 0xC8 SHL PUSH1 0x64 DUP3 ADD MSTORE PUSH1 0x84 ADD PUSH2 0x726 JUMP JUMPDEST PUSH1 0x0 DUP2 PUSH1 0x60 ADD MLOAD PUSH1 0x4 DUP2 GT ISZERO PUSH2 0x187B JUMPI PUSH2 0x187B PUSH2 0x3CFB JUMP JUMPDEST EQ PUSH2 0x1898 JUMPI PUSH1 0x40 MLOAD PUSH3 0x461BCD PUSH1 0xE5 SHL DUP2 MSTORE PUSH1 0x4 ADD PUSH2 0x726 SWAP1 PUSH2 0x42A0 JUMP JUMPDEST PUSH1 0x1 DUP2 PUSH2 0x160 ADD MLOAD PUSH1 0x1 PUSH1 0x1 PUSH1 0x80 SHL SUB AND LT PUSH2 0x18F6 JUMPI PUSH1 0x40 MLOAD PUSH3 0x461BCD PUSH1 0xE5 SHL DUP2 MSTORE PUSH1 0x20 PUSH1 0x4 DUP3 ADD DUP2 SWAP1 MSTORE PUSH1 0x24 DUP3 ADD MSTORE PUSH32 0x5469636B657473206861766520616C7265616479206265656E20626F75676874 PUSH1 0x44 DUP3 ADD MSTORE PUSH1 0x64 ADD PUSH2 0x726 JUMP JUMPDEST PUSH1 0x0 DUP3 DUP2 MSTORE PUSH1 0x4 PUSH1 0x20 DUP2 SWAP1 MSTORE PUSH1 0x40 DUP1 DUP4 KECCAK256 DUP1 SLOAD PUSH1 0x1 PUSH1 0x1 PUSH1 0xA0 SHL SUB NOT SWAP1 DUP2 AND DUP3 SSTORE PUSH1 0x1 DUP3 ADD DUP1 SLOAD DUP3 AND SWAP1 SSTORE PUSH1 0x2 DUP3 ADD DUP1 SLOAD PUSH1 0x3 DUP1 DUP6 ADD DUP9 SWAP1 SSTORE SWAP6 DUP5 ADD DUP1 SLOAD SWAP1 SWAP4 AND SWAP1 SWAP3 SSTORE PUSH1 0x5 DUP4 ADD DUP7 SWAP1 SSTORE PUSH1 0x6 DUP4 ADD DUP7 SWAP1 SSTORE PUSH1 0x7 DUP4 ADD DUP7 SWAP1 SSTORE PUSH1 0x8 SWAP1 SWAP3 ADD DUP6 SWAP1 SSTORE PUSH1 0x1 PUSH1 0x1 PUSH1 0xB0 SHL SUB NOT AND PUSH1 0x3 PUSH1 0xA0 SHL OR SWAP1 SSTORE MLOAD PUSH1 0x0 DUP1 MLOAD PUSH1 0x20 PUSH2 0x44B8 DUP4 CODECOPY DUP2 MLOAD SWAP2 MSTORE SWAP3 PUSH2 0x1985 SWAP3 DUP7 SWAP3 PUSH2 0x4209 JUMP JUMPDEST PUSH1 0x40 MLOAD DUP1 SWAP2 SUB SWAP1 LOG1 PUSH1 0x0 DUP2 PUSH1 0x80 ADD MLOAD PUSH1 0x1 DUP2 GT ISZERO PUSH2 0x19A5 JUMPI PUSH2 0x19A5 PUSH2 0x3CFB JUMP JUMPDEST SUB PUSH2 0x1A7F JUMPI DUP1 MLOAD PUSH1 0x20 DUP3 ADD MLOAD PUSH1 0xA0 DUP4 ADD MLOAD PUSH1 0x40 MLOAD PUSH4 0x23B872DD PUSH1 0xE0 SHL DUP2 MSTORE PUSH1 0x1 PUSH1 0x1 PUSH1 0xA0 SHL SUB SWAP1 SWAP4 AND SWAP3 PUSH4 0x23B872DD SWAP3 PUSH2 0x19E3 SWAP3 ADDRESS SWAP3 PUSH1 0x4 ADD PUSH2 0x41BD JUMP JUMPDEST PUSH1 0x0 PUSH1 0x40 MLOAD DUP1 DUP4 SUB DUP2 PUSH1 0x0 DUP8 DUP1 EXTCODESIZE ISZERO DUP1 ISZERO PUSH2 0x19FD JUMPI PUSH1 0x0 DUP1 REVERT JUMPDEST POP GAS CALL ISZERO DUP1 ISZERO PUSH2 0x1A11 JUMPI RETURNDATASIZE PUSH1 0x0 DUP1 RETURNDATACOPY RETURNDATASIZE PUSH1 0x0 REVERT JUMPDEST POP POP POP POP PUSH32 0x58A2FE6E4623D780CD314A4C44E0353006D6BC7E941965A2C2A1A51B8D416382 DUP3 DUP3 PUSH1 0x20 ADD MLOAD DUP4 PUSH1 0x0 ADD MLOAD DUP5 PUSH1 0xA0 ADD MLOAD PUSH1 0x40 MLOAD PUSH2 0x1A76 SWAP5 SWAP4 SWAP3 SWAP2 SWAP1 SWAP4 DUP5 MSTORE PUSH1 0x1 PUSH1 0x1 PUSH1 0xA0 SHL SUB SWAP3 DUP4 AND PUSH1 0x20 DUP6 ADD MSTORE SWAP2 AND PUSH1 0x40 DUP4 ADD MSTORE PUSH1 0x60 DUP3 ADD MSTORE PUSH1 0x80 ADD SWAP1 JUMP JUMPDEST PUSH1 0x40 MLOAD DUP1 SWAP2 SUB SWAP1 LOG1 JUMPDEST PUSH1 0x1 DUP2 PUSH1 0x80 ADD MLOAD PUSH1 0x1 DUP2 GT ISZERO PUSH2 0x1A97 JUMPI PUSH2 0x1A97 PUSH2 0x3CFB JUMP JUMPDEST SUB PUSH2 0x1B41 JUMPI PUSH1 0xA0 DUP2 ADD MLOAD DUP2 MLOAD PUSH1 0x1 PUSH1 0x1 PUSH1 0xA0 SHL SUB AND PUSH2 0x1ABF JUMPI PUSH2 0x1ABA CALLER DUP3 PUSH2 0x331D JUMP JUMPDEST PUSH2 0x1ADE JUMP JUMPDEST PUSH1 0x20 DUP3 ADD MLOAD DUP3 MLOAD PUSH2 0x1ADE SWAP2 PUSH1 0x1 PUSH1 0x1 PUSH1 0xA0 SHL SUB SWAP1 SWAP2 AND SWAP1 ADDRESS SWAP1 DUP5 PUSH2 0x34C9 JUMP JUMPDEST PUSH1 0x20 DUP3 ADD MLOAD DUP3 MLOAD PUSH1 0x40 MLOAD PUSH32 0x987F49FC5DF600848382B03D43A2DA53D161076CB739525CFA82137EF7878C21 SWAP3 PUSH2 0x1B37 SWAP3 DUP8 SWAP3 DUP7 SWAP1 SWAP4 DUP5 MSTORE PUSH1 0x1 PUSH1 0x1 PUSH1 0xA0 SHL SUB SWAP3 DUP4 AND PUSH1 0x20 DUP6 ADD MSTORE SWAP2 AND PUSH1 0x40 DUP4 ADD MSTORE PUSH1 0x60 DUP3 ADD MSTORE PUSH1 0x80 ADD SWAP1 JUMP JUMPDEST PUSH1 0x40 MLOAD DUP1 SWAP2 SUB SWAP1 LOG1 POP JUMPDEST PUSH1 0x0 DUP2 PUSH2 0x180 ADD MLOAD PUSH1 0x1 PUSH1 0x1 PUSH1 0x80 SHL SUB AND PUSH8 0x16345785D8A0000 PUSH2 0x1B65 SWAP2 SWAP1 PUSH2 0x410E JUMP JUMPDEST SWAP1 POP PUSH1 0x0 PUSH2 0x2710 PUSH2 0x1B78 DUP4 PUSH2 0x2328 PUSH2 0x410E JUMP JUMPDEST PUSH2 0x1B82 SWAP2 SWAP1 PUSH2 0x4275 JUMP JUMPDEST SWAP1 POP PUSH2 0x1B8E DUP2 DUP4 PUSH2 0x4289 JUMP JUMPDEST PUSH1 0x0 DUP1 DUP1 MSTORE PUSH1 0xA PUSH1 0x20 MSTORE PUSH32 0x13DA86008BA1C6922DAEE3E07DB95305EF49EBCED9F5467A0B8613FCC6B343E3 DUP1 SLOAD SWAP1 SWAP2 SWAP1 PUSH2 0x1BC9 SWAP1 DUP5 SWAP1 PUSH2 0x412D JUMP JUMPDEST SWAP1 SWAP2 SSTORE POP PUSH2 0x1BD9 SWAP1 POP CALLER DUP3 PUSH2 0x331D JUMP JUMPDEST POP POP PUSH1 0x1 DUP1 SSTORE POP POP JUMP JUMPDEST PUSH1 0x0 SLOAD PUSH1 0x1 PUSH1 0xA0 SHL SWAP1 DIV PUSH1 0xFF AND ISZERO PUSH2 0x1C0D JUMPI PUSH1 0x40 MLOAD PUSH3 0x461BCD PUSH1 0xE5 SHL DUP2 MSTORE PUSH1 0x4 ADD PUSH2 0x726 SWAP1 PUSH2 0x409F JUMP JUMPDEST PUSH1 0x0 DUP3 DUP2 MSTORE PUSH1 0x4 PUSH1 0x20 DUP2 DUP2 MSTORE PUSH1 0x40 DUP1 DUP5 KECCAK256 DUP2 MLOAD PUSH2 0x1A0 DUP2 ADD DUP4 MSTORE DUP2 SLOAD PUSH1 0x1 PUSH1 0x1 PUSH1 0xA0 SHL SUB SWAP1 DUP2 AND DUP3 MSTORE PUSH1 0x1 DUP4 ADD SLOAD DUP2 AND SWAP5 DUP3 ADD SWAP5 SWAP1 SWAP5 MSTORE PUSH1 0x2 DUP3 ADD SLOAD SWAP4 DUP5 AND SWAP3 DUP2 ADD SWAP3 SWAP1 SWAP3 MSTORE SWAP1 SWAP3 SWAP1 SWAP2 PUSH1 0x60 DUP5 ADD SWAP2 PUSH1 0x1 PUSH1 0xA0 SHL SWAP1 SWAP2 DIV PUSH1 0xFF AND SWAP1 DUP2 GT ISZERO PUSH2 0x1C77 JUMPI PUSH2 0x1C77 PUSH2 0x3CFB JUMP JUMPDEST PUSH1 0x4 DUP2 GT ISZERO PUSH2 0x1C88 JUMPI PUSH2 0x1C88 PUSH2 0x3CFB JUMP JUMPDEST DUP2 MSTORE PUSH1 0x20 ADD PUSH1 0x2 DUP3 ADD PUSH1 0x15 SWAP1 SLOAD SWAP1 PUSH2 0x100 EXP SWAP1 DIV PUSH1 0xFF AND PUSH1 0x1 DUP2 GT ISZERO PUSH2 0x1CB0 JUMPI PUSH2 0x1CB0 PUSH2 0x3CFB JUMP JUMPDEST PUSH1 0x1 DUP2 GT ISZERO PUSH2 0x1CC1 JUMPI PUSH2 0x1CC1 PUSH2 0x3CFB JUMP JUMPDEST DUP2 MSTORE PUSH1 0x3 DUP3 ADD SLOAD PUSH1 0x20 DUP1 DUP4 ADD SWAP2 SWAP1 SWAP2 MSTORE PUSH1 0x4 DUP4 ADD SLOAD PUSH1 0x1 PUSH1 0x1 PUSH1 0xA0 SHL SUB SWAP1 DUP2 AND PUSH1 0x40 DUP5 ADD MSTORE PUSH1 0x5 DUP5 ADD SLOAD PUSH1 0x60 DUP5 ADD MSTORE PUSH1 0x6 DUP5 ADD SLOAD PUSH1 0x80 DUP5 ADD MSTORE PUSH1 0x7 DUP5 ADD SLOAD PUSH1 0x1 PUSH1 0x1 PUSH1 0x80 SHL SUB DUP1 DUP3 AND PUSH1 0xA0 DUP7 ADD MSTORE PUSH1 0x1 PUSH1 0x80 SHL SWAP2 DUP3 SWAP1 DIV DUP2 AND PUSH1 0xC0 DUP7 ADD MSTORE PUSH1 0x8 SWAP1 SWAP6 ADD SLOAD DUP1 DUP7 AND PUSH1 0xE0 DUP7 ADD MSTORE DIV SWAP1 SWAP4 AND PUSH2 0x100 SWAP1 SWAP3 ADD SWAP2 SWAP1 SWAP2 MSTORE DUP3 ADD MLOAD SWAP2 SWAP3 POP AND PUSH2 0x1D5E JUMPI PUSH1 0x40 MLOAD PUSH3 0x461BCD PUSH1 0xE5 SHL DUP2 MSTORE PUSH1 0x4 ADD PUSH2 0x726 SWAP1 PUSH2 0x4145 JUMP JUMPDEST PUSH2 0x100 DUP2 ADD MLOAD ISZERO PUSH2 0x1DD7 JUMPI PUSH1 0x40 MLOAD PUSH3 0x461BCD PUSH1 0xE5 SHL DUP2 MSTORE PUSH1 0x20 PUSH1 0x4 DUP3 ADD MSTORE PUSH1 0x3C PUSH1 0x24 DUP3 ADD MSTORE PUSH32 0x57686974656C697374656420726166666C652E20557365206275795768697465 PUSH1 0x44 DUP3 ADD MSTORE PUSH32 0x6C6973746564526166666C655469636B6574282920696E737465616400000000 PUSH1 0x64 DUP3 ADD MSTORE PUSH1 0x84 ADD PUSH2 0x726 JUMP JUMPDEST DUP1 PUSH2 0x120 ADD MLOAD PUSH1 0x1 PUSH1 0x1 PUSH1 0x80 SHL SUB AND TIMESTAMP LT PUSH2 0x1E04 JUMPI PUSH1 0x40 MLOAD PUSH3 0x461BCD PUSH1 0xE5 SHL DUP2 MSTORE PUSH1 0x4 ADD PUSH2 0x726 SWAP1 PUSH2 0x42A0 JUMP JUMPDEST PUSH1 0x0 DUP2 PUSH1 0x60 ADD MLOAD PUSH1 0x4 DUP2 GT ISZERO PUSH2 0x1E1C JUMPI PUSH2 0x1E1C PUSH2 0x3CFB JUMP JUMPDEST EQ PUSH2 0x1E39 JUMPI PUSH1 0x40 MLOAD PUSH3 0x461BCD PUSH1 0xE5 SHL DUP2 MSTORE PUSH1 0x4 ADD PUSH2 0x726 SWAP1 PUSH2 0x42A0 JUMP JUMPDEST DUP1 PUSH2 0x140 ADD MLOAD PUSH1 0x1 PUSH1 0x1 PUSH1 0x80 SHL SUB AND DUP2 PUSH2 0x160 ADD MLOAD PUSH1 0x1 PUSH1 0x1 PUSH1 0x80 SHL SUB AND LT PUSH2 0x1E97 JUMPI PUSH1 0x40 MLOAD PUSH3 0x461BCD PUSH1 0xE5 SHL DUP2 MSTORE PUSH1 0x20 PUSH1 0x4 DUP3 ADD MSTORE PUSH1 0x10 PUSH1 0x24 DUP3 ADD MSTORE PUSH16 0x151A58DAD95D1CC81CDBDB19081BDD5D PUSH1 0x82 SHL PUSH1 0x44 DUP3 ADD MSTORE PUSH1 0x64 ADD PUSH2 0x726 JUMP JUMPDEST DUP1 PUSH2 0x160 ADD MLOAD DUP2 PUSH2 0x140 ADD MLOAD PUSH2 0x1EAD SWAP2 SWAP1 PUSH2 0x41E1 JUMP JUMPDEST PUSH1 0x1 PUSH1 0x1 PUSH1 0x80 SHL SUB AND DUP3 PUSH1 0x1 PUSH1 0x1 PUSH1 0x80 SHL SUB AND GT ISZERO PUSH2 0x1EDE JUMPI PUSH1 0x40 MLOAD PUSH3 0x461BCD PUSH1 0xE5 SHL DUP2 MSTORE PUSH1 0x4 ADD PUSH2 0x726 SWAP1 PUSH2 0x42D7 JUMP JUMPDEST PUSH1 0xC0 DUP2 ADD MLOAD PUSH1 0x1 PUSH1 0x1 PUSH1 0xA0 SHL SUB AND PUSH2 0x1F5C JUMPI PUSH1 0xE0 DUP2 ADD MLOAD PUSH2 0x1F08 SWAP1 PUSH1 0x1 PUSH1 0x1 PUSH1 0x80 SHL SUB DUP5 AND PUSH2 0x410E JUMP JUMPDEST CALLVALUE LT ISZERO PUSH2 0x1F57 JUMPI PUSH1 0x40 MLOAD PUSH3 0x461BCD PUSH1 0xE5 SHL DUP2 MSTORE PUSH1 0x20 PUSH1 0x4 DUP3 ADD DUP2 SWAP1 MSTORE PUSH1 0x24 DUP3 ADD MSTORE PUSH32 0x4E6F7420656E6F7567682045746865722073656E74206173207061796D656E74 PUSH1 0x44 DUP3 ADD MSTORE PUSH1 0x64 ADD PUSH2 0x726 JUMP JUMPDEST PUSH2 0x1F90 JUMP JUMPDEST PUSH2 0x1F90 CALLER ADDRESS DUP4 PUSH1 0xE0 ADD MLOAD DUP6 PUSH1 0x1 PUSH1 0x1 PUSH1 0x80 SHL SUB AND PUSH2 0x1F7A SWAP2 SWAP1 PUSH2 0x410E JUMP JUMPDEST PUSH1 0xC0 DUP6 ADD MLOAD PUSH1 0x1 PUSH1 0x1 PUSH1 0xA0 SHL SUB AND SWAP3 SWAP2 SWAP1 PUSH2 0x34C9 JUMP JUMPDEST PUSH1 0x0 JUMPDEST DUP3 PUSH1 0x1 PUSH1 0x1 PUSH1 0x80 SHL SUB AND DUP2 LT ISZERO PUSH2 0x200D JUMPI PUSH1 0x0 DUP5 DUP2 MSTORE PUSH1 0x5 PUSH1 0x20 MSTORE PUSH1 0x40 DUP2 KECCAK256 PUSH2 0x160 DUP5 ADD MLOAD CALLER SWAP3 SWAP1 PUSH2 0x1FCF SWAP1 DUP6 SWAP1 PUSH1 0x1 PUSH1 0x1 PUSH1 0x80 SHL SUB AND PUSH2 0x412D JUMP JUMPDEST DUP2 MSTORE PUSH1 0x20 DUP2 ADD SWAP2 SWAP1 SWAP2 MSTORE PUSH1 0x40 ADD PUSH1 0x0 KECCAK256 DUP1 SLOAD PUSH1 0x1 PUSH1 0x1 PUSH1 0xA0 SHL SUB NOT AND PUSH1 0x1 PUSH1 0x1 PUSH1 0xA0 SHL SUB SWAP3 SWAP1 SWAP3 AND SWAP2 SWAP1 SWAP2 OR SWAP1 SSTORE PUSH2 0x2006 DUP2 PUSH2 0x40F5 JUMP JUMPDEST SWAP1 POP PUSH2 0x1F93 JUMP JUMPDEST POP PUSH1 0x0 DUP4 DUP2 MSTORE PUSH1 0x4 PUSH1 0x20 MSTORE PUSH1 0x40 DUP2 KECCAK256 PUSH1 0x8 ADD DUP1 SLOAD DUP5 SWAP3 SWAP1 PUSH2 0x2038 SWAP1 DUP5 SWAP1 PUSH1 0x1 PUSH1 0x1 PUSH1 0x80 SHL SUB AND PUSH2 0x4325 JUMP JUMPDEST SWAP3 POP PUSH2 0x100 EXP DUP2 SLOAD DUP2 PUSH1 0x1 PUSH1 0x1 PUSH1 0x80 SHL SUB MUL NOT AND SWAP1 DUP4 PUSH1 0x1 PUSH1 0x1 PUSH1 0x80 SHL SUB AND MUL OR SWAP1 SSTORE POP POP POP POP JUMP JUMPDEST PUSH1 0x0 SLOAD PUSH1 0x1 PUSH1 0x1 PUSH1 0xA0 SHL SUB AND CALLER EQ PUSH2 0x208B JUMPI PUSH1 0x40 MLOAD PUSH3 0x461BCD PUSH1 0xE5 SHL DUP2 MSTORE PUSH1 0x4 ADD PUSH2 0x726 SWAP1 PUSH2 0x422A JUMP JUMPDEST PUSH1 0x0 DUP1 SLOAD PUSH1 0x40 MLOAD PUSH1 0x1 PUSH1 0x1 PUSH1 0xA0 SHL SUB SWAP1 SWAP2 AND SWAP1 PUSH32 0x8BE0079C531659141344CD1FD0A4F28419497F9722A3DAAFE3B4186F6B6457E0 SWAP1 DUP4 SWAP1 LOG3 PUSH1 0x0 DUP1 SLOAD PUSH1 0x1 PUSH1 0x1 PUSH1 0xA0 SHL SUB NOT AND SWAP1 SSTORE JUMP JUMPDEST PUSH1 0x0 SLOAD PUSH1 0x1 PUSH1 0x1 PUSH1 0xA0 SHL SUB AND CALLER EQ PUSH2 0x20FF JUMPI PUSH1 0x40 MLOAD PUSH3 0x461BCD PUSH1 0xE5 SHL DUP2 MSTORE PUSH1 0x4 ADD PUSH2 0x726 SWAP1 PUSH2 0x422A JUMP JUMPDEST PUSH1 0x1 PUSH1 0x1 PUSH1 0xA0 SHL SUB DUP2 AND PUSH1 0x0 SWAP1 DUP2 MSTORE PUSH1 0x3 PUSH1 0x20 MSTORE PUSH1 0x40 SWAP1 KECCAK256 SLOAD PUSH1 0xFF AND ISZERO PUSH2 0x2168 JUMPI PUSH1 0x40 MLOAD PUSH3 0x461BCD PUSH1 0xE5 SHL DUP2 MSTORE PUSH1 0x20 PUSH1 0x4 DUP3 ADD MSTORE PUSH1 0x1C PUSH1 0x24 DUP3 ADD MSTORE PUSH32 0x546F6B656E20697320616C72656164792077686974656C697374656400000000 PUSH1 0x44 DUP3 ADD MSTORE PUSH1 0x64 ADD PUSH2 0x726 JUMP JUMPDEST PUSH1 0x1 PUSH1 0x1 PUSH1 0xA0 SHL SUB DUP2 AND PUSH1 0x0 DUP2 DUP2 MSTORE PUSH1 0x3 PUSH1 0x20 SWAP1 DUP2 MSTORE PUSH1 0x40 SWAP2 DUP3 SWAP1 KECCAK256 DUP1 SLOAD PUSH1 0xFF NOT AND PUSH1 0x1 OR SWAP1 SSTORE SWAP1 MLOAD SWAP2 DUP3 MSTORE PUSH32 0x5C6CF68A9D7E416D0EEE740661627DD794257920F1C63DDAE6C6AF81D02D12EA SWAP2 ADD PUSH2 0x15B6 JUMP JUMPDEST CALLER PUSH1 0x1 PUSH1 0x1 PUSH1 0xA0 SHL SUB PUSH32 0x0 AND EQ PUSH2 0x6F6 JUMPI PUSH1 0x40 MLOAD PUSH3 0x461BCD PUSH1 0xE5 SHL DUP2 MSTORE PUSH1 0x20 PUSH1 0x4 DUP3 ADD MSTORE PUSH1 0x1F PUSH1 0x24 DUP3 ADD MSTORE PUSH32 0x4F6E6C7920565246436F6F7264696E61746F722063616E2066756C66696C6C00 PUSH1 0x44 DUP3 ADD MSTORE PUSH1 0x64 ADD PUSH2 0x726 JUMP JUMPDEST PUSH2 0x22A0 PUSH1 0x40 DUP1 MLOAD PUSH2 0x1A0 DUP2 ADD DUP3 MSTORE PUSH1 0x0 DUP1 DUP3 MSTORE PUSH1 0x20 DUP3 ADD DUP2 SWAP1 MSTORE SWAP2 DUP2 ADD DUP3 SWAP1 MSTORE SWAP1 PUSH1 0x60 DUP3 ADD SWAP1 DUP2 MSTORE PUSH1 0x20 ADD PUSH1 0x0 DUP2 MSTORE PUSH1 0x0 PUSH1 0x20 DUP3 ADD DUP2 SWAP1 MSTORE PUSH1 0x40 DUP3 ADD DUP2 SWAP1 MSTORE PUSH1 0x60 DUP3 ADD DUP2 SWAP1 MSTORE PUSH1 0x80 DUP3 ADD DUP2 SWAP1 MSTORE PUSH1 0xA0 DUP3 ADD DUP2 SWAP1 MSTORE PUSH1 0xC0 DUP3 ADD DUP2 SWAP1 MSTORE PUSH1 0xE0 DUP3 ADD DUP2 SWAP1 MSTORE PUSH2 0x100 SWAP1 SWAP2 ADD MSTORE SWAP1 JUMP JUMPDEST PUSH1 0x7 SLOAD DUP3 GT ISZERO PUSH2 0x22F2 JUMPI PUSH1 0x40 MLOAD PUSH3 0x461BCD PUSH1 0xE5 SHL DUP2 MSTORE PUSH1 0x20 PUSH1 0x4 DUP3 ADD MSTORE PUSH1 0x1C PUSH1 0x24 DUP3 ADD MSTORE PUSH32 0x54686520726166666C6520494420646F6573206E6F7420657869737400000000 PUSH1 0x44 DUP3 ADD MSTORE PUSH1 0x64 ADD PUSH2 0x726 JUMP JUMPDEST PUSH1 0x0 DUP3 DUP2 MSTORE PUSH1 0x4 PUSH1 0x20 DUP2 DUP2 MSTORE PUSH1 0x40 SWAP3 DUP4 SWAP1 KECCAK256 DUP4 MLOAD PUSH2 0x1A0 DUP2 ADD DUP6 MSTORE DUP2 SLOAD PUSH1 0x1 PUSH1 0x1 PUSH1 0xA0 SHL SUB SWAP1 DUP2 AND DUP3 MSTORE PUSH1 0x1 DUP4 ADD SLOAD DUP2 AND SWAP4 DUP3 ADD SWAP4 SWAP1 SWAP4 MSTORE PUSH1 0x2 DUP3 ADD SLOAD SWAP3 DUP4 AND SWAP5 DUP2 ADD SWAP5 SWAP1 SWAP5 MSTORE SWAP2 PUSH1 0x60 DUP5 ADD SWAP2 PUSH1 0x1 PUSH1 0xA0 SHL SWAP1 DIV PUSH1 0xFF AND SWAP1 DUP2 GT ISZERO PUSH2 0x2359 JUMPI PUSH2 0x2359 PUSH2 0x3CFB JUMP JUMPDEST PUSH1 0x4 DUP2 GT ISZERO PUSH2 0x236A JUMPI PUSH2 0x236A PUSH2 0x3CFB JUMP JUMPDEST DUP2 MSTORE PUSH1 0x20 ADD PUSH1 0x2 DUP3 ADD PUSH1 0x15 SWAP1 SLOAD SWAP1 PUSH2 0x100 EXP SWAP1 DIV PUSH1 0xFF AND PUSH1 0x1 DUP2 GT ISZERO PUSH2 0x2392 JUMPI PUSH2 0x2392 PUSH2 0x3CFB JUMP JUMPDEST PUSH1 0x1 DUP2 GT ISZERO PUSH2 0x23A3 JUMPI PUSH2 0x23A3 PUSH2 0x3CFB JUMP JUMPDEST DUP2 MSTORE PUSH1 0x3 DUP3 ADD SLOAD PUSH1 0x20 DUP3 ADD MSTORE PUSH1 0x4 DUP3 ADD SLOAD PUSH1 0x1 PUSH1 0x1 PUSH1 0xA0 SHL SUB AND PUSH1 0x40 DUP3 ADD MSTORE PUSH1 0x5 DUP3 ADD SLOAD PUSH1 0x60 DUP3 ADD MSTORE PUSH1 0x6 DUP3 ADD SLOAD PUSH1 0x80 DUP3 ADD MSTORE PUSH1 0x7 DUP3 ADD SLOAD PUSH1 0x1 PUSH1 0x1 PUSH1 0x80 SHL SUB DUP1 DUP3 AND PUSH1 0xA0 DUP5 ADD MSTORE PUSH1 0x1 PUSH1 0x80 SHL SWAP2 DUP3 SWAP1 DIV DUP2 AND PUSH1 0xC0 DUP5 ADD MSTORE PUSH1 0x8 SWAP1 SWAP4 ADD SLOAD DUP1 DUP5 AND PUSH1 0xE0 DUP5 ADD MSTORE DIV SWAP1 SWAP2 AND PUSH2 0x100 SWAP1 SWAP2 ADD MSTORE SWAP3 SWAP2 POP POP JUMP JUMPDEST PUSH1 0x0 DUP3 DUP2 MSTORE PUSH1 0x5 PUSH1 0x20 SWAP1 DUP2 MSTORE PUSH1 0x40 DUP1 DUP4 KECCAK256 DUP5 DUP5 MSTORE SWAP1 SWAP2 MSTORE DUP2 KECCAK256 SLOAD PUSH1 0x1 PUSH1 0x1 PUSH1 0xA0 SHL SUB AND DUP1 PUSH2 0x2482 JUMPI PUSH1 0x40 MLOAD PUSH3 0x461BCD PUSH1 0xE5 SHL DUP2 MSTORE PUSH1 0x20 PUSH1 0x4 DUP3 ADD MSTORE PUSH1 0x15 PUSH1 0x24 DUP3 ADD MSTORE PUSH21 0x151A58DAD95D08191BD95CC81B9BDD08195E1A5CDD PUSH1 0x5A SHL PUSH1 0x44 DUP3 ADD MSTORE PUSH1 0x64 ADD PUSH2 0x726 JUMP JUMPDEST SWAP1 POP JUMPDEST SWAP3 SWAP2 POP POP JUMP JUMPDEST PUSH1 0x0 SLOAD PUSH1 0x1 PUSH1 0x1 PUSH1 0xA0 SHL SUB AND CALLER EQ PUSH2 0x24B5 JUMPI PUSH1 0x40 MLOAD PUSH3 0x461BCD PUSH1 0xE5 SHL DUP2 MSTORE PUSH1 0x4 ADD PUSH2 0x726 SWAP1 PUSH2 0x422A JUMP JUMPDEST PUSH1 0x0 SLOAD PUSH1 0x1 PUSH1 0xA0 SHL SWAP1 DIV PUSH1 0xFF AND PUSH2 0x24D0 JUMPI PUSH2 0x24CE PUSH2 0x3676 JUMP JUMPDEST JUMP JUMPDEST PUSH2 0x24CE PUSH2 0x36F8 JUMP JUMPDEST PUSH1 0x0 SLOAD PUSH1 0x1 PUSH1 0xA0 SHL SWAP1 DIV PUSH1 0xFF AND ISZERO PUSH2 0x2502 JUMPI PUSH1 0x40 MLOAD PUSH3 0x461BCD PUSH1 0xE5 SHL DUP2 MSTORE PUSH1 0x4 ADD PUSH2 0x726 SWAP1 PUSH2 0x409F JUMP JUMPDEST PUSH1 0x1 PUSH1 0x1 PUSH1 0xA0 SHL SUB DUP9 AND PUSH1 0x0 SWAP1 DUP2 MSTORE PUSH1 0x3 PUSH1 0x20 MSTORE PUSH1 0x40 SWAP1 KECCAK256 SLOAD PUSH1 0xFF AND PUSH2 0x257C JUMPI PUSH1 0x40 MLOAD PUSH3 0x461BCD PUSH1 0xE5 SHL DUP2 MSTORE PUSH1 0x20 PUSH1 0x4 DUP3 ADD MSTORE PUSH1 0x29 PUSH1 0x24 DUP3 ADD MSTORE PUSH32 0x596F752063616E6E6F7420726166666C6520746869732074797065206F662074 PUSH1 0x44 DUP3 ADD MSTORE PUSH9 0x1BDAD95B9CC81E595D PUSH1 0xBA SHL PUSH1 0x64 DUP3 ADD MSTORE PUSH1 0x84 ADD PUSH2 0x726 JUMP JUMPDEST PUSH1 0x1 PUSH1 0x1 PUSH1 0xA0 SHL SUB DUP7 AND PUSH1 0x0 SWAP1 DUP2 MSTORE PUSH1 0x3 PUSH1 0x20 MSTORE PUSH1 0x40 SWAP1 KECCAK256 SLOAD PUSH1 0xFF AND PUSH2 0x25E4 JUMPI PUSH1 0x40 MLOAD PUSH3 0x461BCD PUSH1 0xE5 SHL DUP2 MSTORE PUSH1 0x20 PUSH1 0x4 DUP3 ADD DUP2 SWAP1 MSTORE PUSH1 0x24 DUP3 ADD MSTORE PUSH32 0x546869732063757272656E6379206973206E6F742077686974656C6973746564 PUSH1 0x44 DUP3 ADD MSTORE PUSH1 0x64 ADD PUSH2 0x726 JUMP JUMPDEST PUSH1 0x1 DUP5 PUSH1 0x1 PUSH1 0x1 PUSH1 0x80 SHL SUB AND GT PUSH2 0x260D JUMPI PUSH1 0x40 MLOAD PUSH3 0x461BCD PUSH1 0xE5 SHL DUP2 MSTORE PUSH1 0x4 ADD PUSH2 0x726 SWAP1 PUSH2 0x4350 JUMP JUMPDEST PUSH2 0xE10 DUP3 PUSH1 0x1 PUSH1 0x1 PUSH1 0x80 SHL SUB AND LT ISZERO PUSH2 0x2668 JUMPI PUSH1 0x40 MLOAD PUSH3 0x461BCD PUSH1 0xE5 SHL DUP2 MSTORE PUSH1 0x20 PUSH1 0x4 DUP3 ADD MSTORE PUSH1 0x1C PUSH1 0x24 DUP3 ADD MSTORE PUSH32 0x4D696E696D756D206475726174696F6E206973206F6E6520686F757200000000 PUSH1 0x44 DUP3 ADD MSTORE PUSH1 0x64 ADD PUSH2 0x726 JUMP JUMPDEST PUSH1 0x1 PUSH1 0x1 PUSH1 0xA0 SHL SUB DUP9 AND PUSH2 0x26EE JUMPI PUSH2 0x2691 PUSH8 0x16345785D8A0000 PUSH1 0x1 PUSH1 0x1 PUSH1 0x80 SHL SUB DUP6 AND PUSH2 0x410E JUMP JUMPDEST PUSH2 0x269B SWAP1 DUP9 PUSH2 0x412D JUMP JUMPDEST CALLVALUE EQ PUSH2 0x26E9 JUMPI PUSH1 0x40 MLOAD PUSH3 0x461BCD PUSH1 0xE5 SHL DUP2 MSTORE PUSH1 0x20 PUSH1 0x4 DUP3 ADD MSTORE PUSH1 0x1D PUSH1 0x24 DUP3 ADD MSTORE PUSH32 0x5468652045746865722073656E74206973206E6F7420636F7272656374000000 PUSH1 0x44 DUP3 ADD MSTORE PUSH1 0x64 ADD PUSH2 0x726 JUMP JUMPDEST PUSH2 0x2768 JUMP JUMPDEST PUSH2 0x2709 PUSH8 0x16345785D8A0000 PUSH1 0x1 PUSH1 0x1 PUSH1 0x80 SHL SUB DUP6 AND PUSH2 0x410E JUMP JUMPDEST CALLVALUE EQ PUSH2 0x2753 JUMPI PUSH1 0x40 MLOAD PUSH3 0x461BCD PUSH1 0xE5 SHL DUP2 MSTORE PUSH1 0x20 PUSH1 0x4 DUP3 ADD MSTORE PUSH1 0x19 PUSH1 0x24 DUP3 ADD MSTORE PUSH25 0x125B98DBDC9C9958DD0818DBDB1B185D195C985B081CD95B9D PUSH1 0x3A SHL PUSH1 0x44 DUP3 ADD MSTORE PUSH1 0x64 ADD PUSH2 0x726 JUMP JUMPDEST PUSH2 0x2768 PUSH1 0x1 PUSH1 0x1 PUSH1 0xA0 SHL SUB DUP10 AND CALLER ADDRESS DUP11 PUSH2 0x34C9 JUMP JUMPDEST PUSH1 0x7 DUP1 SLOAD PUSH1 0x0 SWAP2 PUSH1 0x4 SWAP2 DUP4 SWAP2 DUP3 PUSH2 0x277E DUP4 PUSH2 0x40F5 JUMP JUMPDEST SWAP1 SWAP2 SSTORE POP DUP2 MSTORE PUSH1 0x20 DUP2 ADD SWAP2 SWAP1 SWAP2 MSTORE PUSH1 0x40 ADD PUSH1 0x0 KECCAK256 DUP1 SLOAD PUSH1 0x1 PUSH1 0x1 PUSH1 0xA0 SHL SUB DUP12 DUP2 AND PUSH1 0x1 PUSH1 0x1 PUSH1 0xA0 SHL SUB NOT SWAP3 DUP4 AND OR DUP4 SSTORE PUSH1 0x1 DUP4 ADD DUP1 SLOAD DUP4 AND CALLER OR SWAP1 SSTORE PUSH1 0x2 DUP4 ADD DUP1 SLOAD PUSH2 0xFFFF PUSH1 0xA0 SHL NOT AND PUSH1 0x1 PUSH1 0xA8 SHL OR SWAP1 SSTORE PUSH1 0x3 DUP4 ADD DUP12 SWAP1 SSTORE PUSH1 0x4 DUP4 ADD DUP1 SLOAD SWAP1 SWAP3 AND SWAP1 DUP11 AND OR SWAP1 SSTORE PUSH1 0x5 DUP2 ADD DUP8 SWAP1 SSTORE PUSH1 0x6 DUP2 ADD DUP4 SWAP1 SSTORE SWAP1 POP PUSH2 0x2800 DUP4 TIMESTAMP PUSH2 0x4325 JUMP JUMPDEST PUSH1 0x1 PUSH1 0x1 PUSH1 0x80 SHL SUB SWAP1 DUP2 AND PUSH1 0x1 PUSH1 0x80 SHL DUP8 DUP4 AND DUP2 MUL SWAP2 SWAP1 SWAP2 OR PUSH1 0x7 DUP5 DUP2 ADD SWAP2 SWAP1 SWAP2 SSTORE PUSH1 0x8 DUP5 ADD DUP1 SLOAD DUP5 AND SWAP4 DUP9 AND SWAP1 SWAP3 MUL SWAP3 SWAP1 SWAP3 OR SWAP1 SSTORE SLOAD PUSH1 0x40 DUP1 MLOAD SWAP2 DUP3 MSTORE PUSH1 0x1 PUSH1 0x1 PUSH1 0xA0 SHL SUB DUP12 AND PUSH1 0x20 DUP4 ADD MSTORE DUP2 ADD DUP10 SWAP1 MSTORE PUSH32 0xDB1511A41A743840C03CE4A0850A49D2E916B3E8F06A42074BAE224F0BCE7919 SWAP1 PUSH1 0x60 ADD JUMPDEST PUSH1 0x40 MLOAD DUP1 SWAP2 SUB SWAP1 LOG1 POP POP POP POP POP POP POP POP POP JUMP JUMPDEST PUSH1 0x0 SLOAD PUSH1 0x1 PUSH1 0xA0 SHL SWAP1 DIV PUSH1 0xFF AND ISZERO PUSH2 0x28B5 JUMPI PUSH1 0x40 MLOAD PUSH3 0x461BCD PUSH1 0xE5 SHL DUP2 MSTORE PUSH1 0x4 ADD PUSH2 0x726 SWAP1 PUSH2 0x409F JUMP JUMPDEST PUSH1 0x0 DUP5 DUP2 MSTORE PUSH1 0x4 PUSH1 0x20 DUP2 DUP2 MSTORE PUSH1 0x40 DUP1 DUP5 KECCAK256 DUP2 MLOAD PUSH2 0x1A0 DUP2 ADD DUP4 MSTORE DUP2 SLOAD PUSH1 0x1 PUSH1 0x1 PUSH1 0xA0 SHL SUB SWAP1 DUP2 AND DUP3 MSTORE PUSH1 0x1 DUP4 ADD SLOAD DUP2 AND SWAP5 DUP3 ADD SWAP5 SWAP1 SWAP5 MSTORE PUSH1 0x2 DUP3 ADD SLOAD SWAP4 DUP5 AND SWAP3 DUP2 ADD SWAP3 SWAP1 SWAP3 MSTORE SWAP1 SWAP3 SWAP1 SWAP2 PUSH1 0x60 DUP5 ADD SWAP2 PUSH1 0x1 PUSH1 0xA0 SHL SWAP1 SWAP2 DIV PUSH1 0xFF AND SWAP1 DUP2 GT ISZERO PUSH2 0x291F JUMPI PUSH2 0x291F PUSH2 0x3CFB JUMP JUMPDEST PUSH1 0x4 DUP2 GT ISZERO PUSH2 0x2930 JUMPI PUSH2 0x2930 PUSH2 0x3CFB JUMP JUMPDEST DUP2 MSTORE PUSH1 0x20 ADD PUSH1 0x2 DUP3 ADD PUSH1 0x15 SWAP1 SLOAD SWAP1 PUSH2 0x100 EXP SWAP1 DIV PUSH1 0xFF AND PUSH1 0x1 DUP2 GT ISZERO PUSH2 0x2958 JUMPI PUSH2 0x2958 PUSH2 0x3CFB JUMP JUMPDEST PUSH1 0x1 DUP2 GT ISZERO PUSH2 0x2969 JUMPI PUSH2 0x2969 PUSH2 0x3CFB JUMP JUMPDEST DUP2 MSTORE PUSH1 0x3 DUP3 ADD SLOAD PUSH1 0x20 DUP1 DUP4 ADD SWAP2 SWAP1 SWAP2 MSTORE PUSH1 0x4 DUP4 ADD SLOAD PUSH1 0x1 PUSH1 0x1 PUSH1 0xA0 SHL SUB SWAP1 DUP2 AND PUSH1 0x40 DUP5 ADD MSTORE PUSH1 0x5 DUP5 ADD SLOAD PUSH1 0x60 DUP5 ADD MSTORE PUSH1 0x6 DUP5 ADD SLOAD PUSH1 0x80 DUP5 ADD MSTORE PUSH1 0x7 DUP5 ADD SLOAD PUSH1 0x1 PUSH1 0x1 PUSH1 0x80 SHL SUB DUP1 DUP3 AND PUSH1 0xA0 DUP7 ADD MSTORE PUSH1 0x1 PUSH1 0x80 SHL SWAP2 DUP3 SWAP1 DIV DUP2 AND PUSH1 0xC0 DUP7 ADD MSTORE PUSH1 0x8 SWAP1 SWAP6 ADD SLOAD DUP1 DUP7 AND PUSH1 0xE0 DUP7 ADD MSTORE DIV SWAP1 SWAP4 AND PUSH2 0x100 SWAP1 SWAP3 ADD SWAP2 SWAP1 SWAP2 MSTORE DUP3 ADD MLOAD SWAP2 SWAP3 POP AND PUSH2 0x2A06 JUMPI PUSH1 0x40 MLOAD PUSH3 0x461BCD PUSH1 0xE5 SHL DUP2 MSTORE PUSH1 0x4 ADD PUSH2 0x726 SWAP1 PUSH2 0x4145 JUMP JUMPDEST PUSH2 0x100 DUP2 ADD MLOAD PUSH2 0x2A76 JUMPI PUSH1 0x40 MLOAD PUSH3 0x461BCD PUSH1 0xE5 SHL DUP2 MSTORE PUSH1 0x20 PUSH1 0x4 DUP3 ADD MSTORE PUSH1 0x35 PUSH1 0x24 DUP3 ADD MSTORE PUSH32 0x4E6F6E2D77686974656C697374656420726166666C652E205573652062757952 PUSH1 0x44 DUP3 ADD MSTORE PUSH21 0x1859999B19551A58DAD95D0A0A481A5B9CDD195859 PUSH1 0x5A SHL PUSH1 0x64 DUP3 ADD MSTORE PUSH1 0x84 ADD PUSH2 0x726 JUMP JUMPDEST DUP1 PUSH2 0x120 ADD MLOAD PUSH1 0x1 PUSH1 0x1 PUSH1 0x80 SHL SUB AND TIMESTAMP LT PUSH2 0x2AA3 JUMPI PUSH1 0x40 MLOAD PUSH3 0x461BCD PUSH1 0xE5 SHL DUP2 MSTORE PUSH1 0x4 ADD PUSH2 0x726 SWAP1 PUSH2 0x42A0 JUMP JUMPDEST PUSH1 0x0 DUP2 PUSH1 0x60 ADD MLOAD PUSH1 0x4 DUP2 GT ISZERO PUSH2 0x2ABB JUMPI PUSH2 0x2ABB PUSH2 0x3CFB JUMP JUMPDEST EQ PUSH2 0x2AD8 JUMPI PUSH1 0x40 MLOAD PUSH3 0x461BCD PUSH1 0xE5 SHL DUP2 MSTORE PUSH1 0x4 ADD PUSH2 0x726 SWAP1 PUSH2 0x42A0 JUMP JUMPDEST DUP1 PUSH2 0x140 ADD MLOAD PUSH1 0x1 PUSH1 0x1 PUSH1 0x80 SHL SUB AND DUP2 PUSH2 0x160 ADD MLOAD PUSH1 0x1 PUSH1 0x1 PUSH1 0x80 SHL SUB AND LT PUSH2 0x2B36 JUMPI PUSH1 0x40 MLOAD PUSH3 0x461BCD PUSH1 0xE5 SHL DUP2 MSTORE PUSH1 0x20 PUSH1 0x4 DUP3 ADD MSTORE PUSH1 0x10 PUSH1 0x24 DUP3 ADD MSTORE PUSH16 0x151A58DAD95D1CC81CDBDB19081BDD5D PUSH1 0x82 SHL PUSH1 0x44 DUP3 ADD MSTORE PUSH1 0x64 ADD PUSH2 0x726 JUMP JUMPDEST DUP1 PUSH2 0x160 ADD MLOAD DUP2 PUSH2 0x140 ADD MLOAD PUSH2 0x2B4C SWAP2 SWAP1 PUSH2 0x41E1 JUMP JUMPDEST PUSH1 0x1 PUSH1 0x1 PUSH1 0x80 SHL SUB AND DUP5 PUSH1 0x1 PUSH1 0x1 PUSH1 0x80 SHL SUB AND GT ISZERO PUSH2 0x2B7D JUMPI PUSH1 0x40 MLOAD PUSH3 0x461BCD PUSH1 0xE5 SHL DUP2 MSTORE PUSH1 0x4 ADD PUSH2 0x726 SWAP1 PUSH2 0x42D7 JUMP JUMPDEST PUSH1 0x40 MLOAD PUSH12 0xFFFFFFFFFFFFFFFFFFFFFFFF NOT CALLER PUSH1 0x60 SHL AND PUSH1 0x20 DUP3 ADD MSTORE PUSH1 0x0 SWAP1 PUSH1 0x34 ADD PUSH1 0x40 MLOAD PUSH1 0x20 DUP2 DUP4 SUB SUB DUP2 MSTORE SWAP1 PUSH1 0x40 MSTORE DUP1 MLOAD SWAP1 PUSH1 0x20 ADD KECCAK256 SWAP1 POP PUSH2 0x2BF8 DUP5 DUP5 DUP1 DUP1 PUSH1 0x20 MUL PUSH1 0x20 ADD PUSH1 0x40 MLOAD SWAP1 DUP2 ADD PUSH1 0x40 MSTORE DUP1 SWAP4 SWAP3 SWAP2 SWAP1 DUP2 DUP2 MSTORE PUSH1 0x20 ADD DUP4 DUP4 PUSH1 0x20 MUL DUP1 DUP3 DUP5 CALLDATACOPY PUSH1 0x0 SWAP3 ADD SWAP2 SWAP1 SWAP2 MSTORE POP POP POP POP PUSH2 0x100 DUP5 ADD MLOAD DUP4 PUSH2 0x377C JUMP JUMPDEST PUSH2 0x2C3B JUMPI PUSH1 0x40 MLOAD PUSH3 0x461BCD PUSH1 0xE5 SHL DUP2 MSTORE PUSH1 0x20 PUSH1 0x4 DUP3 ADD MSTORE PUSH1 0x14 PUSH1 0x24 DUP3 ADD MSTORE PUSH20 0x155CD95C881B9BDD081DDA1A5D195B1A5CDD1959 PUSH1 0x62 SHL PUSH1 0x44 DUP3 ADD MSTORE PUSH1 0x64 ADD PUSH2 0x726 JUMP JUMPDEST PUSH1 0xC0 DUP3 ADD MLOAD PUSH1 0x1 PUSH1 0x1 PUSH1 0xA0 SHL SUB AND PUSH2 0x2CB9 JUMPI PUSH1 0xE0 DUP3 ADD MLOAD PUSH2 0x2C65 SWAP1 PUSH1 0x1 PUSH1 0x1 PUSH1 0x80 SHL SUB DUP8 AND PUSH2 0x410E JUMP JUMPDEST CALLVALUE LT ISZERO PUSH2 0x2CB4 JUMPI PUSH1 0x40 MLOAD PUSH3 0x461BCD PUSH1 0xE5 SHL DUP2 MSTORE PUSH1 0x20 PUSH1 0x4 DUP3 ADD DUP2 SWAP1 MSTORE PUSH1 0x24 DUP3 ADD MSTORE PUSH32 0x4E6F7420656E6F7567682045746865722073656E74206173207061796D656E74 PUSH1 0x44 DUP3 ADD MSTORE PUSH1 0x64 ADD PUSH2 0x726 JUMP JUMPDEST PUSH2 0x2CED JUMP JUMPDEST PUSH2 0x2CED CALLER ADDRESS DUP5 PUSH1 0xE0 ADD MLOAD DUP9 PUSH1 0x1 PUSH1 0x1 PUSH1 0x80 SHL SUB AND PUSH2 0x2CD7 SWAP2 SWAP1 PUSH2 0x410E JUMP JUMPDEST PUSH1 0xC0 DUP7 ADD MLOAD PUSH1 0x1 PUSH1 0x1 PUSH1 0xA0 SHL SUB AND SWAP3 SWAP2 SWAP1 PUSH2 0x34C9 JUMP JUMPDEST PUSH1 0x0 JUMPDEST DUP6 PUSH1 0x1 PUSH1 0x1 PUSH1 0x80 SHL SUB AND DUP2 LT ISZERO PUSH2 0x2D6A JUMPI PUSH1 0x0 DUP8 DUP2 MSTORE PUSH1 0x5 PUSH1 0x20 MSTORE PUSH1 0x40 DUP2 KECCAK256 PUSH2 0x160 DUP6 ADD MLOAD CALLER SWAP3 SWAP1 PUSH2 0x2D2C SWAP1 DUP6 SWAP1 PUSH1 0x1 PUSH1 0x1 PUSH1 0x80 SHL SUB AND PUSH2 0x412D JUMP JUMPDEST DUP2 MSTORE PUSH1 0x20 DUP2 ADD SWAP2 SWAP1 SWAP2 MSTORE PUSH1 0x40 ADD PUSH1 0x0 KECCAK256 DUP1 SLOAD PUSH1 0x1 PUSH1 0x1 PUSH1 0xA0 SHL SUB NOT AND PUSH1 0x1 PUSH1 0x1 PUSH1 0xA0 SHL SUB SWAP3 SWAP1 SWAP3 AND SWAP2 SWAP1 SWAP2 OR SWAP1 SSTORE PUSH2 0x2D63 DUP2 PUSH2 0x40F5 JUMP JUMPDEST SWAP1 POP PUSH2 0x2CF0 JUMP JUMPDEST POP PUSH1 0x0 DUP7 DUP2 MSTORE PUSH1 0x4 PUSH1 0x20 MSTORE PUSH1 0x40 DUP2 KECCAK256 PUSH1 0x8 ADD DUP1 SLOAD DUP8 SWAP3 SWAP1 PUSH2 0x2D95 SWAP1 DUP5 SWAP1 PUSH1 0x1 PUSH1 0x1 PUSH1 0x80 SHL SUB AND PUSH2 0x4325 JUMP JUMPDEST SWAP3 POP PUSH2 0x100 EXP DUP2 SLOAD DUP2 PUSH1 0x1 PUSH1 0x1 PUSH1 0x80 SHL SUB MUL NOT AND SWAP1 DUP4 PUSH1 0x1 PUSH1 0x1 PUSH1 0x80 SHL SUB AND MUL OR SWAP1 SSTORE POP POP POP POP POP POP POP JUMP JUMPDEST PUSH1 0x0 SLOAD PUSH1 0x1 PUSH1 0x1 PUSH1 0xA0 SHL SUB AND CALLER EQ PUSH2 0x2DEB JUMPI PUSH1 0x40 MLOAD PUSH3 0x461BCD PUSH1 0xE5 SHL DUP2 MSTORE PUSH1 0x4 ADD PUSH2 0x726 SWAP1 PUSH2 0x422A JUMP JUMPDEST PUSH1 0x1 PUSH1 0x1 PUSH1 0xA0 SHL SUB DUP2 AND PUSH2 0x2E50 JUMPI PUSH1 0x40 MLOAD PUSH3 0x461BCD PUSH1 0xE5 SHL DUP2 MSTORE PUSH1 0x20 PUSH1 0x4 DUP3 ADD MSTORE PUSH1 0x26 PUSH1 0x24 DUP3 ADD MSTORE PUSH32 0x4F776E61626C653A206E6577206F776E657220697320746865207A65726F2061 PUSH1 0x44 DUP3 ADD MSTORE PUSH6 0x646472657373 PUSH1 0xD0 SHL PUSH1 0x64 DUP3 ADD MSTORE PUSH1 0x84 ADD PUSH2 0x726 JUMP JUMPDEST PUSH1 0x0 DUP1 SLOAD PUSH1 0x40 MLOAD PUSH1 0x1 PUSH1 0x1 PUSH1 0xA0 SHL SUB DUP1 DUP6 AND SWAP4 SWAP3 AND SWAP2 PUSH32 0x8BE0079C531659141344CD1FD0A4F28419497F9722A3DAAFE3B4186F6B6457E0 SWAP2 LOG3 PUSH1 0x0 DUP1 SLOAD PUSH1 0x1 PUSH1 0x1 PUSH1 0xA0 SHL SUB NOT AND PUSH1 0x1 PUSH1 0x1 PUSH1 0xA0 SHL SUB SWAP3 SWAP1 SWAP3 AND SWAP2 SWAP1 SWAP2 OR SWAP1 SSTORE JUMP JUMPDEST PUSH1 0x0 SLOAD PUSH1 0x1 PUSH1 0xA0 SHL SWAP1 DIV PUSH1 0xFF AND ISZERO PUSH2 0x2ED5 JUMPI PUSH1 0x40 MLOAD PUSH3 0x461BCD PUSH1 0xE5 SHL DUP2 MSTORE PUSH1 0x4 ADD PUSH2 0x726 SWAP1 PUSH2 0x409F JUMP JUMPDEST PUSH1 0x40 MLOAD PUSH4 0x31A9108F PUSH1 0xE1 SHL DUP2 MSTORE PUSH1 0x4 DUP2 ADD DUP9 SWAP1 MSTORE PUSH1 0x1 PUSH1 0x1 PUSH1 0xA0 SHL SUB DUP10 AND SWAP1 PUSH4 0x6352211E SWAP1 PUSH1 0x24 ADD PUSH1 0x20 PUSH1 0x40 MLOAD DUP1 DUP4 SUB DUP2 DUP7 GAS STATICCALL ISZERO DUP1 ISZERO PUSH2 0x2F1A JUMPI RETURNDATASIZE PUSH1 0x0 DUP1 RETURNDATACOPY RETURNDATASIZE PUSH1 0x0 REVERT JUMPDEST POP POP POP POP PUSH1 0x40 MLOAD RETURNDATASIZE PUSH1 0x1F NOT PUSH1 0x1F DUP3 ADD AND DUP3 ADD DUP1 PUSH1 0x40 MSTORE POP DUP2 ADD SWAP1 PUSH2 0x2F3E SWAP2 SWAP1 PUSH2 0x4394 JUMP JUMPDEST PUSH1 0x1 PUSH1 0x1 PUSH1 0xA0 SHL SUB AND CALLER PUSH1 0x1 PUSH1 0x1 PUSH1 0xA0 SHL SUB AND EQ PUSH2 0x2F9E JUMPI PUSH1 0x40 MLOAD PUSH3 0x461BCD PUSH1 0xE5 SHL DUP2 MSTORE PUSH1 0x20 PUSH1 0x4 DUP3 ADD MSTORE PUSH1 0x17 PUSH1 0x24 DUP3 ADD MSTORE PUSH32 0x596F7520646F206E6F74206F776E2074686973204E4654000000000000000000 PUSH1 0x44 DUP3 ADD MSTORE PUSH1 0x64 ADD PUSH2 0x726 JUMP JUMPDEST PUSH1 0x1 PUSH1 0x1 PUSH1 0xA0 SHL SUB DUP7 AND PUSH1 0x0 SWAP1 DUP2 MSTORE PUSH1 0x3 PUSH1 0x20 MSTORE PUSH1 0x40 SWAP1 KECCAK256 SLOAD PUSH1 0xFF AND PUSH2 0x3006 JUMPI PUSH1 0x40 MLOAD PUSH3 0x461BCD PUSH1 0xE5 SHL DUP2 MSTORE PUSH1 0x20 PUSH1 0x4 DUP3 ADD DUP2 SWAP1 MSTORE PUSH1 0x24 DUP3 ADD MSTORE PUSH32 0x546869732063757272656E6379206973206E6F742077686974656C6973746564 PUSH1 0x44 DUP3 ADD MSTORE PUSH1 0x64 ADD PUSH2 0x726 JUMP JUMPDEST PUSH1 0x1 DUP5 PUSH1 0x1 PUSH1 0x1 PUSH1 0x80 SHL SUB AND GT PUSH2 0x302F JUMPI PUSH1 0x40 MLOAD PUSH3 0x461BCD PUSH1 0xE5 SHL DUP2 MSTORE PUSH1 0x4 ADD PUSH2 0x726 SWAP1 PUSH2 0x4350 JUMP JUMPDEST PUSH2 0xE10 DUP3 PUSH1 0x1 PUSH1 0x1 PUSH1 0x80 SHL SUB AND LT ISZERO PUSH2 0x308A JUMPI PUSH1 0x40 MLOAD PUSH3 0x461BCD PUSH1 0xE5 SHL DUP2 MSTORE PUSH1 0x20 PUSH1 0x4 DUP3 ADD MSTORE PUSH1 0x1A PUSH1 0x24 DUP3 ADD MSTORE PUSH32 0x4D696E696D756D206475726174696F6E206973203120686F7572000000000000 PUSH1 0x44 DUP3 ADD MSTORE PUSH1 0x64 ADD PUSH2 0x726 JUMP JUMPDEST PUSH2 0x30A5 PUSH8 0x16345785D8A0000 PUSH1 0x1 PUSH1 0x1 PUSH1 0x80 SHL SUB DUP6 AND PUSH2 0x410E JUMP JUMPDEST CALLVALUE EQ PUSH2 0x30EF JUMPI PUSH1 0x40 MLOAD PUSH3 0x461BCD PUSH1 0xE5 SHL DUP2 MSTORE PUSH1 0x20 PUSH1 0x4 DUP3 ADD MSTORE PUSH1 0x19 PUSH1 0x24 DUP3 ADD MSTORE PUSH25 0x125B98DBDC9C9958DD0818DBDB1B185D195C985B081CD95B9D PUSH1 0x3A SHL PUSH1 0x44 DUP3 ADD MSTORE PUSH1 0x64 ADD PUSH2 0x726 JUMP JUMPDEST PUSH1 0x40 MLOAD PUSH4 0x23B872DD PUSH1 0xE0 SHL DUP2 MSTORE PUSH1 0x1 PUSH1 0x1 PUSH1 0xA0 SHL SUB DUP10 AND SWAP1 PUSH4 0x23B872DD SWAP1 PUSH2 0x311F SWAP1 CALLER SWAP1 ADDRESS SWAP1 DUP13 SWAP1 PUSH1 0x4 ADD PUSH2 0x41BD JUMP JUMPDEST PUSH1 0x0 PUSH1 0x40 MLOAD DUP1 DUP4 SUB DUP2 PUSH1 0x0 DUP8 DUP1 EXTCODESIZE ISZERO DUP1 ISZERO PUSH2 0x3139 JUMPI PUSH1 0x0 DUP1 REVERT JUMPDEST POP GAS CALL ISZERO DUP1 ISZERO PUSH2 0x314D JUMPI RETURNDATASIZE PUSH1 0x0 DUP1 RETURNDATACOPY RETURNDATASIZE PUSH1 0x0 REVERT JUMPDEST POP POP PUSH1 0x7 DUP1 SLOAD PUSH1 0x0 SWAP4 POP PUSH1 0x4 SWAP3 POP DUP4 SWAP2 DUP3 PUSH2 0x3167 DUP4 PUSH2 0x40F5 JUMP JUMPDEST SWAP1 SWAP2 SSTORE POP DUP2 MSTORE PUSH1 0x20 DUP2 ADD SWAP2 SWAP1 SWAP2 MSTORE PUSH1 0x40 ADD PUSH1 0x0 KECCAK256 DUP1 SLOAD PUSH1 0x1 PUSH1 0x1 PUSH1 0xA0 SHL SUB DUP12 DUP2 AND PUSH1 0x1 PUSH1 0x1 PUSH1 0xA0 SHL SUB NOT SWAP3 DUP4 AND OR DUP4 SSTORE PUSH1 0x1 DUP4 ADD DUP1 SLOAD DUP4 AND CALLER OR SWAP1 SSTORE PUSH1 0x2 DUP4 ADD DUP1 SLOAD PUSH2 0xFFFF PUSH1 0xA0 SHL NOT AND SWAP1 SSTORE PUSH1 0x3 DUP4 ADD DUP12 SWAP1 SSTORE PUSH1 0x4 DUP4 ADD DUP1 SLOAD SWAP1 SWAP3 AND SWAP1 DUP11 AND OR SWAP1 SSTORE PUSH1 0x5 DUP2 ADD DUP8 SWAP1 SSTORE PUSH1 0x6 DUP2 ADD DUP4 SWAP1 SSTORE SWAP1 POP PUSH2 0x31E3 DUP4 TIMESTAMP PUSH2 0x4325 JUMP JUMPDEST PUSH1 0x1 PUSH1 0x1 PUSH1 0x80 SHL SUB SWAP1 DUP2 AND PUSH1 0x1 PUSH1 0x80 SHL DUP8 DUP4 AND DUP2 MUL SWAP2 SWAP1 SWAP2 OR PUSH1 0x7 DUP5 DUP2 ADD SWAP2 SWAP1 SWAP2 SSTORE PUSH1 0x8 DUP5 ADD DUP1 SLOAD DUP5 AND SWAP4 DUP9 AND SWAP1 SWAP3 MUL SWAP3 SWAP1 SWAP3 OR SWAP1 SSTORE SLOAD PUSH1 0x40 DUP1 MLOAD SWAP2 DUP3 MSTORE PUSH1 0x1 PUSH1 0x1 PUSH1 0xA0 SHL SUB DUP12 AND PUSH1 0x20 DUP4 ADD MSTORE DUP2 ADD DUP10 SWAP1 MSTORE PUSH32 0x1F1A5174455810457E3CA7CB27252DB8D09030FAD07EEC86404C4DFEEEEADF87 SWAP1 PUSH1 0x60 ADD PUSH2 0x2878 JUMP JUMPDEST PUSH1 0x0 DUP3 DUP2 MSTORE PUSH1 0x6 PUSH1 0x20 SWAP1 DUP2 MSTORE PUSH1 0x40 DUP1 DUP4 KECCAK256 SLOAD DUP1 DUP5 MSTORE PUSH1 0x4 SWAP1 SWAP3 MSTORE SWAP1 SWAP2 KECCAK256 PUSH1 0x2 DUP1 DUP3 ADD DUP1 SLOAD PUSH1 0xFF PUSH1 0xA0 SHL NOT AND PUSH1 0x1 PUSH1 0xA0 SHL DUP4 MUL OR SWAP1 SSTORE POP PUSH1 0x0 DUP1 MLOAD PUSH1 0x20 PUSH2 0x44B8 DUP4 CODECOPY DUP2 MLOAD SWAP2 MSTORE DUP3 PUSH1 0x1 PUSH1 0x2 PUSH1 0x40 MLOAD PUSH2 0x32B8 SWAP4 SWAP3 SWAP2 SWAP1 PUSH2 0x4209 JUMP JUMPDEST PUSH1 0x40 MLOAD DUP1 SWAP2 SUB SWAP1 LOG1 PUSH1 0x8 DUP2 ADD SLOAD PUSH1 0x0 SWAP1 PUSH2 0x32DB SWAP1 PUSH1 0x1 PUSH1 0x1 PUSH1 0x80 SHL SUB AND DUP6 PUSH2 0x43B1 JUMP JUMPDEST PUSH1 0x0 SWAP4 DUP5 MSTORE PUSH1 0x5 PUSH1 0x20 SWAP1 DUP2 MSTORE PUSH1 0x40 DUP1 DUP7 KECCAK256 SWAP3 DUP7 MSTORE SWAP2 SWAP1 MSTORE SWAP1 SWAP3 KECCAK256 SLOAD PUSH1 0x2 SWAP1 SWAP2 ADD DUP1 SLOAD PUSH1 0x1 PUSH1 0x1 PUSH1 0xA0 SHL SUB NOT AND PUSH1 0x1 PUSH1 0x1 PUSH1 0xA0 SHL SUB SWAP1 SWAP3 AND SWAP2 SWAP1 SWAP2 OR SWAP1 SSTORE POP POP POP JUMP JUMPDEST DUP1 SELFBALANCE LT ISZERO PUSH2 0x336D JUMPI PUSH1 0x40 MLOAD PUSH3 0x461BCD PUSH1 0xE5 SHL DUP2 MSTORE PUSH1 0x20 PUSH1 0x4 DUP3 ADD MSTORE PUSH1 0x1E PUSH1 0x24 DUP3 ADD MSTORE PUSH32 0x5F68616E646C6545746865725472616E7366657220696E736F6C76656E740000 PUSH1 0x44 DUP3 ADD MSTORE PUSH1 0x64 ADD PUSH2 0x726 JUMP JUMPDEST PUSH1 0x0 GAS SWAP1 POP PUSH1 0x0 DUP4 PUSH1 0x1 PUSH1 0x1 PUSH1 0xA0 SHL SUB AND DUP4 DUP4 SWAP1 PUSH1 0x40 MLOAD PUSH1 0x0 PUSH1 0x40 MLOAD DUP1 DUP4 SUB DUP2 DUP6 DUP9 DUP9 CALL SWAP4 POP POP POP POP RETURNDATASIZE DUP1 PUSH1 0x0 DUP2 EQ PUSH2 0x33C2 JUMPI PUSH1 0x40 MLOAD SWAP2 POP PUSH1 0x1F NOT PUSH1 0x3F RETURNDATASIZE ADD AND DUP3 ADD PUSH1 0x40 MSTORE RETURNDATASIZE DUP3 MSTORE RETURNDATASIZE PUSH1 0x0 PUSH1 0x20 DUP5 ADD RETURNDATACOPY PUSH2 0x33C7 JUMP JUMPDEST PUSH1 0x60 SWAP2 POP JUMPDEST POP POP SWAP1 POP DUP1 PUSH2 0x345B JUMPI PUSH20 0xC02AAA39B223FE8D0A0E5C4F27EAD9083C756CC2 PUSH1 0x1 PUSH1 0x1 PUSH1 0xA0 SHL SUB AND PUSH4 0xD0E30DB0 DUP5 PUSH1 0x40 MLOAD DUP3 PUSH4 0xFFFFFFFF AND PUSH1 0xE0 SHL DUP2 MSTORE PUSH1 0x4 ADD PUSH1 0x0 PUSH1 0x40 MLOAD DUP1 DUP4 SUB DUP2 DUP6 DUP9 DUP1 EXTCODESIZE ISZERO DUP1 ISZERO PUSH2 0x341F JUMPI PUSH1 0x0 DUP1 REVERT JUMPDEST POP GAS CALL ISZERO DUP1 ISZERO PUSH2 0x3433 JUMPI RETURNDATASIZE PUSH1 0x0 DUP1 RETURNDATACOPY RETURNDATASIZE PUSH1 0x0 REVERT JUMPDEST POP PUSH2 0x345B SWAP4 POP PUSH20 0xC02AAA39B223FE8D0A0E5C4F27EAD9083C756CC2 SWAP3 POP DUP8 SWAP2 POP DUP7 SWAP1 POP PUSH2 0x3461 JUMP JUMPDEST POP POP POP POP JUMP JUMPDEST PUSH1 0x40 MLOAD PUSH1 0x1 PUSH1 0x1 PUSH1 0xA0 SHL SUB DUP4 AND PUSH1 0x24 DUP3 ADD MSTORE PUSH1 0x44 DUP2 ADD DUP3 SWAP1 MSTORE PUSH2 0x34C4 SWAP1 DUP5 SWAP1 PUSH4 0xA9059CBB PUSH1 0xE0 SHL SWAP1 PUSH1 0x64 ADD JUMPDEST PUSH1 0x40 DUP1 MLOAD PUSH1 0x1F NOT DUP2 DUP5 SUB ADD DUP2 MSTORE SWAP2 SWAP1 MSTORE PUSH1 0x20 DUP2 ADD DUP1 MLOAD PUSH1 0x1 PUSH1 0x1 PUSH1 0xE0 SHL SUB AND PUSH1 0x1 PUSH1 0x1 PUSH1 0xE0 SHL SUB NOT SWAP1 SWAP4 AND SWAP3 SWAP1 SWAP3 OR SWAP1 SWAP2 MSTORE PUSH2 0x382B JUMP JUMPDEST POP POP POP JUMP JUMPDEST PUSH2 0x345B DUP5 PUSH4 0x23B872DD PUSH1 0xE0 SHL DUP6 DUP6 DUP6 PUSH1 0x40 MLOAD PUSH1 0x24 ADD PUSH2 0x348D SWAP4 SWAP3 SWAP2 SWAP1 PUSH2 0x41BD JUMP JUMPDEST PUSH1 0x40 MLOAD PUSH4 0x70A08231 PUSH1 0xE0 SHL DUP2 MSTORE ADDRESS PUSH1 0x4 DUP3 ADD MSTORE PUSH1 0x0 SWAP1 PUSH32 0x0 SWAP1 PUSH1 0x1 PUSH1 0x1 PUSH1 0xA0 SHL SUB PUSH32 0x0 AND SWAP1 PUSH4 0x70A08231 SWAP1 PUSH1 0x24 ADD PUSH1 0x20 PUSH1 0x40 MLOAD DUP1 DUP4 SUB DUP2 DUP7 GAS STATICCALL ISZERO DUP1 ISZERO PUSH2 0x3573 JUMPI RETURNDATASIZE PUSH1 0x0 DUP1 RETURNDATACOPY RETURNDATASIZE PUSH1 0x0 REVERT JUMPDEST POP POP POP POP PUSH1 0x40 MLOAD RETURNDATASIZE PUSH1 0x1F NOT PUSH1 0x1F DUP3 ADD AND DUP3 ADD DUP1 PUSH1 0x40 MSTORE POP DUP2 ADD SWAP1 PUSH2 0x3597 SWAP2 SWAP1 PUSH2 0x43C5 JUMP JUMPDEST LT ISZERO PUSH2 0x35D7 JUMPI PUSH1 0x40 MLOAD PUSH3 0x461BCD PUSH1 0xE5 SHL DUP2 MSTORE PUSH1 0x20 PUSH1 0x4 DUP3 ADD MSTORE PUSH1 0xF PUSH1 0x24 DUP3 ADD MSTORE PUSH15 0x4E6F7420656E6F756768204C494E4B PUSH1 0x88 SHL PUSH1 0x44 DUP3 ADD MSTORE PUSH1 0x64 ADD PUSH2 0x726 JUMP JUMPDEST PUSH1 0x0 DUP3 DUP2 MSTORE PUSH1 0x4 PUSH1 0x20 MSTORE PUSH1 0x40 DUP1 DUP3 KECCAK256 PUSH1 0x2 DUP2 ADD DUP1 SLOAD PUSH1 0xFF PUSH1 0xA0 SHL NOT AND PUSH1 0x1 PUSH1 0xA0 SHL OR SWAP1 SSTORE SWAP1 MLOAD SWAP1 SWAP2 PUSH1 0x0 DUP1 MLOAD PUSH1 0x20 PUSH2 0x44B8 DUP4 CODECOPY DUP2 MLOAD SWAP2 MSTORE SWAP2 PUSH2 0x361D SWAP2 DUP7 SWAP2 PUSH1 0x1 SWAP1 PUSH2 0x4209 JUMP JUMPDEST PUSH1 0x40 MLOAD DUP1 SWAP2 SUB SWAP1 LOG1 PUSH2 0x366F PUSH32 0x0 PUSH32 0x0 PUSH2 0x38FD JUMP JUMPDEST SWAP4 SWAP3 POP POP POP JUMP JUMPDEST PUSH1 0x0 SLOAD PUSH1 0x1 PUSH1 0xA0 SHL SWAP1 DIV PUSH1 0xFF AND ISZERO PUSH2 0x36A0 JUMPI PUSH1 0x40 MLOAD PUSH3 0x461BCD PUSH1 0xE5 SHL DUP2 MSTORE PUSH1 0x4 ADD PUSH2 0x726 SWAP1 PUSH2 0x409F JUMP JUMPDEST PUSH1 0x0 DUP1 SLOAD PUSH1 0xFF PUSH1 0xA0 SHL NOT AND PUSH1 0x1 PUSH1 0xA0 SHL OR SWAP1 SSTORE PUSH32 0x62E78CEA01BEE320CD4E420270B5EA74000D11B0C9F74754EBDBFC544B05A258 PUSH2 0x36DB CALLER SWAP1 JUMP JUMPDEST PUSH1 0x40 MLOAD PUSH1 0x1 PUSH1 0x1 PUSH1 0xA0 SHL SUB SWAP1 SWAP2 AND DUP2 MSTORE PUSH1 0x20 ADD PUSH1 0x40 MLOAD DUP1 SWAP2 SUB SWAP1 LOG1 JUMP JUMPDEST PUSH1 0x0 SLOAD PUSH1 0x1 PUSH1 0xA0 SHL SWAP1 DIV PUSH1 0xFF AND PUSH2 0x3748 JUMPI PUSH1 0x40 MLOAD PUSH3 0x461BCD PUSH1 0xE5 SHL DUP2 MSTORE PUSH1 0x20 PUSH1 0x4 DUP3 ADD MSTORE PUSH1 0x14 PUSH1 0x24 DUP3 ADD MSTORE PUSH20 0x14185D5CD8589B194E881B9BDD081C185D5CD959 PUSH1 0x62 SHL PUSH1 0x44 DUP3 ADD MSTORE PUSH1 0x64 ADD PUSH2 0x726 JUMP JUMPDEST PUSH1 0x0 DUP1 SLOAD PUSH1 0xFF PUSH1 0xA0 SHL NOT AND SWAP1 SSTORE PUSH32 0x5DB9EE0A495BF2E6FF9C91A7834C1BA4FDD244A5E8AA4E537BD38AEAE4B073AA CALLER PUSH2 0x36DB JUMP JUMPDEST PUSH1 0x0 DUP2 DUP2 JUMPDEST DUP6 MLOAD DUP2 LT ISZERO PUSH2 0x3820 JUMPI PUSH1 0x0 DUP7 DUP3 DUP2 MLOAD DUP2 LT PUSH2 0x379E JUMPI PUSH2 0x379E PUSH2 0x40C9 JUMP JUMPDEST PUSH1 0x20 MUL PUSH1 0x20 ADD ADD MLOAD SWAP1 POP DUP1 DUP4 GT PUSH2 0x37E0 JUMPI PUSH1 0x40 DUP1 MLOAD PUSH1 0x20 DUP2 ADD DUP6 SWAP1 MSTORE SWAP1 DUP2 ADD DUP3 SWAP1 MSTORE PUSH1 0x60 ADD PUSH1 0x40 MLOAD PUSH1 0x20 DUP2 DUP4 SUB SUB DUP2 MSTORE SWAP1 PUSH1 0x40 MSTORE DUP1 MLOAD SWAP1 PUSH1 0x20 ADD KECCAK256 SWAP3 POP PUSH2 0x380D JUMP JUMPDEST PUSH1 0x40 DUP1 MLOAD PUSH1 0x20 DUP2 ADD DUP4 SWAP1 MSTORE SWAP1 DUP2 ADD DUP5 SWAP1 MSTORE PUSH1 0x60 ADD PUSH1 0x40 MLOAD PUSH1 0x20 DUP2 DUP4 SUB SUB DUP2 MSTORE SWAP1 PUSH1 0x40 MSTORE DUP1 MLOAD SWAP1 PUSH1 0x20 ADD KECCAK256 SWAP3 POP JUMPDEST POP DUP1 PUSH2 0x3818 DUP2 PUSH2 0x40F5 JUMP JUMPDEST SWAP2 POP POP PUSH2 0x3781 JUMP JUMPDEST POP SWAP1 SWAP3 EQ SWAP4 SWAP3 POP POP POP JUMP JUMPDEST PUSH1 0x0 PUSH2 0x3880 DUP3 PUSH1 0x40 MLOAD DUP1 PUSH1 0x40 ADD PUSH1 0x40 MSTORE DUP1 PUSH1 0x20 DUP2 MSTORE PUSH1 0x20 ADD PUSH32 0x5361666545524332303A206C6F772D6C6576656C2063616C6C206661696C6564 DUP2 MSTORE POP DUP6 PUSH1 0x1 PUSH1 0x1 PUSH1 0xA0 SHL SUB AND PUSH2 0x3A81 SWAP1 SWAP3 SWAP2 SWAP1 PUSH4 0xFFFFFFFF AND JUMP JUMPDEST DUP1 MLOAD SWAP1 SWAP2 POP ISZERO PUSH2 0x34C4 JUMPI DUP1 DUP1 PUSH1 0x20 ADD SWAP1 MLOAD DUP2 ADD SWAP1 PUSH2 0x389E SWAP2 SWAP1 PUSH2 0x43DE JUMP JUMPDEST PUSH2 0x34C4 JUMPI PUSH1 0x40 MLOAD PUSH3 0x461BCD PUSH1 0xE5 SHL DUP2 MSTORE PUSH1 0x20 PUSH1 0x4 DUP3 ADD MSTORE PUSH1 0x2A PUSH1 0x24 DUP3 ADD MSTORE PUSH32 0x5361666545524332303A204552433230206F7065726174696F6E20646964206E PUSH1 0x44 DUP3 ADD MSTORE PUSH10 0x1BDD081CDD58D8D95959 PUSH1 0xB2 SHL PUSH1 0x64 DUP3 ADD MSTORE PUSH1 0x84 ADD PUSH2 0x726 JUMP JUMPDEST PUSH1 0x0 PUSH32 0x0 PUSH1 0x1 PUSH1 0x1 PUSH1 0xA0 SHL SUB AND PUSH4 0x4000AEA0 PUSH32 0x0 DUP5 DUP7 PUSH1 0x0 PUSH1 0x40 MLOAD PUSH1 0x20 ADD PUSH2 0x396D SWAP3 SWAP2 SWAP1 SWAP2 DUP3 MSTORE PUSH1 0x20 DUP3 ADD MSTORE PUSH1 0x40 ADD SWAP1 JUMP JUMPDEST PUSH1 0x40 MLOAD PUSH1 0x20 DUP2 DUP4 SUB SUB DUP2 MSTORE SWAP1 PUSH1 0x40 MSTORE PUSH1 0x40 MLOAD DUP5 PUSH4 0xFFFFFFFF AND PUSH1 0xE0 SHL DUP2 MSTORE PUSH1 0x4 ADD PUSH2 0x399A SWAP4 SWAP3 SWAP2 SWAP1 PUSH2 0x4458 JUMP JUMPDEST PUSH1 0x20 PUSH1 0x40 MLOAD DUP1 DUP4 SUB DUP2 PUSH1 0x0 DUP8 GAS CALL ISZERO DUP1 ISZERO PUSH2 0x39B9 JUMPI RETURNDATASIZE PUSH1 0x0 DUP1 RETURNDATACOPY RETURNDATASIZE PUSH1 0x0 REVERT JUMPDEST POP POP POP POP PUSH1 0x40 MLOAD RETURNDATASIZE PUSH1 0x1F NOT PUSH1 0x1F DUP3 ADD AND DUP3 ADD DUP1 PUSH1 0x40 MSTORE POP DUP2 ADD SWAP1 PUSH2 0x39DD SWAP2 SWAP1 PUSH2 0x43DE JUMP JUMPDEST POP PUSH1 0x0 DUP4 DUP2 MSTORE PUSH1 0x2 PUSH1 0x20 DUP2 DUP2 MSTORE PUSH1 0x40 DUP1 DUP5 KECCAK256 SLOAD DUP2 MLOAD DUP1 DUP5 ADD DUP10 SWAP1 MSTORE DUP1 DUP4 ADD DUP7 SWAP1 MSTORE ADDRESS PUSH1 0x60 DUP3 ADD MSTORE PUSH1 0x80 DUP1 DUP3 ADD DUP4 SWAP1 MSTORE DUP4 MLOAD DUP1 DUP4 SUB SWAP1 SWAP2 ADD DUP2 MSTORE PUSH1 0xA0 SWAP1 SWAP2 ADD SWAP1 SWAP3 MSTORE DUP2 MLOAD SWAP2 DUP4 ADD SWAP2 SWAP1 SWAP2 KECCAK256 SWAP4 DUP8 SWAP1 MSTORE SWAP2 SWAP1 MSTORE PUSH2 0x3A39 SWAP1 PUSH1 0x1 PUSH2 0x412D JUMP JUMPDEST PUSH1 0x0 DUP6 DUP2 MSTORE PUSH1 0x2 PUSH1 0x20 MSTORE PUSH1 0x40 SWAP1 KECCAK256 SSTORE PUSH2 0x3A79 DUP5 DUP3 PUSH1 0x40 DUP1 MLOAD PUSH1 0x20 DUP1 DUP3 ADD SWAP5 SWAP1 SWAP5 MSTORE DUP1 DUP3 ADD SWAP3 SWAP1 SWAP3 MSTORE DUP1 MLOAD DUP1 DUP4 SUB DUP3 ADD DUP2 MSTORE PUSH1 0x60 SWAP1 SWAP3 ADD SWAP1 MSTORE DUP1 MLOAD SWAP2 ADD KECCAK256 SWAP1 JUMP JUMPDEST SWAP5 SWAP4 POP POP POP POP JUMP JUMPDEST PUSH1 0x60 PUSH2 0x3A79 DUP5 DUP5 PUSH1 0x0 DUP6 DUP6 DUP5 EXTCODESIZE PUSH2 0x3ADA JUMPI PUSH1 0x40 MLOAD PUSH3 0x461BCD PUSH1 0xE5 SHL DUP2 MSTORE PUSH1 0x20 PUSH1 0x4 DUP3 ADD MSTORE PUSH1 0x1D PUSH1 0x24 DUP3 ADD MSTORE PUSH32 0x416464726573733A2063616C6C20746F206E6F6E2D636F6E7472616374000000 PUSH1 0x44 DUP3 ADD MSTORE PUSH1 0x64 ADD PUSH2 0x726 JUMP JUMPDEST PUSH1 0x0 DUP1 DUP7 PUSH1 0x1 PUSH1 0x1 PUSH1 0xA0 SHL SUB AND DUP6 DUP8 PUSH1 0x40 MLOAD PUSH2 0x3AF6 SWAP2 SWAP1 PUSH2 0x4488 JUMP JUMPDEST PUSH1 0x0 PUSH1 0x40 MLOAD DUP1 DUP4 SUB DUP2 DUP6 DUP8 GAS CALL SWAP3 POP POP POP RETURNDATASIZE DUP1 PUSH1 0x0 DUP2 EQ PUSH2 0x3B33 JUMPI PUSH1 0x40 MLOAD SWAP2 POP PUSH1 0x1F NOT PUSH1 0x3F RETURNDATASIZE ADD AND DUP3 ADD PUSH1 0x40 MSTORE RETURNDATASIZE DUP3 MSTORE RETURNDATASIZE PUSH1 0x0 PUSH1 0x20 DUP5 ADD RETURNDATACOPY PUSH2 0x3B38 JUMP JUMPDEST PUSH1 0x60 SWAP2 POP JUMPDEST POP SWAP2 POP SWAP2 POP PUSH2 0x3B48 DUP3 DUP3 DUP7 PUSH2 0x3B53 JUMP JUMPDEST SWAP8 SWAP7 POP POP POP POP POP POP POP JUMP JUMPDEST PUSH1 0x60 DUP4 ISZERO PUSH2 0x3B62 JUMPI POP DUP2 PUSH2 0x366F JUMP JUMPDEST DUP3 MLOAD ISZERO PUSH2 0x3B72 JUMPI DUP3 MLOAD DUP1 DUP5 PUSH1 0x20 ADD REVERT JUMPDEST DUP2 PUSH1 0x40 MLOAD PUSH3 0x461BCD PUSH1 0xE5 SHL DUP2 MSTORE PUSH1 0x4 ADD PUSH2 0x726 SWAP2 SWAP1 PUSH2 0x44A4 JUMP JUMPDEST PUSH1 0x0 DUP1 PUSH1 0x40 DUP4 DUP6 SUB SLT ISZERO PUSH2 0x3B9F JUMPI PUSH1 0x0 DUP1 REVERT JUMPDEST POP POP DUP1 CALLDATALOAD SWAP3 PUSH1 0x20 SWAP1 SWAP2 ADD CALLDATALOAD SWAP2 POP JUMP JUMPDEST PUSH1 0x0 DUP1 DUP4 PUSH1 0x1F DUP5 ADD SLT PUSH2 0x3BC0 JUMPI PUSH1 0x0 DUP1 REVERT JUMPDEST POP DUP2 CALLDATALOAD PUSH8 0xFFFFFFFFFFFFFFFF DUP2 GT ISZERO PUSH2 0x3BD8 JUMPI PUSH1 0x0 DUP1 REVERT JUMPDEST PUSH1 0x20 DUP4 ADD SWAP2 POP DUP4 PUSH1 0x20 DUP3 PUSH1 0x5 SHL DUP6 ADD ADD GT ISZERO PUSH2 0x3BF3 JUMPI PUSH1 0x0 DUP1 REVERT JUMPDEST SWAP3 POP SWAP3 SWAP1 POP JUMP JUMPDEST PUSH1 0x0 DUP1 PUSH1 0x0 PUSH1 0x40 DUP5 DUP7 SUB SLT ISZERO PUSH2 0x3C0F JUMPI PUSH1 0x0 DUP1 REVERT JUMPDEST DUP4 CALLDATALOAD SWAP3 POP PUSH1 0x20 DUP5 ADD CALLDATALOAD PUSH8 0xFFFFFFFFFFFFFFFF DUP2 GT ISZERO PUSH2 0x3C2D JUMPI PUSH1 0x0 DUP1 REVERT JUMPDEST PUSH2 0x3C39 DUP7 DUP3 DUP8 ADD PUSH2 0x3BAE JUMP JUMPDEST SWAP5 SWAP8 SWAP1 SWAP7 POP SWAP4 SWAP5 POP POP POP POP JUMP JUMPDEST PUSH1 0x0 PUSH1 0x20 DUP3 DUP5 SUB SLT ISZERO PUSH2 0x3C58 JUMPI PUSH1 0x0 DUP1 REVERT JUMPDEST POP CALLDATALOAD SWAP2 SWAP1 POP JUMP JUMPDEST PUSH1 0x1 PUSH1 0x1 PUSH1 0xA0 SHL SUB DUP2 AND DUP2 EQ PUSH2 0x3C74 JUMPI PUSH1 0x0 DUP1 REVERT JUMPDEST POP JUMP JUMPDEST PUSH1 0x0 DUP1 PUSH1 0x0 DUP1 PUSH1 0x0 PUSH1 0x60 DUP7 DUP9 SUB SLT ISZERO PUSH2 0x3C8F JUMPI PUSH1 0x0 DUP1 REVERT JUMPDEST DUP6 CALLDATALOAD PUSH8 0xFFFFFFFFFFFFFFFF DUP1 DUP3 GT ISZERO PUSH2 0x3CA7 JUMPI PUSH1 0x0 DUP1 REVERT JUMPDEST PUSH2 0x3CB3 DUP10 DUP4 DUP11 ADD PUSH2 0x3BAE JUMP JUMPDEST SWAP1 SWAP8 POP SWAP6 POP PUSH1 0x20 DUP9 ADD CALLDATALOAD SWAP2 POP DUP1 DUP3 GT ISZERO PUSH2 0x3CCC JUMPI PUSH1 0x0 DUP1 REVERT JUMPDEST POP PUSH2 0x3CD9 DUP9 DUP3 DUP10 ADD PUSH2 0x3BAE JUMP JUMPDEST SWAP1 SWAP5 POP SWAP3 POP POP PUSH1 0x40 DUP7 ADD CALLDATALOAD PUSH2 0x3CED DUP2 PUSH2 0x3C5F JUMP JUMPDEST DUP1 SWAP2 POP POP SWAP3 SWAP6 POP SWAP3 SWAP6 SWAP1 SWAP4 POP JUMP JUMPDEST PUSH4 0x4E487B71 PUSH1 0xE0 SHL PUSH1 0x0 MSTORE PUSH1 0x21 PUSH1 0x4 MSTORE PUSH1 0x24 PUSH1 0x0 REVERT JUMPDEST PUSH1 0x5 DUP2 LT PUSH2 0x3D21 JUMPI PUSH2 0x3D21 PUSH2 0x3CFB JUMP JUMPDEST SWAP1 MSTORE JUMP JUMPDEST PUSH1 0x2 DUP2 LT PUSH2 0x3D21 JUMPI PUSH2 0x3D21 PUSH2 0x3CFB JUMP JUMPDEST DUP1 MLOAD PUSH1 0x1 PUSH1 0x1 PUSH1 0xA0 SHL SUB AND DUP3 MSTORE PUSH1 0x20 DUP2 ADD MLOAD PUSH2 0x3D5C PUSH1 0x20 DUP5 ADD DUP3 PUSH1 0x1 PUSH1 0x1 PUSH1 0xA0 SHL SUB AND SWAP1 MSTORE JUMP JUMPDEST POP PUSH1 0x40 DUP2 ADD MLOAD PUSH2 0x3D77 PUSH1 0x40 DUP5 ADD DUP3 PUSH1 0x1 PUSH1 0x1 PUSH1 0xA0 SHL SUB AND SWAP1 MSTORE JUMP JUMPDEST POP PUSH1 0x60 DUP2 ADD MLOAD PUSH2 0x3D8A PUSH1 0x60 DUP5 ADD DUP3 PUSH2 0x3D11 JUMP JUMPDEST POP PUSH1 0x80 DUP2 ADD MLOAD PUSH2 0x3D9D PUSH1 0x80 DUP5 ADD DUP3 PUSH2 0x3D25 JUMP JUMPDEST POP PUSH1 0xA0 DUP2 ADD MLOAD PUSH1 0xA0 DUP4 ADD MSTORE PUSH1 0xC0 DUP2 ADD MLOAD PUSH2 0x3DC2 PUSH1 0xC0 DUP5 ADD DUP3 PUSH1 0x1 PUSH1 0x1 PUSH1 0xA0 SHL SUB AND SWAP1 MSTORE JUMP JUMPDEST POP PUSH1 0xE0 DUP2 DUP2 ADD MLOAD SWAP1 DUP4 ADD MSTORE PUSH2 0x100 DUP1 DUP3 ADD MLOAD SWAP1 DUP4 ADD MSTORE PUSH2 0x120 DUP1 DUP3 ADD MLOAD PUSH1 0x1 PUSH1 0x1 PUSH1 0x80 SHL SUB SWAP1 DUP2 AND SWAP2 DUP5 ADD SWAP2 SWAP1 SWAP2 MSTORE PUSH2 0x140 DUP1 DUP4 ADD MLOAD DUP3 AND SWAP1 DUP5 ADD MSTORE PUSH2 0x160 DUP1 DUP4 ADD MLOAD DUP3 AND SWAP1 DUP5 ADD MSTORE PUSH2 0x180 DUP1 DUP4 ADD MLOAD SWAP2 DUP3 AND DUP2 DUP6 ADD MSTORE SWAP1 PUSH2 0x345B JUMP JUMPDEST PUSH1 0x20 DUP1 DUP3 MSTORE DUP3 MLOAD DUP3 DUP3 ADD DUP2 SWAP1 MSTORE PUSH1 0x0 SWAP2 SWAP1 DUP5 DUP3 ADD SWAP1 PUSH1 0x40 DUP6 ADD SWAP1 DUP5 JUMPDEST DUP2 DUP2 LT ISZERO PUSH2 0x3E62 JUMPI PUSH2 0x3E4E DUP4 DUP6 MLOAD PUSH2 0x3D35 JUMP JUMPDEST SWAP3 DUP5 ADD SWAP3 PUSH2 0x1A0 SWAP3 SWAP1 SWAP3 ADD SWAP2 PUSH1 0x1 ADD PUSH2 0x3E3B JUMP JUMPDEST POP SWAP1 SWAP7 SWAP6 POP POP POP POP POP POP JUMP JUMPDEST PUSH1 0x0 PUSH1 0x20 DUP3 DUP5 SUB SLT ISZERO PUSH2 0x3E80 JUMPI PUSH1 0x0 DUP1 REVERT JUMPDEST DUP2 CALLDATALOAD PUSH2 0x2482 DUP2 PUSH2 0x3C5F JUMP JUMPDEST PUSH1 0x20 DUP2 ADD PUSH2 0x2485 DUP3 DUP5 PUSH2 0x3D11 JUMP JUMPDEST PUSH1 0x1 PUSH1 0x1 PUSH1 0xA0 SHL SUB DUP15 DUP2 AND DUP3 MSTORE DUP14 DUP2 AND PUSH1 0x20 DUP4 ADD MSTORE DUP13 AND PUSH1 0x40 DUP3 ADD MSTORE PUSH2 0x1A0 DUP2 ADD PUSH2 0x3EC7 PUSH1 0x60 DUP4 ADD DUP14 PUSH2 0x3D11 JUMP JUMPDEST PUSH2 0x3ED4 PUSH1 0x80 DUP4 ADD DUP13 PUSH2 0x3D25 JUMP JUMPDEST PUSH1 0xA0 DUP3 ADD SWAP10 SWAP1 SWAP10 MSTORE PUSH1 0x1 PUSH1 0x1 PUSH1 0xA0 SHL SUB SWAP8 SWAP1 SWAP8 AND PUSH1 0xC0 DUP9 ADD MSTORE PUSH1 0xE0 DUP8 ADD SWAP6 SWAP1 SWAP6 MSTORE PUSH2 0x100 DUP7 ADD SWAP4 SWAP1 SWAP4 MSTORE PUSH1 0x1 PUSH1 0x1 PUSH1 0x80 SHL SUB SWAP2 DUP3 AND PUSH2 0x120 DUP7 ADD MSTORE DUP2 AND PUSH2 0x140 DUP6 ADD MSTORE SWAP1 DUP2 AND PUSH2 0x160 DUP5 ADD MSTORE AND PUSH2 0x180 SWAP1 SWAP2 ADD MSTORE SWAP6 SWAP5 POP POP POP POP POP JUMP JUMPDEST DUP1 CALLDATALOAD PUSH1 0x1 PUSH1 0x1 PUSH1 0x80 SHL SUB DUP2 AND DUP2 EQ PUSH2 0x3F48 JUMPI PUSH1 0x0 DUP1 REVERT JUMPDEST SWAP2 SWAP1 POP JUMP JUMPDEST PUSH1 0x0 DUP1 PUSH1 0x40 DUP4 DUP6 SUB SLT ISZERO PUSH2 0x3F60 JUMPI PUSH1 0x0 DUP1 REVERT JUMPDEST DUP3 CALLDATALOAD SWAP2 POP PUSH2 0x3F70 PUSH1 0x20 DUP5 ADD PUSH2 0x3F31 JUMP JUMPDEST SWAP1 POP SWAP3 POP SWAP3 SWAP1 POP JUMP JUMPDEST PUSH2 0x1A0 DUP2 ADD PUSH2 0x2485 DUP3 DUP5 PUSH2 0x3D35 JUMP JUMPDEST PUSH1 0x0 DUP1 PUSH1 0x0 DUP1 PUSH1 0x0 DUP1 PUSH1 0x0 DUP1 PUSH2 0x100 DUP10 DUP12 SUB SLT ISZERO PUSH2 0x3FA5 JUMPI PUSH1 0x0 DUP1 REVERT JUMPDEST DUP9 CALLDATALOAD PUSH2 0x3FB0 DUP2 PUSH2 0x3C5F JUMP JUMPDEST SWAP8 POP PUSH1 0x20 DUP10 ADD CALLDATALOAD SWAP7 POP PUSH1 0x40 DUP10 ADD CALLDATALOAD PUSH2 0x3FC7 DUP2 PUSH2 0x3C5F JUMP JUMPDEST SWAP6 POP PUSH1 0x60 DUP10 ADD CALLDATALOAD SWAP5 POP PUSH2 0x3FDC PUSH1 0x80 DUP11 ADD PUSH2 0x3F31 JUMP JUMPDEST SWAP4 POP PUSH2 0x3FEA PUSH1 0xA0 DUP11 ADD PUSH2 0x3F31 JUMP JUMPDEST SWAP3 POP PUSH2 0x3FF8 PUSH1 0xC0 DUP11 ADD PUSH2 0x3F31 JUMP JUMPDEST SWAP2 POP PUSH1 0xE0 DUP10 ADD CALLDATALOAD SWAP1 POP SWAP3 SWAP6 SWAP9 POP SWAP3 SWAP6 SWAP9 SWAP1 SWAP4 SWAP7 POP JUMP JUMPDEST PUSH1 0x0 DUP1 PUSH1 0x0 DUP1 PUSH1 0x60 DUP6 DUP8 SUB SLT ISZERO PUSH2 0x4024 JUMPI PUSH1 0x0 DUP1 REVERT JUMPDEST DUP5 CALLDATALOAD SWAP4 POP PUSH2 0x4034 PUSH1 0x20 DUP7 ADD PUSH2 0x3F31 JUMP JUMPDEST SWAP3 POP PUSH1 0x40 DUP6 ADD CALLDATALOAD PUSH8 0xFFFFFFFFFFFFFFFF DUP2 GT ISZERO PUSH2 0x4050 JUMPI PUSH1 0x0 DUP1 REVERT JUMPDEST PUSH2 0x405C DUP8 DUP3 DUP9 ADD PUSH2 0x3BAE JUMP JUMPDEST SWAP6 SWAP9 SWAP5 SWAP8 POP SWAP6 POP POP POP POP JUMP JUMPDEST PUSH1 0x20 DUP1 DUP3 MSTORE PUSH1 0x1F SWAP1 DUP3 ADD MSTORE PUSH32 0x5265656E7472616E637947756172643A207265656E7472616E742063616C6C00 PUSH1 0x40 DUP3 ADD MSTORE PUSH1 0x60 ADD SWAP1 JUMP JUMPDEST PUSH1 0x20 DUP1 DUP3 MSTORE PUSH1 0x10 SWAP1 DUP3 ADD MSTORE PUSH16 0x14185D5CD8589B194E881C185D5CD959 PUSH1 0x82 SHL PUSH1 0x40 DUP3 ADD MSTORE PUSH1 0x60 ADD SWAP1 JUMP JUMPDEST PUSH4 0x4E487B71 PUSH1 0xE0 SHL PUSH1 0x0 MSTORE PUSH1 0x32 PUSH1 0x4 MSTORE PUSH1 0x24 PUSH1 0x0 REVERT JUMPDEST PUSH4 0x4E487B71 PUSH1 0xE0 SHL PUSH1 0x0 MSTORE PUSH1 0x11 PUSH1 0x4 MSTORE PUSH1 0x24 PUSH1 0x0 REVERT JUMPDEST PUSH1 0x0 PUSH1 0x1 DUP3 ADD PUSH2 0x4107 JUMPI PUSH2 0x4107 PUSH2 0x40DF JUMP JUMPDEST POP PUSH1 0x1 ADD SWAP1 JUMP JUMPDEST PUSH1 0x0 DUP2 PUSH1 0x0 NOT DIV DUP4 GT DUP3 ISZERO ISZERO AND ISZERO PUSH2 0x4128 JUMPI PUSH2 0x4128 PUSH2 0x40DF JUMP JUMPDEST POP MUL SWAP1 JUMP JUMPDEST PUSH1 0x0 DUP3 NOT DUP3 GT ISZERO PUSH2 0x4140 JUMPI PUSH2 0x4140 PUSH2 0x40DF JUMP JUMPDEST POP ADD SWAP1 JUMP JUMPDEST PUSH1 0x20 DUP1 DUP3 MSTORE PUSH1 0x1A SWAP1 DUP3 ADD MSTORE PUSH32 0x5468697320726166666C6520646F6573206E6F74206578697374000000000000 PUSH1 0x40 DUP3 ADD MSTORE PUSH1 0x60 ADD SWAP1 JUMP JUMPDEST PUSH1 0x20 DUP1 DUP3 MSTORE PUSH1 0x21 SWAP1 DUP3 ADD MSTORE PUSH32 0x5468697320726166666C652077617320616C726561647920636F6D706C657465 PUSH1 0x40 DUP3 ADD MSTORE PUSH1 0x19 PUSH1 0xFA SHL PUSH1 0x60 DUP3 ADD MSTORE PUSH1 0x80 ADD SWAP1 JUMP JUMPDEST PUSH1 0x1 PUSH1 0x1 PUSH1 0xA0 SHL SUB SWAP4 DUP5 AND DUP2 MSTORE SWAP2 SWAP1 SWAP3 AND PUSH1 0x20 DUP3 ADD MSTORE PUSH1 0x40 DUP2 ADD SWAP2 SWAP1 SWAP2 MSTORE PUSH1 0x60 ADD SWAP1 JUMP JUMPDEST PUSH1 0x0 PUSH1 0x1 PUSH1 0x1 PUSH1 0x80 SHL SUB DUP4 DUP2 AND SWAP1 DUP4 AND DUP2 DUP2 LT ISZERO PUSH2 0x4201 JUMPI PUSH2 0x4201 PUSH2 0x40DF JUMP JUMPDEST SUB SWAP4 SWAP3 POP POP POP JUMP JUMPDEST DUP4 DUP2 MSTORE PUSH1 0x60 DUP2 ADD PUSH2 0x421D PUSH1 0x20 DUP4 ADD DUP6 PUSH2 0x3D11 JUMP JUMPDEST PUSH2 0x3A79 PUSH1 0x40 DUP4 ADD DUP5 PUSH2 0x3D11 JUMP JUMPDEST PUSH1 0x20 DUP1 DUP3 MSTORE DUP2 DUP2 ADD MSTORE PUSH32 0x4F776E61626C653A2063616C6C6572206973206E6F7420746865206F776E6572 PUSH1 0x40 DUP3 ADD MSTORE PUSH1 0x60 ADD SWAP1 JUMP JUMPDEST PUSH4 0x4E487B71 PUSH1 0xE0 SHL PUSH1 0x0 MSTORE PUSH1 0x12 PUSH1 0x4 MSTORE PUSH1 0x24 PUSH1 0x0 REVERT JUMPDEST PUSH1 0x0 DUP3 PUSH2 0x4284 JUMPI PUSH2 0x4284 PUSH2 0x425F JUMP JUMPDEST POP DIV SWAP1 JUMP JUMPDEST PUSH1 0x0 DUP3 DUP3 LT ISZERO PUSH2 0x429B JUMPI PUSH2 0x429B PUSH2 0x40DF JUMP JUMPDEST POP SUB SWAP1 JUMP JUMPDEST PUSH1 0x20 DUP1 DUP3 MSTORE PUSH1 0x1D SWAP1 DUP3 ADD MSTORE PUSH32 0x5468697320726166666C652068617320616C726561647920656E646564000000 PUSH1 0x40 DUP3 ADD MSTORE PUSH1 0x60 ADD SWAP1 JUMP JUMPDEST PUSH1 0x20 DUP1 DUP3 MSTORE PUSH1 0x2E SWAP1 DUP3 ADD MSTORE PUSH32 0x546865726520617265206E6F7420736F206D616E79207469636B657473206176 PUSH1 0x40 DUP3 ADD MSTORE PUSH14 0x61696C61626C6520746F20627579 PUSH1 0x90 SHL PUSH1 0x60 DUP3 ADD MSTORE PUSH1 0x80 ADD SWAP1 JUMP JUMPDEST PUSH1 0x0 PUSH1 0x1 PUSH1 0x1 PUSH1 0x80 SHL SUB DUP1 DUP4 AND DUP2 DUP6 AND DUP1 DUP4 SUB DUP3 GT ISZERO PUSH2 0x4347 JUMPI PUSH2 0x4347 PUSH2 0x40DF JUMP JUMPDEST ADD SWAP5 SWAP4 POP POP POP POP JUMP JUMPDEST PUSH1 0x20 DUP1 DUP3 MSTORE PUSH1 0x24 SWAP1 DUP3 ADD MSTORE PUSH32 0x526166666C6573206D7573742068617665206174206C65617374203220746963 PUSH1 0x40 DUP3 ADD MSTORE PUSH4 0x6B657473 PUSH1 0xE0 SHL PUSH1 0x60 DUP3 ADD MSTORE PUSH1 0x80 ADD SWAP1 JUMP JUMPDEST PUSH1 0x0 PUSH1 0x20 DUP3 DUP5 SUB SLT ISZERO PUSH2 0x43A6 JUMPI PUSH1 0x0 DUP1 REVERT JUMPDEST DUP2 MLOAD PUSH2 0x2482 DUP2 PUSH2 0x3C5F JUMP JUMPDEST PUSH1 0x0 DUP3 PUSH2 0x43C0 JUMPI PUSH2 0x43C0 PUSH2 0x425F JUMP JUMPDEST POP MOD SWAP1 JUMP JUMPDEST PUSH1 0x0 PUSH1 0x20 DUP3 DUP5 SUB SLT ISZERO PUSH2 0x43D7 JUMPI PUSH1 0x0 DUP1 REVERT JUMPDEST POP MLOAD SWAP2 SWAP1 POP JUMP JUMPDEST PUSH1 0x0 PUSH1 0x20 DUP3 DUP5 SUB SLT ISZERO PUSH2 0x43F0 JUMPI PUSH1 0x0 DUP1 REVERT JUMPDEST DUP2 MLOAD DUP1 ISZERO ISZERO DUP2 EQ PUSH2 0x2482 JUMPI PUSH1 0x0 DUP1 REVERT JUMPDEST PUSH1 0x0 JUMPDEST DUP4 DUP2 LT ISZERO PUSH2 0x441B JUMPI DUP2 DUP2 ADD MLOAD DUP4 DUP3 ADD MSTORE PUSH1 0x20 ADD PUSH2 0x4403 JUMP JUMPDEST DUP4 DUP2 GT ISZERO PUSH2 0x345B JUMPI POP POP PUSH1 0x0 SWAP2 ADD MSTORE JUMP JUMPDEST PUSH1 0x0 DUP2 MLOAD DUP1 DUP5 MSTORE PUSH2 0x4444 DUP2 PUSH1 0x20 DUP7 ADD PUSH1 0x20 DUP7 ADD PUSH2 0x4400 JUMP JUMPDEST PUSH1 0x1F ADD PUSH1 0x1F NOT AND SWAP3 SWAP1 SWAP3 ADD PUSH1 0x20 ADD SWAP3 SWAP2 POP POP JUMP JUMPDEST PUSH1 0x1 DUP1 PUSH1 0xA0 SHL SUB DUP5 AND DUP2 MSTORE DUP3 PUSH1 0x20 DUP3 ADD MSTORE PUSH1 0x60 PUSH1 0x40 DUP3 ADD MSTORE PUSH1 0x0 PUSH2 0x447F PUSH1 0x60 DUP4 ADD DUP5 PUSH2 0x442C JUMP JUMPDEST SWAP6 SWAP5 POP POP POP POP POP JUMP JUMPDEST PUSH1 0x0 DUP3 MLOAD PUSH2 0x449A DUP2 DUP5 PUSH1 0x20 DUP8 ADD PUSH2 0x4400 JUMP JUMPDEST SWAP2 SWAP1 SWAP2 ADD SWAP3 SWAP2 POP POP JUMP JUMPDEST PUSH1 0x20 DUP2 MSTORE PUSH1 0x0 PUSH2 0x366F PUSH1 0x20 DUP4 ADD DUP5 PUSH2 0x442C JUMP INVALID SWAP9 DELEGATECALL 0xD5 GAS DUP1 PUSH18 0x907AB4E28727C006F2A8A315CD8C01E117F0 DIFFICULTY ADDRESS 0xD9 PC PUSH25 0x75AD3DA264697066735822122031616546CF2640004C7E0721 0xC2 0xE3 0xB6 0xD5 DIV DUP10 0xEA 0xDF 0xA6 ADDRESS 0x4D PUSH18 0x463C139AD6C76F6264736F6C634300080D00 CALLER ",
  "sha1": "1688010cf5252c85316435a322602c5db6b86029",
  "source": "// SPDX-License-Identifier: MIT\npragma solidity ^0.8.0;\n\nimport \"@openzeppelin/contracts/access/Ownable.sol\";\nimport \"@openzeppelin/contracts/security/Pausable.sol\";\nimport \"@openzeppelin/contracts/token/ERC721/IERC721.sol\";\nimport \"@openzeppelin/contracts/token/ERC20/IERC20.sol\";\nimport \"@openzeppelin/contracts/token/ERC20/utils/SafeERC20.sol\";\nimport \"@chainlink/contracts/src/v0.8/VRFConsumerBase.sol\";\nimport \"@openzeppelin/contracts/security/ReentrancyGuard.sol\";\nimport \"@openzeppelin/contracts/utils/cryptography/MerkleProof.sol\";\nimport {IWETH} from \"./interfaces/IWETH.sol\";\n\ncontract Raffle is Ownable, Pausable, ReentrancyGuard, VRFConsumerBase {\n    using SafeERC20 for IERC20;\n\n    enum RaffleState {\n        IN_PROGRESS,\n        FINISHED,\n        COMPLETED,\n        REFUNDED,\n        CLAIMED\n    }\n\n    enum RaffleType {\n        ERC721,\n        ERC20\n    }\n\n    struct RaffleData {\n        address assetContract;\n        address raffleOwner;\n        address raffleWinner;\n        RaffleState raffleState;\n        RaffleType raffleType;\n        uint256 nftIdOrAmount;\n        address currency;\n        uint256 pricePerTicket;\n        bytes32 MerkleRoot;\n        uint128 endTimestamp;\n        uint128 numberOfTickets;\n        uint128 ticketsSold;\n        uint128 minimumTicketsSold;\n    }\n\n    // ERC20 address => isWhitelisted?\n    mapping(address => bool) public whitelistedCurrencies;\n    // raffleID => RaffleData\n    mapping(uint256 => RaffleData) public raffles;\n    // raffleID => ticketId => ticketOwner\n    mapping(uint256 => mapping(uint256 => address)) public raffleTickets;\n    // ChainlinkRequest => raffleID\n    mapping(bytes32 => uint256) private chainlinkRequestToRaffleID;\n\n    // Number of raffles created so far\n    uint256 public raffleCounter;\n\n    // Chainlink related state variables\n    bytes32 public immutable linkKeyHash;\n    uint256 public immutable linkFee;\n\n    IWETH constant WETH = IWETH(0xC02aaA39b223FE8D0A0e5C4F27eAD9083C756Cc2);\n    uint256 constant REFUND_COLLATERAL_FEE = 0.1 ether;\n\n    // 2% Fee\n    uint256 public FEE_NUMERATOR = 200;\n    uint256 public FEE_DENOMINATOR = 10000;\n    /**\n        Token address => Amount that owners of the contract can claim as fee rewards\n        address(0) = Ether\n     */\n    mapping(address => uint256) public totalAmountClaimable;\n\n    event NewERC721RaffleCreated(uint256 raffleId, address nftCollection, uint256 nftId);\n    event NewERC20RaffleCreated(uint256 raffleId, address tokenAddress, uint256 amount);\n    event ERC721RaffleCancelled(uint256 raffleId, address raffleOwner, address nftContract, uint256 nftId);\n    event ERC20RaffleCancelled(uint256 raffleId, address raffleOwner, address assetContract, uint256 amount);\n    event ERC20CurrencyAdded(address currency);\n    event ERC20CurrencyRemoved(address currency);\n    event RaffleStateChanged(uint256 raffleId, RaffleState oldRaffleState, RaffleState newRaffleState);\n    event ChainlinkRequest(bytes32 requestId);\n\n    constructor(bytes32 _linkKeyHash, uint256 _linkFee, address _vrfCoordinator, address _vrfLinkTokenAddress) VRFConsumerBase(_vrfCoordinator, _vrfLinkTokenAddress) {\n        linkKeyHash = _linkKeyHash;\n        linkFee = _linkFee;\n        // Ether is always whitelisted, Ether/Native asset = address(0)\n        whitelistedCurrencies[address(0)] = true;\n    }\n\n    /**\n     * @notice  Allows users to create a raffle of an ERC721 asset\n     * @param   _nftCollection Address of the NFT to raffle\n     * @param   _nftId NFTid of the _nftCollection\n     * @param   _currency Tickets will be bought with this ERC20 token. address(0) should be put here if the currency will be Ether\n     * @param   _pricePerTicket Price per ticket. It can be zero in case of an \"airdrop\"\n     * @param   _numberOfTickets Number of tickets that will be sold as maximum in the raffle\n     * @param   _minimumTicketsSold Number of tickets that should be sold in order to be a success raffle. If this minimum amount is not\n        reached the owner of the raffle will be able to cancel the raffle, returning the users their payment plus a little collateral to cover\n        for the gas fees. If this amount is reached, normal flow will be followed.\n     * @param   _durationInSeconds Duration in seconds of the raffle\n     * @param   _merkleRoot Used so only whitelisted users can buy raffle tickets\n     */\n    function createERC721Raffle(address _nftCollection, uint256 _nftId, address _currency, uint256 _pricePerTicket, uint128 _numberOfTickets, uint128 _minimumTicketsSold, uint128 _durationInSeconds, bytes32 _merkleRoot) external payable whenNotPaused {\n        require(msg.sender == IERC721(_nftCollection).ownerOf(_nftId), \"You do not own this NFT\");\n        require(whitelistedCurrencies[_currency], \"This currency is not whitelisted\");\n        require(_numberOfTickets > 1, \"Raffles must have at least 2 tickets\");\n        require(_durationInSeconds >= 3600, \"Minimum duration is 1 hour\");\n\n        // _minimumTicketsSold * REFUND_COLLATERAL_FEE => Ether that will be paid to users in case the Raffle is cancelled\n        require(msg.value == (_minimumTicketsSold * REFUND_COLLATERAL_FEE), \"Incorrect collateral sent\");\n\n        // Transfering the NFT into our contract\n        IERC721(_nftCollection).transferFrom(msg.sender, address(this), _nftId);\n\n        RaffleData storage raffleData = raffles[raffleCounter++];\n        raffleData.assetContract = _nftCollection;\n        raffleData.raffleOwner = msg.sender;\n        raffleData.raffleState = RaffleState.IN_PROGRESS;\n        raffleData.raffleType = RaffleType.ERC721;\n        raffleData.nftIdOrAmount = _nftId;\n        raffleData.currency = _currency;\n        raffleData.pricePerTicket = _pricePerTicket;\n        raffleData.MerkleRoot = _merkleRoot;\n        raffleData.endTimestamp = uint128(block.timestamp) + _durationInSeconds;\n        raffleData.numberOfTickets = _numberOfTickets;\n        raffleData.minimumTicketsSold = _minimumTicketsSold;\n\n        emit NewERC721RaffleCreated(raffleCounter, _nftCollection, _nftId);\n    }\n\n    /**\n        * @notice  Allows users to create a raffle of an ERC20 asset\n        * @param   _tokenAddress Address of the token amount to raffle\n        * @param   _amount Quantity of tokens to be raffled\n        * @param   _currency Tickets will be bought with this ERC20 token. address(0) should be put here if the currency will be Ether\n        * @param   _pricePerTicket Price per ticket. It can be zero in case of an \"airdrop\"\n        * @param   _numberOfTickets Number of tickets that will be sold as maximum in the raffle\n        * @param   _minimumTicketsSold Number of tickets that should be sold in order to be a success raffle. If this minimum amount is not\n        reached the owner of the raffle will be able to cancel the raffle, returning the users their payment plus a little collateral to cover\n        for the gas fees. If this amount is reached, normal flow will be followed\n        * @param   _durationInSeconds Duration in seconds of the raffle\n        * @param   _merkleRoot Used so only whitelisted users can buy raffle tickets\n    */\n    function createERC20Raffle(address _tokenAddress, uint256 _amount, address _currency, uint256 _pricePerTicket, uint128 _numberOfTickets, uint128 _minimumTicketsSold, uint128 _durationInSeconds, bytes32 _merkleRoot) external payable whenNotPaused {\n        require(whitelistedCurrencies[_tokenAddress], \"You cannot raffle this type of tokens yet\");\n        require(whitelistedCurrencies[_currency], \"This currency is not whitelisted\");\n        require(_numberOfTickets > 1, \"Raffles must have at least 2 tickets\");\n        require(_durationInSeconds >= 3600, \"Minimum duration is one hour\");\n    \n        if (_tokenAddress == address(0)) {\n            require(msg.value == _amount + (_minimumTicketsSold * REFUND_COLLATERAL_FEE), \"The Ether sent is not correct\");\n        } else {\n            // _minimumTicketsSold * REFUND_COLLATERAL_FEE => Ether that will be paid to users in case the Raffle is cancelled\n            require(msg.value == (_minimumTicketsSold * REFUND_COLLATERAL_FEE), \"Incorrect collateral sent\");\n            // Transfer tokens to the contract\n            IERC20(_tokenAddress).safeTransferFrom(msg.sender, address(this), _amount);\n        }\n\n        RaffleData storage raffleData = raffles[raffleCounter++];\n        raffleData.assetContract = _tokenAddress;\n        raffleData.raffleOwner = msg.sender;\n        raffleData.raffleState = RaffleState.IN_PROGRESS;\n        raffleData.raffleType = RaffleType.ERC20;\n        raffleData.nftIdOrAmount = _amount;\n        raffleData.currency = _currency;\n        raffleData.pricePerTicket = _pricePerTicket;\n        raffleData.MerkleRoot = _merkleRoot;\n        raffleData.endTimestamp = uint128(block.timestamp) + _durationInSeconds;\n        raffleData.numberOfTickets = _numberOfTickets; \n        raffleData.minimumTicketsSold = _minimumTicketsSold;\n\n        emit NewERC20RaffleCreated(raffleCounter, _tokenAddress, _amount);\n    }\n\n    /**\n        * @notice  Allows users to cancel a raffle if NO tickets were sold yet\n        * @param   _raffleId The ID of the raffle\n    */\n    function cancelRaffle(uint256 _raffleId) external nonReentrant whenNotPaused{\n        require(_raffleId <= raffleCounter, \"Raffle does not exist\");\n        RaffleData memory raffleData = raffles[_raffleId];\n        require(msg.sender == raffleData.raffleOwner, \"You cannot cancel someone else's raffle\");\n        require(raffleData.raffleState == RaffleState.IN_PROGRESS, \"This raffle has already ended\");\n        require(raffleData.ticketsSold < 1, \"Tickets have already been bought\");\n\n        // Delete the object from storage\n        delete raffles[_raffleId];\n        // Set is as CLAIMED\n        raffles[_raffleId].raffleState = RaffleState.REFUNDED;\n        emit RaffleStateChanged(_raffleId, RaffleState.IN_PROGRESS, RaffleState.REFUNDED);\n\n        // Check which type of asset \n        if (raffleData.raffleType == RaffleType.ERC721) {\n            IERC721(raffleData.assetContract).transferFrom(address(this), raffleData.raffleOwner, raffleData.nftIdOrAmount);\n            emit ERC721RaffleCancelled(_raffleId, raffleData.raffleOwner, raffleData.assetContract, raffleData.nftIdOrAmount);\n        } \n        if (raffleData.raffleType == RaffleType.ERC20) {\n            uint256 amountToRefund = raffleData.nftIdOrAmount;\n            if (raffleData.assetContract == address(0)) { // This means we are dealing with a raffle of native Ether\n                _handleEtherTransfer(msg.sender, amountToRefund);\n            } \n            else {\n                IERC20(raffleData.assetContract).safeTransferFrom(address(this), raffleData.raffleOwner, amountToRefund);\n            }\n            emit ERC20RaffleCancelled(_raffleId, raffleData.raffleOwner, raffleData.assetContract, amountToRefund);\n        }\n\n        /**\n            Giving the Raffle owner back only the 90% of the initial REFUND_COLLATERAL_FEE\n            10% is taken as a fee\n        */ \n        uint256 totalCollateral = REFUND_COLLATERAL_FEE * raffleData.minimumTicketsSold;\n        uint256 collateralRefunded =  totalCollateral * 9000 / 10000;\n        totalAmountClaimable[address(0)] += totalCollateral - collateralRefunded;\n        _handleEtherTransfer(msg.sender, collateralRefunded);\n    }\n\n    /**\n     * @notice  Allows users to buy tickets for a Raffle\n     * @param   _raffleId The ID of the raffle the user wants to buy a ticket for\n     * @param   _numberOfTickets The number of tickets an user wants to buy \n     */\n    function buyRaffleTicket(uint256 _raffleId, uint128 _numberOfTickets) external payable whenNotPaused {\n        RaffleData memory raffleData = raffles[_raffleId];\n        require(raffleData.raffleOwner != address(0), \"This raffle does not exist\");\n        require(raffleData.MerkleRoot == bytes32(0), \"Whitelisted raffle. Use buyWhitelistedRaffleTicket() instead\");\n        require(block.timestamp < raffleData.endTimestamp, \"This raffle has already ended\");\n        require(raffleData.raffleState == RaffleState.IN_PROGRESS, \"This raffle has already ended\");\n        require(raffleData.ticketsSold < raffleData.numberOfTickets, \"Tickets sold out\");\n        require(_numberOfTickets <= (raffleData.numberOfTickets - raffleData.ticketsSold), \"There are not so many tickets available to buy\");\n        // Handle the payment\n        if (raffleData.currency == address(0)){\n            require (msg.value >= (_numberOfTickets * raffleData.pricePerTicket), \"Not enough Ether sent as payment\");\n        }\n        else {\n            IERC20(raffleData.currency).safeTransferFrom(msg.sender, address(this), _numberOfTickets * raffleData.pricePerTicket);\n        }\n        // Assign the tickets to the buyer\n        for (uint256 i; i < _numberOfTickets; ++i){\n            raffleTickets[_raffleId][raffleData.ticketsSold + i] = msg.sender;\n        }\n        raffles[_raffleId].ticketsSold += _numberOfTickets;  \n    }\n\n    /**\n     * @notice  Allows users to buy tickets for a whitelisted Raffle\n     * @param   _raffleId The ID of the raffle the user wants to buy a ticket for\n     * @param   _numberOfTickets The number of tickets an user wants to buy \n     * @param   _merkleProof MerkleProof used to verify user is aprt of the whitelist \n     */\n    function buyWhitelistedRaffleTicket(uint256 _raffleId, uint128 _numberOfTickets, bytes32[] calldata _merkleProof) external payable whenNotPaused {\n        RaffleData memory raffleData = raffles[_raffleId];\n        require(raffleData.raffleOwner != address(0), \"This raffle does not exist\");\n        require(raffleData.MerkleRoot != bytes32(0), \"Non-whitelisted raffle. Use buyRaffleTicket() instead\");\n        require(block.timestamp < raffleData.endTimestamp, \"This raffle has already ended\");\n        require(raffleData.raffleState == RaffleState.IN_PROGRESS, \"This raffle has already ended\");\n        require(raffleData.ticketsSold < raffleData.numberOfTickets, \"Tickets sold out\");\n        require(_numberOfTickets <= (raffleData.numberOfTickets - raffleData.ticketsSold), \"There are not so many tickets available to buy\");\n        bytes32 leaf = keccak256(abi.encodePacked(msg.sender));\n        require(MerkleProof.verify(_merkleProof, raffleData.MerkleRoot, leaf), \"User not whitelisted\");\n        // Handle the payment\n        if (raffleData.currency == address(0)){\n            require (msg.value >= (_numberOfTickets * raffleData.pricePerTicket), \"Not enough Ether sent as payment\");\n        }\n        else {\n            IERC20(raffleData.currency).safeTransferFrom(msg.sender, address(this), _numberOfTickets * raffleData.pricePerTicket);\n        }\n        // Assign the tickets to the buyer\n        for (uint256 i; i < _numberOfTickets; ++i){\n            raffleTickets[_raffleId][raffleData.ticketsSold + i] = msg.sender;\n        }\n        raffles[_raffleId].ticketsSold += _numberOfTickets; \n    }\n\n    /**\n     * @notice  Allows users to complete a Raffle. The winner of the raffle will receive the asset.\n                The owner of the raffle will receive his payment\n                Cron job will call daily all the pending raffles. Users can also call it\n     * @param   _raffleId The ID of the raffle the user wants to buy a ticket for\n     */\n    function completeRaffle(uint256 _raffleId) external whenNotPaused {\n        RaffleData memory raffleData = raffles[_raffleId];\n        require(raffleData.raffleOwner != address(0), \"This raffle does not exist\");\n        require(raffleData.raffleState == RaffleState.IN_PROGRESS, \"This raffle was already completed\");\n        if (raffleData.ticketsSold != raffleData.numberOfTickets){\n            require(block.timestamp >= raffleData.endTimestamp, \"Raffle is not completed\");\n        }\n        // In this case we must refund all the ticket buyers\n        if (raffleData.ticketsSold < raffleData.minimumTicketsSold){\n            // Send the asset back to the raffleOwner, no fees\n            if (raffleData.raffleType == RaffleType.ERC721){\n                IERC721(raffleData.assetContract).transferFrom(address(this), raffleData.raffleOwner, raffleData.nftIdOrAmount);\n            }\n            if (raffleData.raffleType == RaffleType.ERC20){\n                IERC20(raffleData.assetContract).safeTransferFrom(address(this), raffleData.raffleOwner, raffleData.nftIdOrAmount);\n            }\n            // Taking as a fee REFUND_COLLATERAL_FEE * number_of_tickets_left\n            totalAmountClaimable[address(0)] = (raffleData.minimumTicketsSold - raffleData.ticketsSold) * REFUND_COLLATERAL_FEE;\n            raffles[_raffleId].raffleState = RaffleState.REFUNDED;\n            emit RaffleStateChanged(_raffleId, RaffleState.IN_PROGRESS, RaffleState.REFUNDED);\n\n        }\n        // Normal flow\n        else {\n            // This will mark the raffle State as FINISHED. Can only be called once.\n            bytes32 request = _requestRandomness(_raffleId);\n            emit ChainlinkRequest(request);\n            chainlinkRequestToRaffleID[request] = _raffleId;\n        }\n    }\n\n    /**\n     * @notice  Allows users to claim the raffle. Owner of the raffle will receive the payment and the winner his asset\n     * @param   _raffleId The ID of the raffle the user wants to buy a ticket for\n     */\n    function claimRaffle(uint256 _raffleId) external nonReentrant whenNotPaused {\n        RaffleData storage raffleData = raffles[_raffleId];\n        require(raffleData.raffleOwner != address(0), \"This raffle does not exist\");\n        require(raffleData.raffleState == RaffleState.COMPLETED, \"This raffle was already completed\");\n\n        raffleData.raffleState = RaffleState.CLAIMED;\n        emit RaffleStateChanged(_raffleId, RaffleState.COMPLETED, RaffleState.CLAIMED);\n\n        address raffleOwner = raffleData.raffleOwner;\n        address winner = raffleData.raffleWinner;\n\n        // Sending the asset to the winner\n        if (raffleData.raffleType == RaffleType.ERC721){\n            IERC721(raffleData.assetContract).transferFrom(address(this), winner, raffleData.nftIdOrAmount);\n        }\n        if (raffleData.raffleType == RaffleType.ERC20){\n            // Ether won in the Raffle \n            if (raffleData.assetContract==address(0)){\n                _handleEtherTransfer(winner, raffleData.nftIdOrAmount);\n            }\n            else{\n                IERC20(raffleData.assetContract).safeTransferFrom(address(this), winner, raffleData.nftIdOrAmount);\n            }\n        }\n\n        uint256 totalAmountEarned = raffleData.ticketsSold * raffleData.pricePerTicket;\n        uint256 fee = (totalAmountEarned * FEE_NUMERATOR) / FEE_DENOMINATOR;\n        totalAmountEarned -= fee;\n        address raffleCurrency = raffleData.currency;\n        totalAmountClaimable[raffleCurrency] += fee;\n\n        // Payments to the raffle owner\n        if(raffleCurrency == address(0)){\n            // Payment in Ether\n            _handleEtherTransfer(raffleOwner, totalAmountEarned);\n        }\n        else{\n            // Payment with ERC20\n            IERC20(raffleCurrency).safeTransfer(raffleOwner, totalAmountEarned);\n        }\n        // Giving back REFUND_COLLATERAL_FEE\n        _handleEtherTransfer(raffleOwner, REFUND_COLLATERAL_FEE * raffleData.minimumTicketsSold);\n    }\n\n    /**\n     * @notice  Allows users to claim a cancelled raffle where they will receive their initially payment plus 0.1 Ether\n     * @param   _raffleId The ID of the raffle the user wants to buy a ticket for\n     * @param   ticketIds Array of ticketIds to claim\n     */\n    function claimCancelledRaffle(uint256 _raffleId, uint256[] calldata ticketIds) external nonReentrant whenNotPaused{\n        RaffleData memory raffleData = raffles[_raffleId];\n        require(raffleData.raffleState == RaffleState.REFUNDED, \"Raffle is not in REFUNDED state\");\n        uint256 len = ticketIds.length;\n        for(uint i; i < len; ++i){\n            require(raffleTickets[_raffleId][ticketIds[i]] == msg.sender, \"You do not own this ticket Id\");\n            raffleTickets[_raffleId][ticketIds[i]] = address(0);\n        }\n        uint256 totalRefund = (len * raffleData.pricePerTicket) + (len * REFUND_COLLATERAL_FEE);\n        if (raffleData.currency == address(0)){\n            _handleEtherTransfer(msg.sender, totalRefund);\n        }\n        else{\n            IERC20(raffleData.currency).safeTransfer(msg.sender, totalRefund);\n        }\n    }\n\n    /** ############################################################################################\n     *              INTERNAL/PRIVATE FUNCTIONS\n     *  ############################################################################################\n     */\n\n    function _requestRandomness(uint256 _raffleId) internal returns (bytes32 requestId) {\n        require(LINK.balanceOf(address(this)) >= linkFee, \"Not enough LINK\");\n        RaffleData storage raffleData = raffles[_raffleId];\n        raffleData.raffleState = RaffleState.FINISHED;\n        emit RaffleStateChanged(_raffleId, RaffleState.IN_PROGRESS, RaffleState.FINISHED);\n        requestId = requestRandomness(linkKeyHash, linkFee);\n    }\n\n    function fulfillRandomness(bytes32 requestId, uint256 randomness) internal override {\n        uint256 raffleId = chainlinkRequestToRaffleID[requestId];\n        RaffleData storage raffleData = raffles[raffleId];\n        raffleData.raffleState = RaffleState.COMPLETED;\n        emit RaffleStateChanged(raffleId, RaffleState.FINISHED, RaffleState.COMPLETED);\n        // Picking up the winner\n        uint256 winningIndex = randomness % raffleData.ticketsSold;\n        raffleData.raffleWinner = raffleTickets[raffleId][winningIndex];\n    }\n\n    //TODO: REMOVE AFTER TESTING\n    function fulfillRandomnessTest(bytes32 requestId, uint256 randomness) external {\n        fulfillRandomness(requestId, randomness);\n    }\n\n    /**\n     *  Function to handle Ether transfers\n     */\n    function _handleEtherTransfer(address _dest, uint256 _amount) internal {\n        // Handle ETH payment\n        require(address(this).balance >= _amount, \"_handleEtherTransfer insolvent\");\n        uint256 gas =  gasleft();\n        (bool success, ) = _dest.call{value: _amount, gas: gas}(\"\");\n        // If the ETH transfer fails (sigh), wrap the ETH and try send it as WETH.\n        if (!success) {\n            WETH.deposit{value: _amount}();\n            IERC20(address(WETH)).safeTransfer(_dest, _amount);\n        }\n    }\n\n    /** ############################################################################################\n     *              ONLYOWNER FUNCTIONS\n     *  ############################################################################################\n     */\n\n    /**\n     * @notice  Used to pause/unpause the smart contract by the owner\n     */\n    function togglePause() external onlyOwner {\n        if (!paused()) _pause();\n        else _unpause();\n    }\n\n    /**\n     * @notice  Used to whitelist a new ERC20 token to be used as a payment currency\n     */\n    function whitelistCurrency(address _ERC20TokenAddress) external onlyOwner {\n        require(!whitelistedCurrencies[_ERC20TokenAddress], \"Token is already whitelisted\");\n        whitelistedCurrencies[_ERC20TokenAddress] = true;\n        emit ERC20CurrencyAdded(_ERC20TokenAddress);\n    }\n\n    /**\n     * @notice  Used to blacklist a ERC20 token so it can not be used any longer as a payment currency\n     */\n    function blacklistCurrency(address _ERC20TokenAddress) external onlyOwner {\n        require(whitelistedCurrencies[_ERC20TokenAddress], \"Token is not whitelisted\");\n        whitelistedCurrencies[_ERC20TokenAddress] = false;\n        emit ERC20CurrencyRemoved(_ERC20TokenAddress);\n    }\n\n    /**\n     * @notice  Used by the contract owners to claim the fees accrued\n     * @param   _tokenAddress List of tokens to withdraw the fees\n     * @param   _amounts List of amounts that will be withdrawn\n     * @param   _receiver Address that will receive the fees\n     */\n    function withdrawFees(address[] calldata _tokenAddress, uint256[] calldata _amounts, address _receiver) external onlyOwner {\n        uint256 len = _tokenAddress.length;\n        require(len == _amounts.length, \"Array lengths do not match\");\n        uint256 amount;\n        address tokenAddress;\n        for (uint256 i; i < len; ++i) {\n            tokenAddress = _tokenAddress[i];\n            amount = _amounts[i];\n            require(amount <= totalAmountClaimable[tokenAddress], \"Amount too high\");\n            if(tokenAddress == address(0)){\n                _handleEtherTransfer(_receiver, amount);\n            }\n            else{\n                IERC20(tokenAddress).safeTransfer(_receiver, amount);\n            }\n            // No overflow here as => require(amount <= totalAmountClaimable[tokenAddress])\n            unchecked {\n                totalAmountClaimable[tokenAddress] -= amount;\n            }\n        }\n    }\n\n    /** ############################################################################################\n     *                 VIEW FUNCTIONS\n     *  ############################################################################################\n     */\n\n    // For frontend \n    function getRaffleDetails(uint256 _raffleId) external view returns(RaffleData memory) {\n        require(_raffleId <= raffleCounter, \"The raffle ID does not exist\");\n        return(raffles[_raffleId]);\n    }\n\n    function getRaffleState(uint256 _raffleId) external view returns(RaffleState) {\n        require(_raffleId <= raffleCounter, \"The raffle ID does not exist\");\n        return(raffles[_raffleId].raffleState);\n    }\n \n    function getRaffleTicketOwner(uint256 _raffleId, uint256 _ticketId) external view returns(address) {\n        address ticketOwner = raffleTickets[_raffleId][_ticketId];\n        require(ticketOwner != address(0), \"Ticket does not exist\");\n        return ticketOwner;\n    }\n\n    function isCurrencyWhitelisted(address _erc20Token) external view returns(bool) {\n        return whitelistedCurrencies[_erc20Token];\n    }\n\n    // Get all active raffles for the frontend\n    // TODO: Block Gas Limit? This should be remade\n    function getActiveRaffles() external view returns(RaffleData[] memory) {\n        RaffleData[] memory activeRaffles;\n        uint256 counter=0;\n        for (uint256 i; i < raffleCounter; ++i) {\n            if (raffles[i].raffleState == RaffleState.IN_PROGRESS) {\n                activeRaffles[counter] = raffles[i];\n                ++counter;\n            }\n        }\n        return activeRaffles;\n    }\n}\n",
  "sourcePath": "contracts/Raffle.sol",
  "type": "contract"
}