{
  "abi": [
    {
      "inputs": [
        {
          "internalType": "address",
          "name": "_relayer",
          "type": "address"
        },
        {
          "internalType": "bytes32",
          "name": "_linkKeyHash",
          "type": "bytes32"
        },
        {
          "internalType": "uint256",
          "name": "_linkFee",
          "type": "uint256"
        },
        {
          "internalType": "address",
          "name": "_vrfCoordinator",
          "type": "address"
        },
        {
          "internalType": "address",
          "name": "_vrfLinkTokenAddress",
          "type": "address"
        }
      ],
      "stateMutability": "nonpayable",
      "type": "constructor"
    },
    {
      "anonymous": false,
      "inputs": [
        {
          "indexed": false,
          "internalType": "bytes32",
          "name": "requestId",
          "type": "bytes32"
        }
      ],
      "name": "ChainlinkRequest",
      "type": "event"
    },
    {
      "anonymous": false,
      "inputs": [
        {
          "indexed": false,
          "internalType": "address",
          "name": "currency",
          "type": "address"
        }
      ],
      "name": "ERC20CurrencyAdded",
      "type": "event"
    },
    {
      "anonymous": false,
      "inputs": [
        {
          "indexed": false,
          "internalType": "address",
          "name": "currency",
          "type": "address"
        }
      ],
      "name": "ERC20CurrencyRemoved",
      "type": "event"
    },
    {
      "anonymous": false,
      "inputs": [
        {
          "indexed": false,
          "internalType": "address",
          "name": "receiver",
          "type": "address"
        },
        {
          "indexed": false,
          "internalType": "address",
          "name": "assetContract",
          "type": "address"
        },
        {
          "indexed": false,
          "internalType": "bool",
          "name": "isERC721",
          "type": "bool"
        },
        {
          "indexed": false,
          "internalType": "uint256",
          "name": "amountOrNftIdToReceiver",
          "type": "uint256"
        },
        {
          "indexed": false,
          "internalType": "uint256",
          "name": "increaseTotalAmountClaimable",
          "type": "uint256"
        }
      ],
      "name": "MainnetCall",
      "type": "event"
    },
    {
      "anonymous": false,
      "inputs": [
        {
          "indexed": false,
          "internalType": "uint256",
          "name": "raffleId",
          "type": "uint256"
        }
      ],
      "name": "NewRaffleCreated",
      "type": "event"
    },
    {
      "anonymous": false,
      "inputs": [
        {
          "indexed": false,
          "internalType": "uint256",
          "name": "raffleId",
          "type": "uint256"
        },
        {
          "indexed": false,
          "internalType": "address",
          "name": "buyer",
          "type": "address"
        },
        {
          "indexed": false,
          "internalType": "uint64",
          "name": "numberOfTickets",
          "type": "uint64"
        },
        {
          "indexed": false,
          "internalType": "uint256",
          "name": "initTicketId",
          "type": "uint256"
        },
        {
          "indexed": false,
          "internalType": "uint256",
          "name": "endTicketId",
          "type": "uint256"
        }
      ],
      "name": "NewRaffleTicketBought",
      "type": "event"
    },
    {
      "anonymous": false,
      "inputs": [
        {
          "indexed": true,
          "internalType": "address",
          "name": "previousOwner",
          "type": "address"
        },
        {
          "indexed": true,
          "internalType": "address",
          "name": "newOwner",
          "type": "address"
        }
      ],
      "name": "OwnershipTransferred",
      "type": "event"
    },
    {
      "anonymous": false,
      "inputs": [
        {
          "indexed": false,
          "internalType": "address",
          "name": "account",
          "type": "address"
        }
      ],
      "name": "Paused",
      "type": "event"
    },
    {
      "anonymous": false,
      "inputs": [
        {
          "indexed": false,
          "internalType": "uint256",
          "name": "raffleId",
          "type": "uint256"
        }
      ],
      "name": "RaffleCancelled",
      "type": "event"
    },
    {
      "anonymous": false,
      "inputs": [
        {
          "indexed": false,
          "internalType": "uint256",
          "name": "raffleId",
          "type": "uint256"
        },
        {
          "indexed": false,
          "internalType": "enum RafflePolygon.RaffleState",
          "name": "oldRaffleState",
          "type": "uint8"
        },
        {
          "indexed": false,
          "internalType": "enum RafflePolygon.RaffleState",
          "name": "newRaffleState",
          "type": "uint8"
        }
      ],
      "name": "RaffleStateChanged",
      "type": "event"
    },
    {
      "anonymous": false,
      "inputs": [
        {
          "indexed": false,
          "internalType": "address",
          "name": "buyer",
          "type": "address"
        },
        {
          "indexed": false,
          "internalType": "address",
          "name": "seller",
          "type": "address"
        },
        {
          "indexed": false,
          "internalType": "uint256",
          "name": "raffleId",
          "type": "uint256"
        },
        {
          "indexed": false,
          "internalType": "uint256",
          "name": "ticketId",
          "type": "uint256"
        },
        {
          "indexed": false,
          "internalType": "address",
          "name": "currency",
          "type": "address"
        },
        {
          "indexed": false,
          "internalType": "uint128",
          "name": "price",
          "type": "uint128"
        }
      ],
      "name": "TicketBoughtFromMarket",
      "type": "event"
    },
    {
      "anonymous": false,
      "inputs": [
        {
          "indexed": false,
          "internalType": "address",
          "name": "buyer",
          "type": "address"
        },
        {
          "indexed": false,
          "internalType": "address",
          "name": "seller",
          "type": "address"
        },
        {
          "indexed": false,
          "internalType": "uint256",
          "name": "raffleId",
          "type": "uint256"
        },
        {
          "indexed": false,
          "internalType": "uint256",
          "name": "ticketId",
          "type": "uint256"
        },
        {
          "indexed": false,
          "internalType": "address",
          "name": "currency",
          "type": "address"
        },
        {
          "indexed": false,
          "internalType": "uint128",
          "name": "price",
          "type": "uint128"
        }
      ],
      "name": "TicketBoughtFromMarketWithSignature",
      "type": "event"
    },
    {
      "anonymous": false,
      "inputs": [
        {
          "indexed": false,
          "internalType": "address",
          "name": "seller",
          "type": "address"
        },
        {
          "indexed": false,
          "internalType": "uint256",
          "name": "raffleId",
          "type": "uint256"
        },
        {
          "indexed": false,
          "internalType": "uint256",
          "name": "ticketId",
          "type": "uint256"
        },
        {
          "indexed": false,
          "internalType": "address",
          "name": "currency",
          "type": "address"
        },
        {
          "indexed": false,
          "internalType": "uint128",
          "name": "price",
          "type": "uint128"
        }
      ],
      "name": "TicketSellOrderCancelled",
      "type": "event"
    },
    {
      "anonymous": false,
      "inputs": [
        {
          "indexed": false,
          "internalType": "address",
          "name": "seller",
          "type": "address"
        },
        {
          "indexed": false,
          "internalType": "uint256",
          "name": "raffleId",
          "type": "uint256"
        },
        {
          "indexed": false,
          "internalType": "uint256",
          "name": "ticketId",
          "type": "uint256"
        },
        {
          "indexed": false,
          "internalType": "address",
          "name": "currency",
          "type": "address"
        },
        {
          "indexed": false,
          "internalType": "uint128",
          "name": "price",
          "type": "uint128"
        }
      ],
      "name": "TicketSellOrderCreated",
      "type": "event"
    },
    {
      "anonymous": false,
      "inputs": [
        {
          "indexed": false,
          "internalType": "address",
          "name": "account",
          "type": "address"
        }
      ],
      "name": "Unpaused",
      "type": "event"
    },
    {
      "inputs": [],
      "name": "FAIR_RAFFLE_FEE_DENOMINATOR",
      "outputs": [
        {
          "internalType": "uint256",
          "name": "",
          "type": "uint256"
        }
      ],
      "stateMutability": "view",
      "type": "function"
    },
    {
      "inputs": [],
      "name": "FAIR_RAFFLE_FEE_NUMERATOR",
      "outputs": [
        {
          "internalType": "uint256",
          "name": "",
          "type": "uint256"
        }
      ],
      "stateMutability": "view",
      "type": "function"
    },
    {
      "inputs": [],
      "name": "FEE_DENOMINATOR",
      "outputs": [
        {
          "internalType": "uint256",
          "name": "",
          "type": "uint256"
        }
      ],
      "stateMutability": "view",
      "type": "function"
    },
    {
      "inputs": [],
      "name": "FEE_NUMERATOR",
      "outputs": [
        {
          "internalType": "uint256",
          "name": "",
          "type": "uint256"
        }
      ],
      "stateMutability": "view",
      "type": "function"
    },
    {
      "inputs": [
        {
          "internalType": "uint256",
          "name": "_raffleId",
          "type": "uint256"
        },
        {
          "internalType": "uint64",
          "name": "_numberOfTickets",
          "type": "uint64"
        },
        {
          "internalType": "bytes32[]",
          "name": "_merkleProof",
          "type": "bytes32[]"
        }
      ],
      "name": "buyRaffleTicket",
      "outputs": [],
      "stateMutability": "nonpayable",
      "type": "function"
    },
    {
      "inputs": [
        {
          "internalType": "uint256",
          "name": "_raffleId",
          "type": "uint256"
        },
        {
          "internalType": "uint256",
          "name": "_ticketId",
          "type": "uint256"
        },
        {
          "internalType": "address",
          "name": "_currency",
          "type": "address"
        },
        {
          "internalType": "uint128",
          "name": "_price",
          "type": "uint128"
        },
        {
          "internalType": "address",
          "name": "_buyer",
          "type": "address"
        },
        {
          "internalType": "bytes32",
          "name": "_r",
          "type": "bytes32"
        },
        {
          "internalType": "bytes32",
          "name": "_s",
          "type": "bytes32"
        },
        {
          "internalType": "uint8",
          "name": "_v",
          "type": "uint8"
        }
      ],
      "name": "buyTicketWithSignature",
      "outputs": [],
      "stateMutability": "payable",
      "type": "function"
    },
    {
      "inputs": [
        {
          "internalType": "uint256",
          "name": "_raffleId",
          "type": "uint256"
        }
      ],
      "name": "cancelRaffle",
      "outputs": [],
      "stateMutability": "nonpayable",
      "type": "function"
    },
    {
      "inputs": [
        {
          "internalType": "uint256",
          "name": "_raffleId",
          "type": "uint256"
        },
        {
          "internalType": "uint256",
          "name": "_ticketId",
          "type": "uint256"
        }
      ],
      "name": "cancelSellOrder",
      "outputs": [],
      "stateMutability": "nonpayable",
      "type": "function"
    },
    {
      "inputs": [
        {
          "internalType": "uint256",
          "name": "_raffleId",
          "type": "uint256"
        },
        {
          "internalType": "uint256[]",
          "name": "ticketIds",
          "type": "uint256[]"
        }
      ],
      "name": "claimCancelledRaffle",
      "outputs": [],
      "stateMutability": "nonpayable",
      "type": "function"
    },
    {
      "inputs": [
        {
          "internalType": "uint256",
          "name": "_raffleId",
          "type": "uint256"
        }
      ],
      "name": "claimRaffle",
      "outputs": [],
      "stateMutability": "nonpayable",
      "type": "function"
    },
    {
      "inputs": [
        {
          "internalType": "uint256",
          "name": "_raffleId",
          "type": "uint256"
        }
      ],
      "name": "completeRaffle",
      "outputs": [],
      "stateMutability": "nonpayable",
      "type": "function"
    },
    {
      "inputs": [
        {
          "components": [
            {
              "internalType": "address",
              "name": "assetContract",
              "type": "address"
            },
            {
              "internalType": "address",
              "name": "raffleOwner",
              "type": "address"
            },
            {
              "internalType": "address",
              "name": "raffleWinner",
              "type": "address"
            },
            {
              "internalType": "enum RafflePolygon.RaffleState",
              "name": "raffleState",
              "type": "uint8"
            },
            {
              "internalType": "enum RafflePolygon.RaffleType",
              "name": "raffleType",
              "type": "uint8"
            },
            {
              "internalType": "address",
              "name": "currency",
              "type": "address"
            },
            {
              "internalType": "bytes32",
              "name": "MerkleRoot",
              "type": "bytes32"
            },
            {
              "internalType": "uint128",
              "name": "nftIdOrAmount",
              "type": "uint128"
            },
            {
              "internalType": "uint128",
              "name": "pricePerTicket",
              "type": "uint128"
            },
            {
              "internalType": "uint64",
              "name": "endTimestamp",
              "type": "uint64"
            },
            {
              "internalType": "uint64",
              "name": "numberOfTickets",
              "type": "uint64"
            },
            {
              "internalType": "uint64",
              "name": "ticketsSold",
              "type": "uint64"
            },
            {
              "internalType": "uint64",
              "name": "minimumTicketsSold",
              "type": "uint64"
            }
          ],
          "internalType": "struct RafflePolygon.RaffleData",
          "name": "_raffleData",
          "type": "tuple"
        },
        {
          "internalType": "uint256",
          "name": "_fairRaffleFee",
          "type": "uint256"
        }
      ],
      "name": "createRaffle",
      "outputs": [],
      "stateMutability": "nonpayable",
      "type": "function"
    },
    {
      "inputs": [
        {
          "internalType": "bytes32",
          "name": "requestId",
          "type": "bytes32"
        },
        {
          "internalType": "uint256",
          "name": "randomness",
          "type": "uint256"
        }
      ],
      "name": "fulfillRandomnessTest",
      "outputs": [],
      "stateMutability": "nonpayable",
      "type": "function"
    },
    {
      "inputs": [
        {
          "internalType": "uint256",
          "name": "_raffleId",
          "type": "uint256"
        }
      ],
      "name": "getRaffleDetails",
      "outputs": [
        {
          "components": [
            {
              "internalType": "address",
              "name": "assetContract",
              "type": "address"
            },
            {
              "internalType": "address",
              "name": "raffleOwner",
              "type": "address"
            },
            {
              "internalType": "address",
              "name": "raffleWinner",
              "type": "address"
            },
            {
              "internalType": "enum RafflePolygon.RaffleState",
              "name": "raffleState",
              "type": "uint8"
            },
            {
              "internalType": "enum RafflePolygon.RaffleType",
              "name": "raffleType",
              "type": "uint8"
            },
            {
              "internalType": "address",
              "name": "currency",
              "type": "address"
            },
            {
              "internalType": "bytes32",
              "name": "MerkleRoot",
              "type": "bytes32"
            },
            {
              "internalType": "uint128",
              "name": "nftIdOrAmount",
              "type": "uint128"
            },
            {
              "internalType": "uint128",
              "name": "pricePerTicket",
              "type": "uint128"
            },
            {
              "internalType": "uint64",
              "name": "endTimestamp",
              "type": "uint64"
            },
            {
              "internalType": "uint64",
              "name": "numberOfTickets",
              "type": "uint64"
            },
            {
              "internalType": "uint64",
              "name": "ticketsSold",
              "type": "uint64"
            },
            {
              "internalType": "uint64",
              "name": "minimumTicketsSold",
              "type": "uint64"
            }
          ],
          "internalType": "struct RafflePolygon.RaffleData",
          "name": "",
          "type": "tuple"
        }
      ],
      "stateMutability": "view",
      "type": "function"
    },
    {
      "inputs": [
        {
          "internalType": "uint256",
          "name": "_raffleId",
          "type": "uint256"
        }
      ],
      "name": "getRaffleState",
      "outputs": [
        {
          "internalType": "enum RafflePolygon.RaffleState",
          "name": "",
          "type": "uint8"
        }
      ],
      "stateMutability": "view",
      "type": "function"
    },
    {
      "inputs": [
        {
          "internalType": "uint256",
          "name": "_raffleId",
          "type": "uint256"
        },
        {
          "internalType": "uint256",
          "name": "_ticketId",
          "type": "uint256"
        }
      ],
      "name": "getRaffleTicketOwner",
      "outputs": [
        {
          "internalType": "address",
          "name": "",
          "type": "address"
        }
      ],
      "stateMutability": "view",
      "type": "function"
    },
    {
      "inputs": [
        {
          "internalType": "address",
          "name": "_erc20Token",
          "type": "address"
        }
      ],
      "name": "isCurrencyWhitelisted",
      "outputs": [
        {
          "internalType": "bool",
          "name": "",
          "type": "bool"
        }
      ],
      "stateMutability": "view",
      "type": "function"
    },
    {
      "inputs": [],
      "name": "linkFee",
      "outputs": [
        {
          "internalType": "uint256",
          "name": "",
          "type": "uint256"
        }
      ],
      "stateMutability": "view",
      "type": "function"
    },
    {
      "inputs": [],
      "name": "linkKeyHash",
      "outputs": [
        {
          "internalType": "bytes32",
          "name": "",
          "type": "bytes32"
        }
      ],
      "stateMutability": "view",
      "type": "function"
    },
    {
      "inputs": [],
      "name": "name",
      "outputs": [
        {
          "internalType": "string",
          "name": "",
          "type": "string"
        }
      ],
      "stateMutability": "view",
      "type": "function"
    },
    {
      "inputs": [
        {
          "internalType": "address",
          "name": "",
          "type": "address"
        }
      ],
      "name": "nonce",
      "outputs": [
        {
          "internalType": "uint256",
          "name": "",
          "type": "uint256"
        }
      ],
      "stateMutability": "view",
      "type": "function"
    },
    {
      "inputs": [],
      "name": "owner",
      "outputs": [
        {
          "internalType": "address",
          "name": "",
          "type": "address"
        }
      ],
      "stateMutability": "view",
      "type": "function"
    },
    {
      "inputs": [],
      "name": "paused",
      "outputs": [
        {
          "internalType": "bool",
          "name": "",
          "type": "bool"
        }
      ],
      "stateMutability": "view",
      "type": "function"
    },
    {
      "inputs": [
        {
          "internalType": "uint256",
          "name": "_raffleId",
          "type": "uint256"
        },
        {
          "internalType": "uint256",
          "name": "_ticketId",
          "type": "uint256"
        },
        {
          "internalType": "address",
          "name": "_buyer",
          "type": "address"
        },
        {
          "internalType": "uint256",
          "name": "_price",
          "type": "uint256"
        }
      ],
      "name": "postBuyOrder",
      "outputs": [],
      "stateMutability": "payable",
      "type": "function"
    },
    {
      "inputs": [
        {
          "internalType": "uint256",
          "name": "_raffleId",
          "type": "uint256"
        },
        {
          "internalType": "uint256",
          "name": "_ticketId",
          "type": "uint256"
        },
        {
          "internalType": "address",
          "name": "_currency",
          "type": "address"
        },
        {
          "internalType": "uint128",
          "name": "_price",
          "type": "uint128"
        }
      ],
      "name": "postSellOrder",
      "outputs": [],
      "stateMutability": "nonpayable",
      "type": "function"
    },
    {
      "inputs": [],
      "name": "raffleCounter",
      "outputs": [
        {
          "internalType": "uint256",
          "name": "",
          "type": "uint256"
        }
      ],
      "stateMutability": "view",
      "type": "function"
    },
    {
      "inputs": [
        {
          "internalType": "uint256",
          "name": "",
          "type": "uint256"
        },
        {
          "internalType": "uint256",
          "name": "",
          "type": "uint256"
        }
      ],
      "name": "raffleTickets",
      "outputs": [
        {
          "internalType": "address",
          "name": "",
          "type": "address"
        }
      ],
      "stateMutability": "view",
      "type": "function"
    },
    {
      "inputs": [
        {
          "internalType": "uint256",
          "name": "",
          "type": "uint256"
        }
      ],
      "name": "raffleToFairRaffleFee",
      "outputs": [
        {
          "internalType": "uint256",
          "name": "",
          "type": "uint256"
        }
      ],
      "stateMutability": "view",
      "type": "function"
    },
    {
      "inputs": [
        {
          "internalType": "uint256",
          "name": "",
          "type": "uint256"
        }
      ],
      "name": "raffles",
      "outputs": [
        {
          "internalType": "address",
          "name": "assetContract",
          "type": "address"
        },
        {
          "internalType": "address",
          "name": "raffleOwner",
          "type": "address"
        },
        {
          "internalType": "address",
          "name": "raffleWinner",
          "type": "address"
        },
        {
          "internalType": "enum RafflePolygon.RaffleState",
          "name": "raffleState",
          "type": "uint8"
        },
        {
          "internalType": "enum RafflePolygon.RaffleType",
          "name": "raffleType",
          "type": "uint8"
        },
        {
          "internalType": "address",
          "name": "currency",
          "type": "address"
        },
        {
          "internalType": "bytes32",
          "name": "MerkleRoot",
          "type": "bytes32"
        },
        {
          "internalType": "uint128",
          "name": "nftIdOrAmount",
          "type": "uint128"
        },
        {
          "internalType": "uint128",
          "name": "pricePerTicket",
          "type": "uint128"
        },
        {
          "internalType": "uint64",
          "name": "endTimestamp",
          "type": "uint64"
        },
        {
          "internalType": "uint64",
          "name": "numberOfTickets",
          "type": "uint64"
        },
        {
          "internalType": "uint64",
          "name": "ticketsSold",
          "type": "uint64"
        },
        {
          "internalType": "uint64",
          "name": "minimumTicketsSold",
          "type": "uint64"
        }
      ],
      "stateMutability": "view",
      "type": "function"
    },
    {
      "inputs": [
        {
          "internalType": "bytes32",
          "name": "requestId",
          "type": "bytes32"
        },
        {
          "internalType": "uint256",
          "name": "randomness",
          "type": "uint256"
        }
      ],
      "name": "rawFulfillRandomness",
      "outputs": [],
      "stateMutability": "nonpayable",
      "type": "function"
    },
    {
      "inputs": [],
      "name": "relayer",
      "outputs": [
        {
          "internalType": "address",
          "name": "",
          "type": "address"
        }
      ],
      "stateMutability": "view",
      "type": "function"
    },
    {
      "inputs": [],
      "name": "renounceOwnership",
      "outputs": [],
      "stateMutability": "nonpayable",
      "type": "function"
    },
    {
      "inputs": [
        {
          "internalType": "address",
          "name": "_newRelayer",
          "type": "address"
        }
      ],
      "name": "setRelayer",
      "outputs": [],
      "stateMutability": "nonpayable",
      "type": "function"
    },
    {
      "inputs": [
        {
          "internalType": "uint256",
          "name": "",
          "type": "uint256"
        },
        {
          "internalType": "uint256",
          "name": "",
          "type": "uint256"
        }
      ],
      "name": "ticketOrders",
      "outputs": [
        {
          "internalType": "address",
          "name": "owner",
          "type": "address"
        },
        {
          "internalType": "address",
          "name": "currency",
          "type": "address"
        },
        {
          "internalType": "uint128",
          "name": "price",
          "type": "uint128"
        }
      ],
      "stateMutability": "view",
      "type": "function"
    },
    {
      "inputs": [
        {
          "internalType": "address",
          "name": "_ERC20TokenAddress",
          "type": "address"
        }
      ],
      "name": "toggleCurrency",
      "outputs": [],
      "stateMutability": "nonpayable",
      "type": "function"
    },
    {
      "inputs": [],
      "name": "togglePause",
      "outputs": [],
      "stateMutability": "nonpayable",
      "type": "function"
    },
    {
      "inputs": [
        {
          "internalType": "address",
          "name": "",
          "type": "address"
        }
      ],
      "name": "totalAmountClaimable",
      "outputs": [
        {
          "internalType": "uint256",
          "name": "",
          "type": "uint256"
        }
      ],
      "stateMutability": "view",
      "type": "function"
    },
    {
      "inputs": [
        {
          "internalType": "address",
          "name": "newOwner",
          "type": "address"
        }
      ],
      "name": "transferOwnership",
      "outputs": [],
      "stateMutability": "nonpayable",
      "type": "function"
    },
    {
      "inputs": [],
      "name": "version",
      "outputs": [
        {
          "internalType": "string",
          "name": "",
          "type": "string"
        }
      ],
      "stateMutability": "view",
      "type": "function"
    },
    {
      "inputs": [
        {
          "internalType": "address",
          "name": "",
          "type": "address"
        }
      ],
      "name": "whitelistedCurrencies",
      "outputs": [
        {
          "internalType": "bool",
          "name": "",
          "type": "bool"
        }
      ],
      "stateMutability": "view",
      "type": "function"
    },
    {
      "inputs": [
        {
          "internalType": "address[]",
          "name": "_tokenAddress",
          "type": "address[]"
        },
        {
          "internalType": "uint256[]",
          "name": "_amounts",
          "type": "uint256[]"
        },
        {
          "internalType": "address",
          "name": "_receiver",
          "type": "address"
        }
      ],
      "name": "withdrawFees",
      "outputs": [],
      "stateMutability": "nonpayable",
      "type": "function"
    }
  ],
  "bytecode": "61010060405260fa600b55612710600c553480156200001d57600080fd5b5060405162004c1638038062004c16833981016040819052620000409162000126565b600080546001600160a01b03191633908117825560405184928492918291907f8be0079c531659141344cd1fd0a4f28419497f9722a3daafe3b4186f6b6457e0908290a3506000805460ff60a01b1916815560018080556001600160a01b0393841660a052918316608052600380546001600160a01b031916989093169790971790915560c094909452505060e05290805260046020527f17ef568e3e12ab5b9c7254a8d58478811de00f9e6eb34345acd53bf8fd09d3ec805460ff1916909117905562000184565b80516001600160a01b03811681146200012157600080fd5b919050565b600080600080600060a086880312156200013f57600080fd5b6200014a8662000109565b94506020860151935060408601519250620001686060870162000109565b9150620001786080870162000109565b90509295509295909350565b60805160a05160c05160e051614a35620001e16000396000818161025d015281816137ad01526138f601526000818161076e01526138d50152600081816127c90152613c630152600081816137d70152613c340152614a356000f3fe6080604052600436106102465760003560e01c80636548e9bc11610139578063a080dffe116100b6578063ce806e8c1161007a578063ce806e8c14610893578063d69003e4146108b3578063d73792a9146108e0578063e51dfd90146108f6578063e8ce50b114610916578063f2fde38b1461092957600080fd5b8063a080dffe146107ee578063a21afc761461081b578063b3b745a614610848578063c2f306a514610868578063c4ae31681461087e57600080fd5b80637678c27f116100fd5780637678c27f146106d057806382c7317d1461075c5780638406c079146107905780638da5cb5b146107b057806394985ddd146107ce57600080fd5b80636548e9bc1461063857806366998e50146106585780637094303b1461066e57806370ae92d21461068e578063715018a6146106bb57600080fd5b8063436cc138116101c7578063566777cc1161018b578063566777cc146104e55780635b007c50146105125780635c975abb146105255780635d4bc0ce146105445780635fba31711461061857600080fd5b8063436cc1381461040957806343b938c514610449578063457ab7dc146104825780634e4d58bb146104a257806354fd4d50146104b857600080fd5b80633077a8631161020e5780633077a8631461033a57806331f91a841461035a5780633a1ec4731461037a5780634178cdfb146103d357806341cd47bf146103f357600080fd5b8063018896111461024b57806306fdde031461029257806311577339146102d8578063273201bf146102fa5780632cf316f91461031a575b600080fd5b34801561025757600080fd5b5061027f7f000000000000000000000000000000000000000000000000000000000000000081565b6040519081526020015b60405180910390f35b34801561029e57600080fd5b506102cb6040518060400160405280600d81526020016c2930b3333632a837b63cb3b7b760991b81525081565b6040516102899190613f17565b3480156102e457600080fd5b506102f86102f3366004613f2a565b610949565b005b34801561030657600080fd5b506102f8610315366004613fb3565b610957565b34801561032657600080fd5b506102f861033536600461400c565b610eaf565b34801561034657600080fd5b506102f8610355366004614057565b6111e9565b34801561036657600080fd5b506102f8610375366004614087565b6115df565b34801561038657600080fd5b506103bb610395366004613f2a565b60076020908152600092835260408084209091529082529020546001600160a01b031681565b6040516001600160a01b039091168152602001610289565b3480156103df57600080fd5b506102f86103ee366004614057565b61177d565b3480156103ff57600080fd5b5061027f600b5481565b34801561041557600080fd5b50610439610424366004614107565b60046020526000908152604090205460ff1681565b6040519015158152602001610289565b34801561045557600080fd5b50610439610464366004614107565b6001600160a01b031660009081526004602052604090205460ff1690565b34801561048e57600080fd5b506102f861049d366004614107565b611a88565b3480156104ae57600080fd5b5061027f6101f481565b3480156104c457600080fd5b506102cb604051806040016040528060018152602001603160f81b81525081565b3480156104f157600080fd5b50610505610500366004614057565b611b7f565b604051610289919061414c565b6102f861052036600461415a565b611bf3565b34801561053157600080fd5b50600054600160a01b900460ff16610439565b34801561055057600080fd5b506105ff61055f366004614057565b600560208190526000918252604090912080546001820154600283015460038401546004850154958501546006909501546001600160a01b0394851696938516958386169560ff600160a01b8604811696600160a81b9096041694931692916001600160801b0380831692600160801b90819004909116916001600160401b0380821692600160401b8304821692908104821691600160c01b909104168d565b6040516102899d9c9b9a999897969594939291906141a7565b34801561062457600080fd5b506102f8610633366004614057565b6120be565b34801561064457600080fd5b506102f8610653366004614107565b612507565b34801561066457600080fd5b5061027f61271081565b34801561067a57600080fd5b506102f861068936600461425f565b612553565b34801561069a57600080fd5b5061027f6106a9366004614107565b600e6020526000908152604090205481565b3480156106c757600080fd5b506102f861274a565b3480156106dc57600080fd5b5061072d6106eb366004613f2a565b60086020908152600092835260408084209091529082529020805460018201546002909201546001600160a01b0391821692909116906001600160801b031683565b604080516001600160a01b0394851681529390921660208401526001600160801b031690820152606001610289565b34801561076857600080fd5b5061027f7f000000000000000000000000000000000000000000000000000000000000000081565b34801561079c57600080fd5b506003546103bb906001600160a01b031681565b3480156107bc57600080fd5b506000546001600160a01b03166103bb565b3480156107da57600080fd5b506102f86107e9366004613f2a565b6127be565b3480156107fa57600080fd5b5061080e610809366004614057565b612836565b60405161028991906142a5565b34801561082757600080fd5b5061027f610836366004614107565b600d6020526000908152604090205481565b34801561085457600080fd5b506103bb610863366004613f2a565b612a2e565b34801561087457600080fd5b5061027f600a5481565b34801561088a57600080fd5b506102f8612a9f565b34801561089f57600080fd5b506102f86108ae366004614402565b612aec565b3480156108bf57600080fd5b5061027f6108ce366004614057565b60066020526000908152604090205481565b3480156108ec57600080fd5b5061027f600c5481565b34801561090257600080fd5b506102f8610911366004613f2a565b612d02565b6102f8610924366004614511565b612e52565b34801561093557600080fd5b506102f8610944366004614107565b61348f565b6109538282613579565b5050565b600054600160a01b900460ff161561098a5760405162461bcd60e51b815260040161098190614596565b60405180910390fd5b600084815260056020908152604080832081516101a08101835281546001600160a01b039081168252600183015481169482019490945260028201549384169281019290925290916060830190600160a01b900460ff1660048111156109f2576109f2614122565b6004811115610a0357610a03614122565b81526020016002820160159054906101000a900460ff166001811115610a2b57610a2b614122565b6001811115610a3c57610a3c614122565b815260038201546001600160a01b039081166020808401919091526004840154604084015260058401546001600160801b038082166060860152600160801b918290041660808501526006909401546001600160401b0380821660a0860152600160401b8204811660c0860152948104851660e0850152600160c01b9004909316610100909201919091529082015191925016610aeb5760405162461bcd60e51b8152600401610981906145c0565b8061012001516001600160401b03164210610b185760405162461bcd60e51b8152600401610981906145f7565b600081606001516004811115610b3057610b30614122565b14610b4d5760405162461bcd60e51b8152600401610981906145f7565b8061014001516001600160401b03168161016001516001600160401b031610610bab5760405162461bcd60e51b815260206004820152601060248201526f151a58dad95d1cc81cdbdb19081bdd5d60821b6044820152606401610981565b806101600151816101400151610bc19190614644565b6001600160401b0316846001600160401b03161115610c395760405162461bcd60e51b815260206004820152602e60248201527f546865726520617265206e6f7420736f206d616e79207469636b65747320617660448201526d61696c61626c6520746f2062757960901b6064820152608401610981565b60c081015115610d02576040516bffffffffffffffffffffffff193360601b166020820152600090603401604051602081830303815290604052805190602001209050610cbd84848080602002602001604051908101604052809392919081815260200183836020028082843760009201919091525050505060c08401518361363e565b610d005760405162461bcd60e51b8152602060048201526014602482015273155cd95c881b9bdd081dda1a5d195b1a5cdd195960621b6044820152606401610981565b505b610d403330836101000151876001600160401b0316610d21919061466c565b60a08501516001600160a01b03169291906001600160801b03166136ef565b6101608101516001600160401b031660005b856001600160401b0316811015610dcc576000878152600760205260408120610160850151339290610d8e9085906001600160401b031661469b565b8152602081019190915260400160002080546001600160a01b0319166001600160a01b0392909216919091179055610dc5816146b3565b9050610d52565b5060008681526005602052604090206006018054869190601090610e01908490600160801b90046001600160401b03166146cc565b92506101000a8154816001600160401b0302191690836001600160401b031602179055507f718102f3e28b91e1d6ba4863a841bb1f80811baf107b5e2b3da734e3e03d04448633878460018a6001600160401b031687610e61919061469b565b610e6b91906146f7565b604080519586526001600160a01b039490941660208601526001600160401b03929092168484015260608401526080830152519081900360a00190a1505050505050565b600260015403610ed15760405162461bcd60e51b81526004016109819061470e565b6002600155600054600160a01b900460ff1615610f005760405162461bcd60e51b815260040161098190614596565b600083815260056020908152604080832081516101a08101835281546001600160a01b039081168252600183015481169482019490945260028201549384169281019290925290916060830190600160a01b900460ff166004811115610f6857610f68614122565b6004811115610f7957610f79614122565b81526020016002820160159054906101000a900460ff166001811115610fa157610fa1614122565b6001811115610fb257610fb2614122565b81526003828101546001600160a01b031660208301526004830154604083015260058301546001600160801b038082166060850152600160801b918290041660808401526006909301546001600160401b0380821660a0850152600160401b8204811660c0850152938104841660e0840152600160c01b9004909216610100909101529091508160600151600481111561104e5761104e614122565b1461109b5760405162461bcd60e51b815260206004820152601f60248201527f526166666c65206973206e6f7420696e20524546554e444544207374617465006044820152606401610981565b8160005b818110156111a457600086815260076020526040812033918787858181106110c9576110c9614745565b60209081029290920135835250810191909152604001600020546001600160a01b0316146111395760405162461bcd60e51b815260206004820152601d60248201527f596f7520646f206e6f74206f776e2074686973207469636b65742049640000006044820152606401610981565b60008681526007602052604081208187878581811061115a5761115a614745565b90506020020135815260200190815260200160002060006101000a8154816001600160a01b0302191690836001600160a01b031602179055508061119d906146b3565b905061109f565b5060008261010001516001600160801b0316826111c1919061475b565b60a08401519091506111dd906001600160a01b03163383613760565b50506001805550505050565b600054600160a01b900460ff16156112135760405162461bcd60e51b815260040161098190614596565b600081815260056020908152604080832081516101a08101835281546001600160a01b039081168252600183015481169482019490945260028201549384169281019290925290916060830190600160a01b900460ff16600481111561127b5761127b614122565b600481111561128c5761128c614122565b81526020016002820160159054906101000a900460ff1660018111156112b4576112b4614122565b60018111156112c5576112c5614122565b815260038201546001600160a01b039081166020808401919091526004840154604084015260058401546001600160801b038082166060860152600160801b918290041660808501526006909401546001600160401b0380821660a0860152600160401b8204811660c0860152948104851660e0850152600160c01b90049093166101009092019190915290820151919250166113745760405162461bcd60e51b8152600401610981906145c0565b60008160600151600481111561138c5761138c614122565b146113a95760405162461bcd60e51b81526004016109819061477a565b8061014001516001600160401b03168161016001516001600160401b03161461142a578061012001516001600160401b031642101561142a5760405162461bcd60e51b815260206004820152601760248201527f526166666c65206973206e6f7420636f6d706c657465640000000000000000006044820152606401610981565b8061018001516001600160401b03168161016001516001600160401b031610156115845760008160800151600181111561146657611466614122565b036114a7576000805160206149c08339815191528160200151826000015160018460e00151600060405161149e9594939291906147bb565b60405180910390a15b6001816080015160018111156114bf576114bf614122565b03611535576000805160206149c083398151915281602001518260000151600160066000878152602001908152602001600020548560e001516001600160801b031661150b91906146f7565b6000878152600660205260409081902054905161152c9594939291906147f5565b60405180910390a15b600082815260056020526040808220600201805460ff60a01b1916600360a01b179055516000805160206149e08339815191529161157891859190600390614826565b60405180910390a15050565b600061158f83613795565b90507f0830daf1b0e427c4692464a26bdcb77252bc16b9bab2254964095367edf6430f816040516115c291815260200190565b60405180910390a160009081526009602052604090208290555050565b6000546001600160a01b031633146116095760405162461bcd60e51b815260040161098190614847565b838281146116595760405162461bcd60e51b815260206004820152601a60248201527f4172726179206c656e6774687320646f206e6f74206d617463680000000000006044820152606401610981565b60008060005b838110156117725788888281811061167957611679614745565b905060200201602081019061168e9190614107565b91508686828181106116a2576116a2614745565b905060200201359250600d6000836001600160a01b03166001600160a01b03168152602001908152602001600020548311156117125760405162461bcd60e51b815260206004820152600f60248201526e082dadeeadce840e8dede40d0d2ced608b1b6044820152606401610981565b6001600160a01b03821661172f5761172a858461391a565b611743565b6117436001600160a01b0383168685613760565b6001600160a01b0382166000908152600d602052604090208054849003905561176b816146b3565b905061165f565b505050505050505050565b60026001540361179f5760405162461bcd60e51b81526004016109819061470e565b6002600155600054600160a01b900460ff16156117ce5760405162461bcd60e51b815260040161098190614596565b600081815260056020526040902060018101546001600160a01b03166118065760405162461bcd60e51b8152600401610981906145c0565b600280820154600160a01b900460ff16600481111561182757611827614122565b146118445760405162461bcd60e51b81526004016109819061477a565b6002818101805460ff60a01b1916600160a21b1790556040516000805160206149e08339815191529161187c91859190600490614826565b60405180910390a1600181015460028201546001600160a01b03918216911660006002840154600160a81b900460ff1660018111156118bd576118bd614122565b0361195757825460058401546040516000805160206149c0833981519152926119039285926001600160a01b03909216916001916001600160801b0316906000906147bb565b60405180910390a160018301546000858152600660205260408082205490516000805160206149c08339815191529361194e936001600160a01b0390911692909182919082906147f5565b60405180910390a15b60016002840154600160a81b900460ff16600181111561197957611979614122565b036119c757825460058401546040516000805160206149c0833981519152926119be9285926001600160a01b03909216916000916001600160801b03169082906147bb565b60405180910390a15b600583015460068401546000916119fb916001600160801b03600160801b9283900416916001600160401b0391041661466c565b6001600160801b031690506000600c54600b5483611a19919061475b565b611a239190614892565b9050611a2f81836146f7565b60038601546001600160a01b03166000818152600d602052604081208054939550919284929190611a6190849061469b565b90915550611a7b90506001600160a01b0382168685613760565b5050600180555050505050565b6000546001600160a01b03163314611ab25760405162461bcd60e51b815260040161098190614847565b6001600160a01b03811660009081526004602052604090205460ff1615611b2b576001600160a01b038116600081815260046020908152604091829020805460ff1916905590519182527f0dc0548bc90523a9e943ea77d199875fdc1e4f8a419b6d53a595b5e6671480e591015b60405180910390a150565b6001600160a01b038116600081815260046020908152604091829020805460ff1916600117905590519182527f5c6cf68a9d7e416d0eee740661627dd794257920f1c63ddae6c6af81d02d12ea9101611b20565b6000600a54821115611bd35760405162461bcd60e51b815260206004820152601c60248201527f54686520726166666c6520494420646f6573206e6f74206578697374000000006044820152606401610981565b50600090815260056020526040902060020154600160a01b900460ff1690565b600260015403611c155760405162461bcd60e51b81526004016109819061470e565b6002600155600054600160a01b900460ff1615611c445760405162461bcd60e51b815260040161098190614596565b6000848152600860209081526040808320868452825291829020825160608101845281546001600160a01b039081168083526001840154909116938201939093526002909101546001600160801b031692810192909252611ce75760405162461bcd60e51b815260206004820152601960248201527f54686973206f7264657220646f6573206e6f74206578697374000000000000006044820152606401610981565b600085815260076020908152604080832087845290915290205481516001600160a01b03908116911614611d565760405162461bcd60e51b81526020600482015260166024820152752a34b1b5b2ba103430b99030903732bb9037bbb732b960511b6044820152606401610981565b6020808201516001600160a01b031660009081526004909152604090205460ff16611dc35760405162461bcd60e51b815260206004820152601b60248201527f43757272656e6379206973206e6f742077686974656c697374656400000000006044820152606401610981565b60008086815260056020526040902060020154600160a01b900460ff166004811115611df157611df1614122565b14611e3e5760405162461bcd60e51b815260206004820181905260248201527f526166666c65207374617465206d75737420626520494e5f50524f47524553536044820152606401610981565b6000600c54600b5483604001516001600160801b0316611e5e919061475b565b611e689190614892565b905060008183604001516001600160801b0316611e8591906146f7565b60208401519091506001600160a01b0316611f435734935082604001516001600160801b03168414611ef15760405162461bcd60e51b81526020600482015260156024820152744d61746963207061796d656e7420746f6f206c6f7760581b6044820152606401610981565b8251611efd908261391a565b6000808052600d6020527f81955a0a11e65eac625c29e8882660bae4e165a75d72780094acae8ece9a29ee8054849290611f3890849061469b565b90915550611ffd9050565b82604001516001600160801b03168414611f915760405162461bcd60e51b815260206004820152600f60248201526e15dc9bdb99c81c1c9a58d9481cd95d608a1b6044820152606401610981565b6020830151611fab906001600160a01b03163330856136ef565b82516020840151611fca916001600160a01b03909116903390846136ef565b6020808401516001600160a01b03166000908152600d909152604081208054849290611ff790849061469b565b90915550505b6000878152600860209081526040808320898452825280832080546001600160a01b0319908116825560018201805482169055600290910180546001600160801b03191690558a8452600783528184208a855283529281902080549093166001600160a01b038916179092558451908501518583015192517fb1654d435f5f4797513d52142c36c297361ffe87e796c10ca7b2d24003cc274b936120a9938a9390928d928d92916148a6565b60405180910390a15050600180555050505050565b6002600154036120e05760405162461bcd60e51b81526004016109819061470e565b6002600155600054600160a01b900460ff161561210f5760405162461bcd60e51b815260040161098190614596565b600081815260056020908152604080832081516101a08101835281546001600160a01b039081168252600183015481169482019490945260028201549384169281019290925290916060830190600160a01b900460ff16600481111561217757612177614122565b600481111561218857612188614122565b81526020016002820160159054906101000a900460ff1660018111156121b0576121b0614122565b60018111156121c1576121c1614122565b815260038201546001600160a01b039081166020808401919091526004840154604084015260058401546001600160801b038082166060860152600160801b918290041660808501526006909401546001600160401b0380821660a0860152600160401b8204811660c0860152948104851660e0850152600160c01b900490931661010090920191909152908201519192501633146122b25760405162461bcd60e51b815260206004820152602760248201527f596f752063616e6e6f742063616e63656c20736f6d656f6e6520656c7365277360448201526620726166666c6560c81b6064820152608401610981565b6000816060015160048111156122ca576122ca614122565b146122e75760405162461bcd60e51b8152600401610981906145f7565b60018161016001516001600160401b0316106123455760405162461bcd60e51b815260206004820181905260248201527f5469636b657473206861766520616c7265616479206265656e20626f756768746044820152606401610981565b600082815260056020819052604080832080546001600160a01b0319908116825560018201805482169055600282018054600380850180549094169093556004840187905594830186905560069092018590556001600160b01b0319909316600360a01b179055516000805160206149e0833981519152926123c8928692614826565b60405180910390a16000816080015160018111156123e8576123e8614122565b03612473576000805160206149c08339815191528160200151826000015160018460e0015160006040516124209594939291906147bb565b60405180910390a16000805160206149c08339815191528160200151600080600660008781526020019081526020016000205460006040516124669594939291906147f5565b60405180910390a16124cc565b60018160800151600181111561248b5761248b614122565b036124cc576000805160206149c08339815191528160200151826000015160008460e0015160006040516124c39594939291906147bb565b60405180910390a15b6040518281527f7fa78bab5d5570f162c69234a3f4d1b9294fd5bca72219cb16c1fe38839ccb8a9060200160405180910390a1505060018055565b6000546001600160a01b031633146125315760405162461bcd60e51b815260040161098190614847565b600380546001600160a01b0319166001600160a01b0392909216919091179055565b600054600160a01b900460ff161561257d5760405162461bcd60e51b815260040161098190614596565b60008481526007602090815260408083208684529091529020546001600160a01b031633146125ee5760405162461bcd60e51b815260206004820152601a60248201527f596f7520646f206e6f74206f776e2074686973207469636b65740000000000006044820152606401610981565b6001600160a01b03821660009081526004602052604090205460ff166126565760405162461bcd60e51b815260206004820181905260248201527f546869732063757272656e6379206973206e6f742077686974656c69737465646044820152606401610981565b60008085815260056020526040902060020154600160a01b900460ff16600481111561268457612684614122565b146126a15760405162461bcd60e51b8152600401610981906145f7565b6000848152600860209081526040808320868452909152908190208054336001600160a01b0319918216811783556001830180549092166001600160a01b038716179091556002820180546001600160801b0319166001600160801b038616179055915190917fe25f318179f8b2e7117f1bbe46d0c32e76e31ba60e7717909b0279a1dec561339161273b919088908890889088906148e9565b60405180910390a15050505050565b6000546001600160a01b031633146127745760405162461bcd60e51b815260040161098190614847565b600080546040516001600160a01b03909116907f8be0079c531659141344cd1fd0a4f28419497f9722a3daafe3b4186f6b6457e0908390a3600080546001600160a01b0319169055565b336001600160a01b037f000000000000000000000000000000000000000000000000000000000000000016146109495760405162461bcd60e51b815260206004820152601f60248201527f4f6e6c7920565246436f6f7264696e61746f722063616e2066756c66696c6c006044820152606401610981565b6128a2604080516101a08101825260008082526020820181905291810182905290606082019081526020016000815260006020820181905260408201819052606082018190526080820181905260a0820181905260c0820181905260e082018190526101009091015290565b600a548211156128f45760405162461bcd60e51b815260206004820152601c60248201527f54686520726166666c6520494420646f6573206e6f74206578697374000000006044820152606401610981565b60008281526005602090815260409182902082516101a08101845281546001600160a01b0390811682526001830154811693820193909352600282015492831693810193909352906060830190600160a01b900460ff16600481111561295c5761295c614122565b600481111561296d5761296d614122565b81526020016002820160159054906101000a900460ff16600181111561299557612995614122565b60018111156129a6576129a6614122565b815260038201546001600160a01b031660208201526004820154604082015260058201546001600160801b038082166060840152600160801b918290041660808301526006909201546001600160401b0380821660a0840152600160401b8204811660c0840152928104831660e0830152600160c01b90049091166101009091015292915050565b60008281526007602090815260408083208484529091528120546001600160a01b031680612a965760405162461bcd60e51b8152602060048201526015602482015274151a58dad95d08191bd95cc81b9bdd08195e1a5cdd605a1b6044820152606401610981565b90505b92915050565b6000546001600160a01b03163314612ac95760405162461bcd60e51b815260040161098190614847565b600054600160a01b900460ff16612ae457612ae2613a58565b565b612ae2613ada565b6003546001600160a01b03163314612b345760405162461bcd60e51b815260206004820152600b60248201526a27b7363ca932b630bcb2b960a91b6044820152606401610981565b600054600160a01b900460ff1615612b5e5760405162461bcd60e51b815260040161098190614596565b6001600a6000828254612b71919061469b565b9091555050600a546000908152600560209081526040909120835181546001600160a01b039182166001600160a01b03199182161783559285015160018084018054929093169190941617905560028101805460ff60a01b19811682556080860151929361ffff60a01b1990911690600160a81b908490811115612bf757612bf7614122565b021790555060e083015160a08401516003830180546001600160a01b039092166001600160a01b03199092169190911790556101008401516001600160801b03908116600160801b02911617600582015560c08301516004820155610120830151600680830180546101408701516101808801516001600160401b03908116600160c01b026001600160c01b03928216600160401b026001600160801b0319949094169190961617919091171692909217909155600a805460009081526020929092526040918290208490555490517f28da189cbd771ff4d67710b07a94a6785e6dfb42f2dc01b7f0f95f03658bff3d91612cf59190815260200190565b60405180910390a1505050565b600054600160a01b900460ff1615612d2c5760405162461bcd60e51b815260040161098190614596565b6000828152600860209081526040808320848452825291829020825160608101845281546001600160a01b039081168083526001840154909116938201939093526002909101546001600160801b0316928101929092523314612dd15760405162461bcd60e51b815260206004820152601960248201527f596f7520646f206e6f74206f776e2074686973206f72646572000000000000006044820152606401610981565b600083815260086020908152604080832085845282529182902080546001600160a01b03199081168255600182018054909116905560020180546001600160801b03191690558201518282015191517fdfb5dfaa81a89e8e8da092a59e3090660afd72b8533c2ab9bb7bd4fb7b9c5e0692612cf592339288928892916148e9565b600260015403612e745760405162461bcd60e51b81526004016109819061470e565b6002600155600054600160a01b900460ff1615612ea35760405162461bcd60e51b815260040161098190614596565b60008881526007602090815260408083208a84529091529020546001600160a01b031680612f135760405162461bcd60e51b815260206004820152601a60248201527f54686973207469636b657420646f6573206e6f742065786973740000000000006044820152606401610981565b6001600160a01b03871660009081526004602052604090205460ff16612f7b5760405162461bcd60e51b815260206004820152601b60248201527f43757272656e6379206973206e6f742077686974656c697374656400000000006044820152606401610981565b6000808a815260056020526040902060020154600160a01b900460ff166004811115612fa957612fa9614122565b14612ff65760405162461bcd60e51b815260206004820181905260248201527f526166666c65207374617465206d75737420626520494e5f50524f47524553536044820152606401610981565b604080518082018252600d81526c2930b3333632a837b63cb3b7b760991b6020918201528151808301835260018152603160f81b9082015281517f8b73c3c69bb8fe3d512ecc4cf759cc79239f7b179b0ffacaa9a75d522b39400f918101919091527f85b04fc225f27fd8c5d2924b957cc4b53a59f872a5f453b30b978bc7bb3bb64d918101919091527fc89efdaa54c0f20c7adf612882df0950f5a951637e0307cdcb4c672f298b8bc660608201524660808201523060a082015260009060c00160408051601f1981840301815282825280516020918201206001600160a01b038087166000908152600e8452848120547fd5d8257c00a566d5e44ac531fbd43c4e3dbaa0debf869f903785354681aea9ad948701949094523394860194909452606085018f9052608085018e90528c1660a08501526001600160801b038b1660c085015260e0840191909152925090610100016040516020818303038152906040528051906020012090506000828260405160200161318e92919061190160f01b81526002810192909252602282015260420190565b60408051601f198184030181528282528051602091820120600080855291840180845281905260ff891692840192909252606083018a9052608083018990529092509060019060a0016020604051602081039080840390855afa1580156131f9573d6000803e3d6000fd5b505050602060405103519050846001600160a01b0316816001600160a01b03161461325a5760405162461bcd60e51b8152602060048201526011602482015270496e76616c6964207369676e617475726560781b6044820152606401610981565b505050506001600160a01b0381166000908152600e6020526040812080546001929061328790849061469b565b9091555050600c54600b54600091906132a9906001600160801b038a1661475b565b6132b39190614892565b905060006132ca826001600160801b038a166146f7565b90506001600160a01b03891661337a57876001600160801b0316341461332a5760405162461bcd60e51b81526020600482015260156024820152744d61746963207061796d656e7420746f6f206c6f7760581b6044820152606401610981565b613334838261391a565b6000808052600d6020527f81955a0a11e65eac625c29e8882660bae4e165a75d72780094acae8ece9a29ee805484929061336f90849061469b565b909155506133d29050565b61338f6001600160a01b038a163330856136ef565b6133a46001600160a01b038a163385846136ef565b6001600160a01b0389166000908152600d6020526040812080548492906133cc90849061469b565b90915550505b60008b81526007602090815260408083208d8452825280832080546001600160a01b038c166001600160a01b0319918216179091558e8452600883528184208e85529092529182902080548216815560018101805490921690915560020180546001600160801b0319169055517f31ff2bc8e03b9217d7964447f662fd5df92f892f5f349c6537482b1bf6aca9349061347690899086908f908f908f908f906148a6565b60405180910390a1505060018055505050505050505050565b6000546001600160a01b031633146134b95760405162461bcd60e51b815260040161098190614847565b6001600160a01b03811661351e5760405162461bcd60e51b815260206004820152602660248201527f4f776e61626c653a206e6577206f776e657220697320746865207a65726f206160448201526564647265737360d01b6064820152608401610981565b600080546040516001600160a01b03808516939216917f8be0079c531659141344cd1fd0a4f28419497f9722a3daafe3b4186f6b6457e091a3600080546001600160a01b0319166001600160a01b0392909216919091179055565b60008281526009602090815260408083205480845260059092529091206002808201805460ff60a01b1916600160a01b8302179055506000805160206149e083398151915282600160026040516135d293929190614826565b60405180910390a160068101546000906135fc90600160801b90046001600160401b031685614924565b600093845260076020908152604080862092865291905290922054600290910180546001600160a01b0319166001600160a01b03909216919091179055505050565b600081815b85518110156136e257600086828151811061366057613660614745565b602002602001015190508083116136a25760408051602081018590529081018290526060016040516020818303038152906040528051906020012092506136cf565b60408051602081018390529081018490526060016040516020818303038152906040528051906020012092505b50806136da816146b3565b915050613643565b50831490505b9392505050565b6040516001600160a01b038085166024830152831660448201526064810182905261375a9085906323b872dd60e01b906084015b60408051601f198184030181529190526020810180516001600160e01b03166001600160e01b031990931692909217909152613b5e565b50505050565b6040516001600160a01b03831660248201526044810182905261379090849063a9059cbb60e01b90606401613723565b505050565b6040516370a0823160e01b81523060048201526000907f0000000000000000000000000000000000000000000000000000000000000000906001600160a01b037f000000000000000000000000000000000000000000000000000000000000000016906370a0823190602401602060405180830381865afa15801561381e573d6000803e3d6000fd5b505050506040513d601f19601f820116820180604052508101906138429190614938565b10156138825760405162461bcd60e51b815260206004820152600f60248201526e4e6f7420656e6f756768204c494e4b60881b6044820152606401610981565b60008281526005602052604080822060028101805460ff60a01b1916600160a01b179055905190916000805160206149e0833981519152916138c8918691600190614826565b60405180910390a16136e87f00000000000000000000000000000000000000000000000000000000000000007f0000000000000000000000000000000000000000000000000000000000000000613c30565b8047101561396a5760405162461bcd60e51b815260206004820152601f60248201527f5f68616e646c654e61746976655472616e7366657220696e736f6c76656e74006044820152606401610981565b60005a90506000836001600160a01b0316838390604051600060405180830381858888f193505050503d80600081146139bf576040519150601f19603f3d011682016040523d82523d6000602084013e6139c4565b606091505b505090508061375a57730d500b1d8e8ef31e21c99d1db9a6444d3adf12706001600160a01b031663d0e30db0846040518263ffffffff1660e01b81526004016000604051808303818588803b158015613a1c57600080fd5b505af1158015613a30573d6000803e3d6000fd5b5061375a9350730d500b1d8e8ef31e21c99d1db9a6444d3adf12709250879150869050613760565b600054600160a01b900460ff1615613a825760405162461bcd60e51b815260040161098190614596565b6000805460ff60a01b1916600160a01b1790557f62e78cea01bee320cd4e420270b5ea74000d11b0c9f74754ebdbfc544b05a258613abd3390565b6040516001600160a01b03909116815260200160405180910390a1565b600054600160a01b900460ff16613b2a5760405162461bcd60e51b815260206004820152601460248201527314185d5cd8589b194e881b9bdd081c185d5cd95960621b6044820152606401610981565b6000805460ff60a01b191690557f5db9ee0a495bf2e6ff9c91a7834c1ba4fdd244a5e8aa4e537bd38aeae4b073aa33613abd565b6000613bb3826040518060400160405280602081526020017f5361666545524332303a206c6f772d6c6576656c2063616c6c206661696c6564815250856001600160a01b0316613db49092919063ffffffff16565b8051909150156137905780806020019051810190613bd19190614951565b6137905760405162461bcd60e51b815260206004820152602a60248201527f5361666545524332303a204552433230206f7065726174696f6e20646964206e6044820152691bdd081cdd58d8d9595960b21b6064820152608401610981565b60007f00000000000000000000000000000000000000000000000000000000000000006001600160a01b0316634000aea07f000000000000000000000000000000000000000000000000000000000000000084866000604051602001613ca0929190918252602082015260400190565b6040516020818303038152906040526040518463ffffffff1660e01b8152600401613ccd93929190614973565b6020604051808303816000875af1158015613cec573d6000803e3d6000fd5b505050506040513d601f19601f82011682018060405250810190613d109190614951565b50600083815260026020818152604080842054815180840189905280830186905230606082015260808082018390528351808303909101815260a090910190925281519183019190912093879052919052613d6c90600161469b565b600085815260026020526040902055613dac8482604080516020808201949094528082019290925280518083038201815260609092019052805191012090565b949350505050565b6060613dac848460008585843b613e0d5760405162461bcd60e51b815260206004820152601d60248201527f416464726573733a2063616c6c20746f206e6f6e2d636f6e74726163740000006044820152606401610981565b600080866001600160a01b03168587604051613e2991906149a3565b60006040518083038185875af1925050503d8060008114613e66576040519150601f19603f3d011682016040523d82523d6000602084013e613e6b565b606091505b5091509150613e7b828286613e86565b979650505050505050565b60608315613e955750816136e8565b825115613ea55782518084602001fd5b8160405162461bcd60e51b81526004016109819190613f17565b60005b83811015613eda578181015183820152602001613ec2565b8381111561375a5750506000910152565b60008151808452613f03816020860160208601613ebf565b601f01601f19169290920160200192915050565b6020815260006136e86020830184613eeb565b60008060408385031215613f3d57600080fd5b50508035926020909101359150565b80356001600160401b0381168114613f6357600080fd5b919050565b60008083601f840112613f7a57600080fd5b5081356001600160401b03811115613f9157600080fd5b6020830191508360208260051b8501011115613fac57600080fd5b9250929050565b60008060008060608587031215613fc957600080fd5b84359350613fd960208601613f4c565b925060408501356001600160401b03811115613ff457600080fd5b61400087828801613f68565b95989497509550505050565b60008060006040848603121561402157600080fd5b8335925060208401356001600160401b0381111561403e57600080fd5b61404a86828701613f68565b9497909650939450505050565b60006020828403121561406957600080fd5b5035919050565b80356001600160a01b0381168114613f6357600080fd5b60008060008060006060868803121561409f57600080fd5b85356001600160401b03808211156140b657600080fd5b6140c289838a01613f68565b909750955060208801359150808211156140db57600080fd5b506140e888828901613f68565b90945092506140fb905060408701614070565b90509295509295909350565b60006020828403121561411957600080fd5b6136e882614070565b634e487b7160e01b600052602160045260246000fd5b6005811061414857614148614122565b9052565b60208101612a998284614138565b6000806000806080858703121561417057600080fd5b843593506020850135925061418760408601614070565b9396929550929360600135925050565b6002811061414857614148614122565b6001600160a01b038e811682528d811660208301528c1660408201526101a081016141d5606083018d614138565b6141e2608083018c614197565b6001600160a01b039990991660a082015260c08101979097526001600160801b0395861660e0880152939094166101008601526001600160401b039182166101208601528116610140850152918216610160840152166101809091015295945050505050565b80356001600160801b0381168114613f6357600080fd5b6000806000806080858703121561427557600080fd5b843593506020850135925061428c60408601614070565b915061429a60608601614248565b905092959194509250565b81516001600160a01b031681526101a0810160208301516142d160208401826001600160a01b03169052565b5060408301516142ec60408401826001600160a01b03169052565b5060608301516142ff6060840182614138565b5060808301516143126080840182614197565b5060a083015161432d60a08401826001600160a01b03169052565b5060c083015160c083015260e083015161435260e08401826001600160801b03169052565b50610100838101516001600160801b031690830152610120808401516001600160401b039081169184019190915261014080850151821690840152610160808501518216908401526101809384015116929091019190915290565b6040516101a081016001600160401b03811182821017156143de57634e487b7160e01b600052604160045260246000fd5b60405290565b803560058110613f6357600080fd5b803560028110613f6357600080fd5b6000808284036101c081121561441757600080fd5b6101a08082121561442757600080fd5b61442f6143ad565b915061443a85614070565b825261444860208601614070565b602083015261445960408601614070565b604083015261446a606086016143e4565b606083015261447b608086016143f3565b608083015261448c60a08601614070565b60a083015260c085013560c08301526144a760e08601614248565b60e08301526101006144ba818701614248565b908301526101206144cc868201613f4c565b908301526101406144de868201613f4c565b908301526101606144f0868201613f4c565b90830152610180614502868201613f4c565b90830152909593013593505050565b600080600080600080600080610100898b03121561452e57600080fd5b883597506020890135965061454560408a01614070565b955061455360608a01614248565b945061456160808a01614070565b935060a0890135925060c0890135915060e089013560ff8116811461458557600080fd5b809150509295985092959890939650565b60208082526010908201526f14185d5cd8589b194e881c185d5cd95960821b604082015260600190565b6020808252601a908201527f5468697320726166666c6520646f6573206e6f74206578697374000000000000604082015260600190565b6020808252601d908201527f5468697320726166666c652068617320616c726561647920656e646564000000604082015260600190565b634e487b7160e01b600052601160045260246000fd5b60006001600160401b03838116908316818110156146645761466461462e565b039392505050565b60006001600160801b03808316818516818304811182151516156146925761469261462e565b02949350505050565b600082198211156146ae576146ae61462e565b500190565b6000600182016146c5576146c561462e565b5060010190565b60006001600160401b038083168185168083038211156146ee576146ee61462e565b01949350505050565b6000828210156147095761470961462e565b500390565b6020808252601f908201527f5265656e7472616e637947756172643a207265656e7472616e742063616c6c00604082015260600190565b634e487b7160e01b600052603260045260246000fd5b60008160001904831182151516156147755761477561462e565b500290565b60208082526021908201527f5468697320726166666c652077617320616c726561647920636f6d706c6574656040820152601960fa1b606082015260800190565b6001600160a01b03958616815293909416602084015290151560408301526001600160801b03166060820152608081019190915260a00190565b6001600160a01b03958616815293909416602084015290151560408301526060820152608081019190915260a00190565b8381526060810161483a6020830185614138565b613dac6040830184614138565b6020808252818101527f4f776e61626c653a2063616c6c6572206973206e6f7420746865206f776e6572604082015260600190565b634e487b7160e01b600052601260045260246000fd5b6000826148a1576148a161487c565b500490565b6001600160a01b03968716815294861660208601526040850193909352606084019190915290921660808201526001600160801b0390911660a082015260c00190565b6001600160a01b0395861681526020810194909452604084019290925290921660608201526001600160801b03909116608082015260a00190565b6000826149335761493361487c565b500690565b60006020828403121561494a57600080fd5b5051919050565b60006020828403121561496357600080fd5b81518015158114612a9657600080fd5b60018060a01b038416815282602082015260606040820152600061499a6060830184613eeb565b95945050505050565b600082516149b5818460208701613ebf565b919091019291505056feea3e4901ee8777d40ee0bdeedc4514a831fd4c7b59537df939b09d2dacf1486798f4d55a8071907ab4e28727c006f2a8a315cd8c01e117f04430d9587875ad3da2646970667358221220a62434c28a1f6b0832bb22c11df4695eac89c8994e73bf0b41148b324291a2c764736f6c634300080e0033",
  "bytecodeSha1": "0aaa5f09177736606d69c24a4660a446464fcca7",
  "compiler": {
    "evm_version": "istanbul",
    "optimizer": {
      "enabled": true,
      "runs": 200
    },
    "version": "0.8.14+commit.80d49f37"
  },
  "contractName": "RafflePolygon",
  "language": "Solidity",
  "natspec": {
    "kind": "dev",
    "methods": {
      "buyRaffleTicket(uint256,uint64,bytes32[])": {
        "notice": "Allows users to buy tickets for a Raffle",
        "params": {
          "_merkleProof": "MerkleProof used to verify user is part of the whitelist (Used with Whitelisted Raffles only)",
          "_numberOfTickets": "The number of tickets an user wants to buy",
          "_raffleId": "The ID of the raffle the user wants to buy a ticket for"
        }
      },
      "buyTicketWithSignature(uint256,uint256,address,uint128,address,bytes32,bytes32,uint8)": {
        "notice": "Allows users to buy a raffle ticket with a valid signature of the current NFT owner",
        "params": {
          "_buyer": "Address which the ticket will be assigned to",
          "_currency": "ERC20 used as payment",
          "_price": "Price",
          "_r": "Signature R",
          "_raffleId": "rafleId",
          "_s": "Signature S",
          "_ticketId": "ticketId",
          "_v": "Signature V"
        }
      },
      "cancelRaffle(uint256)": {
        "notice": "Allows raffle owners to cancel a raffle if NO tickets were sold yet",
        "params": {
          "_raffleId": "The ID of the raffle"
        }
      },
      "cancelSellOrder(uint256,uint256)": {
        "notice": "Allows Order owners to cancel a current sell order",
        "params": {
          "_raffleId": "raffleID",
          "_ticketId": "ticketID"
        }
      },
      "claimCancelledRaffle(uint256,uint256[])": {
        "notice": "Allows users to claim a cancelled raffle where they will receive their initially payment",
        "params": {
          "_raffleId": "The ID of the raffle the user wants to buy a ticket for",
          "ticketIds": "Array of ticketIds to claim"
        }
      },
      "claimRaffle(uint256)": {
        "notice": "Allows users to claim the raffle. Owner of the raffle will receive the payment and the winner his asset",
        "params": {
          "_raffleId": "The ID of the raffle the user wants to buy a ticket for"
        }
      },
      "completeRaffle(uint256)": {
        "notice": "Allows users to complete a Raffle. The winner of the raffle will receive the asset. The owner of the raffle will receive his payment Cron job will call daily all the pending raffles. Users can also call it",
        "params": {
          "_raffleId": "The ID of the raffle the user wants to buy a ticket for"
        }
      },
      "createRaffle((address,address,address,uint8,uint8,address,bytes32,uint128,uint128,uint64,uint64,uint64,uint64),uint256)": {
        "notice": "Creates a raffle",
        "params": {
          "_fairRaffleFee": "FairRaffleFee",
          "_raffleData": "Structure that contains all the data related to the Raffle"
        }
      },
      "getRaffleDetails(uint256)": {
        "notice": "############################################################################################                 VIEW FUNCTIONS  ############################################################################################"
      },
      "owner()": {
        "details": "Returns the address of the current owner."
      },
      "paused()": {
        "details": "Returns true if the contract is paused, and false otherwise."
      },
      "postBuyOrder(uint256,uint256,address,uint256)": {
        "notice": "Allows users to buy a raffle ticket",
        "params": {
          "_buyer": "Address which the ticket will be assigned to",
          "_price": "Price paid in the buy order. It should be the same as the price of the current sell order,          otherwise it will revert. Used to avoid a seller frontrunning a postBuyOrder() call with a          postSellOrder() call increasing the price",
          "_raffleId": "raffleID",
          "_ticketId": "ticketID"
        }
      },
      "postSellOrder(uint256,uint256,address,uint128)": {
        "notice": "Allows users to put their raffle tickets for sale",
        "params": {
          "_currency": "Tickets will be bought with this ERC20 token. address(0) should be put here if the currency will be Matic",
          "_price": "Price per ticket. It can be zero in case of an \"airdrop\"",
          "_raffleId": "raffleID",
          "_ticketId": "ticketID"
        }
      },
      "renounceOwnership()": {
        "details": "Leaves the contract without owner. It will not be possible to call `onlyOwner` functions anymore. Can only be called by the current owner. NOTE: Renouncing ownership will leave the contract without an owner, thereby removing any functionality that is only available to the owner."
      },
      "setRelayer(address)": {
        "notice": "Used to set a new relayer address"
      },
      "toggleCurrency(address)": {
        "notice": "Used to whitelist/blacklist an ERC20 token to be used as a payment currency"
      },
      "togglePause()": {
        "notice": "Used to pause/unpause the smart contract by the owner"
      },
      "totalAmountClaimable(address)": {
        "notice": "Token address => Amount that owners of the contract can claim as fee rewards address(0) = Matic"
      },
      "transferOwnership(address)": {
        "details": "Transfers ownership of the contract to a new account (`newOwner`). Can only be called by the current owner."
      },
      "withdrawFees(address[],uint256[],address)": {
        "notice": "Used by the contract owners to claim the fees accrued",
        "params": {
          "_amounts": "List of amounts that will be withdrawn",
          "_receiver": "Address that will receive the fees",
          "_tokenAddress": "List of tokens to withdraw the fees"
        }
      }
    },
    "version": 1
  },
  "opcodes": "PUSH1 0x80 PUSH1 0x40 MSTORE PUSH1 0x4 CALLDATASIZE LT PUSH2 0x246 JUMPI PUSH1 0x0 CALLDATALOAD PUSH1 0xE0 SHR DUP1 PUSH4 0x6548E9BC GT PUSH2 0x139 JUMPI DUP1 PUSH4 0xA080DFFE GT PUSH2 0xB6 JUMPI DUP1 PUSH4 0xCE806E8C GT PUSH2 0x7A JUMPI DUP1 PUSH4 0xCE806E8C EQ PUSH2 0x893 JUMPI DUP1 PUSH4 0xD69003E4 EQ PUSH2 0x8B3 JUMPI DUP1 PUSH4 0xD73792A9 EQ PUSH2 0x8E0 JUMPI DUP1 PUSH4 0xE51DFD90 EQ PUSH2 0x8F6 JUMPI DUP1 PUSH4 0xE8CE50B1 EQ PUSH2 0x916 JUMPI DUP1 PUSH4 0xF2FDE38B EQ PUSH2 0x929 JUMPI PUSH1 0x0 DUP1 REVERT JUMPDEST DUP1 PUSH4 0xA080DFFE EQ PUSH2 0x7EE JUMPI DUP1 PUSH4 0xA21AFC76 EQ PUSH2 0x81B JUMPI DUP1 PUSH4 0xB3B745A6 EQ PUSH2 0x848 JUMPI DUP1 PUSH4 0xC2F306A5 EQ PUSH2 0x868 JUMPI DUP1 PUSH4 0xC4AE3168 EQ PUSH2 0x87E JUMPI PUSH1 0x0 DUP1 REVERT JUMPDEST DUP1 PUSH4 0x7678C27F GT PUSH2 0xFD JUMPI DUP1 PUSH4 0x7678C27F EQ PUSH2 0x6D0 JUMPI DUP1 PUSH4 0x82C7317D EQ PUSH2 0x75C JUMPI DUP1 PUSH4 0x8406C079 EQ PUSH2 0x790 JUMPI DUP1 PUSH4 0x8DA5CB5B EQ PUSH2 0x7B0 JUMPI DUP1 PUSH4 0x94985DDD EQ PUSH2 0x7CE JUMPI PUSH1 0x0 DUP1 REVERT JUMPDEST DUP1 PUSH4 0x6548E9BC EQ PUSH2 0x638 JUMPI DUP1 PUSH4 0x66998E50 EQ PUSH2 0x658 JUMPI DUP1 PUSH4 0x7094303B EQ PUSH2 0x66E JUMPI DUP1 PUSH4 0x70AE92D2 EQ PUSH2 0x68E JUMPI DUP1 PUSH4 0x715018A6 EQ PUSH2 0x6BB JUMPI PUSH1 0x0 DUP1 REVERT JUMPDEST DUP1 PUSH4 0x436CC138 GT PUSH2 0x1C7 JUMPI DUP1 PUSH4 0x566777CC GT PUSH2 0x18B JUMPI DUP1 PUSH4 0x566777CC EQ PUSH2 0x4E5 JUMPI DUP1 PUSH4 0x5B007C50 EQ PUSH2 0x512 JUMPI DUP1 PUSH4 0x5C975ABB EQ PUSH2 0x525 JUMPI DUP1 PUSH4 0x5D4BC0CE EQ PUSH2 0x544 JUMPI DUP1 PUSH4 0x5FBA3171 EQ PUSH2 0x618 JUMPI PUSH1 0x0 DUP1 REVERT JUMPDEST DUP1 PUSH4 0x436CC138 EQ PUSH2 0x409 JUMPI DUP1 PUSH4 0x43B938C5 EQ PUSH2 0x449 JUMPI DUP1 PUSH4 0x457AB7DC EQ PUSH2 0x482 JUMPI DUP1 PUSH4 0x4E4D58BB EQ PUSH2 0x4A2 JUMPI DUP1 PUSH4 0x54FD4D50 EQ PUSH2 0x4B8 JUMPI PUSH1 0x0 DUP1 REVERT JUMPDEST DUP1 PUSH4 0x3077A863 GT PUSH2 0x20E JUMPI DUP1 PUSH4 0x3077A863 EQ PUSH2 0x33A JUMPI DUP1 PUSH4 0x31F91A84 EQ PUSH2 0x35A JUMPI DUP1 PUSH4 0x3A1EC473 EQ PUSH2 0x37A JUMPI DUP1 PUSH4 0x4178CDFB EQ PUSH2 0x3D3 JUMPI DUP1 PUSH4 0x41CD47BF EQ PUSH2 0x3F3 JUMPI PUSH1 0x0 DUP1 REVERT JUMPDEST DUP1 PUSH4 0x1889611 EQ PUSH2 0x24B JUMPI DUP1 PUSH4 0x6FDDE03 EQ PUSH2 0x292 JUMPI DUP1 PUSH4 0x11577339 EQ PUSH2 0x2D8 JUMPI DUP1 PUSH4 0x273201BF EQ PUSH2 0x2FA JUMPI DUP1 PUSH4 0x2CF316F9 EQ PUSH2 0x31A JUMPI JUMPDEST PUSH1 0x0 DUP1 REVERT JUMPDEST CALLVALUE DUP1 ISZERO PUSH2 0x257 JUMPI PUSH1 0x0 DUP1 REVERT JUMPDEST POP PUSH2 0x27F PUSH32 0x0 DUP2 JUMP JUMPDEST PUSH1 0x40 MLOAD SWAP1 DUP2 MSTORE PUSH1 0x20 ADD JUMPDEST PUSH1 0x40 MLOAD DUP1 SWAP2 SUB SWAP1 RETURN JUMPDEST CALLVALUE DUP1 ISZERO PUSH2 0x29E JUMPI PUSH1 0x0 DUP1 REVERT JUMPDEST POP PUSH2 0x2CB PUSH1 0x40 MLOAD DUP1 PUSH1 0x40 ADD PUSH1 0x40 MSTORE DUP1 PUSH1 0xD DUP2 MSTORE PUSH1 0x20 ADD PUSH13 0x2930B3333632A837B63CB3B7B7 PUSH1 0x99 SHL DUP2 MSTORE POP DUP2 JUMP JUMPDEST PUSH1 0x40 MLOAD PUSH2 0x289 SWAP2 SWAP1 PUSH2 0x3F17 JUMP JUMPDEST CALLVALUE DUP1 ISZERO PUSH2 0x2E4 JUMPI PUSH1 0x0 DUP1 REVERT JUMPDEST POP PUSH2 0x2F8 PUSH2 0x2F3 CALLDATASIZE PUSH1 0x4 PUSH2 0x3F2A JUMP JUMPDEST PUSH2 0x949 JUMP JUMPDEST STOP JUMPDEST CALLVALUE DUP1 ISZERO PUSH2 0x306 JUMPI PUSH1 0x0 DUP1 REVERT JUMPDEST POP PUSH2 0x2F8 PUSH2 0x315 CALLDATASIZE PUSH1 0x4 PUSH2 0x3FB3 JUMP JUMPDEST PUSH2 0x957 JUMP JUMPDEST CALLVALUE DUP1 ISZERO PUSH2 0x326 JUMPI PUSH1 0x0 DUP1 REVERT JUMPDEST POP PUSH2 0x2F8 PUSH2 0x335 CALLDATASIZE PUSH1 0x4 PUSH2 0x400C JUMP JUMPDEST PUSH2 0xEAF JUMP JUMPDEST CALLVALUE DUP1 ISZERO PUSH2 0x346 JUMPI PUSH1 0x0 DUP1 REVERT JUMPDEST POP PUSH2 0x2F8 PUSH2 0x355 CALLDATASIZE PUSH1 0x4 PUSH2 0x4057 JUMP JUMPDEST PUSH2 0x11E9 JUMP JUMPDEST CALLVALUE DUP1 ISZERO PUSH2 0x366 JUMPI PUSH1 0x0 DUP1 REVERT JUMPDEST POP PUSH2 0x2F8 PUSH2 0x375 CALLDATASIZE PUSH1 0x4 PUSH2 0x4087 JUMP JUMPDEST PUSH2 0x15DF JUMP JUMPDEST CALLVALUE DUP1 ISZERO PUSH2 0x386 JUMPI PUSH1 0x0 DUP1 REVERT JUMPDEST POP PUSH2 0x3BB PUSH2 0x395 CALLDATASIZE PUSH1 0x4 PUSH2 0x3F2A JUMP JUMPDEST PUSH1 0x7 PUSH1 0x20 SWAP1 DUP2 MSTORE PUSH1 0x0 SWAP3 DUP4 MSTORE PUSH1 0x40 DUP1 DUP5 KECCAK256 SWAP1 SWAP2 MSTORE SWAP1 DUP3 MSTORE SWAP1 KECCAK256 SLOAD PUSH1 0x1 PUSH1 0x1 PUSH1 0xA0 SHL SUB AND DUP2 JUMP JUMPDEST PUSH1 0x40 MLOAD PUSH1 0x1 PUSH1 0x1 PUSH1 0xA0 SHL SUB SWAP1 SWAP2 AND DUP2 MSTORE PUSH1 0x20 ADD PUSH2 0x289 JUMP JUMPDEST CALLVALUE DUP1 ISZERO PUSH2 0x3DF JUMPI PUSH1 0x0 DUP1 REVERT JUMPDEST POP PUSH2 0x2F8 PUSH2 0x3EE CALLDATASIZE PUSH1 0x4 PUSH2 0x4057 JUMP JUMPDEST PUSH2 0x177D JUMP JUMPDEST CALLVALUE DUP1 ISZERO PUSH2 0x3FF JUMPI PUSH1 0x0 DUP1 REVERT JUMPDEST POP PUSH2 0x27F PUSH1 0xB SLOAD DUP2 JUMP JUMPDEST CALLVALUE DUP1 ISZERO PUSH2 0x415 JUMPI PUSH1 0x0 DUP1 REVERT JUMPDEST POP PUSH2 0x439 PUSH2 0x424 CALLDATASIZE PUSH1 0x4 PUSH2 0x4107 JUMP JUMPDEST PUSH1 0x4 PUSH1 0x20 MSTORE PUSH1 0x0 SWAP1 DUP2 MSTORE PUSH1 0x40 SWAP1 KECCAK256 SLOAD PUSH1 0xFF AND DUP2 JUMP JUMPDEST PUSH1 0x40 MLOAD SWAP1 ISZERO ISZERO DUP2 MSTORE PUSH1 0x20 ADD PUSH2 0x289 JUMP JUMPDEST CALLVALUE DUP1 ISZERO PUSH2 0x455 JUMPI PUSH1 0x0 DUP1 REVERT JUMPDEST POP PUSH2 0x439 PUSH2 0x464 CALLDATASIZE PUSH1 0x4 PUSH2 0x4107 JUMP JUMPDEST PUSH1 0x1 PUSH1 0x1 PUSH1 0xA0 SHL SUB AND PUSH1 0x0 SWAP1 DUP2 MSTORE PUSH1 0x4 PUSH1 0x20 MSTORE PUSH1 0x40 SWAP1 KECCAK256 SLOAD PUSH1 0xFF AND SWAP1 JUMP JUMPDEST CALLVALUE DUP1 ISZERO PUSH2 0x48E JUMPI PUSH1 0x0 DUP1 REVERT JUMPDEST POP PUSH2 0x2F8 PUSH2 0x49D CALLDATASIZE PUSH1 0x4 PUSH2 0x4107 JUMP JUMPDEST PUSH2 0x1A88 JUMP JUMPDEST CALLVALUE DUP1 ISZERO PUSH2 0x4AE JUMPI PUSH1 0x0 DUP1 REVERT JUMPDEST POP PUSH2 0x27F PUSH2 0x1F4 DUP2 JUMP JUMPDEST CALLVALUE DUP1 ISZERO PUSH2 0x4C4 JUMPI PUSH1 0x0 DUP1 REVERT JUMPDEST POP PUSH2 0x2CB PUSH1 0x40 MLOAD DUP1 PUSH1 0x40 ADD PUSH1 0x40 MSTORE DUP1 PUSH1 0x1 DUP2 MSTORE PUSH1 0x20 ADD PUSH1 0x31 PUSH1 0xF8 SHL DUP2 MSTORE POP DUP2 JUMP JUMPDEST CALLVALUE DUP1 ISZERO PUSH2 0x4F1 JUMPI PUSH1 0x0 DUP1 REVERT JUMPDEST POP PUSH2 0x505 PUSH2 0x500 CALLDATASIZE PUSH1 0x4 PUSH2 0x4057 JUMP JUMPDEST PUSH2 0x1B7F JUMP JUMPDEST PUSH1 0x40 MLOAD PUSH2 0x289 SWAP2 SWAP1 PUSH2 0x414C JUMP JUMPDEST PUSH2 0x2F8 PUSH2 0x520 CALLDATASIZE PUSH1 0x4 PUSH2 0x415A JUMP JUMPDEST PUSH2 0x1BF3 JUMP JUMPDEST CALLVALUE DUP1 ISZERO PUSH2 0x531 JUMPI PUSH1 0x0 DUP1 REVERT JUMPDEST POP PUSH1 0x0 SLOAD PUSH1 0x1 PUSH1 0xA0 SHL SWAP1 DIV PUSH1 0xFF AND PUSH2 0x439 JUMP JUMPDEST CALLVALUE DUP1 ISZERO PUSH2 0x550 JUMPI PUSH1 0x0 DUP1 REVERT JUMPDEST POP PUSH2 0x5FF PUSH2 0x55F CALLDATASIZE PUSH1 0x4 PUSH2 0x4057 JUMP JUMPDEST PUSH1 0x5 PUSH1 0x20 DUP2 SWAP1 MSTORE PUSH1 0x0 SWAP2 DUP3 MSTORE PUSH1 0x40 SWAP1 SWAP2 KECCAK256 DUP1 SLOAD PUSH1 0x1 DUP3 ADD SLOAD PUSH1 0x2 DUP4 ADD SLOAD PUSH1 0x3 DUP5 ADD SLOAD PUSH1 0x4 DUP6 ADD SLOAD SWAP6 DUP6 ADD SLOAD PUSH1 0x6 SWAP1 SWAP6 ADD SLOAD PUSH1 0x1 PUSH1 0x1 PUSH1 0xA0 SHL SUB SWAP5 DUP6 AND SWAP7 SWAP4 DUP6 AND SWAP6 DUP4 DUP7 AND SWAP6 PUSH1 0xFF PUSH1 0x1 PUSH1 0xA0 SHL DUP7 DIV DUP2 AND SWAP7 PUSH1 0x1 PUSH1 0xA8 SHL SWAP1 SWAP7 DIV AND SWAP5 SWAP4 AND SWAP3 SWAP2 PUSH1 0x1 PUSH1 0x1 PUSH1 0x80 SHL SUB DUP1 DUP4 AND SWAP3 PUSH1 0x1 PUSH1 0x80 SHL SWAP1 DUP2 SWAP1 DIV SWAP1 SWAP2 AND SWAP2 PUSH1 0x1 PUSH1 0x1 PUSH1 0x40 SHL SUB DUP1 DUP3 AND SWAP3 PUSH1 0x1 PUSH1 0x40 SHL DUP4 DIV DUP3 AND SWAP3 SWAP1 DUP2 DIV DUP3 AND SWAP2 PUSH1 0x1 PUSH1 0xC0 SHL SWAP1 SWAP2 DIV AND DUP14 JUMP JUMPDEST PUSH1 0x40 MLOAD PUSH2 0x289 SWAP14 SWAP13 SWAP12 SWAP11 SWAP10 SWAP9 SWAP8 SWAP7 SWAP6 SWAP5 SWAP4 SWAP3 SWAP2 SWAP1 PUSH2 0x41A7 JUMP JUMPDEST CALLVALUE DUP1 ISZERO PUSH2 0x624 JUMPI PUSH1 0x0 DUP1 REVERT JUMPDEST POP PUSH2 0x2F8 PUSH2 0x633 CALLDATASIZE PUSH1 0x4 PUSH2 0x4057 JUMP JUMPDEST PUSH2 0x20BE JUMP JUMPDEST CALLVALUE DUP1 ISZERO PUSH2 0x644 JUMPI PUSH1 0x0 DUP1 REVERT JUMPDEST POP PUSH2 0x2F8 PUSH2 0x653 CALLDATASIZE PUSH1 0x4 PUSH2 0x4107 JUMP JUMPDEST PUSH2 0x2507 JUMP JUMPDEST CALLVALUE DUP1 ISZERO PUSH2 0x664 JUMPI PUSH1 0x0 DUP1 REVERT JUMPDEST POP PUSH2 0x27F PUSH2 0x2710 DUP2 JUMP JUMPDEST CALLVALUE DUP1 ISZERO PUSH2 0x67A JUMPI PUSH1 0x0 DUP1 REVERT JUMPDEST POP PUSH2 0x2F8 PUSH2 0x689 CALLDATASIZE PUSH1 0x4 PUSH2 0x425F JUMP JUMPDEST PUSH2 0x2553 JUMP JUMPDEST CALLVALUE DUP1 ISZERO PUSH2 0x69A JUMPI PUSH1 0x0 DUP1 REVERT JUMPDEST POP PUSH2 0x27F PUSH2 0x6A9 CALLDATASIZE PUSH1 0x4 PUSH2 0x4107 JUMP JUMPDEST PUSH1 0xE PUSH1 0x20 MSTORE PUSH1 0x0 SWAP1 DUP2 MSTORE PUSH1 0x40 SWAP1 KECCAK256 SLOAD DUP2 JUMP JUMPDEST CALLVALUE DUP1 ISZERO PUSH2 0x6C7 JUMPI PUSH1 0x0 DUP1 REVERT JUMPDEST POP PUSH2 0x2F8 PUSH2 0x274A JUMP JUMPDEST CALLVALUE DUP1 ISZERO PUSH2 0x6DC JUMPI PUSH1 0x0 DUP1 REVERT JUMPDEST POP PUSH2 0x72D PUSH2 0x6EB CALLDATASIZE PUSH1 0x4 PUSH2 0x3F2A JUMP JUMPDEST PUSH1 0x8 PUSH1 0x20 SWAP1 DUP2 MSTORE PUSH1 0x0 SWAP3 DUP4 MSTORE PUSH1 0x40 DUP1 DUP5 KECCAK256 SWAP1 SWAP2 MSTORE SWAP1 DUP3 MSTORE SWAP1 KECCAK256 DUP1 SLOAD PUSH1 0x1 DUP3 ADD SLOAD PUSH1 0x2 SWAP1 SWAP3 ADD SLOAD PUSH1 0x1 PUSH1 0x1 PUSH1 0xA0 SHL SUB SWAP2 DUP3 AND SWAP3 SWAP1 SWAP2 AND SWAP1 PUSH1 0x1 PUSH1 0x1 PUSH1 0x80 SHL SUB AND DUP4 JUMP JUMPDEST PUSH1 0x40 DUP1 MLOAD PUSH1 0x1 PUSH1 0x1 PUSH1 0xA0 SHL SUB SWAP5 DUP6 AND DUP2 MSTORE SWAP4 SWAP1 SWAP3 AND PUSH1 0x20 DUP5 ADD MSTORE PUSH1 0x1 PUSH1 0x1 PUSH1 0x80 SHL SUB AND SWAP1 DUP3 ADD MSTORE PUSH1 0x60 ADD PUSH2 0x289 JUMP JUMPDEST CALLVALUE DUP1 ISZERO PUSH2 0x768 JUMPI PUSH1 0x0 DUP1 REVERT JUMPDEST POP PUSH2 0x27F PUSH32 0x0 DUP2 JUMP JUMPDEST CALLVALUE DUP1 ISZERO PUSH2 0x79C JUMPI PUSH1 0x0 DUP1 REVERT JUMPDEST POP PUSH1 0x3 SLOAD PUSH2 0x3BB SWAP1 PUSH1 0x1 PUSH1 0x1 PUSH1 0xA0 SHL SUB AND DUP2 JUMP JUMPDEST CALLVALUE DUP1 ISZERO PUSH2 0x7BC JUMPI PUSH1 0x0 DUP1 REVERT JUMPDEST POP PUSH1 0x0 SLOAD PUSH1 0x1 PUSH1 0x1 PUSH1 0xA0 SHL SUB AND PUSH2 0x3BB JUMP JUMPDEST CALLVALUE DUP1 ISZERO PUSH2 0x7DA JUMPI PUSH1 0x0 DUP1 REVERT JUMPDEST POP PUSH2 0x2F8 PUSH2 0x7E9 CALLDATASIZE PUSH1 0x4 PUSH2 0x3F2A JUMP JUMPDEST PUSH2 0x27BE JUMP JUMPDEST CALLVALUE DUP1 ISZERO PUSH2 0x7FA JUMPI PUSH1 0x0 DUP1 REVERT JUMPDEST POP PUSH2 0x80E PUSH2 0x809 CALLDATASIZE PUSH1 0x4 PUSH2 0x4057 JUMP JUMPDEST PUSH2 0x2836 JUMP JUMPDEST PUSH1 0x40 MLOAD PUSH2 0x289 SWAP2 SWAP1 PUSH2 0x42A5 JUMP JUMPDEST CALLVALUE DUP1 ISZERO PUSH2 0x827 JUMPI PUSH1 0x0 DUP1 REVERT JUMPDEST POP PUSH2 0x27F PUSH2 0x836 CALLDATASIZE PUSH1 0x4 PUSH2 0x4107 JUMP JUMPDEST PUSH1 0xD PUSH1 0x20 MSTORE PUSH1 0x0 SWAP1 DUP2 MSTORE PUSH1 0x40 SWAP1 KECCAK256 SLOAD DUP2 JUMP JUMPDEST CALLVALUE DUP1 ISZERO PUSH2 0x854 JUMPI PUSH1 0x0 DUP1 REVERT JUMPDEST POP PUSH2 0x3BB PUSH2 0x863 CALLDATASIZE PUSH1 0x4 PUSH2 0x3F2A JUMP JUMPDEST PUSH2 0x2A2E JUMP JUMPDEST CALLVALUE DUP1 ISZERO PUSH2 0x874 JUMPI PUSH1 0x0 DUP1 REVERT JUMPDEST POP PUSH2 0x27F PUSH1 0xA SLOAD DUP2 JUMP JUMPDEST CALLVALUE DUP1 ISZERO PUSH2 0x88A JUMPI PUSH1 0x0 DUP1 REVERT JUMPDEST POP PUSH2 0x2F8 PUSH2 0x2A9F JUMP JUMPDEST CALLVALUE DUP1 ISZERO PUSH2 0x89F JUMPI PUSH1 0x0 DUP1 REVERT JUMPDEST POP PUSH2 0x2F8 PUSH2 0x8AE CALLDATASIZE PUSH1 0x4 PUSH2 0x4402 JUMP JUMPDEST PUSH2 0x2AEC JUMP JUMPDEST CALLVALUE DUP1 ISZERO PUSH2 0x8BF JUMPI PUSH1 0x0 DUP1 REVERT JUMPDEST POP PUSH2 0x27F PUSH2 0x8CE CALLDATASIZE PUSH1 0x4 PUSH2 0x4057 JUMP JUMPDEST PUSH1 0x6 PUSH1 0x20 MSTORE PUSH1 0x0 SWAP1 DUP2 MSTORE PUSH1 0x40 SWAP1 KECCAK256 SLOAD DUP2 JUMP JUMPDEST CALLVALUE DUP1 ISZERO PUSH2 0x8EC JUMPI PUSH1 0x0 DUP1 REVERT JUMPDEST POP PUSH2 0x27F PUSH1 0xC SLOAD DUP2 JUMP JUMPDEST CALLVALUE DUP1 ISZERO PUSH2 0x902 JUMPI PUSH1 0x0 DUP1 REVERT JUMPDEST POP PUSH2 0x2F8 PUSH2 0x911 CALLDATASIZE PUSH1 0x4 PUSH2 0x3F2A JUMP JUMPDEST PUSH2 0x2D02 JUMP JUMPDEST PUSH2 0x2F8 PUSH2 0x924 CALLDATASIZE PUSH1 0x4 PUSH2 0x4511 JUMP JUMPDEST PUSH2 0x2E52 JUMP JUMPDEST CALLVALUE DUP1 ISZERO PUSH2 0x935 JUMPI PUSH1 0x0 DUP1 REVERT JUMPDEST POP PUSH2 0x2F8 PUSH2 0x944 CALLDATASIZE PUSH1 0x4 PUSH2 0x4107 JUMP JUMPDEST PUSH2 0x348F JUMP JUMPDEST PUSH2 0x953 DUP3 DUP3 PUSH2 0x3579 JUMP JUMPDEST POP POP JUMP JUMPDEST PUSH1 0x0 SLOAD PUSH1 0x1 PUSH1 0xA0 SHL SWAP1 DIV PUSH1 0xFF AND ISZERO PUSH2 0x98A JUMPI PUSH1 0x40 MLOAD PUSH3 0x461BCD PUSH1 0xE5 SHL DUP2 MSTORE PUSH1 0x4 ADD PUSH2 0x981 SWAP1 PUSH2 0x4596 JUMP JUMPDEST PUSH1 0x40 MLOAD DUP1 SWAP2 SUB SWAP1 REVERT JUMPDEST PUSH1 0x0 DUP5 DUP2 MSTORE PUSH1 0x5 PUSH1 0x20 SWAP1 DUP2 MSTORE PUSH1 0x40 DUP1 DUP4 KECCAK256 DUP2 MLOAD PUSH2 0x1A0 DUP2 ADD DUP4 MSTORE DUP2 SLOAD PUSH1 0x1 PUSH1 0x1 PUSH1 0xA0 SHL SUB SWAP1 DUP2 AND DUP3 MSTORE PUSH1 0x1 DUP4 ADD SLOAD DUP2 AND SWAP5 DUP3 ADD SWAP5 SWAP1 SWAP5 MSTORE PUSH1 0x2 DUP3 ADD SLOAD SWAP4 DUP5 AND SWAP3 DUP2 ADD SWAP3 SWAP1 SWAP3 MSTORE SWAP1 SWAP2 PUSH1 0x60 DUP4 ADD SWAP1 PUSH1 0x1 PUSH1 0xA0 SHL SWAP1 DIV PUSH1 0xFF AND PUSH1 0x4 DUP2 GT ISZERO PUSH2 0x9F2 JUMPI PUSH2 0x9F2 PUSH2 0x4122 JUMP JUMPDEST PUSH1 0x4 DUP2 GT ISZERO PUSH2 0xA03 JUMPI PUSH2 0xA03 PUSH2 0x4122 JUMP JUMPDEST DUP2 MSTORE PUSH1 0x20 ADD PUSH1 0x2 DUP3 ADD PUSH1 0x15 SWAP1 SLOAD SWAP1 PUSH2 0x100 EXP SWAP1 DIV PUSH1 0xFF AND PUSH1 0x1 DUP2 GT ISZERO PUSH2 0xA2B JUMPI PUSH2 0xA2B PUSH2 0x4122 JUMP JUMPDEST PUSH1 0x1 DUP2 GT ISZERO PUSH2 0xA3C JUMPI PUSH2 0xA3C PUSH2 0x4122 JUMP JUMPDEST DUP2 MSTORE PUSH1 0x3 DUP3 ADD SLOAD PUSH1 0x1 PUSH1 0x1 PUSH1 0xA0 SHL SUB SWAP1 DUP2 AND PUSH1 0x20 DUP1 DUP5 ADD SWAP2 SWAP1 SWAP2 MSTORE PUSH1 0x4 DUP5 ADD SLOAD PUSH1 0x40 DUP5 ADD MSTORE PUSH1 0x5 DUP5 ADD SLOAD PUSH1 0x1 PUSH1 0x1 PUSH1 0x80 SHL SUB DUP1 DUP3 AND PUSH1 0x60 DUP7 ADD MSTORE PUSH1 0x1 PUSH1 0x80 SHL SWAP2 DUP3 SWAP1 DIV AND PUSH1 0x80 DUP6 ADD MSTORE PUSH1 0x6 SWAP1 SWAP5 ADD SLOAD PUSH1 0x1 PUSH1 0x1 PUSH1 0x40 SHL SUB DUP1 DUP3 AND PUSH1 0xA0 DUP7 ADD MSTORE PUSH1 0x1 PUSH1 0x40 SHL DUP3 DIV DUP2 AND PUSH1 0xC0 DUP7 ADD MSTORE SWAP5 DUP2 DIV DUP6 AND PUSH1 0xE0 DUP6 ADD MSTORE PUSH1 0x1 PUSH1 0xC0 SHL SWAP1 DIV SWAP1 SWAP4 AND PUSH2 0x100 SWAP1 SWAP3 ADD SWAP2 SWAP1 SWAP2 MSTORE SWAP1 DUP3 ADD MLOAD SWAP2 SWAP3 POP AND PUSH2 0xAEB JUMPI PUSH1 0x40 MLOAD PUSH3 0x461BCD PUSH1 0xE5 SHL DUP2 MSTORE PUSH1 0x4 ADD PUSH2 0x981 SWAP1 PUSH2 0x45C0 JUMP JUMPDEST DUP1 PUSH2 0x120 ADD MLOAD PUSH1 0x1 PUSH1 0x1 PUSH1 0x40 SHL SUB AND TIMESTAMP LT PUSH2 0xB18 JUMPI PUSH1 0x40 MLOAD PUSH3 0x461BCD PUSH1 0xE5 SHL DUP2 MSTORE PUSH1 0x4 ADD PUSH2 0x981 SWAP1 PUSH2 0x45F7 JUMP JUMPDEST PUSH1 0x0 DUP2 PUSH1 0x60 ADD MLOAD PUSH1 0x4 DUP2 GT ISZERO PUSH2 0xB30 JUMPI PUSH2 0xB30 PUSH2 0x4122 JUMP JUMPDEST EQ PUSH2 0xB4D JUMPI PUSH1 0x40 MLOAD PUSH3 0x461BCD PUSH1 0xE5 SHL DUP2 MSTORE PUSH1 0x4 ADD PUSH2 0x981 SWAP1 PUSH2 0x45F7 JUMP JUMPDEST DUP1 PUSH2 0x140 ADD MLOAD PUSH1 0x1 PUSH1 0x1 PUSH1 0x40 SHL SUB AND DUP2 PUSH2 0x160 ADD MLOAD PUSH1 0x1 PUSH1 0x1 PUSH1 0x40 SHL SUB AND LT PUSH2 0xBAB JUMPI PUSH1 0x40 MLOAD PUSH3 0x461BCD PUSH1 0xE5 SHL DUP2 MSTORE PUSH1 0x20 PUSH1 0x4 DUP3 ADD MSTORE PUSH1 0x10 PUSH1 0x24 DUP3 ADD MSTORE PUSH16 0x151A58DAD95D1CC81CDBDB19081BDD5D PUSH1 0x82 SHL PUSH1 0x44 DUP3 ADD MSTORE PUSH1 0x64 ADD PUSH2 0x981 JUMP JUMPDEST DUP1 PUSH2 0x160 ADD MLOAD DUP2 PUSH2 0x140 ADD MLOAD PUSH2 0xBC1 SWAP2 SWAP1 PUSH2 0x4644 JUMP JUMPDEST PUSH1 0x1 PUSH1 0x1 PUSH1 0x40 SHL SUB AND DUP5 PUSH1 0x1 PUSH1 0x1 PUSH1 0x40 SHL SUB AND GT ISZERO PUSH2 0xC39 JUMPI PUSH1 0x40 MLOAD PUSH3 0x461BCD PUSH1 0xE5 SHL DUP2 MSTORE PUSH1 0x20 PUSH1 0x4 DUP3 ADD MSTORE PUSH1 0x2E PUSH1 0x24 DUP3 ADD MSTORE PUSH32 0x546865726520617265206E6F7420736F206D616E79207469636B657473206176 PUSH1 0x44 DUP3 ADD MSTORE PUSH14 0x61696C61626C6520746F20627579 PUSH1 0x90 SHL PUSH1 0x64 DUP3 ADD MSTORE PUSH1 0x84 ADD PUSH2 0x981 JUMP JUMPDEST PUSH1 0xC0 DUP2 ADD MLOAD ISZERO PUSH2 0xD02 JUMPI PUSH1 0x40 MLOAD PUSH12 0xFFFFFFFFFFFFFFFFFFFFFFFF NOT CALLER PUSH1 0x60 SHL AND PUSH1 0x20 DUP3 ADD MSTORE PUSH1 0x0 SWAP1 PUSH1 0x34 ADD PUSH1 0x40 MLOAD PUSH1 0x20 DUP2 DUP4 SUB SUB DUP2 MSTORE SWAP1 PUSH1 0x40 MSTORE DUP1 MLOAD SWAP1 PUSH1 0x20 ADD KECCAK256 SWAP1 POP PUSH2 0xCBD DUP5 DUP5 DUP1 DUP1 PUSH1 0x20 MUL PUSH1 0x20 ADD PUSH1 0x40 MLOAD SWAP1 DUP2 ADD PUSH1 0x40 MSTORE DUP1 SWAP4 SWAP3 SWAP2 SWAP1 DUP2 DUP2 MSTORE PUSH1 0x20 ADD DUP4 DUP4 PUSH1 0x20 MUL DUP1 DUP3 DUP5 CALLDATACOPY PUSH1 0x0 SWAP3 ADD SWAP2 SWAP1 SWAP2 MSTORE POP POP POP POP PUSH1 0xC0 DUP5 ADD MLOAD DUP4 PUSH2 0x363E JUMP JUMPDEST PUSH2 0xD00 JUMPI PUSH1 0x40 MLOAD PUSH3 0x461BCD PUSH1 0xE5 SHL DUP2 MSTORE PUSH1 0x20 PUSH1 0x4 DUP3 ADD MSTORE PUSH1 0x14 PUSH1 0x24 DUP3 ADD MSTORE PUSH20 0x155CD95C881B9BDD081DDA1A5D195B1A5CDD1959 PUSH1 0x62 SHL PUSH1 0x44 DUP3 ADD MSTORE PUSH1 0x64 ADD PUSH2 0x981 JUMP JUMPDEST POP JUMPDEST PUSH2 0xD40 CALLER ADDRESS DUP4 PUSH2 0x100 ADD MLOAD DUP8 PUSH1 0x1 PUSH1 0x1 PUSH1 0x40 SHL SUB AND PUSH2 0xD21 SWAP2 SWAP1 PUSH2 0x466C JUMP JUMPDEST PUSH1 0xA0 DUP6 ADD MLOAD PUSH1 0x1 PUSH1 0x1 PUSH1 0xA0 SHL SUB AND SWAP3 SWAP2 SWAP1 PUSH1 0x1 PUSH1 0x1 PUSH1 0x80 SHL SUB AND PUSH2 0x36EF JUMP JUMPDEST PUSH2 0x160 DUP2 ADD MLOAD PUSH1 0x1 PUSH1 0x1 PUSH1 0x40 SHL SUB AND PUSH1 0x0 JUMPDEST DUP6 PUSH1 0x1 PUSH1 0x1 PUSH1 0x40 SHL SUB AND DUP2 LT ISZERO PUSH2 0xDCC JUMPI PUSH1 0x0 DUP8 DUP2 MSTORE PUSH1 0x7 PUSH1 0x20 MSTORE PUSH1 0x40 DUP2 KECCAK256 PUSH2 0x160 DUP6 ADD MLOAD CALLER SWAP3 SWAP1 PUSH2 0xD8E SWAP1 DUP6 SWAP1 PUSH1 0x1 PUSH1 0x1 PUSH1 0x40 SHL SUB AND PUSH2 0x469B JUMP JUMPDEST DUP2 MSTORE PUSH1 0x20 DUP2 ADD SWAP2 SWAP1 SWAP2 MSTORE PUSH1 0x40 ADD PUSH1 0x0 KECCAK256 DUP1 SLOAD PUSH1 0x1 PUSH1 0x1 PUSH1 0xA0 SHL SUB NOT AND PUSH1 0x1 PUSH1 0x1 PUSH1 0xA0 SHL SUB SWAP3 SWAP1 SWAP3 AND SWAP2 SWAP1 SWAP2 OR SWAP1 SSTORE PUSH2 0xDC5 DUP2 PUSH2 0x46B3 JUMP JUMPDEST SWAP1 POP PUSH2 0xD52 JUMP JUMPDEST POP PUSH1 0x0 DUP7 DUP2 MSTORE PUSH1 0x5 PUSH1 0x20 MSTORE PUSH1 0x40 SWAP1 KECCAK256 PUSH1 0x6 ADD DUP1 SLOAD DUP7 SWAP2 SWAP1 PUSH1 0x10 SWAP1 PUSH2 0xE01 SWAP1 DUP5 SWAP1 PUSH1 0x1 PUSH1 0x80 SHL SWAP1 DIV PUSH1 0x1 PUSH1 0x1 PUSH1 0x40 SHL SUB AND PUSH2 0x46CC JUMP JUMPDEST SWAP3 POP PUSH2 0x100 EXP DUP2 SLOAD DUP2 PUSH1 0x1 PUSH1 0x1 PUSH1 0x40 SHL SUB MUL NOT AND SWAP1 DUP4 PUSH1 0x1 PUSH1 0x1 PUSH1 0x40 SHL SUB AND MUL OR SWAP1 SSTORE POP PUSH32 0x718102F3E28B91E1D6BA4863A841BB1F80811BAF107B5E2B3DA734E3E03D0444 DUP7 CALLER DUP8 DUP5 PUSH1 0x1 DUP11 PUSH1 0x1 PUSH1 0x1 PUSH1 0x40 SHL SUB AND DUP8 PUSH2 0xE61 SWAP2 SWAP1 PUSH2 0x469B JUMP JUMPDEST PUSH2 0xE6B SWAP2 SWAP1 PUSH2 0x46F7 JUMP JUMPDEST PUSH1 0x40 DUP1 MLOAD SWAP6 DUP7 MSTORE PUSH1 0x1 PUSH1 0x1 PUSH1 0xA0 SHL SUB SWAP5 SWAP1 SWAP5 AND PUSH1 0x20 DUP7 ADD MSTORE PUSH1 0x1 PUSH1 0x1 PUSH1 0x40 SHL SUB SWAP3 SWAP1 SWAP3 AND DUP5 DUP5 ADD MSTORE PUSH1 0x60 DUP5 ADD MSTORE PUSH1 0x80 DUP4 ADD MSTORE MLOAD SWAP1 DUP2 SWAP1 SUB PUSH1 0xA0 ADD SWAP1 LOG1 POP POP POP POP POP POP JUMP JUMPDEST PUSH1 0x2 PUSH1 0x1 SLOAD SUB PUSH2 0xED1 JUMPI PUSH1 0x40 MLOAD PUSH3 0x461BCD PUSH1 0xE5 SHL DUP2 MSTORE PUSH1 0x4 ADD PUSH2 0x981 SWAP1 PUSH2 0x470E JUMP JUMPDEST PUSH1 0x2 PUSH1 0x1 SSTORE PUSH1 0x0 SLOAD PUSH1 0x1 PUSH1 0xA0 SHL SWAP1 DIV PUSH1 0xFF AND ISZERO PUSH2 0xF00 JUMPI PUSH1 0x40 MLOAD PUSH3 0x461BCD PUSH1 0xE5 SHL DUP2 MSTORE PUSH1 0x4 ADD PUSH2 0x981 SWAP1 PUSH2 0x4596 JUMP JUMPDEST PUSH1 0x0 DUP4 DUP2 MSTORE PUSH1 0x5 PUSH1 0x20 SWAP1 DUP2 MSTORE PUSH1 0x40 DUP1 DUP4 KECCAK256 DUP2 MLOAD PUSH2 0x1A0 DUP2 ADD DUP4 MSTORE DUP2 SLOAD PUSH1 0x1 PUSH1 0x1 PUSH1 0xA0 SHL SUB SWAP1 DUP2 AND DUP3 MSTORE PUSH1 0x1 DUP4 ADD SLOAD DUP2 AND SWAP5 DUP3 ADD SWAP5 SWAP1 SWAP5 MSTORE PUSH1 0x2 DUP3 ADD SLOAD SWAP4 DUP5 AND SWAP3 DUP2 ADD SWAP3 SWAP1 SWAP3 MSTORE SWAP1 SWAP2 PUSH1 0x60 DUP4 ADD SWAP1 PUSH1 0x1 PUSH1 0xA0 SHL SWAP1 DIV PUSH1 0xFF AND PUSH1 0x4 DUP2 GT ISZERO PUSH2 0xF68 JUMPI PUSH2 0xF68 PUSH2 0x4122 JUMP JUMPDEST PUSH1 0x4 DUP2 GT ISZERO PUSH2 0xF79 JUMPI PUSH2 0xF79 PUSH2 0x4122 JUMP JUMPDEST DUP2 MSTORE PUSH1 0x20 ADD PUSH1 0x2 DUP3 ADD PUSH1 0x15 SWAP1 SLOAD SWAP1 PUSH2 0x100 EXP SWAP1 DIV PUSH1 0xFF AND PUSH1 0x1 DUP2 GT ISZERO PUSH2 0xFA1 JUMPI PUSH2 0xFA1 PUSH2 0x4122 JUMP JUMPDEST PUSH1 0x1 DUP2 GT ISZERO PUSH2 0xFB2 JUMPI PUSH2 0xFB2 PUSH2 0x4122 JUMP JUMPDEST DUP2 MSTORE PUSH1 0x3 DUP3 DUP2 ADD SLOAD PUSH1 0x1 PUSH1 0x1 PUSH1 0xA0 SHL SUB AND PUSH1 0x20 DUP4 ADD MSTORE PUSH1 0x4 DUP4 ADD SLOAD PUSH1 0x40 DUP4 ADD MSTORE PUSH1 0x5 DUP4 ADD SLOAD PUSH1 0x1 PUSH1 0x1 PUSH1 0x80 SHL SUB DUP1 DUP3 AND PUSH1 0x60 DUP6 ADD MSTORE PUSH1 0x1 PUSH1 0x80 SHL SWAP2 DUP3 SWAP1 DIV AND PUSH1 0x80 DUP5 ADD MSTORE PUSH1 0x6 SWAP1 SWAP4 ADD SLOAD PUSH1 0x1 PUSH1 0x1 PUSH1 0x40 SHL SUB DUP1 DUP3 AND PUSH1 0xA0 DUP6 ADD MSTORE PUSH1 0x1 PUSH1 0x40 SHL DUP3 DIV DUP2 AND PUSH1 0xC0 DUP6 ADD MSTORE SWAP4 DUP2 DIV DUP5 AND PUSH1 0xE0 DUP5 ADD MSTORE PUSH1 0x1 PUSH1 0xC0 SHL SWAP1 DIV SWAP1 SWAP3 AND PUSH2 0x100 SWAP1 SWAP2 ADD MSTORE SWAP1 SWAP2 POP DUP2 PUSH1 0x60 ADD MLOAD PUSH1 0x4 DUP2 GT ISZERO PUSH2 0x104E JUMPI PUSH2 0x104E PUSH2 0x4122 JUMP JUMPDEST EQ PUSH2 0x109B JUMPI PUSH1 0x40 MLOAD PUSH3 0x461BCD PUSH1 0xE5 SHL DUP2 MSTORE PUSH1 0x20 PUSH1 0x4 DUP3 ADD MSTORE PUSH1 0x1F PUSH1 0x24 DUP3 ADD MSTORE PUSH32 0x526166666C65206973206E6F7420696E20524546554E44454420737461746500 PUSH1 0x44 DUP3 ADD MSTORE PUSH1 0x64 ADD PUSH2 0x981 JUMP JUMPDEST DUP2 PUSH1 0x0 JUMPDEST DUP2 DUP2 LT ISZERO PUSH2 0x11A4 JUMPI PUSH1 0x0 DUP7 DUP2 MSTORE PUSH1 0x7 PUSH1 0x20 MSTORE PUSH1 0x40 DUP2 KECCAK256 CALLER SWAP2 DUP8 DUP8 DUP6 DUP2 DUP2 LT PUSH2 0x10C9 JUMPI PUSH2 0x10C9 PUSH2 0x4745 JUMP JUMPDEST PUSH1 0x20 SWAP1 DUP2 MUL SWAP3 SWAP1 SWAP3 ADD CALLDATALOAD DUP4 MSTORE POP DUP2 ADD SWAP2 SWAP1 SWAP2 MSTORE PUSH1 0x40 ADD PUSH1 0x0 KECCAK256 SLOAD PUSH1 0x1 PUSH1 0x1 PUSH1 0xA0 SHL SUB AND EQ PUSH2 0x1139 JUMPI PUSH1 0x40 MLOAD PUSH3 0x461BCD PUSH1 0xE5 SHL DUP2 MSTORE PUSH1 0x20 PUSH1 0x4 DUP3 ADD MSTORE PUSH1 0x1D PUSH1 0x24 DUP3 ADD MSTORE PUSH32 0x596F7520646F206E6F74206F776E2074686973207469636B6574204964000000 PUSH1 0x44 DUP3 ADD MSTORE PUSH1 0x64 ADD PUSH2 0x981 JUMP JUMPDEST PUSH1 0x0 DUP7 DUP2 MSTORE PUSH1 0x7 PUSH1 0x20 MSTORE PUSH1 0x40 DUP2 KECCAK256 DUP2 DUP8 DUP8 DUP6 DUP2 DUP2 LT PUSH2 0x115A JUMPI PUSH2 0x115A PUSH2 0x4745 JUMP JUMPDEST SWAP1 POP PUSH1 0x20 MUL ADD CALLDATALOAD DUP2 MSTORE PUSH1 0x20 ADD SWAP1 DUP2 MSTORE PUSH1 0x20 ADD PUSH1 0x0 KECCAK256 PUSH1 0x0 PUSH2 0x100 EXP DUP2 SLOAD DUP2 PUSH1 0x1 PUSH1 0x1 PUSH1 0xA0 SHL SUB MUL NOT AND SWAP1 DUP4 PUSH1 0x1 PUSH1 0x1 PUSH1 0xA0 SHL SUB AND MUL OR SWAP1 SSTORE POP DUP1 PUSH2 0x119D SWAP1 PUSH2 0x46B3 JUMP JUMPDEST SWAP1 POP PUSH2 0x109F JUMP JUMPDEST POP PUSH1 0x0 DUP3 PUSH2 0x100 ADD MLOAD PUSH1 0x1 PUSH1 0x1 PUSH1 0x80 SHL SUB AND DUP3 PUSH2 0x11C1 SWAP2 SWAP1 PUSH2 0x475B JUMP JUMPDEST PUSH1 0xA0 DUP5 ADD MLOAD SWAP1 SWAP2 POP PUSH2 0x11DD SWAP1 PUSH1 0x1 PUSH1 0x1 PUSH1 0xA0 SHL SUB AND CALLER DUP4 PUSH2 0x3760 JUMP JUMPDEST POP POP PUSH1 0x1 DUP1 SSTORE POP POP POP POP JUMP JUMPDEST PUSH1 0x0 SLOAD PUSH1 0x1 PUSH1 0xA0 SHL SWAP1 DIV PUSH1 0xFF AND ISZERO PUSH2 0x1213 JUMPI PUSH1 0x40 MLOAD PUSH3 0x461BCD PUSH1 0xE5 SHL DUP2 MSTORE PUSH1 0x4 ADD PUSH2 0x981 SWAP1 PUSH2 0x4596 JUMP JUMPDEST PUSH1 0x0 DUP2 DUP2 MSTORE PUSH1 0x5 PUSH1 0x20 SWAP1 DUP2 MSTORE PUSH1 0x40 DUP1 DUP4 KECCAK256 DUP2 MLOAD PUSH2 0x1A0 DUP2 ADD DUP4 MSTORE DUP2 SLOAD PUSH1 0x1 PUSH1 0x1 PUSH1 0xA0 SHL SUB SWAP1 DUP2 AND DUP3 MSTORE PUSH1 0x1 DUP4 ADD SLOAD DUP2 AND SWAP5 DUP3 ADD SWAP5 SWAP1 SWAP5 MSTORE PUSH1 0x2 DUP3 ADD SLOAD SWAP4 DUP5 AND SWAP3 DUP2 ADD SWAP3 SWAP1 SWAP3 MSTORE SWAP1 SWAP2 PUSH1 0x60 DUP4 ADD SWAP1 PUSH1 0x1 PUSH1 0xA0 SHL SWAP1 DIV PUSH1 0xFF AND PUSH1 0x4 DUP2 GT ISZERO PUSH2 0x127B JUMPI PUSH2 0x127B PUSH2 0x4122 JUMP JUMPDEST PUSH1 0x4 DUP2 GT ISZERO PUSH2 0x128C JUMPI PUSH2 0x128C PUSH2 0x4122 JUMP JUMPDEST DUP2 MSTORE PUSH1 0x20 ADD PUSH1 0x2 DUP3 ADD PUSH1 0x15 SWAP1 SLOAD SWAP1 PUSH2 0x100 EXP SWAP1 DIV PUSH1 0xFF AND PUSH1 0x1 DUP2 GT ISZERO PUSH2 0x12B4 JUMPI PUSH2 0x12B4 PUSH2 0x4122 JUMP JUMPDEST PUSH1 0x1 DUP2 GT ISZERO PUSH2 0x12C5 JUMPI PUSH2 0x12C5 PUSH2 0x4122 JUMP JUMPDEST DUP2 MSTORE PUSH1 0x3 DUP3 ADD SLOAD PUSH1 0x1 PUSH1 0x1 PUSH1 0xA0 SHL SUB SWAP1 DUP2 AND PUSH1 0x20 DUP1 DUP5 ADD SWAP2 SWAP1 SWAP2 MSTORE PUSH1 0x4 DUP5 ADD SLOAD PUSH1 0x40 DUP5 ADD MSTORE PUSH1 0x5 DUP5 ADD SLOAD PUSH1 0x1 PUSH1 0x1 PUSH1 0x80 SHL SUB DUP1 DUP3 AND PUSH1 0x60 DUP7 ADD MSTORE PUSH1 0x1 PUSH1 0x80 SHL SWAP2 DUP3 SWAP1 DIV AND PUSH1 0x80 DUP6 ADD MSTORE PUSH1 0x6 SWAP1 SWAP5 ADD SLOAD PUSH1 0x1 PUSH1 0x1 PUSH1 0x40 SHL SUB DUP1 DUP3 AND PUSH1 0xA0 DUP7 ADD MSTORE PUSH1 0x1 PUSH1 0x40 SHL DUP3 DIV DUP2 AND PUSH1 0xC0 DUP7 ADD MSTORE SWAP5 DUP2 DIV DUP6 AND PUSH1 0xE0 DUP6 ADD MSTORE PUSH1 0x1 PUSH1 0xC0 SHL SWAP1 DIV SWAP1 SWAP4 AND PUSH2 0x100 SWAP1 SWAP3 ADD SWAP2 SWAP1 SWAP2 MSTORE SWAP1 DUP3 ADD MLOAD SWAP2 SWAP3 POP AND PUSH2 0x1374 JUMPI PUSH1 0x40 MLOAD PUSH3 0x461BCD PUSH1 0xE5 SHL DUP2 MSTORE PUSH1 0x4 ADD PUSH2 0x981 SWAP1 PUSH2 0x45C0 JUMP JUMPDEST PUSH1 0x0 DUP2 PUSH1 0x60 ADD MLOAD PUSH1 0x4 DUP2 GT ISZERO PUSH2 0x138C JUMPI PUSH2 0x138C PUSH2 0x4122 JUMP JUMPDEST EQ PUSH2 0x13A9 JUMPI PUSH1 0x40 MLOAD PUSH3 0x461BCD PUSH1 0xE5 SHL DUP2 MSTORE PUSH1 0x4 ADD PUSH2 0x981 SWAP1 PUSH2 0x477A JUMP JUMPDEST DUP1 PUSH2 0x140 ADD MLOAD PUSH1 0x1 PUSH1 0x1 PUSH1 0x40 SHL SUB AND DUP2 PUSH2 0x160 ADD MLOAD PUSH1 0x1 PUSH1 0x1 PUSH1 0x40 SHL SUB AND EQ PUSH2 0x142A JUMPI DUP1 PUSH2 0x120 ADD MLOAD PUSH1 0x1 PUSH1 0x1 PUSH1 0x40 SHL SUB AND TIMESTAMP LT ISZERO PUSH2 0x142A JUMPI PUSH1 0x40 MLOAD PUSH3 0x461BCD PUSH1 0xE5 SHL DUP2 MSTORE PUSH1 0x20 PUSH1 0x4 DUP3 ADD MSTORE PUSH1 0x17 PUSH1 0x24 DUP3 ADD MSTORE PUSH32 0x526166666C65206973206E6F7420636F6D706C65746564000000000000000000 PUSH1 0x44 DUP3 ADD MSTORE PUSH1 0x64 ADD PUSH2 0x981 JUMP JUMPDEST DUP1 PUSH2 0x180 ADD MLOAD PUSH1 0x1 PUSH1 0x1 PUSH1 0x40 SHL SUB AND DUP2 PUSH2 0x160 ADD MLOAD PUSH1 0x1 PUSH1 0x1 PUSH1 0x40 SHL SUB AND LT ISZERO PUSH2 0x1584 JUMPI PUSH1 0x0 DUP2 PUSH1 0x80 ADD MLOAD PUSH1 0x1 DUP2 GT ISZERO PUSH2 0x1466 JUMPI PUSH2 0x1466 PUSH2 0x4122 JUMP JUMPDEST SUB PUSH2 0x14A7 JUMPI PUSH1 0x0 DUP1 MLOAD PUSH1 0x20 PUSH2 0x49C0 DUP4 CODECOPY DUP2 MLOAD SWAP2 MSTORE DUP2 PUSH1 0x20 ADD MLOAD DUP3 PUSH1 0x0 ADD MLOAD PUSH1 0x1 DUP5 PUSH1 0xE0 ADD MLOAD PUSH1 0x0 PUSH1 0x40 MLOAD PUSH2 0x149E SWAP6 SWAP5 SWAP4 SWAP3 SWAP2 SWAP1 PUSH2 0x47BB JUMP JUMPDEST PUSH1 0x40 MLOAD DUP1 SWAP2 SUB SWAP1 LOG1 JUMPDEST PUSH1 0x1 DUP2 PUSH1 0x80 ADD MLOAD PUSH1 0x1 DUP2 GT ISZERO PUSH2 0x14BF JUMPI PUSH2 0x14BF PUSH2 0x4122 JUMP JUMPDEST SUB PUSH2 0x1535 JUMPI PUSH1 0x0 DUP1 MLOAD PUSH1 0x20 PUSH2 0x49C0 DUP4 CODECOPY DUP2 MLOAD SWAP2 MSTORE DUP2 PUSH1 0x20 ADD MLOAD DUP3 PUSH1 0x0 ADD MLOAD PUSH1 0x1 PUSH1 0x6 PUSH1 0x0 DUP8 DUP2 MSTORE PUSH1 0x20 ADD SWAP1 DUP2 MSTORE PUSH1 0x20 ADD PUSH1 0x0 KECCAK256 SLOAD DUP6 PUSH1 0xE0 ADD MLOAD PUSH1 0x1 PUSH1 0x1 PUSH1 0x80 SHL SUB AND PUSH2 0x150B SWAP2 SWAP1 PUSH2 0x46F7 JUMP JUMPDEST PUSH1 0x0 DUP8 DUP2 MSTORE PUSH1 0x6 PUSH1 0x20 MSTORE PUSH1 0x40 SWAP1 DUP2 SWAP1 KECCAK256 SLOAD SWAP1 MLOAD PUSH2 0x152C SWAP6 SWAP5 SWAP4 SWAP3 SWAP2 SWAP1 PUSH2 0x47F5 JUMP JUMPDEST PUSH1 0x40 MLOAD DUP1 SWAP2 SUB SWAP1 LOG1 JUMPDEST PUSH1 0x0 DUP3 DUP2 MSTORE PUSH1 0x5 PUSH1 0x20 MSTORE PUSH1 0x40 DUP1 DUP3 KECCAK256 PUSH1 0x2 ADD DUP1 SLOAD PUSH1 0xFF PUSH1 0xA0 SHL NOT AND PUSH1 0x3 PUSH1 0xA0 SHL OR SWAP1 SSTORE MLOAD PUSH1 0x0 DUP1 MLOAD PUSH1 0x20 PUSH2 0x49E0 DUP4 CODECOPY DUP2 MLOAD SWAP2 MSTORE SWAP2 PUSH2 0x1578 SWAP2 DUP6 SWAP2 SWAP1 PUSH1 0x3 SWAP1 PUSH2 0x4826 JUMP JUMPDEST PUSH1 0x40 MLOAD DUP1 SWAP2 SUB SWAP1 LOG1 POP POP JUMP JUMPDEST PUSH1 0x0 PUSH2 0x158F DUP4 PUSH2 0x3795 JUMP JUMPDEST SWAP1 POP PUSH32 0x830DAF1B0E427C4692464A26BDCB77252BC16B9BAB2254964095367EDF6430F DUP2 PUSH1 0x40 MLOAD PUSH2 0x15C2 SWAP2 DUP2 MSTORE PUSH1 0x20 ADD SWAP1 JUMP JUMPDEST PUSH1 0x40 MLOAD DUP1 SWAP2 SUB SWAP1 LOG1 PUSH1 0x0 SWAP1 DUP2 MSTORE PUSH1 0x9 PUSH1 0x20 MSTORE PUSH1 0x40 SWAP1 KECCAK256 DUP3 SWAP1 SSTORE POP POP JUMP JUMPDEST PUSH1 0x0 SLOAD PUSH1 0x1 PUSH1 0x1 PUSH1 0xA0 SHL SUB AND CALLER EQ PUSH2 0x1609 JUMPI PUSH1 0x40 MLOAD PUSH3 0x461BCD PUSH1 0xE5 SHL DUP2 MSTORE PUSH1 0x4 ADD PUSH2 0x981 SWAP1 PUSH2 0x4847 JUMP JUMPDEST DUP4 DUP3 DUP2 EQ PUSH2 0x1659 JUMPI PUSH1 0x40 MLOAD PUSH3 0x461BCD PUSH1 0xE5 SHL DUP2 MSTORE PUSH1 0x20 PUSH1 0x4 DUP3 ADD MSTORE PUSH1 0x1A PUSH1 0x24 DUP3 ADD MSTORE PUSH32 0x4172726179206C656E6774687320646F206E6F74206D61746368000000000000 PUSH1 0x44 DUP3 ADD MSTORE PUSH1 0x64 ADD PUSH2 0x981 JUMP JUMPDEST PUSH1 0x0 DUP1 PUSH1 0x0 JUMPDEST DUP4 DUP2 LT ISZERO PUSH2 0x1772 JUMPI DUP9 DUP9 DUP3 DUP2 DUP2 LT PUSH2 0x1679 JUMPI PUSH2 0x1679 PUSH2 0x4745 JUMP JUMPDEST SWAP1 POP PUSH1 0x20 MUL ADD PUSH1 0x20 DUP2 ADD SWAP1 PUSH2 0x168E SWAP2 SWAP1 PUSH2 0x4107 JUMP JUMPDEST SWAP2 POP DUP7 DUP7 DUP3 DUP2 DUP2 LT PUSH2 0x16A2 JUMPI PUSH2 0x16A2 PUSH2 0x4745 JUMP JUMPDEST SWAP1 POP PUSH1 0x20 MUL ADD CALLDATALOAD SWAP3 POP PUSH1 0xD PUSH1 0x0 DUP4 PUSH1 0x1 PUSH1 0x1 PUSH1 0xA0 SHL SUB AND PUSH1 0x1 PUSH1 0x1 PUSH1 0xA0 SHL SUB AND DUP2 MSTORE PUSH1 0x20 ADD SWAP1 DUP2 MSTORE PUSH1 0x20 ADD PUSH1 0x0 KECCAK256 SLOAD DUP4 GT ISZERO PUSH2 0x1712 JUMPI PUSH1 0x40 MLOAD PUSH3 0x461BCD PUSH1 0xE5 SHL DUP2 MSTORE PUSH1 0x20 PUSH1 0x4 DUP3 ADD MSTORE PUSH1 0xF PUSH1 0x24 DUP3 ADD MSTORE PUSH15 0x82DADEEADCE840E8DEDE40D0D2CED PUSH1 0x8B SHL PUSH1 0x44 DUP3 ADD MSTORE PUSH1 0x64 ADD PUSH2 0x981 JUMP JUMPDEST PUSH1 0x1 PUSH1 0x1 PUSH1 0xA0 SHL SUB DUP3 AND PUSH2 0x172F JUMPI PUSH2 0x172A DUP6 DUP5 PUSH2 0x391A JUMP JUMPDEST PUSH2 0x1743 JUMP JUMPDEST PUSH2 0x1743 PUSH1 0x1 PUSH1 0x1 PUSH1 0xA0 SHL SUB DUP4 AND DUP7 DUP6 PUSH2 0x3760 JUMP JUMPDEST PUSH1 0x1 PUSH1 0x1 PUSH1 0xA0 SHL SUB DUP3 AND PUSH1 0x0 SWAP1 DUP2 MSTORE PUSH1 0xD PUSH1 0x20 MSTORE PUSH1 0x40 SWAP1 KECCAK256 DUP1 SLOAD DUP5 SWAP1 SUB SWAP1 SSTORE PUSH2 0x176B DUP2 PUSH2 0x46B3 JUMP JUMPDEST SWAP1 POP PUSH2 0x165F JUMP JUMPDEST POP POP POP POP POP POP POP POP POP JUMP JUMPDEST PUSH1 0x2 PUSH1 0x1 SLOAD SUB PUSH2 0x179F JUMPI PUSH1 0x40 MLOAD PUSH3 0x461BCD PUSH1 0xE5 SHL DUP2 MSTORE PUSH1 0x4 ADD PUSH2 0x981 SWAP1 PUSH2 0x470E JUMP JUMPDEST PUSH1 0x2 PUSH1 0x1 SSTORE PUSH1 0x0 SLOAD PUSH1 0x1 PUSH1 0xA0 SHL SWAP1 DIV PUSH1 0xFF AND ISZERO PUSH2 0x17CE JUMPI PUSH1 0x40 MLOAD PUSH3 0x461BCD PUSH1 0xE5 SHL DUP2 MSTORE PUSH1 0x4 ADD PUSH2 0x981 SWAP1 PUSH2 0x4596 JUMP JUMPDEST PUSH1 0x0 DUP2 DUP2 MSTORE PUSH1 0x5 PUSH1 0x20 MSTORE PUSH1 0x40 SWAP1 KECCAK256 PUSH1 0x1 DUP2 ADD SLOAD PUSH1 0x1 PUSH1 0x1 PUSH1 0xA0 SHL SUB AND PUSH2 0x1806 JUMPI PUSH1 0x40 MLOAD PUSH3 0x461BCD PUSH1 0xE5 SHL DUP2 MSTORE PUSH1 0x4 ADD PUSH2 0x981 SWAP1 PUSH2 0x45C0 JUMP JUMPDEST PUSH1 0x2 DUP1 DUP3 ADD SLOAD PUSH1 0x1 PUSH1 0xA0 SHL SWAP1 DIV PUSH1 0xFF AND PUSH1 0x4 DUP2 GT ISZERO PUSH2 0x1827 JUMPI PUSH2 0x1827 PUSH2 0x4122 JUMP JUMPDEST EQ PUSH2 0x1844 JUMPI PUSH1 0x40 MLOAD PUSH3 0x461BCD PUSH1 0xE5 SHL DUP2 MSTORE PUSH1 0x4 ADD PUSH2 0x981 SWAP1 PUSH2 0x477A JUMP JUMPDEST PUSH1 0x2 DUP2 DUP2 ADD DUP1 SLOAD PUSH1 0xFF PUSH1 0xA0 SHL NOT AND PUSH1 0x1 PUSH1 0xA2 SHL OR SWAP1 SSTORE PUSH1 0x40 MLOAD PUSH1 0x0 DUP1 MLOAD PUSH1 0x20 PUSH2 0x49E0 DUP4 CODECOPY DUP2 MLOAD SWAP2 MSTORE SWAP2 PUSH2 0x187C SWAP2 DUP6 SWAP2 SWAP1 PUSH1 0x4 SWAP1 PUSH2 0x4826 JUMP JUMPDEST PUSH1 0x40 MLOAD DUP1 SWAP2 SUB SWAP1 LOG1 PUSH1 0x1 DUP2 ADD SLOAD PUSH1 0x2 DUP3 ADD SLOAD PUSH1 0x1 PUSH1 0x1 PUSH1 0xA0 SHL SUB SWAP2 DUP3 AND SWAP2 AND PUSH1 0x0 PUSH1 0x2 DUP5 ADD SLOAD PUSH1 0x1 PUSH1 0xA8 SHL SWAP1 DIV PUSH1 0xFF AND PUSH1 0x1 DUP2 GT ISZERO PUSH2 0x18BD JUMPI PUSH2 0x18BD PUSH2 0x4122 JUMP JUMPDEST SUB PUSH2 0x1957 JUMPI DUP3 SLOAD PUSH1 0x5 DUP5 ADD SLOAD PUSH1 0x40 MLOAD PUSH1 0x0 DUP1 MLOAD PUSH1 0x20 PUSH2 0x49C0 DUP4 CODECOPY DUP2 MLOAD SWAP2 MSTORE SWAP3 PUSH2 0x1903 SWAP3 DUP6 SWAP3 PUSH1 0x1 PUSH1 0x1 PUSH1 0xA0 SHL SUB SWAP1 SWAP3 AND SWAP2 PUSH1 0x1 SWAP2 PUSH1 0x1 PUSH1 0x1 PUSH1 0x80 SHL SUB AND SWAP1 PUSH1 0x0 SWAP1 PUSH2 0x47BB JUMP JUMPDEST PUSH1 0x40 MLOAD DUP1 SWAP2 SUB SWAP1 LOG1 PUSH1 0x1 DUP4 ADD SLOAD PUSH1 0x0 DUP6 DUP2 MSTORE PUSH1 0x6 PUSH1 0x20 MSTORE PUSH1 0x40 DUP1 DUP3 KECCAK256 SLOAD SWAP1 MLOAD PUSH1 0x0 DUP1 MLOAD PUSH1 0x20 PUSH2 0x49C0 DUP4 CODECOPY DUP2 MLOAD SWAP2 MSTORE SWAP4 PUSH2 0x194E SWAP4 PUSH1 0x1 PUSH1 0x1 PUSH1 0xA0 SHL SUB SWAP1 SWAP2 AND SWAP3 SWAP1 SWAP2 DUP3 SWAP2 SWAP1 DUP3 SWAP1 PUSH2 0x47F5 JUMP JUMPDEST PUSH1 0x40 MLOAD DUP1 SWAP2 SUB SWAP1 LOG1 JUMPDEST PUSH1 0x1 PUSH1 0x2 DUP5 ADD SLOAD PUSH1 0x1 PUSH1 0xA8 SHL SWAP1 DIV PUSH1 0xFF AND PUSH1 0x1 DUP2 GT ISZERO PUSH2 0x1979 JUMPI PUSH2 0x1979 PUSH2 0x4122 JUMP JUMPDEST SUB PUSH2 0x19C7 JUMPI DUP3 SLOAD PUSH1 0x5 DUP5 ADD SLOAD PUSH1 0x40 MLOAD PUSH1 0x0 DUP1 MLOAD PUSH1 0x20 PUSH2 0x49C0 DUP4 CODECOPY DUP2 MLOAD SWAP2 MSTORE SWAP3 PUSH2 0x19BE SWAP3 DUP6 SWAP3 PUSH1 0x1 PUSH1 0x1 PUSH1 0xA0 SHL SUB SWAP1 SWAP3 AND SWAP2 PUSH1 0x0 SWAP2 PUSH1 0x1 PUSH1 0x1 PUSH1 0x80 SHL SUB AND SWAP1 DUP3 SWAP1 PUSH2 0x47BB JUMP JUMPDEST PUSH1 0x40 MLOAD DUP1 SWAP2 SUB SWAP1 LOG1 JUMPDEST PUSH1 0x5 DUP4 ADD SLOAD PUSH1 0x6 DUP5 ADD SLOAD PUSH1 0x0 SWAP2 PUSH2 0x19FB SWAP2 PUSH1 0x1 PUSH1 0x1 PUSH1 0x80 SHL SUB PUSH1 0x1 PUSH1 0x80 SHL SWAP3 DUP4 SWAP1 DIV AND SWAP2 PUSH1 0x1 PUSH1 0x1 PUSH1 0x40 SHL SUB SWAP2 DIV AND PUSH2 0x466C JUMP JUMPDEST PUSH1 0x1 PUSH1 0x1 PUSH1 0x80 SHL SUB AND SWAP1 POP PUSH1 0x0 PUSH1 0xC SLOAD PUSH1 0xB SLOAD DUP4 PUSH2 0x1A19 SWAP2 SWAP1 PUSH2 0x475B JUMP JUMPDEST PUSH2 0x1A23 SWAP2 SWAP1 PUSH2 0x4892 JUMP JUMPDEST SWAP1 POP PUSH2 0x1A2F DUP2 DUP4 PUSH2 0x46F7 JUMP JUMPDEST PUSH1 0x3 DUP7 ADD SLOAD PUSH1 0x1 PUSH1 0x1 PUSH1 0xA0 SHL SUB AND PUSH1 0x0 DUP2 DUP2 MSTORE PUSH1 0xD PUSH1 0x20 MSTORE PUSH1 0x40 DUP2 KECCAK256 DUP1 SLOAD SWAP4 SWAP6 POP SWAP2 SWAP3 DUP5 SWAP3 SWAP2 SWAP1 PUSH2 0x1A61 SWAP1 DUP5 SWAP1 PUSH2 0x469B JUMP JUMPDEST SWAP1 SWAP2 SSTORE POP PUSH2 0x1A7B SWAP1 POP PUSH1 0x1 PUSH1 0x1 PUSH1 0xA0 SHL SUB DUP3 AND DUP7 DUP6 PUSH2 0x3760 JUMP JUMPDEST POP POP PUSH1 0x1 DUP1 SSTORE POP POP POP POP POP JUMP JUMPDEST PUSH1 0x0 SLOAD PUSH1 0x1 PUSH1 0x1 PUSH1 0xA0 SHL SUB AND CALLER EQ PUSH2 0x1AB2 JUMPI PUSH1 0x40 MLOAD PUSH3 0x461BCD PUSH1 0xE5 SHL DUP2 MSTORE PUSH1 0x4 ADD PUSH2 0x981 SWAP1 PUSH2 0x4847 JUMP JUMPDEST PUSH1 0x1 PUSH1 0x1 PUSH1 0xA0 SHL SUB DUP2 AND PUSH1 0x0 SWAP1 DUP2 MSTORE PUSH1 0x4 PUSH1 0x20 MSTORE PUSH1 0x40 SWAP1 KECCAK256 SLOAD PUSH1 0xFF AND ISZERO PUSH2 0x1B2B JUMPI PUSH1 0x1 PUSH1 0x1 PUSH1 0xA0 SHL SUB DUP2 AND PUSH1 0x0 DUP2 DUP2 MSTORE PUSH1 0x4 PUSH1 0x20 SWAP1 DUP2 MSTORE PUSH1 0x40 SWAP2 DUP3 SWAP1 KECCAK256 DUP1 SLOAD PUSH1 0xFF NOT AND SWAP1 SSTORE SWAP1 MLOAD SWAP2 DUP3 MSTORE PUSH32 0xDC0548BC90523A9E943EA77D199875FDC1E4F8A419B6D53A595B5E6671480E5 SWAP2 ADD JUMPDEST PUSH1 0x40 MLOAD DUP1 SWAP2 SUB SWAP1 LOG1 POP JUMP JUMPDEST PUSH1 0x1 PUSH1 0x1 PUSH1 0xA0 SHL SUB DUP2 AND PUSH1 0x0 DUP2 DUP2 MSTORE PUSH1 0x4 PUSH1 0x20 SWAP1 DUP2 MSTORE PUSH1 0x40 SWAP2 DUP3 SWAP1 KECCAK256 DUP1 SLOAD PUSH1 0xFF NOT AND PUSH1 0x1 OR SWAP1 SSTORE SWAP1 MLOAD SWAP2 DUP3 MSTORE PUSH32 0x5C6CF68A9D7E416D0EEE740661627DD794257920F1C63DDAE6C6AF81D02D12EA SWAP2 ADD PUSH2 0x1B20 JUMP JUMPDEST PUSH1 0x0 PUSH1 0xA SLOAD DUP3 GT ISZERO PUSH2 0x1BD3 JUMPI PUSH1 0x40 MLOAD PUSH3 0x461BCD PUSH1 0xE5 SHL DUP2 MSTORE PUSH1 0x20 PUSH1 0x4 DUP3 ADD MSTORE PUSH1 0x1C PUSH1 0x24 DUP3 ADD MSTORE PUSH32 0x54686520726166666C6520494420646F6573206E6F7420657869737400000000 PUSH1 0x44 DUP3 ADD MSTORE PUSH1 0x64 ADD PUSH2 0x981 JUMP JUMPDEST POP PUSH1 0x0 SWAP1 DUP2 MSTORE PUSH1 0x5 PUSH1 0x20 MSTORE PUSH1 0x40 SWAP1 KECCAK256 PUSH1 0x2 ADD SLOAD PUSH1 0x1 PUSH1 0xA0 SHL SWAP1 DIV PUSH1 0xFF AND SWAP1 JUMP JUMPDEST PUSH1 0x2 PUSH1 0x1 SLOAD SUB PUSH2 0x1C15 JUMPI PUSH1 0x40 MLOAD PUSH3 0x461BCD PUSH1 0xE5 SHL DUP2 MSTORE PUSH1 0x4 ADD PUSH2 0x981 SWAP1 PUSH2 0x470E JUMP JUMPDEST PUSH1 0x2 PUSH1 0x1 SSTORE PUSH1 0x0 SLOAD PUSH1 0x1 PUSH1 0xA0 SHL SWAP1 DIV PUSH1 0xFF AND ISZERO PUSH2 0x1C44 JUMPI PUSH1 0x40 MLOAD PUSH3 0x461BCD PUSH1 0xE5 SHL DUP2 MSTORE PUSH1 0x4 ADD PUSH2 0x981 SWAP1 PUSH2 0x4596 JUMP JUMPDEST PUSH1 0x0 DUP5 DUP2 MSTORE PUSH1 0x8 PUSH1 0x20 SWAP1 DUP2 MSTORE PUSH1 0x40 DUP1 DUP4 KECCAK256 DUP7 DUP5 MSTORE DUP3 MSTORE SWAP2 DUP3 SWAP1 KECCAK256 DUP3 MLOAD PUSH1 0x60 DUP2 ADD DUP5 MSTORE DUP2 SLOAD PUSH1 0x1 PUSH1 0x1 PUSH1 0xA0 SHL SUB SWAP1 DUP2 AND DUP1 DUP4 MSTORE PUSH1 0x1 DUP5 ADD SLOAD SWAP1 SWAP2 AND SWAP4 DUP3 ADD SWAP4 SWAP1 SWAP4 MSTORE PUSH1 0x2 SWAP1 SWAP2 ADD SLOAD PUSH1 0x1 PUSH1 0x1 PUSH1 0x80 SHL SUB AND SWAP3 DUP2 ADD SWAP3 SWAP1 SWAP3 MSTORE PUSH2 0x1CE7 JUMPI PUSH1 0x40 MLOAD PUSH3 0x461BCD PUSH1 0xE5 SHL DUP2 MSTORE PUSH1 0x20 PUSH1 0x4 DUP3 ADD MSTORE PUSH1 0x19 PUSH1 0x24 DUP3 ADD MSTORE PUSH32 0x54686973206F7264657220646F6573206E6F7420657869737400000000000000 PUSH1 0x44 DUP3 ADD MSTORE PUSH1 0x64 ADD PUSH2 0x981 JUMP JUMPDEST PUSH1 0x0 DUP6 DUP2 MSTORE PUSH1 0x7 PUSH1 0x20 SWAP1 DUP2 MSTORE PUSH1 0x40 DUP1 DUP4 KECCAK256 DUP8 DUP5 MSTORE SWAP1 SWAP2 MSTORE SWAP1 KECCAK256 SLOAD DUP2 MLOAD PUSH1 0x1 PUSH1 0x1 PUSH1 0xA0 SHL SUB SWAP1 DUP2 AND SWAP2 AND EQ PUSH2 0x1D56 JUMPI PUSH1 0x40 MLOAD PUSH3 0x461BCD PUSH1 0xE5 SHL DUP2 MSTORE PUSH1 0x20 PUSH1 0x4 DUP3 ADD MSTORE PUSH1 0x16 PUSH1 0x24 DUP3 ADD MSTORE PUSH22 0x2A34B1B5B2BA103430B99030903732BB9037BBB732B9 PUSH1 0x51 SHL PUSH1 0x44 DUP3 ADD MSTORE PUSH1 0x64 ADD PUSH2 0x981 JUMP JUMPDEST PUSH1 0x20 DUP1 DUP3 ADD MLOAD PUSH1 0x1 PUSH1 0x1 PUSH1 0xA0 SHL SUB AND PUSH1 0x0 SWAP1 DUP2 MSTORE PUSH1 0x4 SWAP1 SWAP2 MSTORE PUSH1 0x40 SWAP1 KECCAK256 SLOAD PUSH1 0xFF AND PUSH2 0x1DC3 JUMPI PUSH1 0x40 MLOAD PUSH3 0x461BCD PUSH1 0xE5 SHL DUP2 MSTORE PUSH1 0x20 PUSH1 0x4 DUP3 ADD MSTORE PUSH1 0x1B PUSH1 0x24 DUP3 ADD MSTORE PUSH32 0x43757272656E6379206973206E6F742077686974656C69737465640000000000 PUSH1 0x44 DUP3 ADD MSTORE PUSH1 0x64 ADD PUSH2 0x981 JUMP JUMPDEST PUSH1 0x0 DUP1 DUP7 DUP2 MSTORE PUSH1 0x5 PUSH1 0x20 MSTORE PUSH1 0x40 SWAP1 KECCAK256 PUSH1 0x2 ADD SLOAD PUSH1 0x1 PUSH1 0xA0 SHL SWAP1 DIV PUSH1 0xFF AND PUSH1 0x4 DUP2 GT ISZERO PUSH2 0x1DF1 JUMPI PUSH2 0x1DF1 PUSH2 0x4122 JUMP JUMPDEST EQ PUSH2 0x1E3E JUMPI PUSH1 0x40 MLOAD PUSH3 0x461BCD PUSH1 0xE5 SHL DUP2 MSTORE PUSH1 0x20 PUSH1 0x4 DUP3 ADD DUP2 SWAP1 MSTORE PUSH1 0x24 DUP3 ADD MSTORE PUSH32 0x526166666C65207374617465206D75737420626520494E5F50524F4752455353 PUSH1 0x44 DUP3 ADD MSTORE PUSH1 0x64 ADD PUSH2 0x981 JUMP JUMPDEST PUSH1 0x0 PUSH1 0xC SLOAD PUSH1 0xB SLOAD DUP4 PUSH1 0x40 ADD MLOAD PUSH1 0x1 PUSH1 0x1 PUSH1 0x80 SHL SUB AND PUSH2 0x1E5E SWAP2 SWAP1 PUSH2 0x475B JUMP JUMPDEST PUSH2 0x1E68 SWAP2 SWAP1 PUSH2 0x4892 JUMP JUMPDEST SWAP1 POP PUSH1 0x0 DUP2 DUP4 PUSH1 0x40 ADD MLOAD PUSH1 0x1 PUSH1 0x1 PUSH1 0x80 SHL SUB AND PUSH2 0x1E85 SWAP2 SWAP1 PUSH2 0x46F7 JUMP JUMPDEST PUSH1 0x20 DUP5 ADD MLOAD SWAP1 SWAP2 POP PUSH1 0x1 PUSH1 0x1 PUSH1 0xA0 SHL SUB AND PUSH2 0x1F43 JUMPI CALLVALUE SWAP4 POP DUP3 PUSH1 0x40 ADD MLOAD PUSH1 0x1 PUSH1 0x1 PUSH1 0x80 SHL SUB AND DUP5 EQ PUSH2 0x1EF1 JUMPI PUSH1 0x40 MLOAD PUSH3 0x461BCD PUSH1 0xE5 SHL DUP2 MSTORE PUSH1 0x20 PUSH1 0x4 DUP3 ADD MSTORE PUSH1 0x15 PUSH1 0x24 DUP3 ADD MSTORE PUSH21 0x4D61746963207061796D656E7420746F6F206C6F77 PUSH1 0x58 SHL PUSH1 0x44 DUP3 ADD MSTORE PUSH1 0x64 ADD PUSH2 0x981 JUMP JUMPDEST DUP3 MLOAD PUSH2 0x1EFD SWAP1 DUP3 PUSH2 0x391A JUMP JUMPDEST PUSH1 0x0 DUP1 DUP1 MSTORE PUSH1 0xD PUSH1 0x20 MSTORE PUSH32 0x81955A0A11E65EAC625C29E8882660BAE4E165A75D72780094ACAE8ECE9A29EE DUP1 SLOAD DUP5 SWAP3 SWAP1 PUSH2 0x1F38 SWAP1 DUP5 SWAP1 PUSH2 0x469B JUMP JUMPDEST SWAP1 SWAP2 SSTORE POP PUSH2 0x1FFD SWAP1 POP JUMP JUMPDEST DUP3 PUSH1 0x40 ADD MLOAD PUSH1 0x1 PUSH1 0x1 PUSH1 0x80 SHL SUB AND DUP5 EQ PUSH2 0x1F91 JUMPI PUSH1 0x40 MLOAD PUSH3 0x461BCD PUSH1 0xE5 SHL DUP2 MSTORE PUSH1 0x20 PUSH1 0x4 DUP3 ADD MSTORE PUSH1 0xF PUSH1 0x24 DUP3 ADD MSTORE PUSH15 0x15DC9BDB99C81C1C9A58D9481CD95D PUSH1 0x8A SHL PUSH1 0x44 DUP3 ADD MSTORE PUSH1 0x64 ADD PUSH2 0x981 JUMP JUMPDEST PUSH1 0x20 DUP4 ADD MLOAD PUSH2 0x1FAB SWAP1 PUSH1 0x1 PUSH1 0x1 PUSH1 0xA0 SHL SUB AND CALLER ADDRESS DUP6 PUSH2 0x36EF JUMP JUMPDEST DUP3 MLOAD PUSH1 0x20 DUP5 ADD MLOAD PUSH2 0x1FCA SWAP2 PUSH1 0x1 PUSH1 0x1 PUSH1 0xA0 SHL SUB SWAP1 SWAP2 AND SWAP1 CALLER SWAP1 DUP5 PUSH2 0x36EF JUMP JUMPDEST PUSH1 0x20 DUP1 DUP5 ADD MLOAD PUSH1 0x1 PUSH1 0x1 PUSH1 0xA0 SHL SUB AND PUSH1 0x0 SWAP1 DUP2 MSTORE PUSH1 0xD SWAP1 SWAP2 MSTORE PUSH1 0x40 DUP2 KECCAK256 DUP1 SLOAD DUP5 SWAP3 SWAP1 PUSH2 0x1FF7 SWAP1 DUP5 SWAP1 PUSH2 0x469B JUMP JUMPDEST SWAP1 SWAP2 SSTORE POP POP JUMPDEST PUSH1 0x0 DUP8 DUP2 MSTORE PUSH1 0x8 PUSH1 0x20 SWAP1 DUP2 MSTORE PUSH1 0x40 DUP1 DUP4 KECCAK256 DUP10 DUP5 MSTORE DUP3 MSTORE DUP1 DUP4 KECCAK256 DUP1 SLOAD PUSH1 0x1 PUSH1 0x1 PUSH1 0xA0 SHL SUB NOT SWAP1 DUP2 AND DUP3 SSTORE PUSH1 0x1 DUP3 ADD DUP1 SLOAD DUP3 AND SWAP1 SSTORE PUSH1 0x2 SWAP1 SWAP2 ADD DUP1 SLOAD PUSH1 0x1 PUSH1 0x1 PUSH1 0x80 SHL SUB NOT AND SWAP1 SSTORE DUP11 DUP5 MSTORE PUSH1 0x7 DUP4 MSTORE DUP2 DUP5 KECCAK256 DUP11 DUP6 MSTORE DUP4 MSTORE SWAP3 DUP2 SWAP1 KECCAK256 DUP1 SLOAD SWAP1 SWAP4 AND PUSH1 0x1 PUSH1 0x1 PUSH1 0xA0 SHL SUB DUP10 AND OR SWAP1 SWAP3 SSTORE DUP5 MLOAD SWAP1 DUP6 ADD MLOAD DUP6 DUP4 ADD MLOAD SWAP3 MLOAD PUSH32 0xB1654D435F5F4797513D52142C36C297361FFE87E796C10CA7B2D24003CC274B SWAP4 PUSH2 0x20A9 SWAP4 DUP11 SWAP4 SWAP1 SWAP3 DUP14 SWAP3 DUP14 SWAP3 SWAP2 PUSH2 0x48A6 JUMP JUMPDEST PUSH1 0x40 MLOAD DUP1 SWAP2 SUB SWAP1 LOG1 POP POP PUSH1 0x1 DUP1 SSTORE POP POP POP POP POP JUMP JUMPDEST PUSH1 0x2 PUSH1 0x1 SLOAD SUB PUSH2 0x20E0 JUMPI PUSH1 0x40 MLOAD PUSH3 0x461BCD PUSH1 0xE5 SHL DUP2 MSTORE PUSH1 0x4 ADD PUSH2 0x981 SWAP1 PUSH2 0x470E JUMP JUMPDEST PUSH1 0x2 PUSH1 0x1 SSTORE PUSH1 0x0 SLOAD PUSH1 0x1 PUSH1 0xA0 SHL SWAP1 DIV PUSH1 0xFF AND ISZERO PUSH2 0x210F JUMPI PUSH1 0x40 MLOAD PUSH3 0x461BCD PUSH1 0xE5 SHL DUP2 MSTORE PUSH1 0x4 ADD PUSH2 0x981 SWAP1 PUSH2 0x4596 JUMP JUMPDEST PUSH1 0x0 DUP2 DUP2 MSTORE PUSH1 0x5 PUSH1 0x20 SWAP1 DUP2 MSTORE PUSH1 0x40 DUP1 DUP4 KECCAK256 DUP2 MLOAD PUSH2 0x1A0 DUP2 ADD DUP4 MSTORE DUP2 SLOAD PUSH1 0x1 PUSH1 0x1 PUSH1 0xA0 SHL SUB SWAP1 DUP2 AND DUP3 MSTORE PUSH1 0x1 DUP4 ADD SLOAD DUP2 AND SWAP5 DUP3 ADD SWAP5 SWAP1 SWAP5 MSTORE PUSH1 0x2 DUP3 ADD SLOAD SWAP4 DUP5 AND SWAP3 DUP2 ADD SWAP3 SWAP1 SWAP3 MSTORE SWAP1 SWAP2 PUSH1 0x60 DUP4 ADD SWAP1 PUSH1 0x1 PUSH1 0xA0 SHL SWAP1 DIV PUSH1 0xFF AND PUSH1 0x4 DUP2 GT ISZERO PUSH2 0x2177 JUMPI PUSH2 0x2177 PUSH2 0x4122 JUMP JUMPDEST PUSH1 0x4 DUP2 GT ISZERO PUSH2 0x2188 JUMPI PUSH2 0x2188 PUSH2 0x4122 JUMP JUMPDEST DUP2 MSTORE PUSH1 0x20 ADD PUSH1 0x2 DUP3 ADD PUSH1 0x15 SWAP1 SLOAD SWAP1 PUSH2 0x100 EXP SWAP1 DIV PUSH1 0xFF AND PUSH1 0x1 DUP2 GT ISZERO PUSH2 0x21B0 JUMPI PUSH2 0x21B0 PUSH2 0x4122 JUMP JUMPDEST PUSH1 0x1 DUP2 GT ISZERO PUSH2 0x21C1 JUMPI PUSH2 0x21C1 PUSH2 0x4122 JUMP JUMPDEST DUP2 MSTORE PUSH1 0x3 DUP3 ADD SLOAD PUSH1 0x1 PUSH1 0x1 PUSH1 0xA0 SHL SUB SWAP1 DUP2 AND PUSH1 0x20 DUP1 DUP5 ADD SWAP2 SWAP1 SWAP2 MSTORE PUSH1 0x4 DUP5 ADD SLOAD PUSH1 0x40 DUP5 ADD MSTORE PUSH1 0x5 DUP5 ADD SLOAD PUSH1 0x1 PUSH1 0x1 PUSH1 0x80 SHL SUB DUP1 DUP3 AND PUSH1 0x60 DUP7 ADD MSTORE PUSH1 0x1 PUSH1 0x80 SHL SWAP2 DUP3 SWAP1 DIV AND PUSH1 0x80 DUP6 ADD MSTORE PUSH1 0x6 SWAP1 SWAP5 ADD SLOAD PUSH1 0x1 PUSH1 0x1 PUSH1 0x40 SHL SUB DUP1 DUP3 AND PUSH1 0xA0 DUP7 ADD MSTORE PUSH1 0x1 PUSH1 0x40 SHL DUP3 DIV DUP2 AND PUSH1 0xC0 DUP7 ADD MSTORE SWAP5 DUP2 DIV DUP6 AND PUSH1 0xE0 DUP6 ADD MSTORE PUSH1 0x1 PUSH1 0xC0 SHL SWAP1 DIV SWAP1 SWAP4 AND PUSH2 0x100 SWAP1 SWAP3 ADD SWAP2 SWAP1 SWAP2 MSTORE SWAP1 DUP3 ADD MLOAD SWAP2 SWAP3 POP AND CALLER EQ PUSH2 0x22B2 JUMPI PUSH1 0x40 MLOAD PUSH3 0x461BCD PUSH1 0xE5 SHL DUP2 MSTORE PUSH1 0x20 PUSH1 0x4 DUP3 ADD MSTORE PUSH1 0x27 PUSH1 0x24 DUP3 ADD MSTORE PUSH32 0x596F752063616E6E6F742063616E63656C20736F6D656F6E6520656C73652773 PUSH1 0x44 DUP3 ADD MSTORE PUSH7 0x20726166666C65 PUSH1 0xC8 SHL PUSH1 0x64 DUP3 ADD MSTORE PUSH1 0x84 ADD PUSH2 0x981 JUMP JUMPDEST PUSH1 0x0 DUP2 PUSH1 0x60 ADD MLOAD PUSH1 0x4 DUP2 GT ISZERO PUSH2 0x22CA JUMPI PUSH2 0x22CA PUSH2 0x4122 JUMP JUMPDEST EQ PUSH2 0x22E7 JUMPI PUSH1 0x40 MLOAD PUSH3 0x461BCD PUSH1 0xE5 SHL DUP2 MSTORE PUSH1 0x4 ADD PUSH2 0x981 SWAP1 PUSH2 0x45F7 JUMP JUMPDEST PUSH1 0x1 DUP2 PUSH2 0x160 ADD MLOAD PUSH1 0x1 PUSH1 0x1 PUSH1 0x40 SHL SUB AND LT PUSH2 0x2345 JUMPI PUSH1 0x40 MLOAD PUSH3 0x461BCD PUSH1 0xE5 SHL DUP2 MSTORE PUSH1 0x20 PUSH1 0x4 DUP3 ADD DUP2 SWAP1 MSTORE PUSH1 0x24 DUP3 ADD MSTORE PUSH32 0x5469636B657473206861766520616C7265616479206265656E20626F75676874 PUSH1 0x44 DUP3 ADD MSTORE PUSH1 0x64 ADD PUSH2 0x981 JUMP JUMPDEST PUSH1 0x0 DUP3 DUP2 MSTORE PUSH1 0x5 PUSH1 0x20 DUP2 SWAP1 MSTORE PUSH1 0x40 DUP1 DUP4 KECCAK256 DUP1 SLOAD PUSH1 0x1 PUSH1 0x1 PUSH1 0xA0 SHL SUB NOT SWAP1 DUP2 AND DUP3 SSTORE PUSH1 0x1 DUP3 ADD DUP1 SLOAD DUP3 AND SWAP1 SSTORE PUSH1 0x2 DUP3 ADD DUP1 SLOAD PUSH1 0x3 DUP1 DUP6 ADD DUP1 SLOAD SWAP1 SWAP5 AND SWAP1 SWAP4 SSTORE PUSH1 0x4 DUP5 ADD DUP8 SWAP1 SSTORE SWAP5 DUP4 ADD DUP7 SWAP1 SSTORE PUSH1 0x6 SWAP1 SWAP3 ADD DUP6 SWAP1 SSTORE PUSH1 0x1 PUSH1 0x1 PUSH1 0xB0 SHL SUB NOT SWAP1 SWAP4 AND PUSH1 0x3 PUSH1 0xA0 SHL OR SWAP1 SSTORE MLOAD PUSH1 0x0 DUP1 MLOAD PUSH1 0x20 PUSH2 0x49E0 DUP4 CODECOPY DUP2 MLOAD SWAP2 MSTORE SWAP3 PUSH2 0x23C8 SWAP3 DUP7 SWAP3 PUSH2 0x4826 JUMP JUMPDEST PUSH1 0x40 MLOAD DUP1 SWAP2 SUB SWAP1 LOG1 PUSH1 0x0 DUP2 PUSH1 0x80 ADD MLOAD PUSH1 0x1 DUP2 GT ISZERO PUSH2 0x23E8 JUMPI PUSH2 0x23E8 PUSH2 0x4122 JUMP JUMPDEST SUB PUSH2 0x2473 JUMPI PUSH1 0x0 DUP1 MLOAD PUSH1 0x20 PUSH2 0x49C0 DUP4 CODECOPY DUP2 MLOAD SWAP2 MSTORE DUP2 PUSH1 0x20 ADD MLOAD DUP3 PUSH1 0x0 ADD MLOAD PUSH1 0x1 DUP5 PUSH1 0xE0 ADD MLOAD PUSH1 0x0 PUSH1 0x40 MLOAD PUSH2 0x2420 SWAP6 SWAP5 SWAP4 SWAP3 SWAP2 SWAP1 PUSH2 0x47BB JUMP JUMPDEST PUSH1 0x40 MLOAD DUP1 SWAP2 SUB SWAP1 LOG1 PUSH1 0x0 DUP1 MLOAD PUSH1 0x20 PUSH2 0x49C0 DUP4 CODECOPY DUP2 MLOAD SWAP2 MSTORE DUP2 PUSH1 0x20 ADD MLOAD PUSH1 0x0 DUP1 PUSH1 0x6 PUSH1 0x0 DUP8 DUP2 MSTORE PUSH1 0x20 ADD SWAP1 DUP2 MSTORE PUSH1 0x20 ADD PUSH1 0x0 KECCAK256 SLOAD PUSH1 0x0 PUSH1 0x40 MLOAD PUSH2 0x2466 SWAP6 SWAP5 SWAP4 SWAP3 SWAP2 SWAP1 PUSH2 0x47F5 JUMP JUMPDEST PUSH1 0x40 MLOAD DUP1 SWAP2 SUB SWAP1 LOG1 PUSH2 0x24CC JUMP JUMPDEST PUSH1 0x1 DUP2 PUSH1 0x80 ADD MLOAD PUSH1 0x1 DUP2 GT ISZERO PUSH2 0x248B JUMPI PUSH2 0x248B PUSH2 0x4122 JUMP JUMPDEST SUB PUSH2 0x24CC JUMPI PUSH1 0x0 DUP1 MLOAD PUSH1 0x20 PUSH2 0x49C0 DUP4 CODECOPY DUP2 MLOAD SWAP2 MSTORE DUP2 PUSH1 0x20 ADD MLOAD DUP3 PUSH1 0x0 ADD MLOAD PUSH1 0x0 DUP5 PUSH1 0xE0 ADD MLOAD PUSH1 0x0 PUSH1 0x40 MLOAD PUSH2 0x24C3 SWAP6 SWAP5 SWAP4 SWAP3 SWAP2 SWAP1 PUSH2 0x47BB JUMP JUMPDEST PUSH1 0x40 MLOAD DUP1 SWAP2 SUB SWAP1 LOG1 JUMPDEST PUSH1 0x40 MLOAD DUP3 DUP2 MSTORE PUSH32 0x7FA78BAB5D5570F162C69234A3F4D1B9294FD5BCA72219CB16C1FE38839CCB8A SWAP1 PUSH1 0x20 ADD PUSH1 0x40 MLOAD DUP1 SWAP2 SUB SWAP1 LOG1 POP POP PUSH1 0x1 DUP1 SSTORE JUMP JUMPDEST PUSH1 0x0 SLOAD PUSH1 0x1 PUSH1 0x1 PUSH1 0xA0 SHL SUB AND CALLER EQ PUSH2 0x2531 JUMPI PUSH1 0x40 MLOAD PUSH3 0x461BCD PUSH1 0xE5 SHL DUP2 MSTORE PUSH1 0x4 ADD PUSH2 0x981 SWAP1 PUSH2 0x4847 JUMP JUMPDEST PUSH1 0x3 DUP1 SLOAD PUSH1 0x1 PUSH1 0x1 PUSH1 0xA0 SHL SUB NOT AND PUSH1 0x1 PUSH1 0x1 PUSH1 0xA0 SHL SUB SWAP3 SWAP1 SWAP3 AND SWAP2 SWAP1 SWAP2 OR SWAP1 SSTORE JUMP JUMPDEST PUSH1 0x0 SLOAD PUSH1 0x1 PUSH1 0xA0 SHL SWAP1 DIV PUSH1 0xFF AND ISZERO PUSH2 0x257D JUMPI PUSH1 0x40 MLOAD PUSH3 0x461BCD PUSH1 0xE5 SHL DUP2 MSTORE PUSH1 0x4 ADD PUSH2 0x981 SWAP1 PUSH2 0x4596 JUMP JUMPDEST PUSH1 0x0 DUP5 DUP2 MSTORE PUSH1 0x7 PUSH1 0x20 SWAP1 DUP2 MSTORE PUSH1 0x40 DUP1 DUP4 KECCAK256 DUP7 DUP5 MSTORE SWAP1 SWAP2 MSTORE SWAP1 KECCAK256 SLOAD PUSH1 0x1 PUSH1 0x1 PUSH1 0xA0 SHL SUB AND CALLER EQ PUSH2 0x25EE JUMPI PUSH1 0x40 MLOAD PUSH3 0x461BCD PUSH1 0xE5 SHL DUP2 MSTORE PUSH1 0x20 PUSH1 0x4 DUP3 ADD MSTORE PUSH1 0x1A PUSH1 0x24 DUP3 ADD MSTORE PUSH32 0x596F7520646F206E6F74206F776E2074686973207469636B6574000000000000 PUSH1 0x44 DUP3 ADD MSTORE PUSH1 0x64 ADD PUSH2 0x981 JUMP JUMPDEST PUSH1 0x1 PUSH1 0x1 PUSH1 0xA0 SHL SUB DUP3 AND PUSH1 0x0 SWAP1 DUP2 MSTORE PUSH1 0x4 PUSH1 0x20 MSTORE PUSH1 0x40 SWAP1 KECCAK256 SLOAD PUSH1 0xFF AND PUSH2 0x2656 JUMPI PUSH1 0x40 MLOAD PUSH3 0x461BCD PUSH1 0xE5 SHL DUP2 MSTORE PUSH1 0x20 PUSH1 0x4 DUP3 ADD DUP2 SWAP1 MSTORE PUSH1 0x24 DUP3 ADD MSTORE PUSH32 0x546869732063757272656E6379206973206E6F742077686974656C6973746564 PUSH1 0x44 DUP3 ADD MSTORE PUSH1 0x64 ADD PUSH2 0x981 JUMP JUMPDEST PUSH1 0x0 DUP1 DUP6 DUP2 MSTORE PUSH1 0x5 PUSH1 0x20 MSTORE PUSH1 0x40 SWAP1 KECCAK256 PUSH1 0x2 ADD SLOAD PUSH1 0x1 PUSH1 0xA0 SHL SWAP1 DIV PUSH1 0xFF AND PUSH1 0x4 DUP2 GT ISZERO PUSH2 0x2684 JUMPI PUSH2 0x2684 PUSH2 0x4122 JUMP JUMPDEST EQ PUSH2 0x26A1 JUMPI PUSH1 0x40 MLOAD PUSH3 0x461BCD PUSH1 0xE5 SHL DUP2 MSTORE PUSH1 0x4 ADD PUSH2 0x981 SWAP1 PUSH2 0x45F7 JUMP JUMPDEST PUSH1 0x0 DUP5 DUP2 MSTORE PUSH1 0x8 PUSH1 0x20 SWAP1 DUP2 MSTORE PUSH1 0x40 DUP1 DUP4 KECCAK256 DUP7 DUP5 MSTORE SWAP1 SWAP2 MSTORE SWAP1 DUP2 SWAP1 KECCAK256 DUP1 SLOAD CALLER PUSH1 0x1 PUSH1 0x1 PUSH1 0xA0 SHL SUB NOT SWAP2 DUP3 AND DUP2 OR DUP4 SSTORE PUSH1 0x1 DUP4 ADD DUP1 SLOAD SWAP1 SWAP3 AND PUSH1 0x1 PUSH1 0x1 PUSH1 0xA0 SHL SUB DUP8 AND OR SWAP1 SWAP2 SSTORE PUSH1 0x2 DUP3 ADD DUP1 SLOAD PUSH1 0x1 PUSH1 0x1 PUSH1 0x80 SHL SUB NOT AND PUSH1 0x1 PUSH1 0x1 PUSH1 0x80 SHL SUB DUP7 AND OR SWAP1 SSTORE SWAP2 MLOAD SWAP1 SWAP2 PUSH32 0xE25F318179F8B2E7117F1BBE46D0C32E76E31BA60E7717909B0279A1DEC56133 SWAP2 PUSH2 0x273B SWAP2 SWAP1 DUP9 SWAP1 DUP9 SWAP1 DUP9 SWAP1 DUP9 SWAP1 PUSH2 0x48E9 JUMP JUMPDEST PUSH1 0x40 MLOAD DUP1 SWAP2 SUB SWAP1 LOG1 POP POP POP POP POP JUMP JUMPDEST PUSH1 0x0 SLOAD PUSH1 0x1 PUSH1 0x1 PUSH1 0xA0 SHL SUB AND CALLER EQ PUSH2 0x2774 JUMPI PUSH1 0x40 MLOAD PUSH3 0x461BCD PUSH1 0xE5 SHL DUP2 MSTORE PUSH1 0x4 ADD PUSH2 0x981 SWAP1 PUSH2 0x4847 JUMP JUMPDEST PUSH1 0x0 DUP1 SLOAD PUSH1 0x40 MLOAD PUSH1 0x1 PUSH1 0x1 PUSH1 0xA0 SHL SUB SWAP1 SWAP2 AND SWAP1 PUSH32 0x8BE0079C531659141344CD1FD0A4F28419497F9722A3DAAFE3B4186F6B6457E0 SWAP1 DUP4 SWAP1 LOG3 PUSH1 0x0 DUP1 SLOAD PUSH1 0x1 PUSH1 0x1 PUSH1 0xA0 SHL SUB NOT AND SWAP1 SSTORE JUMP JUMPDEST CALLER PUSH1 0x1 PUSH1 0x1 PUSH1 0xA0 SHL SUB PUSH32 0x0 AND EQ PUSH2 0x949 JUMPI PUSH1 0x40 MLOAD PUSH3 0x461BCD PUSH1 0xE5 SHL DUP2 MSTORE PUSH1 0x20 PUSH1 0x4 DUP3 ADD MSTORE PUSH1 0x1F PUSH1 0x24 DUP3 ADD MSTORE PUSH32 0x4F6E6C7920565246436F6F7264696E61746F722063616E2066756C66696C6C00 PUSH1 0x44 DUP3 ADD MSTORE PUSH1 0x64 ADD PUSH2 0x981 JUMP JUMPDEST PUSH2 0x28A2 PUSH1 0x40 DUP1 MLOAD PUSH2 0x1A0 DUP2 ADD DUP3 MSTORE PUSH1 0x0 DUP1 DUP3 MSTORE PUSH1 0x20 DUP3 ADD DUP2 SWAP1 MSTORE SWAP2 DUP2 ADD DUP3 SWAP1 MSTORE SWAP1 PUSH1 0x60 DUP3 ADD SWAP1 DUP2 MSTORE PUSH1 0x20 ADD PUSH1 0x0 DUP2 MSTORE PUSH1 0x0 PUSH1 0x20 DUP3 ADD DUP2 SWAP1 MSTORE PUSH1 0x40 DUP3 ADD DUP2 SWAP1 MSTORE PUSH1 0x60 DUP3 ADD DUP2 SWAP1 MSTORE PUSH1 0x80 DUP3 ADD DUP2 SWAP1 MSTORE PUSH1 0xA0 DUP3 ADD DUP2 SWAP1 MSTORE PUSH1 0xC0 DUP3 ADD DUP2 SWAP1 MSTORE PUSH1 0xE0 DUP3 ADD DUP2 SWAP1 MSTORE PUSH2 0x100 SWAP1 SWAP2 ADD MSTORE SWAP1 JUMP JUMPDEST PUSH1 0xA SLOAD DUP3 GT ISZERO PUSH2 0x28F4 JUMPI PUSH1 0x40 MLOAD PUSH3 0x461BCD PUSH1 0xE5 SHL DUP2 MSTORE PUSH1 0x20 PUSH1 0x4 DUP3 ADD MSTORE PUSH1 0x1C PUSH1 0x24 DUP3 ADD MSTORE PUSH32 0x54686520726166666C6520494420646F6573206E6F7420657869737400000000 PUSH1 0x44 DUP3 ADD MSTORE PUSH1 0x64 ADD PUSH2 0x981 JUMP JUMPDEST PUSH1 0x0 DUP3 DUP2 MSTORE PUSH1 0x5 PUSH1 0x20 SWAP1 DUP2 MSTORE PUSH1 0x40 SWAP2 DUP3 SWAP1 KECCAK256 DUP3 MLOAD PUSH2 0x1A0 DUP2 ADD DUP5 MSTORE DUP2 SLOAD PUSH1 0x1 PUSH1 0x1 PUSH1 0xA0 SHL SUB SWAP1 DUP2 AND DUP3 MSTORE PUSH1 0x1 DUP4 ADD SLOAD DUP2 AND SWAP4 DUP3 ADD SWAP4 SWAP1 SWAP4 MSTORE PUSH1 0x2 DUP3 ADD SLOAD SWAP3 DUP4 AND SWAP4 DUP2 ADD SWAP4 SWAP1 SWAP4 MSTORE SWAP1 PUSH1 0x60 DUP4 ADD SWAP1 PUSH1 0x1 PUSH1 0xA0 SHL SWAP1 DIV PUSH1 0xFF AND PUSH1 0x4 DUP2 GT ISZERO PUSH2 0x295C JUMPI PUSH2 0x295C PUSH2 0x4122 JUMP JUMPDEST PUSH1 0x4 DUP2 GT ISZERO PUSH2 0x296D JUMPI PUSH2 0x296D PUSH2 0x4122 JUMP JUMPDEST DUP2 MSTORE PUSH1 0x20 ADD PUSH1 0x2 DUP3 ADD PUSH1 0x15 SWAP1 SLOAD SWAP1 PUSH2 0x100 EXP SWAP1 DIV PUSH1 0xFF AND PUSH1 0x1 DUP2 GT ISZERO PUSH2 0x2995 JUMPI PUSH2 0x2995 PUSH2 0x4122 JUMP JUMPDEST PUSH1 0x1 DUP2 GT ISZERO PUSH2 0x29A6 JUMPI PUSH2 0x29A6 PUSH2 0x4122 JUMP JUMPDEST DUP2 MSTORE PUSH1 0x3 DUP3 ADD SLOAD PUSH1 0x1 PUSH1 0x1 PUSH1 0xA0 SHL SUB AND PUSH1 0x20 DUP3 ADD MSTORE PUSH1 0x4 DUP3 ADD SLOAD PUSH1 0x40 DUP3 ADD MSTORE PUSH1 0x5 DUP3 ADD SLOAD PUSH1 0x1 PUSH1 0x1 PUSH1 0x80 SHL SUB DUP1 DUP3 AND PUSH1 0x60 DUP5 ADD MSTORE PUSH1 0x1 PUSH1 0x80 SHL SWAP2 DUP3 SWAP1 DIV AND PUSH1 0x80 DUP4 ADD MSTORE PUSH1 0x6 SWAP1 SWAP3 ADD SLOAD PUSH1 0x1 PUSH1 0x1 PUSH1 0x40 SHL SUB DUP1 DUP3 AND PUSH1 0xA0 DUP5 ADD MSTORE PUSH1 0x1 PUSH1 0x40 SHL DUP3 DIV DUP2 AND PUSH1 0xC0 DUP5 ADD MSTORE SWAP3 DUP2 DIV DUP4 AND PUSH1 0xE0 DUP4 ADD MSTORE PUSH1 0x1 PUSH1 0xC0 SHL SWAP1 DIV SWAP1 SWAP2 AND PUSH2 0x100 SWAP1 SWAP2 ADD MSTORE SWAP3 SWAP2 POP POP JUMP JUMPDEST PUSH1 0x0 DUP3 DUP2 MSTORE PUSH1 0x7 PUSH1 0x20 SWAP1 DUP2 MSTORE PUSH1 0x40 DUP1 DUP4 KECCAK256 DUP5 DUP5 MSTORE SWAP1 SWAP2 MSTORE DUP2 KECCAK256 SLOAD PUSH1 0x1 PUSH1 0x1 PUSH1 0xA0 SHL SUB AND DUP1 PUSH2 0x2A96 JUMPI PUSH1 0x40 MLOAD PUSH3 0x461BCD PUSH1 0xE5 SHL DUP2 MSTORE PUSH1 0x20 PUSH1 0x4 DUP3 ADD MSTORE PUSH1 0x15 PUSH1 0x24 DUP3 ADD MSTORE PUSH21 0x151A58DAD95D08191BD95CC81B9BDD08195E1A5CDD PUSH1 0x5A SHL PUSH1 0x44 DUP3 ADD MSTORE PUSH1 0x64 ADD PUSH2 0x981 JUMP JUMPDEST SWAP1 POP JUMPDEST SWAP3 SWAP2 POP POP JUMP JUMPDEST PUSH1 0x0 SLOAD PUSH1 0x1 PUSH1 0x1 PUSH1 0xA0 SHL SUB AND CALLER EQ PUSH2 0x2AC9 JUMPI PUSH1 0x40 MLOAD PUSH3 0x461BCD PUSH1 0xE5 SHL DUP2 MSTORE PUSH1 0x4 ADD PUSH2 0x981 SWAP1 PUSH2 0x4847 JUMP JUMPDEST PUSH1 0x0 SLOAD PUSH1 0x1 PUSH1 0xA0 SHL SWAP1 DIV PUSH1 0xFF AND PUSH2 0x2AE4 JUMPI PUSH2 0x2AE2 PUSH2 0x3A58 JUMP JUMPDEST JUMP JUMPDEST PUSH2 0x2AE2 PUSH2 0x3ADA JUMP JUMPDEST PUSH1 0x3 SLOAD PUSH1 0x1 PUSH1 0x1 PUSH1 0xA0 SHL SUB AND CALLER EQ PUSH2 0x2B34 JUMPI PUSH1 0x40 MLOAD PUSH3 0x461BCD PUSH1 0xE5 SHL DUP2 MSTORE PUSH1 0x20 PUSH1 0x4 DUP3 ADD MSTORE PUSH1 0xB PUSH1 0x24 DUP3 ADD MSTORE PUSH11 0x27B7363CA932B630BCB2B9 PUSH1 0xA9 SHL PUSH1 0x44 DUP3 ADD MSTORE PUSH1 0x64 ADD PUSH2 0x981 JUMP JUMPDEST PUSH1 0x0 SLOAD PUSH1 0x1 PUSH1 0xA0 SHL SWAP1 DIV PUSH1 0xFF AND ISZERO PUSH2 0x2B5E JUMPI PUSH1 0x40 MLOAD PUSH3 0x461BCD PUSH1 0xE5 SHL DUP2 MSTORE PUSH1 0x4 ADD PUSH2 0x981 SWAP1 PUSH2 0x4596 JUMP JUMPDEST PUSH1 0x1 PUSH1 0xA PUSH1 0x0 DUP3 DUP3 SLOAD PUSH2 0x2B71 SWAP2 SWAP1 PUSH2 0x469B JUMP JUMPDEST SWAP1 SWAP2 SSTORE POP POP PUSH1 0xA SLOAD PUSH1 0x0 SWAP1 DUP2 MSTORE PUSH1 0x5 PUSH1 0x20 SWAP1 DUP2 MSTORE PUSH1 0x40 SWAP1 SWAP2 KECCAK256 DUP4 MLOAD DUP2 SLOAD PUSH1 0x1 PUSH1 0x1 PUSH1 0xA0 SHL SUB SWAP2 DUP3 AND PUSH1 0x1 PUSH1 0x1 PUSH1 0xA0 SHL SUB NOT SWAP2 DUP3 AND OR DUP4 SSTORE SWAP3 DUP6 ADD MLOAD PUSH1 0x1 DUP1 DUP5 ADD DUP1 SLOAD SWAP3 SWAP1 SWAP4 AND SWAP2 SWAP1 SWAP5 AND OR SWAP1 SSTORE PUSH1 0x2 DUP2 ADD DUP1 SLOAD PUSH1 0xFF PUSH1 0xA0 SHL NOT DUP2 AND DUP3 SSTORE PUSH1 0x80 DUP7 ADD MLOAD SWAP3 SWAP4 PUSH2 0xFFFF PUSH1 0xA0 SHL NOT SWAP1 SWAP2 AND SWAP1 PUSH1 0x1 PUSH1 0xA8 SHL SWAP1 DUP5 SWAP1 DUP2 GT ISZERO PUSH2 0x2BF7 JUMPI PUSH2 0x2BF7 PUSH2 0x4122 JUMP JUMPDEST MUL OR SWAP1 SSTORE POP PUSH1 0xE0 DUP4 ADD MLOAD PUSH1 0xA0 DUP5 ADD MLOAD PUSH1 0x3 DUP4 ADD DUP1 SLOAD PUSH1 0x1 PUSH1 0x1 PUSH1 0xA0 SHL SUB SWAP1 SWAP3 AND PUSH1 0x1 PUSH1 0x1 PUSH1 0xA0 SHL SUB NOT SWAP1 SWAP3 AND SWAP2 SWAP1 SWAP2 OR SWAP1 SSTORE PUSH2 0x100 DUP5 ADD MLOAD PUSH1 0x1 PUSH1 0x1 PUSH1 0x80 SHL SUB SWAP1 DUP2 AND PUSH1 0x1 PUSH1 0x80 SHL MUL SWAP2 AND OR PUSH1 0x5 DUP3 ADD SSTORE PUSH1 0xC0 DUP4 ADD MLOAD PUSH1 0x4 DUP3 ADD SSTORE PUSH2 0x120 DUP4 ADD MLOAD PUSH1 0x6 DUP1 DUP4 ADD DUP1 SLOAD PUSH2 0x140 DUP8 ADD MLOAD PUSH2 0x180 DUP9 ADD MLOAD PUSH1 0x1 PUSH1 0x1 PUSH1 0x40 SHL SUB SWAP1 DUP2 AND PUSH1 0x1 PUSH1 0xC0 SHL MUL PUSH1 0x1 PUSH1 0x1 PUSH1 0xC0 SHL SUB SWAP3 DUP3 AND PUSH1 0x1 PUSH1 0x40 SHL MUL PUSH1 0x1 PUSH1 0x1 PUSH1 0x80 SHL SUB NOT SWAP5 SWAP1 SWAP5 AND SWAP2 SWAP1 SWAP7 AND OR SWAP2 SWAP1 SWAP2 OR AND SWAP3 SWAP1 SWAP3 OR SWAP1 SWAP2 SSTORE PUSH1 0xA DUP1 SLOAD PUSH1 0x0 SWAP1 DUP2 MSTORE PUSH1 0x20 SWAP3 SWAP1 SWAP3 MSTORE PUSH1 0x40 SWAP2 DUP3 SWAP1 KECCAK256 DUP5 SWAP1 SSTORE SLOAD SWAP1 MLOAD PUSH32 0x28DA189CBD771FF4D67710B07A94A6785E6DFB42F2DC01B7F0F95F03658BFF3D SWAP2 PUSH2 0x2CF5 SWAP2 SWAP1 DUP2 MSTORE PUSH1 0x20 ADD SWAP1 JUMP JUMPDEST PUSH1 0x40 MLOAD DUP1 SWAP2 SUB SWAP1 LOG1 POP POP POP JUMP JUMPDEST PUSH1 0x0 SLOAD PUSH1 0x1 PUSH1 0xA0 SHL SWAP1 DIV PUSH1 0xFF AND ISZERO PUSH2 0x2D2C JUMPI PUSH1 0x40 MLOAD PUSH3 0x461BCD PUSH1 0xE5 SHL DUP2 MSTORE PUSH1 0x4 ADD PUSH2 0x981 SWAP1 PUSH2 0x4596 JUMP JUMPDEST PUSH1 0x0 DUP3 DUP2 MSTORE PUSH1 0x8 PUSH1 0x20 SWAP1 DUP2 MSTORE PUSH1 0x40 DUP1 DUP4 KECCAK256 DUP5 DUP5 MSTORE DUP3 MSTORE SWAP2 DUP3 SWAP1 KECCAK256 DUP3 MLOAD PUSH1 0x60 DUP2 ADD DUP5 MSTORE DUP2 SLOAD PUSH1 0x1 PUSH1 0x1 PUSH1 0xA0 SHL SUB SWAP1 DUP2 AND DUP1 DUP4 MSTORE PUSH1 0x1 DUP5 ADD SLOAD SWAP1 SWAP2 AND SWAP4 DUP3 ADD SWAP4 SWAP1 SWAP4 MSTORE PUSH1 0x2 SWAP1 SWAP2 ADD SLOAD PUSH1 0x1 PUSH1 0x1 PUSH1 0x80 SHL SUB AND SWAP3 DUP2 ADD SWAP3 SWAP1 SWAP3 MSTORE CALLER EQ PUSH2 0x2DD1 JUMPI PUSH1 0x40 MLOAD PUSH3 0x461BCD PUSH1 0xE5 SHL DUP2 MSTORE PUSH1 0x20 PUSH1 0x4 DUP3 ADD MSTORE PUSH1 0x19 PUSH1 0x24 DUP3 ADD MSTORE PUSH32 0x596F7520646F206E6F74206F776E2074686973206F7264657200000000000000 PUSH1 0x44 DUP3 ADD MSTORE PUSH1 0x64 ADD PUSH2 0x981 JUMP JUMPDEST PUSH1 0x0 DUP4 DUP2 MSTORE PUSH1 0x8 PUSH1 0x20 SWAP1 DUP2 MSTORE PUSH1 0x40 DUP1 DUP4 KECCAK256 DUP6 DUP5 MSTORE DUP3 MSTORE SWAP2 DUP3 SWAP1 KECCAK256 DUP1 SLOAD PUSH1 0x1 PUSH1 0x1 PUSH1 0xA0 SHL SUB NOT SWAP1 DUP2 AND DUP3 SSTORE PUSH1 0x1 DUP3 ADD DUP1 SLOAD SWAP1 SWAP2 AND SWAP1 SSTORE PUSH1 0x2 ADD DUP1 SLOAD PUSH1 0x1 PUSH1 0x1 PUSH1 0x80 SHL SUB NOT AND SWAP1 SSTORE DUP3 ADD MLOAD DUP3 DUP3 ADD MLOAD SWAP2 MLOAD PUSH32 0xDFB5DFAA81A89E8E8DA092A59E3090660AFD72B8533C2AB9BB7BD4FB7B9C5E06 SWAP3 PUSH2 0x2CF5 SWAP3 CALLER SWAP3 DUP9 SWAP3 DUP9 SWAP3 SWAP2 PUSH2 0x48E9 JUMP JUMPDEST PUSH1 0x2 PUSH1 0x1 SLOAD SUB PUSH2 0x2E74 JUMPI PUSH1 0x40 MLOAD PUSH3 0x461BCD PUSH1 0xE5 SHL DUP2 MSTORE PUSH1 0x4 ADD PUSH2 0x981 SWAP1 PUSH2 0x470E JUMP JUMPDEST PUSH1 0x2 PUSH1 0x1 SSTORE PUSH1 0x0 SLOAD PUSH1 0x1 PUSH1 0xA0 SHL SWAP1 DIV PUSH1 0xFF AND ISZERO PUSH2 0x2EA3 JUMPI PUSH1 0x40 MLOAD PUSH3 0x461BCD PUSH1 0xE5 SHL DUP2 MSTORE PUSH1 0x4 ADD PUSH2 0x981 SWAP1 PUSH2 0x4596 JUMP JUMPDEST PUSH1 0x0 DUP9 DUP2 MSTORE PUSH1 0x7 PUSH1 0x20 SWAP1 DUP2 MSTORE PUSH1 0x40 DUP1 DUP4 KECCAK256 DUP11 DUP5 MSTORE SWAP1 SWAP2 MSTORE SWAP1 KECCAK256 SLOAD PUSH1 0x1 PUSH1 0x1 PUSH1 0xA0 SHL SUB AND DUP1 PUSH2 0x2F13 JUMPI PUSH1 0x40 MLOAD PUSH3 0x461BCD PUSH1 0xE5 SHL DUP2 MSTORE PUSH1 0x20 PUSH1 0x4 DUP3 ADD MSTORE PUSH1 0x1A PUSH1 0x24 DUP3 ADD MSTORE PUSH32 0x54686973207469636B657420646F6573206E6F74206578697374000000000000 PUSH1 0x44 DUP3 ADD MSTORE PUSH1 0x64 ADD PUSH2 0x981 JUMP JUMPDEST PUSH1 0x1 PUSH1 0x1 PUSH1 0xA0 SHL SUB DUP8 AND PUSH1 0x0 SWAP1 DUP2 MSTORE PUSH1 0x4 PUSH1 0x20 MSTORE PUSH1 0x40 SWAP1 KECCAK256 SLOAD PUSH1 0xFF AND PUSH2 0x2F7B JUMPI PUSH1 0x40 MLOAD PUSH3 0x461BCD PUSH1 0xE5 SHL DUP2 MSTORE PUSH1 0x20 PUSH1 0x4 DUP3 ADD MSTORE PUSH1 0x1B PUSH1 0x24 DUP3 ADD MSTORE PUSH32 0x43757272656E6379206973206E6F742077686974656C69737465640000000000 PUSH1 0x44 DUP3 ADD MSTORE PUSH1 0x64 ADD PUSH2 0x981 JUMP JUMPDEST PUSH1 0x0 DUP1 DUP11 DUP2 MSTORE PUSH1 0x5 PUSH1 0x20 MSTORE PUSH1 0x40 SWAP1 KECCAK256 PUSH1 0x2 ADD SLOAD PUSH1 0x1 PUSH1 0xA0 SHL SWAP1 DIV PUSH1 0xFF AND PUSH1 0x4 DUP2 GT ISZERO PUSH2 0x2FA9 JUMPI PUSH2 0x2FA9 PUSH2 0x4122 JUMP JUMPDEST EQ PUSH2 0x2FF6 JUMPI PUSH1 0x40 MLOAD PUSH3 0x461BCD PUSH1 0xE5 SHL DUP2 MSTORE PUSH1 0x20 PUSH1 0x4 DUP3 ADD DUP2 SWAP1 MSTORE PUSH1 0x24 DUP3 ADD MSTORE PUSH32 0x526166666C65207374617465206D75737420626520494E5F50524F4752455353 PUSH1 0x44 DUP3 ADD MSTORE PUSH1 0x64 ADD PUSH2 0x981 JUMP JUMPDEST PUSH1 0x40 DUP1 MLOAD DUP1 DUP3 ADD DUP3 MSTORE PUSH1 0xD DUP2 MSTORE PUSH13 0x2930B3333632A837B63CB3B7B7 PUSH1 0x99 SHL PUSH1 0x20 SWAP2 DUP3 ADD MSTORE DUP2 MLOAD DUP1 DUP4 ADD DUP4 MSTORE PUSH1 0x1 DUP2 MSTORE PUSH1 0x31 PUSH1 0xF8 SHL SWAP1 DUP3 ADD MSTORE DUP2 MLOAD PUSH32 0x8B73C3C69BB8FE3D512ECC4CF759CC79239F7B179B0FFACAA9A75D522B39400F SWAP2 DUP2 ADD SWAP2 SWAP1 SWAP2 MSTORE PUSH32 0x85B04FC225F27FD8C5D2924B957CC4B53A59F872A5F453B30B978BC7BB3BB64D SWAP2 DUP2 ADD SWAP2 SWAP1 SWAP2 MSTORE PUSH32 0xC89EFDAA54C0F20C7ADF612882DF0950F5A951637E0307CDCB4C672F298B8BC6 PUSH1 0x60 DUP3 ADD MSTORE CHAINID PUSH1 0x80 DUP3 ADD MSTORE ADDRESS PUSH1 0xA0 DUP3 ADD MSTORE PUSH1 0x0 SWAP1 PUSH1 0xC0 ADD PUSH1 0x40 DUP1 MLOAD PUSH1 0x1F NOT DUP2 DUP5 SUB ADD DUP2 MSTORE DUP3 DUP3 MSTORE DUP1 MLOAD PUSH1 0x20 SWAP2 DUP3 ADD KECCAK256 PUSH1 0x1 PUSH1 0x1 PUSH1 0xA0 SHL SUB DUP1 DUP8 AND PUSH1 0x0 SWAP1 DUP2 MSTORE PUSH1 0xE DUP5 MSTORE DUP5 DUP2 KECCAK256 SLOAD PUSH32 0xD5D8257C00A566D5E44AC531FBD43C4E3DBAA0DEBF869F903785354681AEA9AD SWAP5 DUP8 ADD SWAP5 SWAP1 SWAP5 MSTORE CALLER SWAP5 DUP7 ADD SWAP5 SWAP1 SWAP5 MSTORE PUSH1 0x60 DUP6 ADD DUP16 SWAP1 MSTORE PUSH1 0x80 DUP6 ADD DUP15 SWAP1 MSTORE DUP13 AND PUSH1 0xA0 DUP6 ADD MSTORE PUSH1 0x1 PUSH1 0x1 PUSH1 0x80 SHL SUB DUP12 AND PUSH1 0xC0 DUP6 ADD MSTORE PUSH1 0xE0 DUP5 ADD SWAP2 SWAP1 SWAP2 MSTORE SWAP3 POP SWAP1 PUSH2 0x100 ADD PUSH1 0x40 MLOAD PUSH1 0x20 DUP2 DUP4 SUB SUB DUP2 MSTORE SWAP1 PUSH1 0x40 MSTORE DUP1 MLOAD SWAP1 PUSH1 0x20 ADD KECCAK256 SWAP1 POP PUSH1 0x0 DUP3 DUP3 PUSH1 0x40 MLOAD PUSH1 0x20 ADD PUSH2 0x318E SWAP3 SWAP2 SWAP1 PUSH2 0x1901 PUSH1 0xF0 SHL DUP2 MSTORE PUSH1 0x2 DUP2 ADD SWAP3 SWAP1 SWAP3 MSTORE PUSH1 0x22 DUP3 ADD MSTORE PUSH1 0x42 ADD SWAP1 JUMP JUMPDEST PUSH1 0x40 DUP1 MLOAD PUSH1 0x1F NOT DUP2 DUP5 SUB ADD DUP2 MSTORE DUP3 DUP3 MSTORE DUP1 MLOAD PUSH1 0x20 SWAP2 DUP3 ADD KECCAK256 PUSH1 0x0 DUP1 DUP6 MSTORE SWAP2 DUP5 ADD DUP1 DUP5 MSTORE DUP2 SWAP1 MSTORE PUSH1 0xFF DUP10 AND SWAP3 DUP5 ADD SWAP3 SWAP1 SWAP3 MSTORE PUSH1 0x60 DUP4 ADD DUP11 SWAP1 MSTORE PUSH1 0x80 DUP4 ADD DUP10 SWAP1 MSTORE SWAP1 SWAP3 POP SWAP1 PUSH1 0x1 SWAP1 PUSH1 0xA0 ADD PUSH1 0x20 PUSH1 0x40 MLOAD PUSH1 0x20 DUP2 SUB SWAP1 DUP1 DUP5 SUB SWAP1 DUP6 GAS STATICCALL ISZERO DUP1 ISZERO PUSH2 0x31F9 JUMPI RETURNDATASIZE PUSH1 0x0 DUP1 RETURNDATACOPY RETURNDATASIZE PUSH1 0x0 REVERT JUMPDEST POP POP POP PUSH1 0x20 PUSH1 0x40 MLOAD SUB MLOAD SWAP1 POP DUP5 PUSH1 0x1 PUSH1 0x1 PUSH1 0xA0 SHL SUB AND DUP2 PUSH1 0x1 PUSH1 0x1 PUSH1 0xA0 SHL SUB AND EQ PUSH2 0x325A JUMPI PUSH1 0x40 MLOAD PUSH3 0x461BCD PUSH1 0xE5 SHL DUP2 MSTORE PUSH1 0x20 PUSH1 0x4 DUP3 ADD MSTORE PUSH1 0x11 PUSH1 0x24 DUP3 ADD MSTORE PUSH17 0x496E76616C6964207369676E6174757265 PUSH1 0x78 SHL PUSH1 0x44 DUP3 ADD MSTORE PUSH1 0x64 ADD PUSH2 0x981 JUMP JUMPDEST POP POP POP POP PUSH1 0x1 PUSH1 0x1 PUSH1 0xA0 SHL SUB DUP2 AND PUSH1 0x0 SWAP1 DUP2 MSTORE PUSH1 0xE PUSH1 0x20 MSTORE PUSH1 0x40 DUP2 KECCAK256 DUP1 SLOAD PUSH1 0x1 SWAP3 SWAP1 PUSH2 0x3287 SWAP1 DUP5 SWAP1 PUSH2 0x469B JUMP JUMPDEST SWAP1 SWAP2 SSTORE POP POP PUSH1 0xC SLOAD PUSH1 0xB SLOAD PUSH1 0x0 SWAP2 SWAP1 PUSH2 0x32A9 SWAP1 PUSH1 0x1 PUSH1 0x1 PUSH1 0x80 SHL SUB DUP11 AND PUSH2 0x475B JUMP JUMPDEST PUSH2 0x32B3 SWAP2 SWAP1 PUSH2 0x4892 JUMP JUMPDEST SWAP1 POP PUSH1 0x0 PUSH2 0x32CA DUP3 PUSH1 0x1 PUSH1 0x1 PUSH1 0x80 SHL SUB DUP11 AND PUSH2 0x46F7 JUMP JUMPDEST SWAP1 POP PUSH1 0x1 PUSH1 0x1 PUSH1 0xA0 SHL SUB DUP10 AND PUSH2 0x337A JUMPI DUP8 PUSH1 0x1 PUSH1 0x1 PUSH1 0x80 SHL SUB AND CALLVALUE EQ PUSH2 0x332A JUMPI PUSH1 0x40 MLOAD PUSH3 0x461BCD PUSH1 0xE5 SHL DUP2 MSTORE PUSH1 0x20 PUSH1 0x4 DUP3 ADD MSTORE PUSH1 0x15 PUSH1 0x24 DUP3 ADD MSTORE PUSH21 0x4D61746963207061796D656E7420746F6F206C6F77 PUSH1 0x58 SHL PUSH1 0x44 DUP3 ADD MSTORE PUSH1 0x64 ADD PUSH2 0x981 JUMP JUMPDEST PUSH2 0x3334 DUP4 DUP3 PUSH2 0x391A JUMP JUMPDEST PUSH1 0x0 DUP1 DUP1 MSTORE PUSH1 0xD PUSH1 0x20 MSTORE PUSH32 0x81955A0A11E65EAC625C29E8882660BAE4E165A75D72780094ACAE8ECE9A29EE DUP1 SLOAD DUP5 SWAP3 SWAP1 PUSH2 0x336F SWAP1 DUP5 SWAP1 PUSH2 0x469B JUMP JUMPDEST SWAP1 SWAP2 SSTORE POP PUSH2 0x33D2 SWAP1 POP JUMP JUMPDEST PUSH2 0x338F PUSH1 0x1 PUSH1 0x1 PUSH1 0xA0 SHL SUB DUP11 AND CALLER ADDRESS DUP6 PUSH2 0x36EF JUMP JUMPDEST PUSH2 0x33A4 PUSH1 0x1 PUSH1 0x1 PUSH1 0xA0 SHL SUB DUP11 AND CALLER DUP6 DUP5 PUSH2 0x36EF JUMP JUMPDEST PUSH1 0x1 PUSH1 0x1 PUSH1 0xA0 SHL SUB DUP10 AND PUSH1 0x0 SWAP1 DUP2 MSTORE PUSH1 0xD PUSH1 0x20 MSTORE PUSH1 0x40 DUP2 KECCAK256 DUP1 SLOAD DUP5 SWAP3 SWAP1 PUSH2 0x33CC SWAP1 DUP5 SWAP1 PUSH2 0x469B JUMP JUMPDEST SWAP1 SWAP2 SSTORE POP POP JUMPDEST PUSH1 0x0 DUP12 DUP2 MSTORE PUSH1 0x7 PUSH1 0x20 SWAP1 DUP2 MSTORE PUSH1 0x40 DUP1 DUP4 KECCAK256 DUP14 DUP5 MSTORE DUP3 MSTORE DUP1 DUP4 KECCAK256 DUP1 SLOAD PUSH1 0x1 PUSH1 0x1 PUSH1 0xA0 SHL SUB DUP13 AND PUSH1 0x1 PUSH1 0x1 PUSH1 0xA0 SHL SUB NOT SWAP2 DUP3 AND OR SWAP1 SWAP2 SSTORE DUP15 DUP5 MSTORE PUSH1 0x8 DUP4 MSTORE DUP2 DUP5 KECCAK256 DUP15 DUP6 MSTORE SWAP1 SWAP3 MSTORE SWAP2 DUP3 SWAP1 KECCAK256 DUP1 SLOAD DUP3 AND DUP2 SSTORE PUSH1 0x1 DUP2 ADD DUP1 SLOAD SWAP1 SWAP3 AND SWAP1 SWAP2 SSTORE PUSH1 0x2 ADD DUP1 SLOAD PUSH1 0x1 PUSH1 0x1 PUSH1 0x80 SHL SUB NOT AND SWAP1 SSTORE MLOAD PUSH32 0x31FF2BC8E03B9217D7964447F662FD5DF92F892F5F349C6537482B1BF6ACA934 SWAP1 PUSH2 0x3476 SWAP1 DUP10 SWAP1 DUP7 SWAP1 DUP16 SWAP1 DUP16 SWAP1 DUP16 SWAP1 DUP16 SWAP1 PUSH2 0x48A6 JUMP JUMPDEST PUSH1 0x40 MLOAD DUP1 SWAP2 SUB SWAP1 LOG1 POP POP PUSH1 0x1 DUP1 SSTORE POP POP POP POP POP POP POP POP POP JUMP JUMPDEST PUSH1 0x0 SLOAD PUSH1 0x1 PUSH1 0x1 PUSH1 0xA0 SHL SUB AND CALLER EQ PUSH2 0x34B9 JUMPI PUSH1 0x40 MLOAD PUSH3 0x461BCD PUSH1 0xE5 SHL DUP2 MSTORE PUSH1 0x4 ADD PUSH2 0x981 SWAP1 PUSH2 0x4847 JUMP JUMPDEST PUSH1 0x1 PUSH1 0x1 PUSH1 0xA0 SHL SUB DUP2 AND PUSH2 0x351E JUMPI PUSH1 0x40 MLOAD PUSH3 0x461BCD PUSH1 0xE5 SHL DUP2 MSTORE PUSH1 0x20 PUSH1 0x4 DUP3 ADD MSTORE PUSH1 0x26 PUSH1 0x24 DUP3 ADD MSTORE PUSH32 0x4F776E61626C653A206E6577206F776E657220697320746865207A65726F2061 PUSH1 0x44 DUP3 ADD MSTORE PUSH6 0x646472657373 PUSH1 0xD0 SHL PUSH1 0x64 DUP3 ADD MSTORE PUSH1 0x84 ADD PUSH2 0x981 JUMP JUMPDEST PUSH1 0x0 DUP1 SLOAD PUSH1 0x40 MLOAD PUSH1 0x1 PUSH1 0x1 PUSH1 0xA0 SHL SUB DUP1 DUP6 AND SWAP4 SWAP3 AND SWAP2 PUSH32 0x8BE0079C531659141344CD1FD0A4F28419497F9722A3DAAFE3B4186F6B6457E0 SWAP2 LOG3 PUSH1 0x0 DUP1 SLOAD PUSH1 0x1 PUSH1 0x1 PUSH1 0xA0 SHL SUB NOT AND PUSH1 0x1 PUSH1 0x1 PUSH1 0xA0 SHL SUB SWAP3 SWAP1 SWAP3 AND SWAP2 SWAP1 SWAP2 OR SWAP1 SSTORE JUMP JUMPDEST PUSH1 0x0 DUP3 DUP2 MSTORE PUSH1 0x9 PUSH1 0x20 SWAP1 DUP2 MSTORE PUSH1 0x40 DUP1 DUP4 KECCAK256 SLOAD DUP1 DUP5 MSTORE PUSH1 0x5 SWAP1 SWAP3 MSTORE SWAP1 SWAP2 KECCAK256 PUSH1 0x2 DUP1 DUP3 ADD DUP1 SLOAD PUSH1 0xFF PUSH1 0xA0 SHL NOT AND PUSH1 0x1 PUSH1 0xA0 SHL DUP4 MUL OR SWAP1 SSTORE POP PUSH1 0x0 DUP1 MLOAD PUSH1 0x20 PUSH2 0x49E0 DUP4 CODECOPY DUP2 MLOAD SWAP2 MSTORE DUP3 PUSH1 0x1 PUSH1 0x2 PUSH1 0x40 MLOAD PUSH2 0x35D2 SWAP4 SWAP3 SWAP2 SWAP1 PUSH2 0x4826 JUMP JUMPDEST PUSH1 0x40 MLOAD DUP1 SWAP2 SUB SWAP1 LOG1 PUSH1 0x6 DUP2 ADD SLOAD PUSH1 0x0 SWAP1 PUSH2 0x35FC SWAP1 PUSH1 0x1 PUSH1 0x80 SHL SWAP1 DIV PUSH1 0x1 PUSH1 0x1 PUSH1 0x40 SHL SUB AND DUP6 PUSH2 0x4924 JUMP JUMPDEST PUSH1 0x0 SWAP4 DUP5 MSTORE PUSH1 0x7 PUSH1 0x20 SWAP1 DUP2 MSTORE PUSH1 0x40 DUP1 DUP7 KECCAK256 SWAP3 DUP7 MSTORE SWAP2 SWAP1 MSTORE SWAP1 SWAP3 KECCAK256 SLOAD PUSH1 0x2 SWAP1 SWAP2 ADD DUP1 SLOAD PUSH1 0x1 PUSH1 0x1 PUSH1 0xA0 SHL SUB NOT AND PUSH1 0x1 PUSH1 0x1 PUSH1 0xA0 SHL SUB SWAP1 SWAP3 AND SWAP2 SWAP1 SWAP2 OR SWAP1 SSTORE POP POP POP JUMP JUMPDEST PUSH1 0x0 DUP2 DUP2 JUMPDEST DUP6 MLOAD DUP2 LT ISZERO PUSH2 0x36E2 JUMPI PUSH1 0x0 DUP7 DUP3 DUP2 MLOAD DUP2 LT PUSH2 0x3660 JUMPI PUSH2 0x3660 PUSH2 0x4745 JUMP JUMPDEST PUSH1 0x20 MUL PUSH1 0x20 ADD ADD MLOAD SWAP1 POP DUP1 DUP4 GT PUSH2 0x36A2 JUMPI PUSH1 0x40 DUP1 MLOAD PUSH1 0x20 DUP2 ADD DUP6 SWAP1 MSTORE SWAP1 DUP2 ADD DUP3 SWAP1 MSTORE PUSH1 0x60 ADD PUSH1 0x40 MLOAD PUSH1 0x20 DUP2 DUP4 SUB SUB DUP2 MSTORE SWAP1 PUSH1 0x40 MSTORE DUP1 MLOAD SWAP1 PUSH1 0x20 ADD KECCAK256 SWAP3 POP PUSH2 0x36CF JUMP JUMPDEST PUSH1 0x40 DUP1 MLOAD PUSH1 0x20 DUP2 ADD DUP4 SWAP1 MSTORE SWAP1 DUP2 ADD DUP5 SWAP1 MSTORE PUSH1 0x60 ADD PUSH1 0x40 MLOAD PUSH1 0x20 DUP2 DUP4 SUB SUB DUP2 MSTORE SWAP1 PUSH1 0x40 MSTORE DUP1 MLOAD SWAP1 PUSH1 0x20 ADD KECCAK256 SWAP3 POP JUMPDEST POP DUP1 PUSH2 0x36DA DUP2 PUSH2 0x46B3 JUMP JUMPDEST SWAP2 POP POP PUSH2 0x3643 JUMP JUMPDEST POP DUP4 EQ SWAP1 POP JUMPDEST SWAP4 SWAP3 POP POP POP JUMP JUMPDEST PUSH1 0x40 MLOAD PUSH1 0x1 PUSH1 0x1 PUSH1 0xA0 SHL SUB DUP1 DUP6 AND PUSH1 0x24 DUP4 ADD MSTORE DUP4 AND PUSH1 0x44 DUP3 ADD MSTORE PUSH1 0x64 DUP2 ADD DUP3 SWAP1 MSTORE PUSH2 0x375A SWAP1 DUP6 SWAP1 PUSH4 0x23B872DD PUSH1 0xE0 SHL SWAP1 PUSH1 0x84 ADD JUMPDEST PUSH1 0x40 DUP1 MLOAD PUSH1 0x1F NOT DUP2 DUP5 SUB ADD DUP2 MSTORE SWAP2 SWAP1 MSTORE PUSH1 0x20 DUP2 ADD DUP1 MLOAD PUSH1 0x1 PUSH1 0x1 PUSH1 0xE0 SHL SUB AND PUSH1 0x1 PUSH1 0x1 PUSH1 0xE0 SHL SUB NOT SWAP1 SWAP4 AND SWAP3 SWAP1 SWAP3 OR SWAP1 SWAP2 MSTORE PUSH2 0x3B5E JUMP JUMPDEST POP POP POP POP JUMP JUMPDEST PUSH1 0x40 MLOAD PUSH1 0x1 PUSH1 0x1 PUSH1 0xA0 SHL SUB DUP4 AND PUSH1 0x24 DUP3 ADD MSTORE PUSH1 0x44 DUP2 ADD DUP3 SWAP1 MSTORE PUSH2 0x3790 SWAP1 DUP5 SWAP1 PUSH4 0xA9059CBB PUSH1 0xE0 SHL SWAP1 PUSH1 0x64 ADD PUSH2 0x3723 JUMP JUMPDEST POP POP POP JUMP JUMPDEST PUSH1 0x40 MLOAD PUSH4 0x70A08231 PUSH1 0xE0 SHL DUP2 MSTORE ADDRESS PUSH1 0x4 DUP3 ADD MSTORE PUSH1 0x0 SWAP1 PUSH32 0x0 SWAP1 PUSH1 0x1 PUSH1 0x1 PUSH1 0xA0 SHL SUB PUSH32 0x0 AND SWAP1 PUSH4 0x70A08231 SWAP1 PUSH1 0x24 ADD PUSH1 0x20 PUSH1 0x40 MLOAD DUP1 DUP4 SUB DUP2 DUP7 GAS STATICCALL ISZERO DUP1 ISZERO PUSH2 0x381E JUMPI RETURNDATASIZE PUSH1 0x0 DUP1 RETURNDATACOPY RETURNDATASIZE PUSH1 0x0 REVERT JUMPDEST POP POP POP POP PUSH1 0x40 MLOAD RETURNDATASIZE PUSH1 0x1F NOT PUSH1 0x1F DUP3 ADD AND DUP3 ADD DUP1 PUSH1 0x40 MSTORE POP DUP2 ADD SWAP1 PUSH2 0x3842 SWAP2 SWAP1 PUSH2 0x4938 JUMP JUMPDEST LT ISZERO PUSH2 0x3882 JUMPI PUSH1 0x40 MLOAD PUSH3 0x461BCD PUSH1 0xE5 SHL DUP2 MSTORE PUSH1 0x20 PUSH1 0x4 DUP3 ADD MSTORE PUSH1 0xF PUSH1 0x24 DUP3 ADD MSTORE PUSH15 0x4E6F7420656E6F756768204C494E4B PUSH1 0x88 SHL PUSH1 0x44 DUP3 ADD MSTORE PUSH1 0x64 ADD PUSH2 0x981 JUMP JUMPDEST PUSH1 0x0 DUP3 DUP2 MSTORE PUSH1 0x5 PUSH1 0x20 MSTORE PUSH1 0x40 DUP1 DUP3 KECCAK256 PUSH1 0x2 DUP2 ADD DUP1 SLOAD PUSH1 0xFF PUSH1 0xA0 SHL NOT AND PUSH1 0x1 PUSH1 0xA0 SHL OR SWAP1 SSTORE SWAP1 MLOAD SWAP1 SWAP2 PUSH1 0x0 DUP1 MLOAD PUSH1 0x20 PUSH2 0x49E0 DUP4 CODECOPY DUP2 MLOAD SWAP2 MSTORE SWAP2 PUSH2 0x38C8 SWAP2 DUP7 SWAP2 PUSH1 0x1 SWAP1 PUSH2 0x4826 JUMP JUMPDEST PUSH1 0x40 MLOAD DUP1 SWAP2 SUB SWAP1 LOG1 PUSH2 0x36E8 PUSH32 0x0 PUSH32 0x0 PUSH2 0x3C30 JUMP JUMPDEST DUP1 SELFBALANCE LT ISZERO PUSH2 0x396A JUMPI PUSH1 0x40 MLOAD PUSH3 0x461BCD PUSH1 0xE5 SHL DUP2 MSTORE PUSH1 0x20 PUSH1 0x4 DUP3 ADD MSTORE PUSH1 0x1F PUSH1 0x24 DUP3 ADD MSTORE PUSH32 0x5F68616E646C654E61746976655472616E7366657220696E736F6C76656E7400 PUSH1 0x44 DUP3 ADD MSTORE PUSH1 0x64 ADD PUSH2 0x981 JUMP JUMPDEST PUSH1 0x0 GAS SWAP1 POP PUSH1 0x0 DUP4 PUSH1 0x1 PUSH1 0x1 PUSH1 0xA0 SHL SUB AND DUP4 DUP4 SWAP1 PUSH1 0x40 MLOAD PUSH1 0x0 PUSH1 0x40 MLOAD DUP1 DUP4 SUB DUP2 DUP6 DUP9 DUP9 CALL SWAP4 POP POP POP POP RETURNDATASIZE DUP1 PUSH1 0x0 DUP2 EQ PUSH2 0x39BF JUMPI PUSH1 0x40 MLOAD SWAP2 POP PUSH1 0x1F NOT PUSH1 0x3F RETURNDATASIZE ADD AND DUP3 ADD PUSH1 0x40 MSTORE RETURNDATASIZE DUP3 MSTORE RETURNDATASIZE PUSH1 0x0 PUSH1 0x20 DUP5 ADD RETURNDATACOPY PUSH2 0x39C4 JUMP JUMPDEST PUSH1 0x60 SWAP2 POP JUMPDEST POP POP SWAP1 POP DUP1 PUSH2 0x375A JUMPI PUSH20 0xD500B1D8E8EF31E21C99D1DB9A6444D3ADF1270 PUSH1 0x1 PUSH1 0x1 PUSH1 0xA0 SHL SUB AND PUSH4 0xD0E30DB0 DUP5 PUSH1 0x40 MLOAD DUP3 PUSH4 0xFFFFFFFF AND PUSH1 0xE0 SHL DUP2 MSTORE PUSH1 0x4 ADD PUSH1 0x0 PUSH1 0x40 MLOAD DUP1 DUP4 SUB DUP2 DUP6 DUP9 DUP1 EXTCODESIZE ISZERO DUP1 ISZERO PUSH2 0x3A1C JUMPI PUSH1 0x0 DUP1 REVERT JUMPDEST POP GAS CALL ISZERO DUP1 ISZERO PUSH2 0x3A30 JUMPI RETURNDATASIZE PUSH1 0x0 DUP1 RETURNDATACOPY RETURNDATASIZE PUSH1 0x0 REVERT JUMPDEST POP PUSH2 0x375A SWAP4 POP PUSH20 0xD500B1D8E8EF31E21C99D1DB9A6444D3ADF1270 SWAP3 POP DUP8 SWAP2 POP DUP7 SWAP1 POP PUSH2 0x3760 JUMP JUMPDEST PUSH1 0x0 SLOAD PUSH1 0x1 PUSH1 0xA0 SHL SWAP1 DIV PUSH1 0xFF AND ISZERO PUSH2 0x3A82 JUMPI PUSH1 0x40 MLOAD PUSH3 0x461BCD PUSH1 0xE5 SHL DUP2 MSTORE PUSH1 0x4 ADD PUSH2 0x981 SWAP1 PUSH2 0x4596 JUMP JUMPDEST PUSH1 0x0 DUP1 SLOAD PUSH1 0xFF PUSH1 0xA0 SHL NOT AND PUSH1 0x1 PUSH1 0xA0 SHL OR SWAP1 SSTORE PUSH32 0x62E78CEA01BEE320CD4E420270B5EA74000D11B0C9F74754EBDBFC544B05A258 PUSH2 0x3ABD CALLER SWAP1 JUMP JUMPDEST PUSH1 0x40 MLOAD PUSH1 0x1 PUSH1 0x1 PUSH1 0xA0 SHL SUB SWAP1 SWAP2 AND DUP2 MSTORE PUSH1 0x20 ADD PUSH1 0x40 MLOAD DUP1 SWAP2 SUB SWAP1 LOG1 JUMP JUMPDEST PUSH1 0x0 SLOAD PUSH1 0x1 PUSH1 0xA0 SHL SWAP1 DIV PUSH1 0xFF AND PUSH2 0x3B2A JUMPI PUSH1 0x40 MLOAD PUSH3 0x461BCD PUSH1 0xE5 SHL DUP2 MSTORE PUSH1 0x20 PUSH1 0x4 DUP3 ADD MSTORE PUSH1 0x14 PUSH1 0x24 DUP3 ADD MSTORE PUSH20 0x14185D5CD8589B194E881B9BDD081C185D5CD959 PUSH1 0x62 SHL PUSH1 0x44 DUP3 ADD MSTORE PUSH1 0x64 ADD PUSH2 0x981 JUMP JUMPDEST PUSH1 0x0 DUP1 SLOAD PUSH1 0xFF PUSH1 0xA0 SHL NOT AND SWAP1 SSTORE PUSH32 0x5DB9EE0A495BF2E6FF9C91A7834C1BA4FDD244A5E8AA4E537BD38AEAE4B073AA CALLER PUSH2 0x3ABD JUMP JUMPDEST PUSH1 0x0 PUSH2 0x3BB3 DUP3 PUSH1 0x40 MLOAD DUP1 PUSH1 0x40 ADD PUSH1 0x40 MSTORE DUP1 PUSH1 0x20 DUP2 MSTORE PUSH1 0x20 ADD PUSH32 0x5361666545524332303A206C6F772D6C6576656C2063616C6C206661696C6564 DUP2 MSTORE POP DUP6 PUSH1 0x1 PUSH1 0x1 PUSH1 0xA0 SHL SUB AND PUSH2 0x3DB4 SWAP1 SWAP3 SWAP2 SWAP1 PUSH4 0xFFFFFFFF AND JUMP JUMPDEST DUP1 MLOAD SWAP1 SWAP2 POP ISZERO PUSH2 0x3790 JUMPI DUP1 DUP1 PUSH1 0x20 ADD SWAP1 MLOAD DUP2 ADD SWAP1 PUSH2 0x3BD1 SWAP2 SWAP1 PUSH2 0x4951 JUMP JUMPDEST PUSH2 0x3790 JUMPI PUSH1 0x40 MLOAD PUSH3 0x461BCD PUSH1 0xE5 SHL DUP2 MSTORE PUSH1 0x20 PUSH1 0x4 DUP3 ADD MSTORE PUSH1 0x2A PUSH1 0x24 DUP3 ADD MSTORE PUSH32 0x5361666545524332303A204552433230206F7065726174696F6E20646964206E PUSH1 0x44 DUP3 ADD MSTORE PUSH10 0x1BDD081CDD58D8D95959 PUSH1 0xB2 SHL PUSH1 0x64 DUP3 ADD MSTORE PUSH1 0x84 ADD PUSH2 0x981 JUMP JUMPDEST PUSH1 0x0 PUSH32 0x0 PUSH1 0x1 PUSH1 0x1 PUSH1 0xA0 SHL SUB AND PUSH4 0x4000AEA0 PUSH32 0x0 DUP5 DUP7 PUSH1 0x0 PUSH1 0x40 MLOAD PUSH1 0x20 ADD PUSH2 0x3CA0 SWAP3 SWAP2 SWAP1 SWAP2 DUP3 MSTORE PUSH1 0x20 DUP3 ADD MSTORE PUSH1 0x40 ADD SWAP1 JUMP JUMPDEST PUSH1 0x40 MLOAD PUSH1 0x20 DUP2 DUP4 SUB SUB DUP2 MSTORE SWAP1 PUSH1 0x40 MSTORE PUSH1 0x40 MLOAD DUP5 PUSH4 0xFFFFFFFF AND PUSH1 0xE0 SHL DUP2 MSTORE PUSH1 0x4 ADD PUSH2 0x3CCD SWAP4 SWAP3 SWAP2 SWAP1 PUSH2 0x4973 JUMP JUMPDEST PUSH1 0x20 PUSH1 0x40 MLOAD DUP1 DUP4 SUB DUP2 PUSH1 0x0 DUP8 GAS CALL ISZERO DUP1 ISZERO PUSH2 0x3CEC JUMPI RETURNDATASIZE PUSH1 0x0 DUP1 RETURNDATACOPY RETURNDATASIZE PUSH1 0x0 REVERT JUMPDEST POP POP POP POP PUSH1 0x40 MLOAD RETURNDATASIZE PUSH1 0x1F NOT PUSH1 0x1F DUP3 ADD AND DUP3 ADD DUP1 PUSH1 0x40 MSTORE POP DUP2 ADD SWAP1 PUSH2 0x3D10 SWAP2 SWAP1 PUSH2 0x4951 JUMP JUMPDEST POP PUSH1 0x0 DUP4 DUP2 MSTORE PUSH1 0x2 PUSH1 0x20 DUP2 DUP2 MSTORE PUSH1 0x40 DUP1 DUP5 KECCAK256 SLOAD DUP2 MLOAD DUP1 DUP5 ADD DUP10 SWAP1 MSTORE DUP1 DUP4 ADD DUP7 SWAP1 MSTORE ADDRESS PUSH1 0x60 DUP3 ADD MSTORE PUSH1 0x80 DUP1 DUP3 ADD DUP4 SWAP1 MSTORE DUP4 MLOAD DUP1 DUP4 SUB SWAP1 SWAP2 ADD DUP2 MSTORE PUSH1 0xA0 SWAP1 SWAP2 ADD SWAP1 SWAP3 MSTORE DUP2 MLOAD SWAP2 DUP4 ADD SWAP2 SWAP1 SWAP2 KECCAK256 SWAP4 DUP8 SWAP1 MSTORE SWAP2 SWAP1 MSTORE PUSH2 0x3D6C SWAP1 PUSH1 0x1 PUSH2 0x469B JUMP JUMPDEST PUSH1 0x0 DUP6 DUP2 MSTORE PUSH1 0x2 PUSH1 0x20 MSTORE PUSH1 0x40 SWAP1 KECCAK256 SSTORE PUSH2 0x3DAC DUP5 DUP3 PUSH1 0x40 DUP1 MLOAD PUSH1 0x20 DUP1 DUP3 ADD SWAP5 SWAP1 SWAP5 MSTORE DUP1 DUP3 ADD SWAP3 SWAP1 SWAP3 MSTORE DUP1 MLOAD DUP1 DUP4 SUB DUP3 ADD DUP2 MSTORE PUSH1 0x60 SWAP1 SWAP3 ADD SWAP1 MSTORE DUP1 MLOAD SWAP2 ADD KECCAK256 SWAP1 JUMP JUMPDEST SWAP5 SWAP4 POP POP POP POP JUMP JUMPDEST PUSH1 0x60 PUSH2 0x3DAC DUP5 DUP5 PUSH1 0x0 DUP6 DUP6 DUP5 EXTCODESIZE PUSH2 0x3E0D JUMPI PUSH1 0x40 MLOAD PUSH3 0x461BCD PUSH1 0xE5 SHL DUP2 MSTORE PUSH1 0x20 PUSH1 0x4 DUP3 ADD MSTORE PUSH1 0x1D PUSH1 0x24 DUP3 ADD MSTORE PUSH32 0x416464726573733A2063616C6C20746F206E6F6E2D636F6E7472616374000000 PUSH1 0x44 DUP3 ADD MSTORE PUSH1 0x64 ADD PUSH2 0x981 JUMP JUMPDEST PUSH1 0x0 DUP1 DUP7 PUSH1 0x1 PUSH1 0x1 PUSH1 0xA0 SHL SUB AND DUP6 DUP8 PUSH1 0x40 MLOAD PUSH2 0x3E29 SWAP2 SWAP1 PUSH2 0x49A3 JUMP JUMPDEST PUSH1 0x0 PUSH1 0x40 MLOAD DUP1 DUP4 SUB DUP2 DUP6 DUP8 GAS CALL SWAP3 POP POP POP RETURNDATASIZE DUP1 PUSH1 0x0 DUP2 EQ PUSH2 0x3E66 JUMPI PUSH1 0x40 MLOAD SWAP2 POP PUSH1 0x1F NOT PUSH1 0x3F RETURNDATASIZE ADD AND DUP3 ADD PUSH1 0x40 MSTORE RETURNDATASIZE DUP3 MSTORE RETURNDATASIZE PUSH1 0x0 PUSH1 0x20 DUP5 ADD RETURNDATACOPY PUSH2 0x3E6B JUMP JUMPDEST PUSH1 0x60 SWAP2 POP JUMPDEST POP SWAP2 POP SWAP2 POP PUSH2 0x3E7B DUP3 DUP3 DUP7 PUSH2 0x3E86 JUMP JUMPDEST SWAP8 SWAP7 POP POP POP POP POP POP POP JUMP JUMPDEST PUSH1 0x60 DUP4 ISZERO PUSH2 0x3E95 JUMPI POP DUP2 PUSH2 0x36E8 JUMP JUMPDEST DUP3 MLOAD ISZERO PUSH2 0x3EA5 JUMPI DUP3 MLOAD DUP1 DUP5 PUSH1 0x20 ADD REVERT JUMPDEST DUP2 PUSH1 0x40 MLOAD PUSH3 0x461BCD PUSH1 0xE5 SHL DUP2 MSTORE PUSH1 0x4 ADD PUSH2 0x981 SWAP2 SWAP1 PUSH2 0x3F17 JUMP JUMPDEST PUSH1 0x0 JUMPDEST DUP4 DUP2 LT ISZERO PUSH2 0x3EDA JUMPI DUP2 DUP2 ADD MLOAD DUP4 DUP3 ADD MSTORE PUSH1 0x20 ADD PUSH2 0x3EC2 JUMP JUMPDEST DUP4 DUP2 GT ISZERO PUSH2 0x375A JUMPI POP POP PUSH1 0x0 SWAP2 ADD MSTORE JUMP JUMPDEST PUSH1 0x0 DUP2 MLOAD DUP1 DUP5 MSTORE PUSH2 0x3F03 DUP2 PUSH1 0x20 DUP7 ADD PUSH1 0x20 DUP7 ADD PUSH2 0x3EBF JUMP JUMPDEST PUSH1 0x1F ADD PUSH1 0x1F NOT AND SWAP3 SWAP1 SWAP3 ADD PUSH1 0x20 ADD SWAP3 SWAP2 POP POP JUMP JUMPDEST PUSH1 0x20 DUP2 MSTORE PUSH1 0x0 PUSH2 0x36E8 PUSH1 0x20 DUP4 ADD DUP5 PUSH2 0x3EEB JUMP JUMPDEST PUSH1 0x0 DUP1 PUSH1 0x40 DUP4 DUP6 SUB SLT ISZERO PUSH2 0x3F3D JUMPI PUSH1 0x0 DUP1 REVERT JUMPDEST POP POP DUP1 CALLDATALOAD SWAP3 PUSH1 0x20 SWAP1 SWAP2 ADD CALLDATALOAD SWAP2 POP JUMP JUMPDEST DUP1 CALLDATALOAD PUSH1 0x1 PUSH1 0x1 PUSH1 0x40 SHL SUB DUP2 AND DUP2 EQ PUSH2 0x3F63 JUMPI PUSH1 0x0 DUP1 REVERT JUMPDEST SWAP2 SWAP1 POP JUMP JUMPDEST PUSH1 0x0 DUP1 DUP4 PUSH1 0x1F DUP5 ADD SLT PUSH2 0x3F7A JUMPI PUSH1 0x0 DUP1 REVERT JUMPDEST POP DUP2 CALLDATALOAD PUSH1 0x1 PUSH1 0x1 PUSH1 0x40 SHL SUB DUP2 GT ISZERO PUSH2 0x3F91 JUMPI PUSH1 0x0 DUP1 REVERT JUMPDEST PUSH1 0x20 DUP4 ADD SWAP2 POP DUP4 PUSH1 0x20 DUP3 PUSH1 0x5 SHL DUP6 ADD ADD GT ISZERO PUSH2 0x3FAC JUMPI PUSH1 0x0 DUP1 REVERT JUMPDEST SWAP3 POP SWAP3 SWAP1 POP JUMP JUMPDEST PUSH1 0x0 DUP1 PUSH1 0x0 DUP1 PUSH1 0x60 DUP6 DUP8 SUB SLT ISZERO PUSH2 0x3FC9 JUMPI PUSH1 0x0 DUP1 REVERT JUMPDEST DUP5 CALLDATALOAD SWAP4 POP PUSH2 0x3FD9 PUSH1 0x20 DUP7 ADD PUSH2 0x3F4C JUMP JUMPDEST SWAP3 POP PUSH1 0x40 DUP6 ADD CALLDATALOAD PUSH1 0x1 PUSH1 0x1 PUSH1 0x40 SHL SUB DUP2 GT ISZERO PUSH2 0x3FF4 JUMPI PUSH1 0x0 DUP1 REVERT JUMPDEST PUSH2 0x4000 DUP8 DUP3 DUP9 ADD PUSH2 0x3F68 JUMP JUMPDEST SWAP6 SWAP9 SWAP5 SWAP8 POP SWAP6 POP POP POP POP JUMP JUMPDEST PUSH1 0x0 DUP1 PUSH1 0x0 PUSH1 0x40 DUP5 DUP7 SUB SLT ISZERO PUSH2 0x4021 JUMPI PUSH1 0x0 DUP1 REVERT JUMPDEST DUP4 CALLDATALOAD SWAP3 POP PUSH1 0x20 DUP5 ADD CALLDATALOAD PUSH1 0x1 PUSH1 0x1 PUSH1 0x40 SHL SUB DUP2 GT ISZERO PUSH2 0x403E JUMPI PUSH1 0x0 DUP1 REVERT JUMPDEST PUSH2 0x404A DUP7 DUP3 DUP8 ADD PUSH2 0x3F68 JUMP JUMPDEST SWAP5 SWAP8 SWAP1 SWAP7 POP SWAP4 SWAP5 POP POP POP POP JUMP JUMPDEST PUSH1 0x0 PUSH1 0x20 DUP3 DUP5 SUB SLT ISZERO PUSH2 0x4069 JUMPI PUSH1 0x0 DUP1 REVERT JUMPDEST POP CALLDATALOAD SWAP2 SWAP1 POP JUMP JUMPDEST DUP1 CALLDATALOAD PUSH1 0x1 PUSH1 0x1 PUSH1 0xA0 SHL SUB DUP2 AND DUP2 EQ PUSH2 0x3F63 JUMPI PUSH1 0x0 DUP1 REVERT JUMPDEST PUSH1 0x0 DUP1 PUSH1 0x0 DUP1 PUSH1 0x0 PUSH1 0x60 DUP7 DUP9 SUB SLT ISZERO PUSH2 0x409F JUMPI PUSH1 0x0 DUP1 REVERT JUMPDEST DUP6 CALLDATALOAD PUSH1 0x1 PUSH1 0x1 PUSH1 0x40 SHL SUB DUP1 DUP3 GT ISZERO PUSH2 0x40B6 JUMPI PUSH1 0x0 DUP1 REVERT JUMPDEST PUSH2 0x40C2 DUP10 DUP4 DUP11 ADD PUSH2 0x3F68 JUMP JUMPDEST SWAP1 SWAP8 POP SWAP6 POP PUSH1 0x20 DUP9 ADD CALLDATALOAD SWAP2 POP DUP1 DUP3 GT ISZERO PUSH2 0x40DB JUMPI PUSH1 0x0 DUP1 REVERT JUMPDEST POP PUSH2 0x40E8 DUP9 DUP3 DUP10 ADD PUSH2 0x3F68 JUMP JUMPDEST SWAP1 SWAP5 POP SWAP3 POP PUSH2 0x40FB SWAP1 POP PUSH1 0x40 DUP8 ADD PUSH2 0x4070 JUMP JUMPDEST SWAP1 POP SWAP3 SWAP6 POP SWAP3 SWAP6 SWAP1 SWAP4 POP JUMP JUMPDEST PUSH1 0x0 PUSH1 0x20 DUP3 DUP5 SUB SLT ISZERO PUSH2 0x4119 JUMPI PUSH1 0x0 DUP1 REVERT JUMPDEST PUSH2 0x36E8 DUP3 PUSH2 0x4070 JUMP JUMPDEST PUSH4 0x4E487B71 PUSH1 0xE0 SHL PUSH1 0x0 MSTORE PUSH1 0x21 PUSH1 0x4 MSTORE PUSH1 0x24 PUSH1 0x0 REVERT JUMPDEST PUSH1 0x5 DUP2 LT PUSH2 0x4148 JUMPI PUSH2 0x4148 PUSH2 0x4122 JUMP JUMPDEST SWAP1 MSTORE JUMP JUMPDEST PUSH1 0x20 DUP2 ADD PUSH2 0x2A99 DUP3 DUP5 PUSH2 0x4138 JUMP JUMPDEST PUSH1 0x0 DUP1 PUSH1 0x0 DUP1 PUSH1 0x80 DUP6 DUP8 SUB SLT ISZERO PUSH2 0x4170 JUMPI PUSH1 0x0 DUP1 REVERT JUMPDEST DUP5 CALLDATALOAD SWAP4 POP PUSH1 0x20 DUP6 ADD CALLDATALOAD SWAP3 POP PUSH2 0x4187 PUSH1 0x40 DUP7 ADD PUSH2 0x4070 JUMP JUMPDEST SWAP4 SWAP7 SWAP3 SWAP6 POP SWAP3 SWAP4 PUSH1 0x60 ADD CALLDATALOAD SWAP3 POP POP JUMP JUMPDEST PUSH1 0x2 DUP2 LT PUSH2 0x4148 JUMPI PUSH2 0x4148 PUSH2 0x4122 JUMP JUMPDEST PUSH1 0x1 PUSH1 0x1 PUSH1 0xA0 SHL SUB DUP15 DUP2 AND DUP3 MSTORE DUP14 DUP2 AND PUSH1 0x20 DUP4 ADD MSTORE DUP13 AND PUSH1 0x40 DUP3 ADD MSTORE PUSH2 0x1A0 DUP2 ADD PUSH2 0x41D5 PUSH1 0x60 DUP4 ADD DUP14 PUSH2 0x4138 JUMP JUMPDEST PUSH2 0x41E2 PUSH1 0x80 DUP4 ADD DUP13 PUSH2 0x4197 JUMP JUMPDEST PUSH1 0x1 PUSH1 0x1 PUSH1 0xA0 SHL SUB SWAP10 SWAP1 SWAP10 AND PUSH1 0xA0 DUP3 ADD MSTORE PUSH1 0xC0 DUP2 ADD SWAP8 SWAP1 SWAP8 MSTORE PUSH1 0x1 PUSH1 0x1 PUSH1 0x80 SHL SUB SWAP6 DUP7 AND PUSH1 0xE0 DUP9 ADD MSTORE SWAP4 SWAP1 SWAP5 AND PUSH2 0x100 DUP7 ADD MSTORE PUSH1 0x1 PUSH1 0x1 PUSH1 0x40 SHL SUB SWAP2 DUP3 AND PUSH2 0x120 DUP7 ADD MSTORE DUP2 AND PUSH2 0x140 DUP6 ADD MSTORE SWAP2 DUP3 AND PUSH2 0x160 DUP5 ADD MSTORE AND PUSH2 0x180 SWAP1 SWAP2 ADD MSTORE SWAP6 SWAP5 POP POP POP POP POP JUMP JUMPDEST DUP1 CALLDATALOAD PUSH1 0x1 PUSH1 0x1 PUSH1 0x80 SHL SUB DUP2 AND DUP2 EQ PUSH2 0x3F63 JUMPI PUSH1 0x0 DUP1 REVERT JUMPDEST PUSH1 0x0 DUP1 PUSH1 0x0 DUP1 PUSH1 0x80 DUP6 DUP8 SUB SLT ISZERO PUSH2 0x4275 JUMPI PUSH1 0x0 DUP1 REVERT JUMPDEST DUP5 CALLDATALOAD SWAP4 POP PUSH1 0x20 DUP6 ADD CALLDATALOAD SWAP3 POP PUSH2 0x428C PUSH1 0x40 DUP7 ADD PUSH2 0x4070 JUMP JUMPDEST SWAP2 POP PUSH2 0x429A PUSH1 0x60 DUP7 ADD PUSH2 0x4248 JUMP JUMPDEST SWAP1 POP SWAP3 SWAP6 SWAP2 SWAP5 POP SWAP3 POP JUMP JUMPDEST DUP2 MLOAD PUSH1 0x1 PUSH1 0x1 PUSH1 0xA0 SHL SUB AND DUP2 MSTORE PUSH2 0x1A0 DUP2 ADD PUSH1 0x20 DUP4 ADD MLOAD PUSH2 0x42D1 PUSH1 0x20 DUP5 ADD DUP3 PUSH1 0x1 PUSH1 0x1 PUSH1 0xA0 SHL SUB AND SWAP1 MSTORE JUMP JUMPDEST POP PUSH1 0x40 DUP4 ADD MLOAD PUSH2 0x42EC PUSH1 0x40 DUP5 ADD DUP3 PUSH1 0x1 PUSH1 0x1 PUSH1 0xA0 SHL SUB AND SWAP1 MSTORE JUMP JUMPDEST POP PUSH1 0x60 DUP4 ADD MLOAD PUSH2 0x42FF PUSH1 0x60 DUP5 ADD DUP3 PUSH2 0x4138 JUMP JUMPDEST POP PUSH1 0x80 DUP4 ADD MLOAD PUSH2 0x4312 PUSH1 0x80 DUP5 ADD DUP3 PUSH2 0x4197 JUMP JUMPDEST POP PUSH1 0xA0 DUP4 ADD MLOAD PUSH2 0x432D PUSH1 0xA0 DUP5 ADD DUP3 PUSH1 0x1 PUSH1 0x1 PUSH1 0xA0 SHL SUB AND SWAP1 MSTORE JUMP JUMPDEST POP PUSH1 0xC0 DUP4 ADD MLOAD PUSH1 0xC0 DUP4 ADD MSTORE PUSH1 0xE0 DUP4 ADD MLOAD PUSH2 0x4352 PUSH1 0xE0 DUP5 ADD DUP3 PUSH1 0x1 PUSH1 0x1 PUSH1 0x80 SHL SUB AND SWAP1 MSTORE JUMP JUMPDEST POP PUSH2 0x100 DUP4 DUP2 ADD MLOAD PUSH1 0x1 PUSH1 0x1 PUSH1 0x80 SHL SUB AND SWAP1 DUP4 ADD MSTORE PUSH2 0x120 DUP1 DUP5 ADD MLOAD PUSH1 0x1 PUSH1 0x1 PUSH1 0x40 SHL SUB SWAP1 DUP2 AND SWAP2 DUP5 ADD SWAP2 SWAP1 SWAP2 MSTORE PUSH2 0x140 DUP1 DUP6 ADD MLOAD DUP3 AND SWAP1 DUP5 ADD MSTORE PUSH2 0x160 DUP1 DUP6 ADD MLOAD DUP3 AND SWAP1 DUP5 ADD MSTORE PUSH2 0x180 SWAP4 DUP5 ADD MLOAD AND SWAP3 SWAP1 SWAP2 ADD SWAP2 SWAP1 SWAP2 MSTORE SWAP1 JUMP JUMPDEST PUSH1 0x40 MLOAD PUSH2 0x1A0 DUP2 ADD PUSH1 0x1 PUSH1 0x1 PUSH1 0x40 SHL SUB DUP2 GT DUP3 DUP3 LT OR ISZERO PUSH2 0x43DE JUMPI PUSH4 0x4E487B71 PUSH1 0xE0 SHL PUSH1 0x0 MSTORE PUSH1 0x41 PUSH1 0x4 MSTORE PUSH1 0x24 PUSH1 0x0 REVERT JUMPDEST PUSH1 0x40 MSTORE SWAP1 JUMP JUMPDEST DUP1 CALLDATALOAD PUSH1 0x5 DUP2 LT PUSH2 0x3F63 JUMPI PUSH1 0x0 DUP1 REVERT JUMPDEST DUP1 CALLDATALOAD PUSH1 0x2 DUP2 LT PUSH2 0x3F63 JUMPI PUSH1 0x0 DUP1 REVERT JUMPDEST PUSH1 0x0 DUP1 DUP3 DUP5 SUB PUSH2 0x1C0 DUP2 SLT ISZERO PUSH2 0x4417 JUMPI PUSH1 0x0 DUP1 REVERT JUMPDEST PUSH2 0x1A0 DUP1 DUP3 SLT ISZERO PUSH2 0x4427 JUMPI PUSH1 0x0 DUP1 REVERT JUMPDEST PUSH2 0x442F PUSH2 0x43AD JUMP JUMPDEST SWAP2 POP PUSH2 0x443A DUP6 PUSH2 0x4070 JUMP JUMPDEST DUP3 MSTORE PUSH2 0x4448 PUSH1 0x20 DUP7 ADD PUSH2 0x4070 JUMP JUMPDEST PUSH1 0x20 DUP4 ADD MSTORE PUSH2 0x4459 PUSH1 0x40 DUP7 ADD PUSH2 0x4070 JUMP JUMPDEST PUSH1 0x40 DUP4 ADD MSTORE PUSH2 0x446A PUSH1 0x60 DUP7 ADD PUSH2 0x43E4 JUMP JUMPDEST PUSH1 0x60 DUP4 ADD MSTORE PUSH2 0x447B PUSH1 0x80 DUP7 ADD PUSH2 0x43F3 JUMP JUMPDEST PUSH1 0x80 DUP4 ADD MSTORE PUSH2 0x448C PUSH1 0xA0 DUP7 ADD PUSH2 0x4070 JUMP JUMPDEST PUSH1 0xA0 DUP4 ADD MSTORE PUSH1 0xC0 DUP6 ADD CALLDATALOAD PUSH1 0xC0 DUP4 ADD MSTORE PUSH2 0x44A7 PUSH1 0xE0 DUP7 ADD PUSH2 0x4248 JUMP JUMPDEST PUSH1 0xE0 DUP4 ADD MSTORE PUSH2 0x100 PUSH2 0x44BA DUP2 DUP8 ADD PUSH2 0x4248 JUMP JUMPDEST SWAP1 DUP4 ADD MSTORE PUSH2 0x120 PUSH2 0x44CC DUP7 DUP3 ADD PUSH2 0x3F4C JUMP JUMPDEST SWAP1 DUP4 ADD MSTORE PUSH2 0x140 PUSH2 0x44DE DUP7 DUP3 ADD PUSH2 0x3F4C JUMP JUMPDEST SWAP1 DUP4 ADD MSTORE PUSH2 0x160 PUSH2 0x44F0 DUP7 DUP3 ADD PUSH2 0x3F4C JUMP JUMPDEST SWAP1 DUP4 ADD MSTORE PUSH2 0x180 PUSH2 0x4502 DUP7 DUP3 ADD PUSH2 0x3F4C JUMP JUMPDEST SWAP1 DUP4 ADD MSTORE SWAP1 SWAP6 SWAP4 ADD CALLDATALOAD SWAP4 POP POP POP JUMP JUMPDEST PUSH1 0x0 DUP1 PUSH1 0x0 DUP1 PUSH1 0x0 DUP1 PUSH1 0x0 DUP1 PUSH2 0x100 DUP10 DUP12 SUB SLT ISZERO PUSH2 0x452E JUMPI PUSH1 0x0 DUP1 REVERT JUMPDEST DUP9 CALLDATALOAD SWAP8 POP PUSH1 0x20 DUP10 ADD CALLDATALOAD SWAP7 POP PUSH2 0x4545 PUSH1 0x40 DUP11 ADD PUSH2 0x4070 JUMP JUMPDEST SWAP6 POP PUSH2 0x4553 PUSH1 0x60 DUP11 ADD PUSH2 0x4248 JUMP JUMPDEST SWAP5 POP PUSH2 0x4561 PUSH1 0x80 DUP11 ADD PUSH2 0x4070 JUMP JUMPDEST SWAP4 POP PUSH1 0xA0 DUP10 ADD CALLDATALOAD SWAP3 POP PUSH1 0xC0 DUP10 ADD CALLDATALOAD SWAP2 POP PUSH1 0xE0 DUP10 ADD CALLDATALOAD PUSH1 0xFF DUP2 AND DUP2 EQ PUSH2 0x4585 JUMPI PUSH1 0x0 DUP1 REVERT JUMPDEST DUP1 SWAP2 POP POP SWAP3 SWAP6 SWAP9 POP SWAP3 SWAP6 SWAP9 SWAP1 SWAP4 SWAP7 POP JUMP JUMPDEST PUSH1 0x20 DUP1 DUP3 MSTORE PUSH1 0x10 SWAP1 DUP3 ADD MSTORE PUSH16 0x14185D5CD8589B194E881C185D5CD959 PUSH1 0x82 SHL PUSH1 0x40 DUP3 ADD MSTORE PUSH1 0x60 ADD SWAP1 JUMP JUMPDEST PUSH1 0x20 DUP1 DUP3 MSTORE PUSH1 0x1A SWAP1 DUP3 ADD MSTORE PUSH32 0x5468697320726166666C6520646F6573206E6F74206578697374000000000000 PUSH1 0x40 DUP3 ADD MSTORE PUSH1 0x60 ADD SWAP1 JUMP JUMPDEST PUSH1 0x20 DUP1 DUP3 MSTORE PUSH1 0x1D SWAP1 DUP3 ADD MSTORE PUSH32 0x5468697320726166666C652068617320616C726561647920656E646564000000 PUSH1 0x40 DUP3 ADD MSTORE PUSH1 0x60 ADD SWAP1 JUMP JUMPDEST PUSH4 0x4E487B71 PUSH1 0xE0 SHL PUSH1 0x0 MSTORE PUSH1 0x11 PUSH1 0x4 MSTORE PUSH1 0x24 PUSH1 0x0 REVERT JUMPDEST PUSH1 0x0 PUSH1 0x1 PUSH1 0x1 PUSH1 0x40 SHL SUB DUP4 DUP2 AND SWAP1 DUP4 AND DUP2 DUP2 LT ISZERO PUSH2 0x4664 JUMPI PUSH2 0x4664 PUSH2 0x462E JUMP JUMPDEST SUB SWAP4 SWAP3 POP POP POP JUMP JUMPDEST PUSH1 0x0 PUSH1 0x1 PUSH1 0x1 PUSH1 0x80 SHL SUB DUP1 DUP4 AND DUP2 DUP6 AND DUP2 DUP4 DIV DUP2 GT DUP3 ISZERO ISZERO AND ISZERO PUSH2 0x4692 JUMPI PUSH2 0x4692 PUSH2 0x462E JUMP JUMPDEST MUL SWAP5 SWAP4 POP POP POP POP JUMP JUMPDEST PUSH1 0x0 DUP3 NOT DUP3 GT ISZERO PUSH2 0x46AE JUMPI PUSH2 0x46AE PUSH2 0x462E JUMP JUMPDEST POP ADD SWAP1 JUMP JUMPDEST PUSH1 0x0 PUSH1 0x1 DUP3 ADD PUSH2 0x46C5 JUMPI PUSH2 0x46C5 PUSH2 0x462E JUMP JUMPDEST POP PUSH1 0x1 ADD SWAP1 JUMP JUMPDEST PUSH1 0x0 PUSH1 0x1 PUSH1 0x1 PUSH1 0x40 SHL SUB DUP1 DUP4 AND DUP2 DUP6 AND DUP1 DUP4 SUB DUP3 GT ISZERO PUSH2 0x46EE JUMPI PUSH2 0x46EE PUSH2 0x462E JUMP JUMPDEST ADD SWAP5 SWAP4 POP POP POP POP JUMP JUMPDEST PUSH1 0x0 DUP3 DUP3 LT ISZERO PUSH2 0x4709 JUMPI PUSH2 0x4709 PUSH2 0x462E JUMP JUMPDEST POP SUB SWAP1 JUMP JUMPDEST PUSH1 0x20 DUP1 DUP3 MSTORE PUSH1 0x1F SWAP1 DUP3 ADD MSTORE PUSH32 0x5265656E7472616E637947756172643A207265656E7472616E742063616C6C00 PUSH1 0x40 DUP3 ADD MSTORE PUSH1 0x60 ADD SWAP1 JUMP JUMPDEST PUSH4 0x4E487B71 PUSH1 0xE0 SHL PUSH1 0x0 MSTORE PUSH1 0x32 PUSH1 0x4 MSTORE PUSH1 0x24 PUSH1 0x0 REVERT JUMPDEST PUSH1 0x0 DUP2 PUSH1 0x0 NOT DIV DUP4 GT DUP3 ISZERO ISZERO AND ISZERO PUSH2 0x4775 JUMPI PUSH2 0x4775 PUSH2 0x462E JUMP JUMPDEST POP MUL SWAP1 JUMP JUMPDEST PUSH1 0x20 DUP1 DUP3 MSTORE PUSH1 0x21 SWAP1 DUP3 ADD MSTORE PUSH32 0x5468697320726166666C652077617320616C726561647920636F6D706C657465 PUSH1 0x40 DUP3 ADD MSTORE PUSH1 0x19 PUSH1 0xFA SHL PUSH1 0x60 DUP3 ADD MSTORE PUSH1 0x80 ADD SWAP1 JUMP JUMPDEST PUSH1 0x1 PUSH1 0x1 PUSH1 0xA0 SHL SUB SWAP6 DUP7 AND DUP2 MSTORE SWAP4 SWAP1 SWAP5 AND PUSH1 0x20 DUP5 ADD MSTORE SWAP1 ISZERO ISZERO PUSH1 0x40 DUP4 ADD MSTORE PUSH1 0x1 PUSH1 0x1 PUSH1 0x80 SHL SUB AND PUSH1 0x60 DUP3 ADD MSTORE PUSH1 0x80 DUP2 ADD SWAP2 SWAP1 SWAP2 MSTORE PUSH1 0xA0 ADD SWAP1 JUMP JUMPDEST PUSH1 0x1 PUSH1 0x1 PUSH1 0xA0 SHL SUB SWAP6 DUP7 AND DUP2 MSTORE SWAP4 SWAP1 SWAP5 AND PUSH1 0x20 DUP5 ADD MSTORE SWAP1 ISZERO ISZERO PUSH1 0x40 DUP4 ADD MSTORE PUSH1 0x60 DUP3 ADD MSTORE PUSH1 0x80 DUP2 ADD SWAP2 SWAP1 SWAP2 MSTORE PUSH1 0xA0 ADD SWAP1 JUMP JUMPDEST DUP4 DUP2 MSTORE PUSH1 0x60 DUP2 ADD PUSH2 0x483A PUSH1 0x20 DUP4 ADD DUP6 PUSH2 0x4138 JUMP JUMPDEST PUSH2 0x3DAC PUSH1 0x40 DUP4 ADD DUP5 PUSH2 0x4138 JUMP JUMPDEST PUSH1 0x20 DUP1 DUP3 MSTORE DUP2 DUP2 ADD MSTORE PUSH32 0x4F776E61626C653A2063616C6C6572206973206E6F7420746865206F776E6572 PUSH1 0x40 DUP3 ADD MSTORE PUSH1 0x60 ADD SWAP1 JUMP JUMPDEST PUSH4 0x4E487B71 PUSH1 0xE0 SHL PUSH1 0x0 MSTORE PUSH1 0x12 PUSH1 0x4 MSTORE PUSH1 0x24 PUSH1 0x0 REVERT JUMPDEST PUSH1 0x0 DUP3 PUSH2 0x48A1 JUMPI PUSH2 0x48A1 PUSH2 0x487C JUMP JUMPDEST POP DIV SWAP1 JUMP JUMPDEST PUSH1 0x1 PUSH1 0x1 PUSH1 0xA0 SHL SUB SWAP7 DUP8 AND DUP2 MSTORE SWAP5 DUP7 AND PUSH1 0x20 DUP7 ADD MSTORE PUSH1 0x40 DUP6 ADD SWAP4 SWAP1 SWAP4 MSTORE PUSH1 0x60 DUP5 ADD SWAP2 SWAP1 SWAP2 MSTORE SWAP1 SWAP3 AND PUSH1 0x80 DUP3 ADD MSTORE PUSH1 0x1 PUSH1 0x1 PUSH1 0x80 SHL SUB SWAP1 SWAP2 AND PUSH1 0xA0 DUP3 ADD MSTORE PUSH1 0xC0 ADD SWAP1 JUMP JUMPDEST PUSH1 0x1 PUSH1 0x1 PUSH1 0xA0 SHL SUB SWAP6 DUP7 AND DUP2 MSTORE PUSH1 0x20 DUP2 ADD SWAP5 SWAP1 SWAP5 MSTORE PUSH1 0x40 DUP5 ADD SWAP3 SWAP1 SWAP3 MSTORE SWAP1 SWAP3 AND PUSH1 0x60 DUP3 ADD MSTORE PUSH1 0x1 PUSH1 0x1 PUSH1 0x80 SHL SUB SWAP1 SWAP2 AND PUSH1 0x80 DUP3 ADD MSTORE PUSH1 0xA0 ADD SWAP1 JUMP JUMPDEST PUSH1 0x0 DUP3 PUSH2 0x4933 JUMPI PUSH2 0x4933 PUSH2 0x487C JUMP JUMPDEST POP MOD SWAP1 JUMP JUMPDEST PUSH1 0x0 PUSH1 0x20 DUP3 DUP5 SUB SLT ISZERO PUSH2 0x494A JUMPI PUSH1 0x0 DUP1 REVERT JUMPDEST POP MLOAD SWAP2 SWAP1 POP JUMP JUMPDEST PUSH1 0x0 PUSH1 0x20 DUP3 DUP5 SUB SLT ISZERO PUSH2 0x4963 JUMPI PUSH1 0x0 DUP1 REVERT JUMPDEST DUP2 MLOAD DUP1 ISZERO ISZERO DUP2 EQ PUSH2 0x2A96 JUMPI PUSH1 0x0 DUP1 REVERT JUMPDEST PUSH1 0x1 DUP1 PUSH1 0xA0 SHL SUB DUP5 AND DUP2 MSTORE DUP3 PUSH1 0x20 DUP3 ADD MSTORE PUSH1 0x60 PUSH1 0x40 DUP3 ADD MSTORE PUSH1 0x0 PUSH2 0x499A PUSH1 0x60 DUP4 ADD DUP5 PUSH2 0x3EEB JUMP JUMPDEST SWAP6 SWAP5 POP POP POP POP POP JUMP JUMPDEST PUSH1 0x0 DUP3 MLOAD PUSH2 0x49B5 DUP2 DUP5 PUSH1 0x20 DUP8 ADD PUSH2 0x3EBF JUMP JUMPDEST SWAP2 SWAP1 SWAP2 ADD SWAP3 SWAP2 POP POP JUMP INVALID 0xEA RETURNDATACOPY 0x49 ADD 0xEE DUP8 PUSH24 0xD40EE0BDEEDC4514A831FD4C7B59537DF939B09D2DACF148 PUSH8 0x98F4D55A8071907A 0xB4 0xE2 DUP8 0x27 0xC0 MOD CALLCODE 0xA8 LOG3 ISZERO 0xCD DUP13 ADD 0xE1 OR CREATE DIFFICULTY ADDRESS 0xD9 PC PUSH25 0x75AD3DA2646970667358221220A62434C28A1F6B0832BB22C1 SAR DELEGATECALL PUSH10 0x5EAC89C8994E73BF0B41 EQ DUP12 ORIGIN TIMESTAMP SWAP2 LOG2 0xC7 PUSH5 0x736F6C6343 STOP ADDMOD 0xE STOP CALLER ",
  "sha1": "57592dae0481b3206ca0a174d9b20ecd35c3ae55",
  "source": "// SPDX-License-Identifier: MIT\npragma solidity ^0.8.0;\n\n/**\n█▄▄▄▄ ██   ▄████  ▄████  █     ▄███▄          ▄▄▄▄▄   ▄███▄   ██   \n█  ▄▀ █ █  █▀   ▀ █▀   ▀ █     █▀   ▀        █     ▀▄ █▀   ▀  █ █  \n█▀▀▌  █▄▄█ █▀▀    █▀▀    █     ██▄▄        ▄  ▀▀▀▀▄   ██▄▄    █▄▄█ \n█  █  █  █ █      █      ███▄  █▄   ▄▀      ▀▄▄▄▄▀    █▄   ▄▀ █  █ \n  █      █  █      █         ▀ ▀███▀                  ▀███▀      █ \n ▀      █    ▀      ▀                                           █  \n       ▀                                                       ▀   \n RaffleSea© 2022\n */\n\nimport \"@openzeppelin/contracts/access/Ownable.sol\";\nimport \"@openzeppelin/contracts/security/Pausable.sol\";\nimport \"@openzeppelin/contracts/token/ERC721/IERC721.sol\";\nimport \"@openzeppelin/contracts/token/ERC20/IERC20.sol\";\nimport \"@openzeppelin/contracts/token/ERC20/utils/SafeERC20.sol\";\nimport \"@chainlink/contracts/src/v0.8/VRFConsumerBase.sol\";\nimport \"@openzeppelin/contracts/security/ReentrancyGuard.sol\";\nimport \"@openzeppelin/contracts/utils/cryptography/MerkleProof.sol\";\nimport {IWETH} from \"./interfaces/IWETH.sol\";\n\ncontract RafflePolygon is Ownable, Pausable, ReentrancyGuard, VRFConsumerBase {\n    using SafeERC20 for IERC20;\n\n    enum RaffleState {\n        IN_PROGRESS,\n        FINISHED,\n        COMPLETED,\n        REFUNDED,\n        CLAIMED\n    }\n\n    enum RaffleType {\n        ERC721,\n        ERC20\n    }\n\n    struct RaffleData {\n        address assetContract;\n        address raffleOwner;\n        address raffleWinner;\n        RaffleState raffleState;\n        RaffleType raffleType;\n        address currency;\n        bytes32 MerkleRoot;\n        uint128 nftIdOrAmount;\n        uint128 pricePerTicket;\n        uint64 endTimestamp;\n        uint64 numberOfTickets;\n        uint64 ticketsSold;\n        uint64 minimumTicketsSold;\n    }\n\n    struct Order {\n        address owner;\n        address currency;\n        uint128 price;\n    }\n\n    address public relayer;\n    // ERC20 address => isWhitelisted?\n    mapping(address => bool) public whitelistedCurrencies;\n    // raffleID => RaffleData\n    mapping(uint256 => RaffleData) public raffles;\n    // raffleID => FairRaffleFee\n    mapping(uint256 => uint256) public raffleToFairRaffleFee;\n    // raffleID => ticketId => ticketOwner\n    mapping(uint256 => mapping(uint256 => address)) public raffleTickets;\n    // raffleId => ticketId => Order\n    mapping(uint256 => mapping(uint256 => Order)) public ticketOrders;\n    // ChainlinkRequest => raffleID\n    mapping(bytes32 => uint256) private chainlinkRequestToRaffleID;\n\n    // Number of raffles created so far\n    uint256 public raffleCounter;\n\n    // Chainlink related state variables\n    bytes32 public immutable linkKeyHash;\n    uint256 public immutable linkFee;\n\n    // We can use IWETH interface as the contracts are identical\n    IWETH private constant WMATIC = IWETH(0x0d500B1d8E8eF31E21C99d1Db9A6444d3ADf1270); // WMATIC address in Polygon\n\n    // 2,5% Fee\n    uint256 public FEE_NUMERATOR = 250;\n    uint256 public FEE_DENOMINATOR = 10000;\n\n    // 5% FAIR_RAFFLE_FEE\n    uint256 public constant FAIR_RAFFLE_FEE_NUMERATOR = 500;\n    uint256 public constant FAIR_RAFFLE_FEE_DENOMINATOR = 10000;\n\n    /**\n        Token address => Amount that owners of the contract can claim as fee rewards\n        address(0) = Matic\n     */\n    mapping(address => uint256) public totalAmountClaimable;\n\n    // The name of this contract\n    string public constant name = \"RafflePolygon\";\n    string public constant version = \"1\";\n    // The EIP-712 typehash for the contract's domain\n    bytes32 private constant DOMAIN_TYPEHASH = keccak256(\"EIP712Domain(string name,string version,uint256 chainId,address verifyingContract)\");\n    // The EIP-712 typehash for the ballot struct used by the contract\n    bytes32 private constant BALLOT_TYPEHASH = keccak256(\"Ballot(address buyer,uint256 raffleId,uint256 ticketId,address currency,uint128 price,uint256 nonce)\");\n    mapping (address => uint256) public nonce;\n\n    event MainnetCall(\n        address receiver,\n        address assetContract,\n        bool isERC721,\n        uint256 amountOrNftIdToReceiver,\n        uint256 increaseTotalAmountClaimable\n    );\n    event NewRaffleCreated(uint256 raffleId);\n    event RaffleCancelled(uint256 raffleId);\n    event ERC20CurrencyAdded(address currency);\n    event ERC20CurrencyRemoved(address currency);\n    event RaffleStateChanged(\n        uint256 raffleId, \n        RaffleState oldRaffleState, \n        RaffleState newRaffleState\n    );\n    event ChainlinkRequest(bytes32 requestId);\n    event TicketSellOrderCreated(address seller, \n        uint256 raffleId, \n        uint256 ticketId, \n        address currency, \n        uint128 price\n    );\n    event TicketSellOrderCancelled(\n        address seller, \n        uint256 raffleId, \n        uint256 ticketId, \n        address currency, \n        uint128 price\n    );\n    event NewRaffleTicketBought(\n        uint256 raffleId, \n        address buyer, \n        uint64 numberOfTickets, \n        uint256 initTicketId, \n        uint256 endTicketId\n    );\n    event TicketBoughtFromMarket(\n        address buyer, \n        address seller, \n        uint256 raffleId, \n        uint256 ticketId, \n        address currency, \n        uint128 price\n    );\n    event TicketBoughtFromMarketWithSignature(\n        address buyer, \n        address seller, \n        uint256 raffleId, \n        uint256 ticketId, \n        address currency, \n        uint128 price\n    );\n\n    constructor(address _relayer, bytes32 _linkKeyHash, uint256 _linkFee, address _vrfCoordinator, address _vrfLinkTokenAddress) VRFConsumerBase(_vrfCoordinator, _vrfLinkTokenAddress) {\n        relayer = _relayer;\n        linkKeyHash = _linkKeyHash;\n        linkFee = _linkFee;\n        /** \n         * Matic is whitelisted here = address(0)\n         * Although it is not enabled in the Mainnet contract, which means that no raffles will be bought with matic. \n         * Matic can only be used to purchase tickets, not to buy RaffleTickets directly\n         */\n        whitelistedCurrencies[address(0)] = true;\n    }\n\n    modifier onlyRelayer {\n        require(msg.sender == relayer, \"OnlyRelayer\");\n        _;\n    }\n\n    /**\n     * @notice  Creates a raffle\n     * @param   _raffleData Structure that contains all the data related to the Raffle\n     * @param   _fairRaffleFee FairRaffleFee\n     */\n    function createRaffle(RaffleData memory _raffleData, uint256 _fairRaffleFee) external onlyRelayer whenNotPaused {\n        raffleCounter += 1;\n        // Validation is already done in the MainnetEscrow contract\n        RaffleData storage raffleData = raffles[raffleCounter];\n        raffleData.assetContract = _raffleData.assetContract;\n        raffleData.raffleOwner = _raffleData.raffleOwner;\n        raffleData.raffleState = RaffleState.IN_PROGRESS;\n        raffleData.raffleType = _raffleData.raffleType;\n        raffleData.nftIdOrAmount = _raffleData.nftIdOrAmount;\n        raffleData.currency = _raffleData.currency;\n        raffleData.pricePerTicket = _raffleData.pricePerTicket;\n        raffleData.MerkleRoot = _raffleData.MerkleRoot;\n        raffleData.endTimestamp = _raffleData.endTimestamp;\n        raffleData.numberOfTickets = _raffleData.numberOfTickets;\n        raffleData.minimumTicketsSold = _raffleData.minimumTicketsSold;\n        raffleToFairRaffleFee[raffleCounter] = _fairRaffleFee;\n        emit NewRaffleCreated(raffleCounter);\n    }\n\n    /**\n        * @notice  Allows raffle owners to cancel a raffle if NO tickets were sold yet\n        * @param   _raffleId The ID of the raffle\n    */\n    function cancelRaffle(uint256 _raffleId) external nonReentrant whenNotPaused{\n        RaffleData memory raffleData = raffles[_raffleId];\n        require(msg.sender == raffleData.raffleOwner, \"You cannot cancel someone else's raffle\");\n        require(raffleData.raffleState == RaffleState.IN_PROGRESS, \"This raffle has already ended\");\n        require(raffleData.ticketsSold < 1, \"Tickets have already been bought\");\n\n        // Delete the object from storage\n        delete raffles[_raffleId];\n        // Set is as REFUNDED\n        raffles[_raffleId].raffleState = RaffleState.REFUNDED;\n        emit RaffleStateChanged(_raffleId, RaffleState.IN_PROGRESS, RaffleState.REFUNDED);\n\n        // Check which type of asset \n        if (raffleData.raffleType == RaffleType.ERC721) {\n            // Emit event to refund the raffle owner\n            emit MainnetCall(\n                raffleData.raffleOwner,\n                raffleData.assetContract,\n                true,\n                raffleData.nftIdOrAmount,\n                0\n            );\n            // Give back to the Raffle Owner the FAIR_RAFFLE_FEE paid\n            emit MainnetCall(\n                raffleData.raffleOwner,\n                address(0),\n                false,\n                raffleToFairRaffleFee[_raffleId],\n                0\n            );\n        } \n        else if (raffleData.raffleType == RaffleType.ERC20) {\n            // Emit event to refund the raffle owner\n            emit MainnetCall(\n                raffleData.raffleOwner,\n                raffleData.assetContract,\n                false,\n                raffleData.nftIdOrAmount,\n                0\n            );\n        }\n        emit RaffleCancelled(_raffleId);\n    }\n\n    /**\n     * @notice  Allows users to buy tickets for a Raffle\n     * @param   _raffleId The ID of the raffle the user wants to buy a ticket for\n     * @param   _numberOfTickets The number of tickets an user wants to buy\n     * @param   _merkleProof MerkleProof used to verify user is part of the whitelist (Used with Whitelisted Raffles only)\n     */\n    function buyRaffleTicket(uint256 _raffleId, uint64 _numberOfTickets, bytes32[] calldata _merkleProof) external whenNotPaused {\n        RaffleData memory raffleData = raffles[_raffleId];\n        require(raffleData.raffleOwner != address(0), \"This raffle does not exist\");\n        require(block.timestamp < raffleData.endTimestamp, \"This raffle has already ended\");\n        require(raffleData.raffleState == RaffleState.IN_PROGRESS, \"This raffle has already ended\");\n        require(raffleData.ticketsSold < raffleData.numberOfTickets, \"Tickets sold out\");\n        require(_numberOfTickets <= (raffleData.numberOfTickets - raffleData.ticketsSold), \"There are not so many tickets available to buy\");\n        // If this is a whitelisted Raffle, we must verify the _merkleProof\n        if (raffleData.MerkleRoot != bytes32(0)){\n            bytes32 leaf = keccak256(abi.encodePacked(msg.sender));\n            require(MerkleProof.verify(_merkleProof, raffleData.MerkleRoot, leaf), \"User not whitelisted\");\n        }\n        // Handle the payment\n        IERC20(raffleData.currency).safeTransferFrom(msg.sender, address(this), _numberOfTickets * raffleData.pricePerTicket);\n        // Assign the tickets to the buyer\n        uint256 initTicketId = raffleData.ticketsSold;\n        for (uint256 i; i < _numberOfTickets; ++i){\n            raffleTickets[_raffleId][raffleData.ticketsSold + i] = msg.sender;\n        }\n        raffles[_raffleId].ticketsSold += _numberOfTickets;  \n        emit NewRaffleTicketBought(_raffleId, msg.sender, _numberOfTickets, initTicketId, initTicketId + _numberOfTickets - 1);\n    }\n\n    /**\n     * @notice  Allows users to complete a Raffle. The winner of the raffle will receive the asset.\n                The owner of the raffle will receive his payment\n                Cron job will call daily all the pending raffles. Users can also call it\n     * @param   _raffleId The ID of the raffle the user wants to buy a ticket for\n     */\n    function completeRaffle(uint256 _raffleId) external whenNotPaused {\n        RaffleData memory raffleData = raffles[_raffleId];\n        require(raffleData.raffleOwner != address(0), \"This raffle does not exist\");\n        require(raffleData.raffleState == RaffleState.IN_PROGRESS, \"This raffle was already completed\");\n        if (raffleData.ticketsSold != raffleData.numberOfTickets){\n            require(block.timestamp >= raffleData.endTimestamp, \"Raffle is not completed\");\n        }\n        // In this case we must refund all the ticket buyers\n        if (raffleData.ticketsSold < raffleData.minimumTicketsSold){\n            // Send the asset back to the raffleOwner\n            if (raffleData.raffleType == RaffleType.ERC721){\n                emit MainnetCall(\n                    raffleData.raffleOwner,\n                    raffleData.assetContract,\n                    true,\n                    raffleData.nftIdOrAmount,\n                    0\n                );\n            }\n            if (raffleData.raffleType == RaffleType.ERC20){\n                emit MainnetCall(\n                    raffleData.raffleOwner,\n                    raffleData.assetContract,\n                    true,\n                    raffleData.nftIdOrAmount - raffleToFairRaffleFee[_raffleId],\n                    raffleToFairRaffleFee[_raffleId] // Take ownership of the FAIR_RAFFLE_FEE paid by the Raffle Owner\n                );\n            }\n            raffles[_raffleId].raffleState = RaffleState.REFUNDED;\n            emit RaffleStateChanged(_raffleId, RaffleState.IN_PROGRESS, RaffleState.REFUNDED);\n        }\n        // Normal flow\n        else {\n            // This will mark the raffle State as FINISHED. Can only be called once.\n            bytes32 request = _requestRandomness(_raffleId);\n            emit ChainlinkRequest(request);\n            chainlinkRequestToRaffleID[request] = _raffleId;\n        }\n    }\n\n    /**\n     * @notice  Allows users to claim the raffle. Owner of the raffle will receive the payment and the winner his asset\n     * @param   _raffleId The ID of the raffle the user wants to buy a ticket for\n     */\n    function claimRaffle(uint256 _raffleId) external nonReentrant whenNotPaused {\n        RaffleData storage raffleData = raffles[_raffleId];\n        require(raffleData.raffleOwner != address(0), \"This raffle does not exist\");\n        require(raffleData.raffleState == RaffleState.COMPLETED, \"This raffle was already completed\");\n\n        raffleData.raffleState = RaffleState.CLAIMED;\n        emit RaffleStateChanged(_raffleId, RaffleState.COMPLETED, RaffleState.CLAIMED);\n\n        address raffleOwner = raffleData.raffleOwner;\n        address winner = raffleData.raffleWinner;\n\n        // Sending the asset to the winner\n        if (raffleData.raffleType == RaffleType.ERC721){\n            emit MainnetCall(\n                winner,\n                raffleData.assetContract,\n                true,\n                raffleData.nftIdOrAmount,\n                0\n            );\n            // Give back to the Raffle Owner the FAIR_RAFFLE_FEE paid\n            emit MainnetCall(\n                raffleData.raffleOwner,\n                address(0),\n                false,\n                raffleToFairRaffleFee[_raffleId],\n                0\n            );\n        }\n        if (raffleData.raffleType == RaffleType.ERC20){\n            emit MainnetCall(\n                winner,\n                raffleData.assetContract,\n                false,\n                raffleData.nftIdOrAmount,\n                0\n            );\n        }\n\n        uint256 totalAmountEarned = raffleData.ticketsSold * raffleData.pricePerTicket;\n        uint256 fee = (totalAmountEarned * FEE_NUMERATOR) / FEE_DENOMINATOR;\n        totalAmountEarned -= fee;\n        address raffleCurrency = raffleData.currency;\n        totalAmountClaimable[raffleCurrency] += fee;\n\n        // Payments to the raffle owner\n        IERC20(raffleCurrency).safeTransfer(raffleOwner, totalAmountEarned);\n    }\n\n    /**\n     * @notice  Allows users to claim a cancelled raffle where they will receive their initially payment\n     * @param   _raffleId The ID of the raffle the user wants to buy a ticket for\n     * @param   ticketIds Array of ticketIds to claim\n     */\n    function claimCancelledRaffle(uint256 _raffleId, uint256[] calldata ticketIds) external nonReentrant whenNotPaused{\n        RaffleData memory raffleData = raffles[_raffleId];\n        require(raffleData.raffleState == RaffleState.REFUNDED, \"Raffle is not in REFUNDED state\");\n        uint256 len = ticketIds.length;\n        for(uint i; i < len; ++i){\n            require(raffleTickets[_raffleId][ticketIds[i]] == msg.sender, \"You do not own this ticket Id\");\n            raffleTickets[_raffleId][ticketIds[i]] = address(0);\n        }\n        uint256 totalRefund = len * raffleData.pricePerTicket;\n        IERC20(raffleData.currency).safeTransfer(msg.sender, totalRefund);\n    }\n\n    /** ############################################################################################\n     *              TICKET MARKETPLACE FUNCTIONS\n     *  ############################################################################################\n     */\n\n    /**\n     * @notice  Allows users to put their raffle tickets for sale\n     * @param   _raffleId raffleID\n     * @param   _ticketId ticketID\n     * @param   _currency Tickets will be bought with this ERC20 token. address(0) should be put here if the currency will be Matic\n     * @param   _price Price per ticket. It can be zero in case of an \"airdrop\"\n     */\n    function postSellOrder(uint256 _raffleId, uint256 _ticketId, address _currency, uint128 _price) external whenNotPaused {\n        require(msg.sender == raffleTickets[_raffleId][_ticketId], \"You do not own this ticket\");\n        require(whitelistedCurrencies[_currency], \"This currency is not whitelisted\");\n        require(raffles[_raffleId].raffleState == RaffleState.IN_PROGRESS, \"This raffle has already ended\");\n\n        Order storage orderData = ticketOrders[_raffleId][_ticketId];\n        orderData.owner = msg.sender;\n        orderData.currency = _currency;\n        orderData.price = _price;\n        emit TicketSellOrderCreated(msg.sender, _raffleId, _ticketId, _currency, _price);\n    }\n\n    /**\n     * @notice  Allows Order owners to cancel a current sell order\n     * @param   _raffleId raffleID\n     * @param   _ticketId ticketID\n     */\n    function cancelSellOrder(uint256 _raffleId, uint256 _ticketId) external whenNotPaused {\n        Order memory orderData = ticketOrders[_raffleId][_ticketId];\n        require(orderData.owner == msg.sender, \"You do not own this order\");\n\n        delete ticketOrders[_raffleId][_ticketId];\n        emit TicketSellOrderCancelled(msg.sender, _raffleId, _ticketId, orderData.currency, orderData.price);\n    }\n\n    /**\n     * @notice  Allows users to buy a raffle ticket\n     * @param   _raffleId raffleID\n     * @param   _ticketId ticketID\n     * @param   _buyer Address which the ticket will be assigned to\n     * @param   _price Price paid in the buy order. It should be the same as the price of the current sell order,\n     *          otherwise it will revert. Used to avoid a seller frontrunning a postBuyOrder() call with a\n     *          postSellOrder() call increasing the price\n     */\n    function postBuyOrder(uint256 _raffleId, uint256 _ticketId, address _buyer, uint256 _price) external payable nonReentrant whenNotPaused {\n        Order memory orderData = ticketOrders[_raffleId][_ticketId];\n        require(orderData.owner != address(0), \"This order does not exist\");\n        require(orderData.owner == raffleTickets[_raffleId][_ticketId], \"Ticket has a new owner\");\n        require(whitelistedCurrencies[orderData.currency], \"Currency is not whitelisted\");\n        require(raffles[_raffleId].raffleState == RaffleState.IN_PROGRESS, \"Raffle state must be IN_PROGRESS\");\n        \n        uint256 fee = (orderData.price * FEE_NUMERATOR) / FEE_DENOMINATOR;\n        uint256 payment = orderData.price - fee;\n        // Payment in Matic\n        if(orderData.currency == address(0)){\n            _price = msg.value;\n            require(_price == orderData.price, \"Matic payment too low\");\n            _handleNativeTransfer(orderData.owner, payment);\n            totalAmountClaimable[address(0)] += fee;\n        }\n        else{\n            require(_price == orderData.price, \"Wrong price set\");\n            IERC20(orderData.currency).safeTransferFrom(msg.sender, address(this), fee);\n            IERC20(orderData.currency).safeTransferFrom(msg.sender, orderData.owner, payment);\n            totalAmountClaimable[orderData.currency] += fee;\n        }\n        \n        delete ticketOrders[_raffleId][_ticketId];\n        raffleTickets[_raffleId][_ticketId] = _buyer;\n\n        emit TicketBoughtFromMarket(_buyer, orderData.owner, _raffleId, _ticketId, orderData.currency, orderData.price);\n    }\n\n    /**\n     * @notice  Allows users to buy a raffle ticket with a valid signature of the current NFT owner\n     * @param   _raffleId rafleId\n     * @param   _ticketId ticketId\n     * @param   _currency ERC20 used as payment\n     * @param   _price Price\n     * @param   _buyer Address which the ticket will be assigned to\n     * @param   _r Signature R\n     * @param   _s Signature S\n     * @param   _v Signature V\n     */\n    function buyTicketWithSignature(uint256 _raffleId, uint256 _ticketId, address _currency, uint128 _price, address _buyer, bytes32 _r, bytes32 _s, uint8 _v) external payable nonReentrant whenNotPaused {\n        address seller = raffleTickets[_raffleId][_ticketId];\n        require(seller != address(0), \"This ticket does not exist\");\n        require(whitelistedCurrencies[_currency], \"Currency is not whitelisted\");\n        require(raffles[_raffleId].raffleState == RaffleState.IN_PROGRESS, \"Raffle state must be IN_PROGRESS\");\n        \n        // Used to prevent stack too deep error\n        {\n            bytes32 domainSeparator = keccak256(abi.encode(DOMAIN_TYPEHASH, keccak256(bytes(name)), keccak256(bytes(version)), block.chainid, address(this)));\n            bytes32 structHash = keccak256(abi.encode(BALLOT_TYPEHASH, msg.sender, _raffleId, _ticketId, _currency, _price, nonce[seller]));\n            bytes32 digest = keccak256(abi.encodePacked(\"\\x19\\x01\", domainSeparator, structHash));\n            address signer = ecrecover(digest, _v, _r, _s);\n            require(signer == seller, \"Invalid signature\");\n        }\n        nonce[seller] += 1;\n\n        uint256 fee = (_price * FEE_NUMERATOR) / FEE_DENOMINATOR;\n        uint256 payment = _price - fee;\n        // Payment in Matic\n        if(_currency == address(0)){\n            require(msg.value == _price, \"Matic payment too low\");\n            _handleNativeTransfer(seller, payment);\n            totalAmountClaimable[address(0)] += fee;\n        }\n        else{\n            IERC20(_currency).safeTransferFrom(msg.sender, address(this), fee);\n            IERC20(_currency).safeTransferFrom(msg.sender, seller, payment);\n            totalAmountClaimable[_currency] += fee;\n        }\n\n        raffleTickets[_raffleId][_ticketId] = _buyer;\n        delete ticketOrders[_raffleId][_ticketId];\n        emit TicketBoughtFromMarketWithSignature(_buyer, seller, _raffleId, _ticketId, _currency, _price);\n    }\n\n    /** ############################################################################################\n     *              INTERNAL/PRIVATE FUNCTIONS\n     *  ############################################################################################\n     */\n\n    function _requestRandomness(uint256 _raffleId) internal returns (bytes32 requestId) {\n        require(LINK.balanceOf(address(this)) >= linkFee, \"Not enough LINK\");\n        RaffleData storage raffleData = raffles[_raffleId];\n        raffleData.raffleState = RaffleState.FINISHED;\n        emit RaffleStateChanged(_raffleId, RaffleState.IN_PROGRESS, RaffleState.FINISHED);\n        requestId = requestRandomness(linkKeyHash, linkFee);\n    }\n\n    function fulfillRandomness(bytes32 requestId, uint256 randomness) internal override {\n        uint256 raffleId = chainlinkRequestToRaffleID[requestId];\n        RaffleData storage raffleData = raffles[raffleId];\n        raffleData.raffleState = RaffleState.COMPLETED;\n        emit RaffleStateChanged(raffleId, RaffleState.FINISHED, RaffleState.COMPLETED);\n        // Picking up the winner\n        uint256 winningIndex = randomness % raffleData.ticketsSold;\n        raffleData.raffleWinner = raffleTickets[raffleId][winningIndex];\n    }\n\n    //TODO: REMOVE AFTER TESTING\n    function fulfillRandomnessTest(bytes32 requestId, uint256 randomness) external {\n        fulfillRandomness(requestId, randomness);\n    }\n\n    /**\n     *  Function to handle native transfers\n     */\n    function _handleNativeTransfer(address _dest, uint256 _amount) internal {\n        // Handle MATIC payment\n        require(address(this).balance >= _amount, \"_handleNativeTransfer insolvent\");\n        uint256 gas =  gasleft();\n        (bool success, ) = _dest.call{value: _amount, gas: gas}(\"\");\n        // If the MATIC transfer fails, wrap the MATIC and try to send it as WMATIC.\n        if (!success) {\n            WMATIC.deposit{value: _amount}();\n            IERC20(address(WMATIC)).safeTransfer(_dest, _amount);\n        }\n    }\n\n    /** ############################################################################################\n     *              ONLYOWNER FUNCTIONS\n     *  ############################################################################################\n     */\n\n    /**\n     * @notice  Used to set a new relayer address\n     */\n    function setRelayer(address _newRelayer) external onlyOwner {\n        relayer = _newRelayer;\n    }\n\n    /**\n     * @notice  Used to pause/unpause the smart contract by the owner\n     */\n    function togglePause() external onlyOwner {\n        if (!paused()) _pause();\n        else _unpause();\n    }\n\n    /**\n     * @notice  Used to whitelist/blacklist an ERC20 token to be used as a payment currency\n     */\n    function toggleCurrency(address _ERC20TokenAddress) external onlyOwner {\n        if (whitelistedCurrencies[_ERC20TokenAddress]){\n            whitelistedCurrencies[_ERC20TokenAddress] = false;\n            emit ERC20CurrencyRemoved(_ERC20TokenAddress);\n        }\n        else{\n            whitelistedCurrencies[_ERC20TokenAddress] = true;\n            emit ERC20CurrencyAdded(_ERC20TokenAddress);\n        }\n    }\n\n    /**\n     * @notice  Used by the contract owners to claim the fees accrued\n     * @param   _tokenAddress List of tokens to withdraw the fees\n     * @param   _amounts List of amounts that will be withdrawn\n     * @param   _receiver Address that will receive the fees\n     */\n    function withdrawFees(address[] calldata _tokenAddress, uint256[] calldata _amounts, address _receiver) external onlyOwner {\n        uint256 len = _tokenAddress.length;\n        require(len == _amounts.length, \"Array lengths do not match\");\n        uint256 amount;\n        address tokenAddress;\n        for (uint256 i; i < len; ++i) {\n            tokenAddress = _tokenAddress[i];\n            amount = _amounts[i];\n            require(amount <= totalAmountClaimable[tokenAddress], \"Amount too high\");\n            if(tokenAddress == address(0)){\n                _handleNativeTransfer(_receiver, amount);\n            }\n            else{\n                IERC20(tokenAddress).safeTransfer(_receiver, amount);\n            }\n            // No overflow here as => require(amount <= totalAmountClaimable[tokenAddress])\n            unchecked {\n                totalAmountClaimable[tokenAddress] -= amount;\n            }\n        }\n    }\n\n    /** ############################################################################################\n     *                 VIEW FUNCTIONS\n     *  ############################################################################################\n     */\n\n    function getRaffleDetails(uint256 _raffleId) external view returns(RaffleData memory) {\n        require(_raffleId <= raffleCounter, \"The raffle ID does not exist\");\n        return(raffles[_raffleId]);\n    }\n\n    function getRaffleState(uint256 _raffleId) external view returns(RaffleState) {\n        require(_raffleId <= raffleCounter, \"The raffle ID does not exist\");\n        return(raffles[_raffleId].raffleState);\n    }\n \n    function getRaffleTicketOwner(uint256 _raffleId, uint256 _ticketId) external view returns(address) {\n        address ticketOwner = raffleTickets[_raffleId][_ticketId];\n        require(ticketOwner != address(0), \"Ticket does not exist\");\n        return ticketOwner;\n    }\n\n    function isCurrencyWhitelisted(address _erc20Token) external view returns(bool) {\n        return whitelistedCurrencies[_erc20Token];\n    }\n}",
  "sourcePath": "contracts/RafflePolygon.sol",
  "type": "contract"
}