{
    "_format": "hh-sol-artifact-1",
    "contractName": "WeeklyLottery",
    "sourceName": "contracts/lotteries/WeeklyLottery.sol",
    "abi": [
        {
            "anonymous": false,
            "inputs": [
                {
                    "indexed": false,
                    "internalType": "bytes32",
                    "name": "requestId",
                    "type": "bytes32"
                }
            ],
            "name": "ChainlinkRequest",
            "type": "event"
        },
        {
            "anonymous": false,
            "inputs": [
                {
                    "indexed": false,
                    "internalType": "address",
                    "name": "currency",
                    "type": "address"
                }
            ],
            "name": "ERC20CurrencyAdded",
            "type": "event"
        },
        {
            "anonymous": false,
            "inputs": [
                {
                    "indexed": false,
                    "internalType": "address",
                    "name": "currency",
                    "type": "address"
                }
            ],
            "name": "ERC20CurrencyRemoved",
            "type": "event"
        },
        {
            "anonymous": false,
            "inputs": [
                {
                    "indexed": false,
                    "internalType": "uint8",
                    "name": "version",
                    "type": "uint8"
                }
            ],
            "name": "Initialized",
            "type": "event"
        },
        {
            "anonymous": false,
            "inputs": [
                {
                    "indexed": false,
                    "internalType": "uint256",
                    "name": "lotteryId",
                    "type": "uint256"
                },
                {
                    "indexed": false,
                    "internalType": "enum WeeklyLottery.LotteryState",
                    "name": "oldLotteryState",
                    "type": "uint8"
                },
                {
                    "indexed": false,
                    "internalType": "enum WeeklyLottery.LotteryState",
                    "name": "newLotteryState",
                    "type": "uint8"
                }
            ],
            "name": "LotteryStateChanged",
            "type": "event"
        },
        {
            "anonymous": false,
            "inputs": [
                {
                    "indexed": false,
                    "internalType": "uint256",
                    "name": "lotteryId",
                    "type": "uint256"
                }
            ],
            "name": "NewLotteryStarted",
            "type": "event"
        },
        {
            "anonymous": false,
            "inputs": [
                {
                    "indexed": true,
                    "internalType": "address",
                    "name": "previousOwner",
                    "type": "address"
                },
                {
                    "indexed": true,
                    "internalType": "address",
                    "name": "newOwner",
                    "type": "address"
                }
            ],
            "name": "OwnershipTransferred",
            "type": "event"
        },
        {
            "anonymous": false,
            "inputs": [
                {
                    "indexed": false,
                    "internalType": "address",
                    "name": "account",
                    "type": "address"
                }
            ],
            "name": "Paused",
            "type": "event"
        },
        {
            "anonymous": false,
            "inputs": [
                {
                    "indexed": false,
                    "internalType": "address",
                    "name": "oldPriceFeedAddress",
                    "type": "address"
                },
                {
                    "indexed": false,
                    "internalType": "address",
                    "name": "newPriceFeedAddress",
                    "type": "address"
                }
            ],
            "name": "PriceFeedUpdated",
            "type": "event"
        },
        {
            "anonymous": false,
            "inputs": [
                {
                    "indexed": false,
                    "internalType": "uint256",
                    "name": "oldFee",
                    "type": "uint256"
                },
                {
                    "indexed": false,
                    "internalType": "uint256",
                    "name": "newFee",
                    "type": "uint256"
                }
            ],
            "name": "ProtocolFeeUpdated",
            "type": "event"
        },
        {
            "anonymous": false,
            "inputs": [
                {
                    "indexed": false,
                    "internalType": "uint256",
                    "name": "lotteryId",
                    "type": "uint256"
                },
                {
                    "indexed": false,
                    "internalType": "uint256",
                    "name": "initTicketId",
                    "type": "uint256"
                },
                {
                    "indexed": false,
                    "internalType": "uint256",
                    "name": "endTicketId",
                    "type": "uint256"
                },
                {
                    "indexed": false,
                    "internalType": "address",
                    "name": "account",
                    "type": "address"
                }
            ],
            "name": "TicketAssigned",
            "type": "event"
        },
        {
            "anonymous": false,
            "inputs": [
                {
                    "indexed": false,
                    "internalType": "uint256",
                    "name": "lotteryId",
                    "type": "uint256"
                },
                {
                    "indexed": false,
                    "internalType": "address",
                    "name": "token",
                    "type": "address"
                },
                {
                    "indexed": false,
                    "internalType": "uint256",
                    "name": "amount",
                    "type": "uint256"
                }
            ],
            "name": "TokenAdded",
            "type": "event"
        },
        {
            "anonymous": false,
            "inputs": [
                {
                    "indexed": false,
                    "internalType": "address",
                    "name": "account",
                    "type": "address"
                }
            ],
            "name": "Unpaused",
            "type": "event"
        },
        {
            "inputs": [],
            "name": "FEE_DENOMINATOR",
            "outputs": [
                {
                    "internalType": "uint256",
                    "name": "",
                    "type": "uint256"
                }
            ],
            "stateMutability": "view",
            "type": "function"
        },
        {
            "inputs": [],
            "name": "FEE_NUMERATOR",
            "outputs": [
                {
                    "internalType": "uint256",
                    "name": "",
                    "type": "uint256"
                }
            ],
            "stateMutability": "view",
            "type": "function"
        },
        {
            "inputs": [],
            "name": "ONE_WEEK",
            "outputs": [
                {
                    "internalType": "uint256",
                    "name": "",
                    "type": "uint256"
                }
            ],
            "stateMutability": "view",
            "type": "function"
        },
        {
            "inputs": [],
            "name": "WETH",
            "outputs": [
                {
                    "internalType": "contract IWETH",
                    "name": "",
                    "type": "address"
                }
            ],
            "stateMutability": "view",
            "type": "function"
        },
        {
            "inputs": [
                {
                    "internalType": "address",
                    "name": "_token",
                    "type": "address"
                },
                {
                    "internalType": "uint256",
                    "name": "_amount",
                    "type": "uint256"
                }
            ],
            "name": "addToWeeklyPool",
            "outputs": [],
            "stateMutability": "payable",
            "type": "function"
        },
        {
            "inputs": [
                {
                    "internalType": "address[]",
                    "name": "_ERC20TokenAddresses",
                    "type": "address[]"
                }
            ],
            "name": "blacklistCurrencies",
            "outputs": [],
            "stateMutability": "nonpayable",
            "type": "function"
        },
        {
            "inputs": [
                {
                    "internalType": "uint256",
                    "name": "_lotteryWeek",
                    "type": "uint256"
                }
            ],
            "name": "claimLottery",
            "outputs": [],
            "stateMutability": "nonpayable",
            "type": "function"
        },
        {
            "inputs": [
                {
                    "internalType": "uint256",
                    "name": "_lotteryWeek",
                    "type": "uint256"
                },
                {
                    "internalType": "uint256",
                    "name": "_initialIndex",
                    "type": "uint256"
                },
                {
                    "internalType": "uint256",
                    "name": "_finalIndex",
                    "type": "uint256"
                }
            ],
            "name": "claimLotteryPartial",
            "outputs": [],
            "stateMutability": "nonpayable",
            "type": "function"
        },
        {
            "inputs": [],
            "name": "currencyPriceFeed",
            "outputs": [
                {
                    "internalType": "contract ICurrencyPriceFeed",
                    "name": "",
                    "type": "address"
                }
            ],
            "stateMutability": "view",
            "type": "function"
        },
        {
            "inputs": [],
            "name": "currentWeek",
            "outputs": [
                {
                    "internalType": "uint256",
                    "name": "",
                    "type": "uint256"
                }
            ],
            "stateMutability": "view",
            "type": "function"
        },
        {
            "inputs": [
                {
                    "internalType": "uint256",
                    "name": "_lotteryWeek",
                    "type": "uint256"
                }
            ],
            "name": "finishLottery",
            "outputs": [],
            "stateMutability": "nonpayable",
            "type": "function"
        },
        {
            "inputs": [
                {
                    "internalType": "uint256",
                    "name": "_lotteryWeek",
                    "type": "uint256"
                }
            ],
            "name": "haveIWon",
            "outputs": [
                {
                    "internalType": "bool",
                    "name": "",
                    "type": "bool"
                }
            ],
            "stateMutability": "view",
            "type": "function"
        },
        {
            "inputs": [
                {
                    "internalType": "address",
                    "name": "_priceFeedContract",
                    "type": "address"
                },
                {
                    "internalType": "bytes32",
                    "name": "_linkKeyHash",
                    "type": "bytes32"
                },
                {
                    "internalType": "uint256",
                    "name": "_linkFee",
                    "type": "uint256"
                },
                {
                    "internalType": "address",
                    "name": "_vrfCoordinator",
                    "type": "address"
                },
                {
                    "internalType": "address",
                    "name": "_vrfLinkTokenAddress",
                    "type": "address"
                }
            ],
            "name": "initialize",
            "outputs": [],
            "stateMutability": "nonpayable",
            "type": "function"
        },
        {
            "inputs": [
                {
                    "internalType": "address",
                    "name": "_erc20Token",
                    "type": "address"
                }
            ],
            "name": "isCurrencyWhitelisted",
            "outputs": [
                {
                    "internalType": "bool",
                    "name": "",
                    "type": "bool"
                }
            ],
            "stateMutability": "view",
            "type": "function"
        },
        {
            "inputs": [],
            "name": "linkFee",
            "outputs": [
                {
                    "internalType": "uint256",
                    "name": "",
                    "type": "uint256"
                }
            ],
            "stateMutability": "view",
            "type": "function"
        },
        {
            "inputs": [],
            "name": "linkKeyHash",
            "outputs": [
                {
                    "internalType": "bytes32",
                    "name": "",
                    "type": "bytes32"
                }
            ],
            "stateMutability": "view",
            "type": "function"
        },
        {
            "inputs": [
                {
                    "internalType": "uint256",
                    "name": "",
                    "type": "uint256"
                }
            ],
            "name": "lottery",
            "outputs": [
                {
                    "internalType": "uint128",
                    "name": "startTime",
                    "type": "uint128"
                },
                {
                    "internalType": "contract ERC20LotteryEscrow",
                    "name": "escrowContract",
                    "type": "address"
                },
                {
                    "internalType": "enum WeeklyLottery.LotteryState",
                    "name": "status",
                    "type": "uint8"
                },
                {
                    "internalType": "uint128",
                    "name": "totalTicketsSold",
                    "type": "uint128"
                }
            ],
            "stateMutability": "view",
            "type": "function"
        },
        {
            "inputs": [],
            "name": "owner",
            "outputs": [
                {
                    "internalType": "address",
                    "name": "",
                    "type": "address"
                }
            ],
            "stateMutability": "view",
            "type": "function"
        },
        {
            "inputs": [],
            "name": "paused",
            "outputs": [
                {
                    "internalType": "bool",
                    "name": "",
                    "type": "bool"
                }
            ],
            "stateMutability": "view",
            "type": "function"
        },
        {
            "inputs": [
                {
                    "internalType": "bytes32",
                    "name": "requestId",
                    "type": "bytes32"
                },
                {
                    "internalType": "uint256",
                    "name": "randomness",
                    "type": "uint256"
                }
            ],
            "name": "rawFulfillRandomness",
            "outputs": [],
            "stateMutability": "nonpayable",
            "type": "function"
        },
        {
            "inputs": [],
            "name": "renounceOwnership",
            "outputs": [],
            "stateMutability": "nonpayable",
            "type": "function"
        },
        {
            "inputs": [
                {
                    "internalType": "address",
                    "name": "_currencyPriceFeed",
                    "type": "address"
                }
            ],
            "name": "setPriceFeed",
            "outputs": [],
            "stateMutability": "nonpayable",
            "type": "function"
        },
        {
            "inputs": [
                {
                    "internalType": "uint256",
                    "name": "_newFeeNumerator",
                    "type": "uint256"
                }
            ],
            "name": "setProtocolFee",
            "outputs": [],
            "stateMutability": "nonpayable",
            "type": "function"
        },
        {
            "inputs": [],
            "name": "startLottery",
            "outputs": [],
            "stateMutability": "nonpayable",
            "type": "function"
        },
        {
            "inputs": [],
            "name": "togglePause",
            "outputs": [],
            "stateMutability": "nonpayable",
            "type": "function"
        },
        {
            "inputs": [
                {
                    "internalType": "address",
                    "name": "",
                    "type": "address"
                }
            ],
            "name": "totalAmountClaimable",
            "outputs": [
                {
                    "internalType": "uint256",
                    "name": "",
                    "type": "uint256"
                }
            ],
            "stateMutability": "view",
            "type": "function"
        },
        {
            "inputs": [
                {
                    "internalType": "address",
                    "name": "newOwner",
                    "type": "address"
                }
            ],
            "name": "transferOwnership",
            "outputs": [],
            "stateMutability": "nonpayable",
            "type": "function"
        },
        {
            "inputs": [
                {
                    "internalType": "uint256",
                    "name": "",
                    "type": "uint256"
                },
                {
                    "internalType": "address",
                    "name": "",
                    "type": "address"
                },
                {
                    "internalType": "uint256",
                    "name": "",
                    "type": "uint256"
                }
            ],
            "name": "userTickets",
            "outputs": [
                {
                    "internalType": "uint256",
                    "name": "initTicketNumber",
                    "type": "uint256"
                },
                {
                    "internalType": "uint256",
                    "name": "endTicketNumber",
                    "type": "uint256"
                }
            ],
            "stateMutability": "view",
            "type": "function"
        },
        {
            "inputs": [
                {
                    "internalType": "address[]",
                    "name": "_ERC20TokenAddresses",
                    "type": "address[]"
                }
            ],
            "name": "whitelistCurrencies",
            "outputs": [],
            "stateMutability": "nonpayable",
            "type": "function"
        },
        {
            "inputs": [
                {
                    "internalType": "address",
                    "name": "",
                    "type": "address"
                }
            ],
            "name": "whitelistedCurrencies",
            "outputs": [
                {
                    "internalType": "bool",
                    "name": "",
                    "type": "bool"
                }
            ],
            "stateMutability": "view",
            "type": "function"
        },
        {
            "inputs": [
                {
                    "internalType": "address[]",
                    "name": "_tokenAddress",
                    "type": "address[]"
                },
                {
                    "internalType": "uint256[]",
                    "name": "_amounts",
                    "type": "uint256[]"
                },
                {
                    "internalType": "address",
                    "name": "_receiver",
                    "type": "address"
                }
            ],
            "name": "withdrawFees",
            "outputs": [],
            "stateMutability": "nonpayable",
            "type": "function"
        },
        {
            "inputs": [
                {
                    "internalType": "uint256",
                    "name": "_lotteryWeek",
                    "type": "uint256"
                },
                {
                    "internalType": "address[]",
                    "name": "_tokens",
                    "type": "address[]"
                }
            ],
            "name": "withdrawUnclaimedEscrow",
            "outputs": [],
            "stateMutability": "nonpayable",
            "type": "function"
        }
    ],
    "bytecode": "0x608060405234801561001057600080fd5b5061480c806100206000396000f3fe6080604052600436106200020b5760003560e01c806382c7317d1162000117578063ada8b18b11620000a1578063c98c151f116200006c578063c98c151f146200066f578063c990c9961462000694578063d73792a914620006b9578063f2fde38b14620006d157600080fd5b8063ada8b18b14620005e0578063b858bb651462000605578063c228ceb01462000640578063c4ae3168146200065757600080fd5b8063955dea0f11620000e2578063955dea0f14620004ed578063a21afc761462000512578063a57d15601462000543578063ad5c464814620005b657600080fd5b806382c7317d14620004775780638da5cb5b146200048f5780638e6f6b7714620004af57806394985ddd14620004c857600080fd5b806343b938c51162000199578063715018a61162000164578063715018a614620003da578063724e78da14620003f2578063787dce3d14620004175780637b631da5146200043c57600080fd5b806343b938c5146200033957806346d59b9b14620003765780635aab62cd146200039b5780635c975abb14620003c057600080fd5b8063160344e211620001da578063160344e2146200029f57806331f91a8414620002b757806341cd47bf14620002dc578063436cc13814620002f457600080fd5b806301889611146200021057806303c868bb146200023b57806306575c8914620002625780630af5a263146200027a575b600080fd5b3480156200021d57600080fd5b506200022860cf5481565b6040519081526020015b60405180910390f35b3480156200024857600080fd5b50620002606200025a3660046200304f565b620006f6565b005b3480156200026f57600080fd5b506200022860cd5481565b3480156200028757600080fd5b50620002606200029936600462003086565b620009bd565b348015620002ac57600080fd5b506200026062000b2d565b348015620002c457600080fd5b5062000260620002d636600462003133565b62000df8565b348015620002e957600080fd5b506200022860d75481565b3480156200030157600080fd5b506200032862000313366004620031b1565b60d16020526000908152604090205460ff1681565b604051901515815260200162000232565b3480156200034657600080fd5b506200032862000358366004620031b1565b6001600160a01b0316600090815260d1602052604090205460ff1690565b3480156200038357600080fd5b5062000260620003953660046200304f565b62000f8c565b348015620003a857600080fd5b5062000328620003ba3660046200304f565b620012b1565b348015620003cd57600080fd5b5060655460ff1662000328565b348015620003e757600080fd5b50620002606200146a565b348015620003ff57600080fd5b506200026062000411366004620031b1565b62001482565b3480156200042457600080fd5b5062000260620004363660046200304f565b620014f5565b3480156200044957600080fd5b5060d0546200045e906001600160a01b031681565b6040516001600160a01b03909116815260200162000232565b3480156200048457600080fd5b506200022860ce5481565b3480156200049c57600080fd5b506033546001600160a01b03166200045e565b348015620004bc57600080fd5b506200022862093a8081565b348015620004d557600080fd5b5062000260620004e7366004620031d6565b6200158a565b348015620004fa57600080fd5b50620002606200050c366004620031f9565b620015f6565b3480156200051f57600080fd5b506200022862000531366004620031b1565b60d66020526000908152604090205481565b3480156200055057600080fd5b50620005a4620005623660046200304f565b60d3602052600090815260409020805460018201546002909201546001600160801b03918216926001600160a01b03811692600160a01b90910460ff16911684565b60405162000232949392919062003278565b348015620005c357600080fd5b506200045e73c02aaa39b223fe8d0a0e5c4f27ead9083c756cc281565b348015620005ed57600080fd5b5062000260620005ff366004620031f9565b62001783565b3480156200061257600080fd5b506200062a62000624366004620032ba565b6200190b565b6040805192835260208301919091520162000232565b6200026062000651366004620032f2565b62001956565b3480156200066457600080fd5b506200026062002001565b3480156200067c57600080fd5b50620002606200068e3660046200331f565b6200202a565b348015620006a157600080fd5b5062000260620006b33660046200336f565b62002167565b348015620006c657600080fd5b506200022860d85481565b348015620006de57600080fd5b5062000260620006f0366004620031b1565b620024b3565b6200070062002532565b600081815260d360209081526040808320815160808101835281546001600160801b0316815260018201546001600160a01b03811694820194909452929091830190600160a01b900460ff1660048111156200076057620007606200323f565b60048111156200077457620007746200323f565b8152600291909101546001600160801b03166020909101529050600381604001516004811115620007a957620007a96200323f565b14620007d25760405162461bcd60e51b8152600401620007c9906200339c565b60405180910390fd5b600082815260d5602090815260408083205460d28352818420338552909252822054909190815b81811015620008b657600086815260d2602090815260408083203384529091529020805485919083908110620008335762000833620033d3565b906000526020600020906002020160000154108015620008935750600086815260d26020908152604080832033845290915290208054859190839081106200087f576200087f620033d3565b906000526020600020906002020160010154115b15620008a35760019250620008b6565b620008ae81620033ff565b9050620007f9565b5081620009025760405162461bcd60e51b815260206004820152601960248201527814dbdc9c9e4b88165bdd481a185d995b89dd081ddbdb880ecf603a1b6044820152606401620007c9565b600085815260d360209081526040918290206001018054600160a21b60ff60a01b19909116179055850151905163f2fde38b60e01b81523360048201526001600160a01b039091169063f2fde38b90602401600060405180830381600087803b1580156200096f57600080fd5b505af115801562000984573d6000803e3d6000fd5b50505050600080516020620047b78339815191528560036004604051620009ae939291906200341b565b60405180910390a15050505050565b600054610100900460ff1615808015620009de5750600054600160ff909116105b80620009fa5750303b158015620009fa575060005460ff166001145b62000a5f5760405162461bcd60e51b815260206004820152602e60248201527f496e697469616c697a61626c653a20636f6e747261637420697320616c72656160448201526d191e481a5b9a5d1a585b1a5e995960921b6064820152608401620007c9565b6000805460ff19166001179055801562000a83576000805461ff0019166101001790555b62000a8d6200257a565b62000a97620025ae565b62000aa1620025e2565b62000aad838362002616565b60d080546001600160a01b0319166001600160a01b03881617905560ce85905560cf84905560fa60d75561271060d855801562000b25576000805461ff0019169055604051600181527f7f26b83ff96e1f2b6a682f133852f6798a09c465da95921460cefb3847402498906020015b60405180910390a15b505050505050565b62000b3762002532565b60cd54600090815260d3602052604090205462093a809062000b63906001600160801b03164262003440565b101562000bbd5760405162461bcd60e51b815260206004820152602160248201527f596f752063616e27742073746172742061206e6577206c6f74746572792079656044820152601d60fa1b6064820152608401620007c9565b60cd805490600062000bcf83620033ff565b9190505550600060cd5460405162000be79062003041565b908152602001604051809103906000f08015801562000c0a573d6000803e3d6000fd5b50604080516080810182526001600160801b03421681526001600160a01b0383166020820152919250810160018152606460209182015260cd54600090815260d38252604090819020835181546001600160801b03919091166001600160801b0319909116178155918301516001830180546001600160a01b039092166001600160a01b0319831681178255928501519290916001600160a81b03191617600160a01b83600481111562000cc25762000cc26200323f565b021790555060609190910151600291820180546001600160801b039092166001600160801b031990921691909117905560408051808201825260008082526063602080840191825260cd8054845260d282528584203385528252858420805460018181018355918652929094208551929097029096019081559051910155915490517f9e157affda43e17eef8b86763820bcb49bf2a976a0a0292b27fcbe249cc5f5559162000d749190815260200190565b60405180910390a1600080516020620047b783398151915260cd546000600160405162000da4939291906200341b565b60405180910390a160cd546040805191825260006020830152606382820152336060830152517f6c151a78e46a8ddddf62f6a0ca5ee0666b2a6b7c747dee7d5aa11501d008f7ad9181900360800190a15050565b62000e0262002673565b8382811462000e545760405162461bcd60e51b815260206004820152601a60248201527f4172726179206c656e6774687320646f206e6f74206d617463680000000000006044820152606401620007c9565b60008060005b8381101562000f815788888281811062000e785762000e78620033d3565b905060200201602081019062000e8f9190620031b1565b915086868281811062000ea65762000ea6620033d3565b90506020020135925060d66000836001600160a01b03166001600160a01b031681526020019081526020016000205483111562000f185760405162461bcd60e51b815260206004820152600f60248201526e082dadeeadce840e8dede40d0d2ced608b1b6044820152606401620007c9565b6001600160a01b03821662000f395762000f338584620026cf565b62000f4f565b62000f4f6001600160a01b038316868562002811565b6001600160a01b038216600090815260d6602052604090208054849003905562000f7981620033ff565b905062000e5a565b505050505050505050565b62000f9662002532565b600081815260d360209081526040808320815160808101835281546001600160801b0316815260018201546001600160a01b03811694820194909452929091830190600160a01b900460ff16600481111562000ff65762000ff66200323f565b60048111156200100a576200100a6200323f565b8152600291909101546001600160801b03908116602090920191909152815191925062093a80916200103e91164262003440565b10156200108e5760405162461bcd60e51b815260206004820152601c60248201527f4c6f747465727920686173206e6f742066696e697368656420796574000000006044820152606401620007c9565b600181604001516004811115620010a957620010a96200323f565b14620010f85760405162461bcd60e51b815260206004820152601a60248201527f4c6f7474657279206973206e6f7420494e5f50524f47524553530000000000006044820152606401620007c9565b600082815260d360209081526040808320600101805460ff60a01b1916600160a11b17905580518082019091526060840180516001600160801b03168252519091820190620011499060636200345a565b6001600160801b0316905260608301519091507f6c151a78e46a8ddddf62f6a0ca5ee0666b2a6b7c747dee7d5aa11501d008f7ad9084906200118d8160636200345a565b33604051620011a0949392919062003488565b60405180910390a1600083815260d26020908152604080832033845282528220805460018181018355918452928290208451600290940201928355908301519101556060820151620011f49060646200345a565b600084815260d36020526040812060020180546001600160801b0319166001600160801b0393909316929092179091556200122f846200287b565b90507f0830daf1b0e427c4692464a26bdcb77252bc16b9bab2254964095367edf6430f816040516200126391815260200190565b60405180910390a1600081815260d460205260409081902085905551600080516020620047b783398151915290620012a39086906001906002906200341b565b60405180910390a150505050565b600081815260d360209081526040808320815160808101835281546001600160801b0316815260018201546001600160a01b0381169482019490945284939092830190600160a01b900460ff1660048111156200131257620013126200323f565b60048111156200132657620013266200323f565b8152600291909101546001600160801b031660209091015290506003816040015160048111156200135b576200135b6200323f565b146200137b5760405162461bcd60e51b8152600401620007c9906200339c565b600083815260d5602090815260408083205460d28352818420338552909252822054909190815b818110156200145f57600087815260d2602090815260408083203384529091529020805485919083908110620013dc57620013dc620033d3565b9060005260206000209060020201600001541080156200143c5750600087815260d2602090815260408083203384529091529020805485919083908110620014285762001428620033d3565b906000526020600020906002020160010154115b156200144c57600192506200145f565b6200145781620033ff565b9050620013a2565b509095945050505050565b6200147462002673565b62001480600062002947565b565b6200148c62002673565b60d054604080516001600160a01b03928316815291831660208301527fa8abe0398416476db5b05737cd4da3b3cbde5012d978a6a6c3fd49d321753536910160405180910390a160d080546001600160a01b0319166001600160a01b0392909216919091179055565b620014ff62002673565b6127108110620015495760405162461bcd60e51b8152602060048201526014602482015273466565206d757374206265203c3d20313030202560601b6044820152606401620007c9565b60d75460408051918252602082018390527fb404cac19fb1cbeff98d325795b08886e3cd8fe8cb1a2f193aac66f13fb239c3910160405180910390a160d755565b60cb546001600160a01b03163314620015e65760405162461bcd60e51b815260206004820152601f60248201527f4f6e6c7920565246436f6f7264696e61746f722063616e2066756c66696c6c006044820152606401620007c9565b620015f2828262002999565b5050565b6200160062002673565b8060005b818110156200177d5760d16000858584818110620016265762001626620033d3565b90506020020160208101906200163d9190620031b1565b6001600160a01b0316815260208101919091526040016000205460ff16620016a85760405162461bcd60e51b815260206004820152601860248201527f546f6b656e206973206e6f742077686974656c697374656400000000000000006044820152606401620007c9565b600060d16000868685818110620016c357620016c3620033d3565b9050602002016020810190620016da9190620031b1565b6001600160a01b031681526020810191909152604001600020805460ff19169115159190911790557f0dc0548bc90523a9e943ea77d199875fdc1e4f8a419b6d53a595b5e6671480e5848483818110620017385762001738620033d3565b90506020020160208101906200174f9190620031b1565b6040516001600160a01b03909116815260200160405180910390a16200177581620033ff565b905062001604565b50505050565b6200178d62002673565b8060005b818110156200177d5760d16000858584818110620017b357620017b3620033d3565b9050602002016020810190620017ca9190620031b1565b6001600160a01b0316815260208101919091526040016000205460ff1615620018365760405162461bcd60e51b815260206004820152601c60248201527f546f6b656e20697320616c72656164792077686974656c6973746564000000006044820152606401620007c9565b600160d16000868685818110620018515762001851620033d3565b9050602002016020810190620018689190620031b1565b6001600160a01b031681526020810191909152604001600020805460ff19169115159190911790557f5c6cf68a9d7e416d0eee740661627dd794257920f1c63ddae6c6af81d02d12ea848483818110620018c657620018c6620033d3565b9050602002016020810190620018dd9190620031b1565b6040516001600160a01b03909116815260200160405180910390a16200190381620033ff565b905062001791565b60d260205282600052604060002060205281600052604060002081815481106200193457600080fd5b6000918252602090912060029091020180546001909101549093509150839050565b6200196062002ac2565b6200196a62002532565b60cd54600090815260d360209081526040808320815160808101835281546001600160801b0316815260018201546001600160a01b03811694820194909452929091830190600160a01b900460ff166004811115620019cd57620019cd6200323f565b6004811115620019e157620019e16200323f565b8152600291909101546001600160801b03908116602090920191909152815191925062093a809162001a1591164262003440565b1062001a5b5760405162461bcd60e51b8152602060048201526014602482015273131bdd1d195c9e481a185cc8199a5b9a5cda195960621b6044820152606401620007c9565b60018160400151600481111562001a765762001a766200323f565b1462001abc5760405162461bcd60e51b8152602060048201526014602482015273131bdd1d195c9e481a185cc8199a5b9a5cda195960621b6044820152606401620007c9565b6001600160a01b038316600090815260d1602052604090205460ff1662001b265760405162461bcd60e51b815260206004820152601d60248201527f5468697320746f6b656e206973206e6f742077686974656c69737465640000006044820152606401620007c9565b60006001600160a01b03841662001c635734925073c02aaa39b223fe8d0a0e5c4f27ead9083c756cc26001600160a01b031663313ce5676040518163ffffffff1660e01b8152600401602060405180830381865afa15801562001b8d573d6000803e3d6000fd5b505050506040513d601f19601f8201168201806040525081019062001bb39190620034b6565b62001bc090600a620035d8565b60d05460405163a4b943fb60e01b815273c02aaa39b223fe8d0a0e5c4f27ead9083c756cc2600482015285916001600160a01b03169063a4b943fb90602401602060405180830381865afa15801562001c1d573d6000803e3d6000fd5b505050506040513d601f19601f8201168201806040525081019062001c439190620035e9565b62001c4f919062003603565b62001c5b91906200363b565b905062001d78565b62001c7a6001600160a01b03851633308662002b1d565b836001600160a01b031663313ce5676040518163ffffffff1660e01b8152600401602060405180830381865afa15801562001cb9573d6000803e3d6000fd5b505050506040513d601f19601f8201168201806040525081019062001cdf9190620034b6565b62001cec90600a620035d8565b60d05460405163a4b943fb60e01b81526001600160a01b0387811660048301528692169063a4b943fb90602401602060405180830381865afa15801562001d37573d6000803e3d6000fd5b505050506040513d601f19601f8201168201806040525081019062001d5d9190620035e9565b62001d69919062003603565b62001d7591906200363b565b90505b600060d85460d7548562001d8d919062003603565b62001d9991906200363b565b6001600160a01b038616600090815260d6602052604081208054929350839290919062001dc890849062003652565b909155505060cd54600090815260d3602052604090206001015462001e0e906001600160a01b031662001dfc838762003440565b6001600160a01b038816919062002811565b600062001e206305f5e100846200366d565b90506001816001600160801b0316101562001e735760405162461bcd60e51b81526020600482015260126024820152715f616d6f756e7420697320746f6f206c6f7760701b6044820152606401620007c9565b6000604051806040016040528086606001516001600160801b03168152602001600184886060015162001ea791906200345a565b62001eb3919062003696565b6001600160801b0316905260cd5460608701519192507f6c151a78e46a8ddddf62f6a0ca5ee0666b2a6b7c747dee7d5aa11501d008f7ad91600162001ef986836200345a565b62001f05919062003696565b3360405162001f18949392919062003488565b60405180910390a160cd54600090815260d2602090815260408083203384528252822080546001818101835591845292829020845160029094020192835590830151910155606085015162001f6f9083906200345a565b60cd8054600090815260d3602090815260409182902060020180546001600160801b0319166001600160801b039590951694909417909355905481519081526001600160a01b038a169281019290925281018790527f8eebdda427f4613147238037e21b19a9094003ef7d1ca1185ac0ebf8d5c18bd19060600160405180910390a15050505050620015f26001609755565b6200200b62002673565b60655460ff1662002020576200148062002b5e565b6200148062002bbb565b6200203462002673565b600083815260d36020526040808220600101549051635d801f6b60e11b81526001600160a01b039091169063bb003ed690620020779086908690600401620036c1565b6000604051808303816000875af115801562002097573d6000803e3d6000fd5b505050506040513d6000823e601f3d908101601f19168201604052620020c1919081019062003727565b90508160005b8181101562000b2557828181518110620020e557620020e5620033d3565b602002602001015160d66000878785818110620021065762002106620033d3565b90506020020160208101906200211d9190620031b1565b6001600160a01b03166001600160a01b0316815260200190815260200160002060008282546200214e919062003652565b909155506200215f905081620033ff565b9050620020c7565b6200217162002532565b600083815260d360209081526040808320815160808101835281546001600160801b0316815260018201546001600160a01b03811694820194909452929091830190600160a01b900460ff166004811115620021d157620021d16200323f565b6004811115620021e557620021e56200323f565b8152600291909101546001600160801b031660209091015290506003816040015160048111156200221a576200221a6200323f565b146200223a5760405162461bcd60e51b8152600401620007c9906200339c565b818311156200228c5760405162461bcd60e51b815260206004820152601b60248201527f5f696e697469616c496e646578203e205f66696e616c496e64657800000000006044820152606401620007c9565b600084815260d2602090815260408083203384529091529020548210620022ed5760405162461bcd60e51b81526020600482015260146024820152730beccd2dcc2d892dcc8caf040e8dede40d0d2ced60631b6044820152606401620007c9565b600084815260d5602052604081205490845b848111620023bb57600087815260d2602090815260408083203384529091529020805484919083908110620023385762002338620033d3565b906000526020600020906002020160000154108015620023985750600087815260d2602090815260408083203384529091529020805484919083908110620023845762002384620033d3565b906000526020600020906002020160010154115b15620023a85760019150620023bb565b620023b381620033ff565b9050620022ff565b5080620024075760405162461bcd60e51b815260206004820152601960248201527814dbdc9c9e4b88165bdd481a185d995b89dd081ddbdb880ecf603a1b6044820152606401620007c9565b600086815260d360209081526040918290206001018054600160a21b60ff60a01b19909116179055840151905163f2fde38b60e01b81523360048201526001600160a01b039091169063f2fde38b90602401600060405180830381600087803b1580156200247457600080fd5b505af115801562002489573d6000803e3d6000fd5b50505050600080516020620047b7833981519152866003600460405162000b1c939291906200341b565b620024bd62002673565b6001600160a01b038116620025245760405162461bcd60e51b815260206004820152602660248201527f4f776e61626c653a206e6577206f776e657220697320746865207a65726f206160448201526564647265737360d01b6064820152608401620007c9565b6200252f8162002947565b50565b60655460ff1615620014805760405162461bcd60e51b815260206004820152601060248201526f14185d5cd8589b194e881c185d5cd95960821b6044820152606401620007c9565b600054610100900460ff16620025a45760405162461bcd60e51b8152600401620007c990620037f1565b6200148062002bf7565b600054610100900460ff16620025d85760405162461bcd60e51b8152600401620007c990620037f1565b6200148062002c2c565b600054610100900460ff166200260c5760405162461bcd60e51b8152600401620007c990620037f1565b6200148062002c62565b600054610100900460ff16620026405760405162461bcd60e51b8152600401620007c990620037f1565b60cb80546001600160a01b039384166001600160a01b03199182161790915560ca8054929093169116179055600060c955565b6033546001600160a01b03163314620014805760405162461bcd60e51b815260206004820181905260248201527f4f776e61626c653a2063616c6c6572206973206e6f7420746865206f776e65726044820152606401620007c9565b80471015620027215760405162461bcd60e51b815260206004820152601f60248201527f5f68616e646c654e61746976655472616e7366657220696e736f6c76656e74006044820152606401620007c9565b60005a90506000836001600160a01b0316838390604051600060405180830381858888f193505050503d806000811462002778576040519150601f19603f3d011682016040523d82523d6000602084013e6200277d565b606091505b50509050806200177d5773c02aaa39b223fe8d0a0e5c4f27ead9083c756cc26001600160a01b031663d0e30db0846040518263ffffffff1660e01b81526004016000604051808303818588803b158015620027d757600080fd5b505af1158015620027ec573d6000803e3d6000fd5b506200177d935073c02aaa39b223fe8d0a0e5c4f27ead9083c756cc292508791508690505b6040516001600160a01b0383166024820152604481018290526200287690849063a9059cbb60e01b906064015b60408051601f198184030181529190526020810180516001600160e01b03166001600160e01b03199093169290921790915262002c8c565b505050565b60cf5460ca546040516370a0823160e01b8152306004820152600092916001600160a01b0316906370a0823190602401602060405180830381865afa158015620028c9573d6000803e3d6000fd5b505050506040513d601f19601f82011682018060405250810190620028ef9190620035e9565b1015620029315760405162461bcd60e51b815260206004820152600f60248201526e4e6f7420656e6f756768204c494e4b60881b6044820152606401620007c9565b6200294160ce5460cf5462002d65565b92915050565b603380546001600160a01b038381166001600160a01b0319831681179093556040519116919082907f8be0079c531659141344cd1fd0a4f28419497f9722a3daafe3b4186f6b6457e090600090a35050565b600082815260d4602090815260408083205480845260d38352818420825160808101845281546001600160801b0316815260018201546001600160a01b038116958201959095529194939192909190830190600160a01b900460ff16600481111562002a095762002a096200323f565b600481111562002a1d5762002a1d6200323f565b8152600291909101546001600160801b0316602091820152600084815260d390915260409020600101805491925060039160ff60a01b1916600160a01b830217905550600181606001516001600160801b03168462002a7d91906200383c565b62002a89919062003440565b600083815260d56020526040908190209190915551600080516020620047b783398151915290620012a39084906002906003906200341b565b60026097540362002b165760405162461bcd60e51b815260206004820152601f60248201527f5265656e7472616e637947756172643a207265656e7472616e742063616c6c006044820152606401620007c9565b6002609755565b6040516001600160a01b03808516602483015283166044820152606481018290526200177d9085906323b872dd60e01b906084016200283e565b6001609755565b62002b6862002532565b6065805460ff191660011790557f62e78cea01bee320cd4e420270b5ea74000d11b0c9f74754ebdbfc544b05a25862002b9e3390565b6040516001600160a01b03909116815260200160405180910390a1565b62002bc562002ec3565b6065805460ff191690557f5db9ee0a495bf2e6ff9c91a7834c1ba4fdd244a5e8aa4e537bd38aeae4b073aa3362002b9e565b600054610100900460ff1662002c215760405162461bcd60e51b8152600401620007c990620037f1565b620014803362002947565b600054610100900460ff1662002c565760405162461bcd60e51b8152600401620007c990620037f1565b6065805460ff19169055565b600054610100900460ff1662002b575760405162461bcd60e51b8152600401620007c990620037f1565b600062002ce3826040518060400160405280602081526020017f5361666545524332303a206c6f772d6c6576656c2063616c6c206661696c6564815250856001600160a01b031662002f0e9092919063ffffffff16565b80519091501562002876578080602001905181019062002d04919062003853565b620028765760405162461bcd60e51b815260206004820152602a60248201527f5361666545524332303a204552433230206f7065726174696f6e20646964206e6044820152691bdd081cdd58d8d9595960b21b6064820152608401620007c9565b60ca5460cb5460c9546040516000936001600160a01b0390811693634000aea093911691869162002da491899190602001918252602082015260400190565b6040516020818303038152906040526040518463ffffffff1660e01b815260040162002dd393929190620038d4565b6020604051808303816000875af115801562002df3573d6000803e3d6000fd5b505050506040513d601f19601f8201168201806040525081019062002e19919062003853565b5060c954600084815260cc602081815260408084205481518084018a90528083019690965230606087015260808087018290528251808803909101815260a090960190915284519482019490942092879052529062002e7a90600162003652565b600085815260cc602052604090205562002ebb8482604080516020808201949094528082019290925280518083038201815260609092019052805191012090565b949350505050565b60655460ff16620014805760405162461bcd60e51b815260206004820152601460248201527314185d5cd8589b194e881b9bdd081c185d5cd95960621b6044820152606401620007c9565b606062002ebb848460008585600080866001600160a01b0316858760405162002f38919062003906565b60006040518083038185875af1925050503d806000811462002f77576040519150601f19603f3d011682016040523d82523d6000602084013e62002f7c565b606091505b509150915062002f8f8783838762002f9a565b979650505050505050565b606083156200300e57825160000362003006576001600160a01b0385163b620030065760405162461bcd60e51b815260206004820152601d60248201527f416464726573733a2063616c6c20746f206e6f6e2d636f6e74726163740000006044820152606401620007c9565b508162002ebb565b62002ebb8383815115620030255781518083602001fd5b8060405162461bcd60e51b8152600401620007c9919062003924565b610e7d806200393a83390190565b6000602082840312156200306257600080fd5b5035919050565b80356001600160a01b03811681146200308157600080fd5b919050565b600080600080600060a086880312156200309f57600080fd5b620030aa8662003069565b94506020860135935060408601359250620030c86060870162003069565b9150620030d86080870162003069565b90509295509295909350565b60008083601f840112620030f757600080fd5b50813567ffffffffffffffff8111156200311057600080fd5b6020830191508360208260051b85010111156200312c57600080fd5b9250929050565b6000806000806000606086880312156200314c57600080fd5b853567ffffffffffffffff808211156200316557600080fd5b6200317389838a01620030e4565b909750955060208801359150808211156200318d57600080fd5b506200319c88828901620030e4565b9094509250620030d890506040870162003069565b600060208284031215620031c457600080fd5b620031cf8262003069565b9392505050565b60008060408385031215620031ea57600080fd5b50508035926020909101359150565b600080602083850312156200320d57600080fd5b823567ffffffffffffffff8111156200322557600080fd5b6200323385828601620030e4565b90969095509350505050565b634e487b7160e01b600052602160045260246000fd5b600581106200327457634e487b7160e01b600052602160045260246000fd5b9052565b6001600160801b0385811682526001600160a01b03851660208301526080820190620032a8604084018662003255565b80841660608401525095945050505050565b600080600060608486031215620032d057600080fd5b83359250620032e26020850162003069565b9150604084013590509250925092565b600080604083850312156200330657600080fd5b620033118362003069565b946020939093013593505050565b6000806000604084860312156200333557600080fd5b83359250602084013567ffffffffffffffff8111156200335457600080fd5b6200336286828701620030e4565b9497909650939450505050565b6000806000606084860312156200338557600080fd5b505081359360208301359350604090920135919050565b60208082526018908201527f4c6f7474657279206973206e6f7420434f4d504c455445440000000000000000604082015260600190565b634e487b7160e01b600052603260045260246000fd5b634e487b7160e01b600052601160045260246000fd5b600060018201620034145762003414620033e9565b5060010190565b8381526060810162003431602083018562003255565b62002ebb604083018462003255565b600082821015620034555762003455620033e9565b500390565b60006001600160801b038083168185168083038211156200347f576200347f620033e9565b01949350505050565b9384526001600160801b039283166020850152911660408301526001600160a01b0316606082015260800190565b600060208284031215620034c957600080fd5b815160ff81168114620031cf57600080fd5b600181815b808511156200351c578160001904821115620035005762003500620033e9565b808516156200350e57918102915b93841c9390800290620034e0565b509250929050565b600082620035355750600162002941565b81620035445750600062002941565b81600181146200355d5760028114620035685762003588565b600191505062002941565b60ff8411156200357c576200357c620033e9565b50506001821b62002941565b5060208310610133831016604e8410600b8410161715620035ad575081810a62002941565b620035b98383620034db565b8060001904821115620035d057620035d0620033e9565b029392505050565b6000620031cf60ff84168362003524565b600060208284031215620035fc57600080fd5b5051919050565b6000816000190483118215151615620036205762003620620033e9565b500290565b634e487b7160e01b600052601260045260246000fd5b6000826200364d576200364d62003625565b500490565b60008219821115620036685762003668620033e9565b500190565b60006001600160801b03808416806200368a576200368a62003625565b92169190910492915050565b60006001600160801b0383811690831681811015620036b957620036b9620033e9565b039392505050565b60208082528181018390526000908460408401835b8681101562003706576001600160a01b03620036f28462003069565b1682529183019190830190600101620036d6565b509695505050505050565b634e487b7160e01b600052604160045260246000fd5b600060208083850312156200373b57600080fd5b825167ffffffffffffffff808211156200375457600080fd5b818501915085601f8301126200376957600080fd5b8151818111156200377e576200377e62003711565b8060051b604051601f19603f83011681018181108582111715620037a657620037a662003711565b604052918252848201925083810185019188831115620037c557600080fd5b938501935b82851015620037e557845184529385019392850192620037ca565b98975050505050505050565b6020808252602b908201527f496e697469616c697a61626c653a20636f6e7472616374206973206e6f74206960408201526a6e697469616c697a696e6760a81b606082015260800190565b6000826200384e576200384e62003625565b500690565b6000602082840312156200386657600080fd5b81518015158114620031cf57600080fd5b60005b83811015620038945781810151838201526020016200387a565b838111156200177d5750506000910152565b60008151808452620038c081602086016020860162003877565b601f01601f19169290920160200192915050565b60018060a01b0384168152826020820152606060408201526000620038fd6060830184620038a6565b95945050505050565b600082516200391a81846020870162003877565b9190910192915050565b602081526000620031cf6020830184620038a656fe608060405234801561001057600080fd5b50604051610e7d380380610e7d83398101604081905261002f916100a6565b61003833610056565b42600155600255600380546001600160a01b031916331790556100bf565b600080546001600160a01b038381166001600160a01b0319831681178455604051919092169283917f8be0079c531659141344cd1fd0a4f28419497f9722a3daafe3b4186f6b6457e09190a35050565b6000602082840312156100b857600080fd5b5051919050565b610daf806100ce6000396000f3fe6080604052600436106100845760003560e01c8063bb003ed611610056578063bb003ed614610122578063bd5dec981461014f578063bfc12c051461016f578063e580f47b14610185578063f2fde38b1461019b57005b806329ba7bb21461008d578063715018a6146100ca5780638da5cb5b146100df5780638e6f6b77146100fd57005b3661008b57005b005b34801561009957600080fd5b506003546100ad906001600160a01b031681565b6040516001600160a01b0390911681526020015b60405180910390f35b3480156100d657600080fd5b5061008b6101bb565b3480156100eb57600080fd5b506000546001600160a01b03166100ad565b34801561010957600080fd5b5061011462093a8081565b6040519081526020016100c1565b34801561012e57600080fd5b5061014261013d366004610b15565b6101cf565b6040516100c19190610b8a565b34801561015b57600080fd5b5061008b61016a366004610b15565b6104a5565b34801561017b57600080fd5b5061011460015481565b34801561019157600080fd5b5061011460025481565b3480156101a757600080fd5b5061008b6101b6366004610bea565b610739565b6101c36107b2565b6101cd600061080c565b565b606060015462e6b6806101e29190610c22565b421161022a5760405162461bcd60e51b815260206004820152601260248201527110d85b89dd081dda5d1a191c985dc81e595d60721b60448201526064015b60405180910390fd5b6003546001600160a01b031633146102845760405162461bcd60e51b815260206004820152601e60248201527f4f6e6c7920696e697469616c4f776e65722063616e20776974686472617700006044820152606401610221565b6000805b838110156104605760008585838181106102a4576102a4610c3a565b90506020020160208101906102b99190610bea565b6001600160a01b031603610363576040514792506000908190339085908381818185875af1925050503d806000811461030e576040519150601f19603f3d011682016040523d82523d6000602084013e610313565b606091505b50915091508161035c5760405162461bcd60e51b81526020600482015260146024820152732330b4b632b2103a379039b2b7321022ba3432b960611b6044820152606401610221565b5050610432565b84848281811061037557610375610c3a565b905060200201602081019061038a9190610bea565b6040516370a0823160e01b81523060048201526001600160a01b0391909116906370a0823190602401602060405180830381865afa1580156103d0573d6000803e3d6000fd5b505050506040513d601f19601f820116820180604052508101906103f49190610c50565b9150610432338387878581811061040d5761040d610c3a565b90506020020160208101906104229190610bea565b6001600160a01b0316919061085c565b8183828151811061044557610445610c3a565b602090810291909101015261045981610c69565b9050610288565b507f2d6d4142939d924a17cd13da753bec758fbcdcc4daf62e125b51e8bc47975bc6600254858560405161049693929190610c82565b60405180910390a15092915050565b6104ad6107b2565b6003546001600160a01b031633036105075760405162461bcd60e51b815260206004820152601e60248201527f496e697469616c206f776e65722063616e206e6f7420776974686472617700006044820152606401610221565b62093a806001546105189190610c22565b421161055d5760405162461bcd60e51b815260206004820152601460248201527310d85b881b9bdd081dda5d1a191c985dc81e595d60621b6044820152606401610221565b6000805b828110156106f657600084848381811061057d5761057d610c3a565b90506020020160208101906105929190610bea565b6001600160a01b03160361063c576040514792506000908190339085908381818185875af1925050503d80600081146105e7576040519150601f19603f3d011682016040523d82523d6000602084013e6105ec565b606091505b5091509150816106355760405162461bcd60e51b81526020600482015260146024820152732330b4b632b2103a379039b2b7321022ba3432b960611b6044820152606401610221565b50506106e6565b83838281811061064e5761064e610c3a565b90506020020160208101906106639190610bea565b6040516370a0823160e01b81523060048201526001600160a01b0391909116906370a0823190602401602060405180830381865afa1580156106a9573d6000803e3d6000fd5b505050506040513d601f19601f820116820180604052508101906106cd9190610c50565b91506106e6338386868581811061040d5761040d610c3a565b6106ef81610c69565b9050610561565b507fb6b7c5cf177785a7c4052accaf31eee1b1cdb49aab2cc3d39ef480242041a5f5600254848460405161072c93929190610c82565b60405180910390a1505050565b6107416107b2565b6001600160a01b0381166107a65760405162461bcd60e51b815260206004820152602660248201527f4f776e61626c653a206e6577206f776e657220697320746865207a65726f206160448201526564647265737360d01b6064820152608401610221565b6107af8161080c565b50565b6000546001600160a01b031633146101cd5760405162461bcd60e51b815260206004820181905260248201527f4f776e61626c653a2063616c6c6572206973206e6f7420746865206f776e65726044820152606401610221565b600080546001600160a01b038381166001600160a01b0319831681178455604051919092169283917f8be0079c531659141344cd1fd0a4f28419497f9722a3daafe3b4186f6b6457e09190a35050565b604080516001600160a01b038416602482015260448082018490528251808303909101815260649091019091526020810180516001600160e01b031663a9059cbb60e01b1790526108ae9084906108b3565b505050565b6000610908826040518060400160405280602081526020017f5361666545524332303a206c6f772d6c6576656c2063616c6c206661696c6564815250856001600160a01b03166109859092919063ffffffff16565b8051909150156108ae57808060200190518101906109269190610cd8565b6108ae5760405162461bcd60e51b815260206004820152602a60248201527f5361666545524332303a204552433230206f7065726174696f6e20646964206e6044820152691bdd081cdd58d8d9595960b21b6064820152608401610221565b6060610994848460008561099c565b949350505050565b6060824710156109fd5760405162461bcd60e51b815260206004820152602660248201527f416464726573733a20696e73756666696369656e742062616c616e636520666f6044820152651c8818d85b1b60d21b6064820152608401610221565b600080866001600160a01b03168587604051610a199190610d2a565b60006040518083038185875af1925050503d8060008114610a56576040519150601f19603f3d011682016040523d82523d6000602084013e610a5b565b606091505b5091509150610a6c87838387610a77565b979650505050505050565b60608315610ae6578251600003610adf576001600160a01b0385163b610adf5760405162461bcd60e51b815260206004820152601d60248201527f416464726573733a2063616c6c20746f206e6f6e2d636f6e74726163740000006044820152606401610221565b5081610994565b6109948383815115610afb5781518083602001fd5b8060405162461bcd60e51b81526004016102219190610d46565b60008060208385031215610b2857600080fd5b823567ffffffffffffffff80821115610b4057600080fd5b818501915085601f830112610b5457600080fd5b813581811115610b6357600080fd5b8660208260051b8501011115610b7857600080fd5b60209290920196919550909350505050565b6020808252825182820181905260009190848201906040850190845b81811015610bc257835183529284019291840191600101610ba6565b50909695505050505050565b80356001600160a01b0381168114610be557600080fd5b919050565b600060208284031215610bfc57600080fd5b610c0582610bce565b9392505050565b634e487b7160e01b600052601160045260246000fd5b60008219821115610c3557610c35610c0c565b500190565b634e487b7160e01b600052603260045260246000fd5b600060208284031215610c6257600080fd5b5051919050565b600060018201610c7b57610c7b610c0c565b5060010190565b83815260406020808301829052908201839052600090849060608401835b86811015610ccc576001600160a01b03610cb985610bce565b1682529282019290820190600101610ca0565b50979650505050505050565b600060208284031215610cea57600080fd5b81518015158114610c0557600080fd5b60005b83811015610d15578181015183820152602001610cfd565b83811115610d24576000848401525b50505050565b60008251610d3c818460208701610cfa565b9190910192915050565b6020815260008251806020840152610d65816040850160208701610cfa565b601f01601f1916919091016040019291505056fea26469706673582212205b190ca706b21b959b39d817978ea5e306a7f854f9bebcae90f64b0ff16dd7c164736f6c634300080f003371f55da32963d1b27ad2ab3f0a82e4f4cecdad382f8a437a1d11c0e0050aff2aa264697066735822122036f36462974a8f5b149f128ec654d90e514684ab2a9c5baab7a67ccd34d012f364736f6c634300080f0033",
    "linkReferences": {},
    "deployedLinkReferences": {}
}